{"contracts/MEVDetector.sol":{"MEVDetector":{"abi":[{"inputs":[],"stateMutability":"nonpayable","type":"constructor"},{"inputs":[],"name":"CalldataMustHaveValidPayload","type":"error"},{"inputs":[],"name":"CalldataOverOrUnderFlow","type":"error"},{"inputs":[],"name":"CanNotPickMedianOfEmptyArray","type":"error"},{"inputs":[],"name":"DataPackageTimestampMustNotBeZero","type":"error"},{"inputs":[],"name":"DataPackageTimestampsMustBeEqual","type":"error"},{"inputs":[],"name":"DataTimestampCannotBeZero","type":"error"},{"inputs":[],"name":"EachSignerMustProvideTheSameValue","type":"error"},{"inputs":[],"name":"EmptyCalldataPointersArr","type":"error"},{"inputs":[],"name":"GetDataServiceIdNotImplemented","type":"error"},{"inputs":[],"name":"IncorrectUnsignedMetadataSize","type":"error"},{"inputs":[{"internalType":"uint256","name":"receivedSignersCount","type":"uint256"},{"internalType":"uint256","name":"requiredSignersCount","type":"uint256"}],"name":"InsufficientNumberOfUniqueSigners","type":"error"},{"inputs":[],"name":"InvalidCalldataPointer","type":"error"},{"inputs":[{"internalType":"bytes32","name":"signedHash","type":"bytes32"}],"name":"InvalidSignature","type":"error"},{"inputs":[],"name":"RedstonePayloadMustHaveAtLeastOneDataPackage","type":"error"},{"inputs":[{"internalType":"address","name":"receivedSigner","type":"address"}],"name":"SignerNotAuthorised","type":"error"},{"inputs":[{"internalType":"uint256","name":"receivedTimestampSeconds","type":"uint256"},{"internalType":"uint256","name":"blockTimestamp","type":"uint256"}],"name":"TimestampFromTooLongFuture","type":"error"},{"inputs":[{"internalType":"uint256","name":"receivedTimestampSeconds","type":"uint256"},{"internalType":"uint256","name":"blockTimestamp","type":"uint256"}],"name":"TimestampIsTooOld","type":"error"},{"inputs":[],"name":"TimestampsMustBeEqual","type":"error"},{"inputs":[{"internalType":"uint256","name":"valueByteSize","type":"uint256"}],"name":"TooLargeValueByteSize","type":"error"},{"anonymous":false,"inputs":[{"indexed":false,"internalType":"string","name":"parameter","type":"string"},{"indexed":false,"internalType":"uint256","name":"oldValue","type":"uint256"},{"indexed":false,"internalType":"uint256","name":"newValue","type":"uint256"}],"name":"ConfigurationUpdated","type":"event"},{"anonymous":false,"inputs":[{"indexed":true,"internalType":"address","name":"user","type":"address"},{"indexed":true,"internalType":"bytes32","name":"feedId","type":"bytes32"},{"indexed":false,"internalType":"enum MEVDetector.ThreatType","name":"threatType","type":"uint8"},{"indexed":false,"internalType":"uint256","name":"riskScore","type":"uint256"},{"indexed":false,"internalType":"uint256","name":"timestamp","type":"uint256"}],"name":"MEVThreatDetected","type":"event"},{"anonymous":false,"inputs":[{"indexed":true,"internalType":"address","name":"previousOwner","type":"address"},{"indexed":true,"internalType":"address","name":"newOwner","type":"address"}],"name":"OwnershipTransferred","type":"event"},{"anonymous":false,"inputs":[{"indexed":true,"internalType":"bytes32","name":"feedId","type":"bytes32"},{"indexed":false,"internalType":"uint256","name":"expectedPrice","type":"uint256"},{"indexed":false,"internalType":"uint256","name":"actualPrice","type":"uint256"},{"indexed":false,"internalType":"uint256","name":"delta","type":"uint256"}],"name":"PriceAnomalyDetected","type":"event"},{"inputs":[],"name":"GAS_HISTORY_SIZE","outputs":[{"internalType":"uint256","name":"","type":"uint256"}],"stateMutability":"view","type":"function"},{"inputs":[{"internalType":"uint256[]","name":"values","type":"uint256[]"}],"name":"aggregateValues","outputs":[{"internalType":"uint256","name":"","type":"uint256"}],"stateMutability":"view","type":"function"},{"inputs":[{"internalType":"bytes32","name":"feedId","type":"bytes32"},{"internalType":"uint256","name":"expectedPrice","type":"uint256"},{"internalType":"uint256","name":"txGasPrice","type":"uint256"}],"name":"detectMEV","outputs":[{"internalType":"bool","name":"isThreat","type":"bool"},{"internalType":"enum MEVDetector.ThreatType","name":"threatType","type":"uint8"},{"internalType":"uint256","name":"riskScore","type":"uint256"}],"stateMutability":"nonpayable","type":"function"},{"inputs":[{"internalType":"bytes32","name":"feedId","type":"bytes32"},{"internalType":"uint256","name":"mockPrice","type":"uint256"},{"internalType":"uint256","name":"txGasPrice","type":"uint256"}],"name":"detectMEVWithMockPrice","outputs":[{"internalType":"bool","name":"isThreat","type":"bool"},{"internalType":"enum MEVDetector.ThreatType","name":"threatType","type":"uint8"},{"internalType":"uint256","name":"riskScore","type":"uint256"}],"stateMutability":"nonpayable","type":"function"},{"inputs":[{"internalType":"bytes32","name":"feedId","type":"bytes32"},{"internalType":"uint256","name":"mockPrice","type":"uint256"},{"internalType":"uint256","name":"txGasPrice","type":"uint256"}],"name":"detectMEVWithMockPriceView","outputs":[{"internalType":"bool","name":"isThreat","type":"bool"},{"internalType":"enum MEVDetector.ThreatType","name":"threatType","type":"uint8"},{"internalType":"uint256","name":"riskScore","type":"uint256"}],"stateMutability":"view","type":"function"},{"inputs":[],"name":"extractTimestampsAndAssertAllAreEqual","outputs":[{"internalType":"uint256","name":"extractedTimestamp","type":"uint256"}],"stateMutability":"pure","type":"function"},{"inputs":[],"name":"frontRunGasMultiplier","outputs":[{"internalType":"uint256","name":"","type":"uint256"}],"stateMutability":"view","type":"function"},{"inputs":[{"internalType":"address","name":"signerAddress","type":"address"}],"name":"getAuthorisedSignerIndex","outputs":[{"internalType":"uint8","name":"","type":"uint8"}],"stateMutability":"view","type":"function"},{"inputs":[],"name":"getAverageGasPrice","outputs":[{"internalType":"uint256","name":"","type":"uint256"}],"stateMutability":"view","type":"function"},{"inputs":[{"internalType":"bytes32","name":"feedId","type":"bytes32"}],"name":"getCurrentPrice","outputs":[{"internalType":"uint256","name":"","type":"uint256"}],"stateMutability":"view","type":"function"},{"inputs":[],"name":"getDataServiceId","outputs":[{"internalType":"string","name":"","type":"string"}],"stateMutability":"view","type":"function"},{"inputs":[{"internalType":"bytes32","name":"feedId","type":"bytes32"}],"name":"getPriceHistory","outputs":[{"internalType":"uint256","name":"lastPrice","type":"uint256"},{"internalType":"uint256","name":"lastUpdate","type":"uint256"}],"stateMutability":"view","type":"function"},{"inputs":[],"name":"getUniqueSignersThreshold","outputs":[{"internalType":"uint8","name":"","type":"uint8"}],"stateMutability":"view","type":"function"},{"inputs":[{"internalType":"bytes32","name":"","type":"bytes32"}],"name":"lastPrices","outputs":[{"internalType":"uint256","name":"","type":"uint256"}],"stateMutability":"view","type":"function"},{"inputs":[{"internalType":"bytes32","name":"","type":"bytes32"}],"name":"lastUpdateTimestamp","outputs":[{"internalType":"uint256","name":"","type":"uint256"}],"stateMutability":"view","type":"function"},{"inputs":[],"name":"minPriceDelta","outputs":[{"internalType":"uint256","name":"","type":"uint256"}],"stateMutability":"view","type":"function"},{"inputs":[],"name":"owner","outputs":[{"internalType":"address","name":"","type":"address"}],"stateMutability":"view","type":"function"},{"inputs":[],"name":"renounceOwnership","outputs":[],"stateMutability":"nonpayable","type":"function"},{"inputs":[],"name":"riskThreshold","outputs":[{"internalType":"uint256","name":"","type":"uint256"}],"stateMutability":"view","type":"function"},{"inputs":[{"internalType":"uint256","name":"newMultiplier","type":"uint256"}],"name":"setFrontRunGasMultiplier","outputs":[],"stateMutability":"nonpayable","type":"function"},{"inputs":[{"internalType":"uint256","name":"newDelta","type":"uint256"}],"name":"setMinPriceDelta","outputs":[],"stateMutability":"nonpayable","type":"function"},{"inputs":[{"internalType":"uint256","name":"newThreshold","type":"uint256"}],"name":"setRiskThreshold","outputs":[],"stateMutability":"nonpayable","type":"function"},{"inputs":[{"internalType":"address","name":"newOwner","type":"address"}],"name":"transferOwnership","outputs":[],"stateMutability":"nonpayable","type":"function"},{"inputs":[{"internalType":"uint256","name":"receivedTimestampMilliseconds","type":"uint256"}],"name":"validateTimestamp","outputs":[],"stateMutability":"view","type":"function"}],"evm":{"bytecode":{"linkReferences":{},"object":"608060405234620000d0576200001533620000d5565b60016101f48155606480600255607860035560005b8181106200004d576200003d33620000d5565b6040516118db90816200011d8239f35b6006805468010000000000000000811015620000ba57848101808355811015620000a457600091825260208220015560001981146200008e5782016200002a565b634e487b7160e01b600052601160045260246000fd5b634e487b7160e01b600052603260045260246000fd5b634e487b7160e01b600052604160045260246000fd5b600080fd5b600080546001600160a01b039283166001600160a01b03198216811783559216907f8be0079c531659141344cd1fd0a4f28419497f9722a3daafe3b4186f6b6457e09080a356fe6080604052600436101561001257600080fd5b60003560e01c80630bb30e2414610197578063161e444e1461019257806337f8218e1461018d5780633ce142f51461018857806355a547d5146101835780637083d1c21461017e578063715018a6146101795780637bfdfac7146101745780638da5cb5b1461016f578063a833be211461016a578063afbc738c14610165578063b24ebfcc14610160578063b43e6cb41461015b578063c274583a14610156578063c324feed14610151578063c93ad6191461014c578063d67e343c14610147578063db14839714610142578063e4f269ec1461013d578063f2fde38b14610138578063f50b2efe14610133578063f5ab44851461012e578063f90c4924146101295763ff53159c1461012457600080fd5b6109b0565b610994565b610979565b6108ec565b610834565b610808565b6107e6565b6107ba565b6107a0565b610727565b6106a2565b610684565b6105ef565b610545565b610472565b610449565b61042b565b6103cd565b610354565b610273565b610250565b610210565b6101ea565b346101e55760203660031901126101e55760043560005260046020526040600020546005602052604060002054906101e16040519283928360209093929193604081019481520152565b0390f35b600080fd5b346101e55760203660031901126101e5576020610208600435610fd9565b604051908152f35b346101e55760003660031901126101e5576020600354604051908152f35b60209060031901126101e5576004356001600160a01b03811681036101e55790565b346101e55760206102686102633661022e565b610c76565b60ff60405191168152f35b346101e55760003660031901126101e557600061ffff610299610294610b29565b610bb5565b9116908115610342579190815b8181106102b857604051838152602090f35b90916102c384610afe565b9065ffffffffffff6102dd6102d787610a49565b36610ac7565b351690811561033057806103095750610300916102fa9195610aab565b91610a3a565b929190926102a6565b8095910361031e57610300916102fa91610aab565b60405163d9d1f46560e01b8152600490fd5b604051630336dc9d60e41b8152600490fd5b604051632154bfcf60e21b8152600490fd5b346101e55760203660031901126101e5577f542d1e36f54195e4e918eaa06cf4f40e8861c8af6cf52111230f74bec3dbadfe60a06004356103936109cc565b60015490806001556040519160608352600d60608401526c1c9a5cdad51a1c995cda1bdb19609a1b608084015260208301526040820152a1005b346101e557600080600319360112610428576103e76109cc565b80546001600160a01b03198116825581906001600160a01b03167f8be0079c531659141344cd1fd0a4f28419497f9722a3daafe3b4186f6b6457e08280a380f35b80fd5b346101e55760003660031901126101e5576020600254604051908152f35b346101e55760003660031901126101e5576000546040516001600160a01b039091168152602090f35b346101e55760203660031901126101e5577f542d1e36f54195e4e918eaa06cf4f40e8861c8af6cf52111230f74bec3dbadfe60a06004356104b16109cc565b600354908060035560405191606083526015606084015274333937b73a293ab723b0b9a6bab63a34b83634b2b960591b608084015260208301526040820152a1005b60609060031901126101e557600435906024359060443590565b90151581526060810193929190600482101561052f5760409160208201520152565b634e487b7160e01b600052602160045260246000fd5b346101e5576101e1610567610559366104f3565b916105626109cc565b6115ea565b6040939193519384938461050d565b634e487b7160e01b600052604160045260246000fd5b604051906040820182811067ffffffffffffffff8211176105ac57604052565b610576565b6040519190601f01601f1916820167ffffffffffffffff8111838210176105ac57604052565b67ffffffffffffffff81116105ac5760051b60200190565b346101e5576020806003193601126101e55760043567ffffffffffffffff81116101e557366023820112156101e557806004013590610635610630836105d7565b6105b1565b9160248484838152019160051b830101913683116101e557602401905b828210610675576101e161066585610d04565b6040519081529081906020820190565b81358152908401908401610652565b346101e55760003660031901126101e5576020600154604051908152f35b346101e55760003660031901126101e5576106bb61058c565b6012815260207172656473746f6e652d6d61696e2d64656d6f60701b818301526040908151928184928352815191828285015260005b838110610711575050600083830185015250601f01601f19168101030190f35b81810183015187820187015286945082016106f1565b346101e55760203660031901126101e5577f542d1e36f54195e4e918eaa06cf4f40e8861c8af6cf52111230f74bec3dbadfe60a06004356107666109cc565b60025490806002556040519160608352600d60608401526c6d696e507269636544656c746160981b608084015260208301526040820152a1005b346101e5576101e16105676107b4366104f3565b916116ed565b346101e55760203660031901126101e55760043560005260046020526020604060002054604051908152f35b346101e5576101e16105676107fa366104f3565b916108036109cc565b610de8565b346101e55760203660031901126101e55760043560005260056020526020604060002054604051908152f35b346101e5576108423661022e565b61084a6109cc565b6001600160a01b03908116801561089857600080546001600160a01b03198116831782559092167f8be0079c531659141344cd1fd0a4f28419497f9722a3daafe3b4186f6b6457e08380a380f35b60405162461bcd60e51b815260206004820152602660248201527f4f776e61626c653a206e6577206f776e657220697320746865207a65726f206160448201526564647265737360d01b6064820152608490fd5b346101e55760203660031901126101e5576103e86004350480421060001461094157603c61091a4283610ac7565b1161092157005b60405163b6b0916d60e01b81526004810191909152426024820152604490fd5b8042034281116109745760b41061095457005b604051630321d0b560e01b81526004810191909152426024820152604490fd5b610a24565b346101e55760003660031901126101e5576020610208611557565b346101e55760003660031901126101e557602060405160018152f35b346101e55760003660031901126101e557602060405160648152f35b6000546001600160a01b031633036109e057565b606460405162461bcd60e51b815260206004820152602060248201527f4f776e61626c653a2063616c6c6572206973206e6f7420746865206f776e65726044820152fd5b634e487b7160e01b600052601160045260246000fd5b60001981146109745760010190565b906068820180921161097457565b906009820180921161097457565b906002820180921161097457565b906020820180921161097457565b90600d820180921161097457565b906041820180921161097457565b90604e820180921161097457565b9190820180921161097457565b60001981019190821161097457565b9190820391821161097457565b906127109182810292818404149015171561097457565b8181029291811591840414171561097457565b610b0790610bde565b6020018060201161097457610b1b91610aeb565b604e81018091116109745790565b6602ed57011dffff1936601f1901356602ed57011e00001601610ba35736602911610b915762ffffff602819360135166003810180911161097457610b6d90610a57565b36610b7782610a65565b11610b7f5790565b60405163c30a7bd760e01b8152600490fd5b604051632bcb7bc560e11b8152600490fd5b6040516373bb264f60e11b8152600490fd5b9060208201808311610974573610610b91576002820191828111610974573603601f1901359190565b6041810180821161097457606182011061097457360390606019820191368311610974576063190191808311610974573562ffffff16913563ffffffff1690565b8115610c29570490565b634e487b7160e01b600052601260045260246000fd5b6103e89004804210600014610c625742810381811161097457603c106109215750565b8042034281116109745760b4106109545750565b6001600160a01b0316730c39486f770b26f5527bbbf942726537986cd7eb8103610ca05750600090565b602490604051906303b1166f60e61b82526004820152fd5b634e487b7160e01b600052603260045260246000fd5b805115610cdb5760200190565b610cb8565b805160011015610cdb5760400190565b8051821015610cdb5760209160051b010190565b6002815114610d7d57805115610d6b57610d1d81610d97565b8051600181811c9116610d5e57610d5b91610d4e82610d47610d41610d5595610ab8565b84610cf0565b5192610cf0565b5190610aab565b60011c90565b90565b610d6791610cf0565b5190565b604051639e198af960e01b8152600490fd5b610d5581610d4e610d90610d5b94610cce565b5191610ce0565b8051602082818094019260051b010190805b828110610db65750505050565b83825b828110610dc7575001610da9565b82518151808210610ddd575b5050018490610db9565b845281523880610dd3565b91610df283610fd9565b9182610e08856000526004602052604060002090565b5542610e1e856000526005602052604060002090565b5580831115610fc957610e318184610ac7565b905b610e4581610e4084610ad4565b610c1f565b91610e4f8461150b565b6001548311610f3d57505050610e63611557565b9081151580610f26575b610ecf575050610e7d9082611493565b610e8d5750600090600390600090565b604051600080516020611886833981519152339180610ec042829190604060608401936002815261012c60208201520152565b0390a360019060029061012c90565b610ee69250610ee182610e4092610ac7565b610ad4565b90604051600080516020611886833981519152339180610f1b4287836040909392919360608101946001825260208201520152565b0390a3600191829190565b506064610f3560035484610aeb565b048111610e6d565b7f357ce8db9c632eb267b5136efa5fcf7f6559a762164709aff4d5e8c4a4abc15f9350610fbd908660409796949751600080516020611886833981519152339180610f9d428d836040909392919360608101946000825260208201520152565b0390a3604051938493846040919493926060820195825260208201520152565b0390a260019160009190565b610fd38382610ac7565b90610e33565b90610fe261058c565b91600190818452602084016020368237845115610cdb57526000906110078451611117565b906110128551611117565b9461101d815161113f565b958285815b6110cc575b505061ffff90611038610294610b29565b9216926040918251916020899301945b86841061107357505050505050505061106861106e91610d679495611397565b91610c3f565b610cce565b611080908c848b85611198565b93909380156110bb578a810361109d575b50858552870192611048565b90996110aa579887611091565b845163265e23a160e11b8152600490fd5b855163dfb25a7960e01b8152600490fd5b83518110156110fc5781906110df611101565b6110e9828c610cf0565b526110f4818b610cf0565b500181611022565b611027565b61110961058c565b600181529060203681840137565b90611124610630836105d7565b8281528092611135601f19916105d7565b0190602036910137565b9061114c610630836105d7565b828152809261115d601f19916105d7565b019060005b82811061116e57505050565b806060602080938501015201611162565b9060405191818352602082840101604052602083013790565b909492916111a585610bde565b9190936111c26111bd6111b785610a73565b87610aeb565b610a81565b9661121961121361120d6102636111db6102d786610a49565b9b60206111fc826111f76102d7826111f28c610a8f565b610aab565b61117f565b012061120786610a8f565b9061141f565b60ff1690565b91610a9d565b956000998a955b82871061123f57509699505050953565ffffffffffff16955050505050565b929598909396999194976112568461125b92610aab565b610a73565b6112658482611356565b96909c805b8d51811015611340578e61127f8f8390610cf0565b511461128d5760010161126a565b9095939c9a9896949d50896001939c929a986112a9838c610cf0565b51858a1b9182821615878161132c575b506112d8575b50505050505b019691909a99989796959493929a611220565b6112fa6112e88661132196610cf0565b516112f3878c610cf0565b5190610cf0565b5261130e611308858a610cf0565b51610a3a565b611318858a610cf0565b5217918a610cf0565b5238878180806112bf565b9050611338868b610cf0565b5110386112b9565b5094929b999795939c50979550986001906112c5565b91909136039136831161097457823592602182101561137e57602001359060200360031b1c90565b6040516360007e2160e11b815260048101839052602490fd5b91906113a38351611117565b9060005b8451811015611418576001806113bd8385610cf0565b51106113f05750806113db6113d56113eb9388610cf0565b51610d04565b6113e58286610cf0565b52610a3a565b6113a7565b6113fc60449284610cf0565b519060405191632b13aef560e01b835260048301526024820152fd5b5090925050565b9190602080913603608060405186815260009483604087950135851a82840152803560408401520135606082015282805260015afa156114875751916001600160a01b0383161561146d5750565b604051633335be5d60e11b81526004810191909152602490fd5b604051903d90823e3d90fd5b90600091825260046020526040822054906005602052604083205482158015611503575b6114fd57420342811161097457601e10156114d157505090565b6114ec9250610e409082808211156114f357610ee191610ac7565b6002541090565b90610ee191610ac7565b50505090565b5080156114b7565b600754600654811015610cdb5760066000527ff652222313e28459528d920b65115c16c04f3efc82aaedc97be59f3f377c0d3f0155600754600181018091116109745760649006600755565b6000808160068054915b606481106115855750600093915050811561158057610d5b9250610c1f565b505090565b82811015610cdb5781600052807ff652222313e28459528d920b65115c16c04f3efc82aaedc97be59f3f377c0d3f0154806115ca575b506115c590610a3a565b611561565b8591949501809111610974576115e36115c59195610a3a565b93906115bb565b9181611600846000526004602052604060002090565b5542611616846000526005602052604060002090565b556116208161150b565b611634836000526004602052604060002090565b54156116e75761164e836000526004602052604060002090565b545b808311156116d7576116628184610ac7565b905b600081156116cf5750610e4061167992610ad4565b600154811161168b5750610e63611557565b929150506040516000805160206118868339815191523391806116c34287836040909392919360608101946000825260208201520152565b0390a360019160009190565b915050611679565b6116e18382610ac7565b90611664565b81611650565b91611702836000526004602052604060002090565b541561187f5761171c836000526004602052604060002090565b545b8083111561186f576117308184610ac7565b905b600081156118675750610e4061174792610ad4565b600154811161185a5750611759611557565b9081151580611843575b61182657505061177d826000526004602052604060002090565b54611790575b5050600090600390600090565b816117e96117d86117f0936117b160c8966000526004602052604060002090565b5481111561180857610ee1906117d1856000526004602052604060002090565b5490610ac7565b916000526004602052604060002090565b5490610c1f565b116117fc573880611783565b60019060029061012c90565b610ee190611820856000526004602052604060002090565b54610ac7565b61183b935081610e40929350610ee191610ac7565b600191829190565b50606461185260035484610aeb565b048111611763565b9250505060019160009190565b915050611747565b6118798382610ac7565b90611732565b8161171e56fe9ee9d1608342eed14229d2eca902e2660aff9ed9a3bdaf998af116afdf12a621a26469706673582212208128ef2ee00b962dd5324f43dc44d00f296c88296352e85e3ced24091b32ffb564736f6c63430008140033","opcodes":"PUSH1 0x80 PUSH1 0x40 MSTORE CALLVALUE PUSH3 0xD0 JUMPI PUSH3 0x15 CALLER PUSH3 0xD5 JUMP JUMPDEST PUSH1 0x1 PUSH2 0x1F4 DUP2 SSTORE PUSH1 0x64 DUP1 PUSH1 0x2 SSTORE PUSH1 0x78 PUSH1 0x3 SSTORE PUSH1 0x0 JUMPDEST DUP2 DUP2 LT PUSH3 0x4D JUMPI PUSH3 0x3D CALLER PUSH3 0xD5 JUMP JUMPDEST PUSH1 0x40 MLOAD PUSH2 0x18DB SWAP1 DUP2 PUSH3 0x11D DUP3 CODECOPY RETURN JUMPDEST PUSH1 0x6 DUP1 SLOAD PUSH9 0x10000000000000000 DUP2 LT ISZERO PUSH3 0xBA JUMPI DUP5 DUP2 ADD DUP1 DUP4 SSTORE DUP2 LT ISZERO PUSH3 0xA4 JUMPI PUSH1 0x0 SWAP2 DUP3 MSTORE PUSH1 0x20 DUP3 KECCAK256 ADD SSTORE PUSH1 0x0 NOT DUP2 EQ PUSH3 0x8E JUMPI DUP3 ADD PUSH3 0x2A JUMP JUMPDEST PUSH4 0x4E487B71 PUSH1 0xE0 SHL PUSH1 0x0 MSTORE PUSH1 0x11 PUSH1 0x4 MSTORE PUSH1 0x24 PUSH1 0x0 REVERT JUMPDEST PUSH4 0x4E487B71 PUSH1 0xE0 SHL PUSH1 0x0 MSTORE PUSH1 0x32 PUSH1 0x4 MSTORE PUSH1 0x24 PUSH1 0x0 REVERT JUMPDEST PUSH4 0x4E487B71 PUSH1 0xE0 SHL PUSH1 0x0 MSTORE PUSH1 0x41 PUSH1 0x4 MSTORE PUSH1 0x24 PUSH1 0x0 REVERT JUMPDEST PUSH1 0x0 DUP1 REVERT JUMPDEST PUSH1 0x0 DUP1 SLOAD PUSH1 0x1 PUSH1 0x1 PUSH1 0xA0 SHL SUB SWAP3 DUP4 AND PUSH1 0x1 PUSH1 0x1 PUSH1 0xA0 SHL SUB NOT DUP3 AND DUP2 OR DUP4 SSTORE SWAP3 AND SWAP1 PUSH32 0x8BE0079C531659141344CD1FD0A4F28419497F9722A3DAAFE3B4186F6B6457E0 SWAP1 DUP1 LOG3 JUMP INVALID PUSH1 0x80 PUSH1 0x40 MSTORE PUSH1 0x4 CALLDATASIZE LT ISZERO PUSH2 0x12 JUMPI PUSH1 0x0 DUP1 REVERT JUMPDEST PUSH1 0x0 CALLDATALOAD PUSH1 0xE0 SHR DUP1 PUSH4 0xBB30E24 EQ PUSH2 0x197 JUMPI DUP1 PUSH4 0x161E444E EQ PUSH2 0x192 JUMPI DUP1 PUSH4 0x37F8218E EQ PUSH2 0x18D JUMPI DUP1 PUSH4 0x3CE142F5 EQ PUSH2 0x188 JUMPI DUP1 PUSH4 0x55A547D5 EQ PUSH2 0x183 JUMPI DUP1 PUSH4 0x7083D1C2 EQ PUSH2 0x17E JUMPI DUP1 PUSH4 0x715018A6 EQ PUSH2 0x179 JUMPI DUP1 PUSH4 0x7BFDFAC7 EQ PUSH2 0x174 JUMPI DUP1 PUSH4 0x8DA5CB5B EQ PUSH2 0x16F JUMPI DUP1 PUSH4 0xA833BE21 EQ PUSH2 0x16A JUMPI DUP1 PUSH4 0xAFBC738C EQ PUSH2 0x165 JUMPI DUP1 PUSH4 0xB24EBFCC EQ PUSH2 0x160 JUMPI DUP1 PUSH4 0xB43E6CB4 EQ PUSH2 0x15B JUMPI DUP1 PUSH4 0xC274583A EQ PUSH2 0x156 JUMPI DUP1 PUSH4 0xC324FEED EQ PUSH2 0x151 JUMPI DUP1 PUSH4 0xC93AD619 EQ PUSH2 0x14C JUMPI DUP1 PUSH4 0xD67E343C EQ PUSH2 0x147 JUMPI DUP1 PUSH4 0xDB148397 EQ PUSH2 0x142 JUMPI DUP1 PUSH4 0xE4F269EC EQ PUSH2 0x13D JUMPI DUP1 PUSH4 0xF2FDE38B EQ PUSH2 0x138 JUMPI DUP1 PUSH4 0xF50B2EFE EQ PUSH2 0x133 JUMPI DUP1 PUSH4 0xF5AB4485 EQ PUSH2 0x12E JUMPI DUP1 PUSH4 0xF90C4924 EQ PUSH2 0x129 JUMPI PUSH4 0xFF53159C EQ PUSH2 0x124 JUMPI PUSH1 0x0 DUP1 REVERT JUMPDEST PUSH2 0x9B0 JUMP JUMPDEST PUSH2 0x994 JUMP JUMPDEST PUSH2 0x979 JUMP JUMPDEST PUSH2 0x8EC JUMP JUMPDEST PUSH2 0x834 JUMP JUMPDEST PUSH2 0x808 JUMP JUMPDEST PUSH2 0x7E6 JUMP JUMPDEST PUSH2 0x7BA JUMP JUMPDEST PUSH2 0x7A0 JUMP JUMPDEST PUSH2 0x727 JUMP JUMPDEST PUSH2 0x6A2 JUMP JUMPDEST PUSH2 0x684 JUMP JUMPDEST PUSH2 0x5EF JUMP JUMPDEST PUSH2 0x545 JUMP JUMPDEST PUSH2 0x472 JUMP JUMPDEST PUSH2 0x449 JUMP JUMPDEST PUSH2 0x42B JUMP JUMPDEST PUSH2 0x3CD JUMP JUMPDEST PUSH2 0x354 JUMP JUMPDEST PUSH2 0x273 JUMP JUMPDEST PUSH2 0x250 JUMP JUMPDEST PUSH2 0x210 JUMP JUMPDEST PUSH2 0x1EA JUMP JUMPDEST CALLVALUE PUSH2 0x1E5 JUMPI PUSH1 0x20 CALLDATASIZE PUSH1 0x3 NOT ADD SLT PUSH2 0x1E5 JUMPI PUSH1 0x4 CALLDATALOAD PUSH1 0x0 MSTORE PUSH1 0x4 PUSH1 0x20 MSTORE PUSH1 0x40 PUSH1 0x0 KECCAK256 SLOAD PUSH1 0x5 PUSH1 0x20 MSTORE PUSH1 0x40 PUSH1 0x0 KECCAK256 SLOAD SWAP1 PUSH2 0x1E1 PUSH1 0x40 MLOAD SWAP3 DUP4 SWAP3 DUP4 PUSH1 0x20 SWAP1 SWAP4 SWAP3 SWAP2 SWAP4 PUSH1 0x40 DUP2 ADD SWAP5 DUP2 MSTORE ADD MSTORE JUMP JUMPDEST SUB SWAP1 RETURN JUMPDEST PUSH1 0x0 DUP1 REVERT JUMPDEST CALLVALUE PUSH2 0x1E5 JUMPI PUSH1 0x20 CALLDATASIZE PUSH1 0x3 NOT ADD SLT PUSH2 0x1E5 JUMPI PUSH1 0x20 PUSH2 0x208 PUSH1 0x4 CALLDATALOAD PUSH2 0xFD9 JUMP JUMPDEST PUSH1 0x40 MLOAD SWAP1 DUP2 MSTORE RETURN JUMPDEST CALLVALUE PUSH2 0x1E5 JUMPI PUSH1 0x0 CALLDATASIZE PUSH1 0x3 NOT ADD SLT PUSH2 0x1E5 JUMPI PUSH1 0x20 PUSH1 0x3 SLOAD PUSH1 0x40 MLOAD SWAP1 DUP2 MSTORE RETURN JUMPDEST PUSH1 0x20 SWAP1 PUSH1 0x3 NOT ADD SLT PUSH2 0x1E5 JUMPI PUSH1 0x4 CALLDATALOAD PUSH1 0x1 PUSH1 0x1 PUSH1 0xA0 SHL SUB DUP2 AND DUP2 SUB PUSH2 0x1E5 JUMPI SWAP1 JUMP JUMPDEST CALLVALUE PUSH2 0x1E5 JUMPI PUSH1 0x20 PUSH2 0x268 PUSH2 0x263 CALLDATASIZE PUSH2 0x22E JUMP JUMPDEST PUSH2 0xC76 JUMP JUMPDEST PUSH1 0xFF PUSH1 0x40 MLOAD SWAP2 AND DUP2 MSTORE RETURN JUMPDEST CALLVALUE PUSH2 0x1E5 JUMPI PUSH1 0x0 CALLDATASIZE PUSH1 0x3 NOT ADD SLT PUSH2 0x1E5 JUMPI PUSH1 0x0 PUSH2 0xFFFF PUSH2 0x299 PUSH2 0x294 PUSH2 0xB29 JUMP JUMPDEST PUSH2 0xBB5 JUMP JUMPDEST SWAP2 AND SWAP1 DUP2 ISZERO PUSH2 0x342 JUMPI SWAP2 SWAP1 DUP2 JUMPDEST DUP2 DUP2 LT PUSH2 0x2B8 JUMPI PUSH1 0x40 MLOAD DUP4 DUP2 MSTORE PUSH1 0x20 SWAP1 RETURN JUMPDEST SWAP1 SWAP2 PUSH2 0x2C3 DUP5 PUSH2 0xAFE JUMP JUMPDEST SWAP1 PUSH6 0xFFFFFFFFFFFF PUSH2 0x2DD PUSH2 0x2D7 DUP8 PUSH2 0xA49 JUMP JUMPDEST CALLDATASIZE PUSH2 0xAC7 JUMP JUMPDEST CALLDATALOAD AND SWAP1 DUP2 ISZERO PUSH2 0x330 JUMPI DUP1 PUSH2 0x309 JUMPI POP PUSH2 0x300 SWAP2 PUSH2 0x2FA SWAP2 SWAP6 PUSH2 0xAAB JUMP JUMPDEST SWAP2 PUSH2 0xA3A JUMP JUMPDEST SWAP3 SWAP2 SWAP1 SWAP3 PUSH2 0x2A6 JUMP JUMPDEST DUP1 SWAP6 SWAP2 SUB PUSH2 0x31E JUMPI PUSH2 0x300 SWAP2 PUSH2 0x2FA SWAP2 PUSH2 0xAAB JUMP JUMPDEST PUSH1 0x40 MLOAD PUSH4 0xD9D1F465 PUSH1 0xE0 SHL DUP2 MSTORE PUSH1 0x4 SWAP1 REVERT JUMPDEST PUSH1 0x40 MLOAD PUSH4 0x336DC9D PUSH1 0xE4 SHL DUP2 MSTORE PUSH1 0x4 SWAP1 REVERT JUMPDEST PUSH1 0x40 MLOAD PUSH4 0x2154BFCF PUSH1 0xE2 SHL DUP2 MSTORE PUSH1 0x4 SWAP1 REVERT JUMPDEST CALLVALUE PUSH2 0x1E5 JUMPI PUSH1 0x20 CALLDATASIZE PUSH1 0x3 NOT ADD SLT PUSH2 0x1E5 JUMPI PUSH32 0x542D1E36F54195E4E918EAA06CF4F40E8861C8AF6CF52111230F74BEC3DBADFE PUSH1 0xA0 PUSH1 0x4 CALLDATALOAD PUSH2 0x393 PUSH2 0x9CC JUMP JUMPDEST PUSH1 0x1 SLOAD SWAP1 DUP1 PUSH1 0x1 SSTORE PUSH1 0x40 MLOAD SWAP2 PUSH1 0x60 DUP4 MSTORE PUSH1 0xD PUSH1 0x60 DUP5 ADD MSTORE PUSH13 0x1C9A5CDAD51A1C995CDA1BDB19 PUSH1 0x9A SHL PUSH1 0x80 DUP5 ADD MSTORE PUSH1 0x20 DUP4 ADD MSTORE PUSH1 0x40 DUP3 ADD MSTORE LOG1 STOP JUMPDEST CALLVALUE PUSH2 0x1E5 JUMPI PUSH1 0x0 DUP1 PUSH1 0x3 NOT CALLDATASIZE ADD SLT PUSH2 0x428 JUMPI PUSH2 0x3E7 PUSH2 0x9CC JUMP JUMPDEST DUP1 SLOAD PUSH1 0x1 PUSH1 0x1 PUSH1 0xA0 SHL SUB NOT DUP2 AND DUP3 SSTORE DUP2 SWAP1 PUSH1 0x1 PUSH1 0x1 PUSH1 0xA0 SHL SUB AND PUSH32 0x8BE0079C531659141344CD1FD0A4F28419497F9722A3DAAFE3B4186F6B6457E0 DUP3 DUP1 LOG3 DUP1 RETURN JUMPDEST DUP1 REVERT JUMPDEST CALLVALUE PUSH2 0x1E5 JUMPI PUSH1 0x0 CALLDATASIZE PUSH1 0x3 NOT ADD SLT PUSH2 0x1E5 JUMPI PUSH1 0x20 PUSH1 0x2 SLOAD PUSH1 0x40 MLOAD SWAP1 DUP2 MSTORE RETURN JUMPDEST CALLVALUE PUSH2 0x1E5 JUMPI PUSH1 0x0 CALLDATASIZE PUSH1 0x3 NOT ADD SLT PUSH2 0x1E5 JUMPI PUSH1 0x0 SLOAD PUSH1 0x40 MLOAD PUSH1 0x1 PUSH1 0x1 PUSH1 0xA0 SHL SUB SWAP1 SWAP2 AND DUP2 MSTORE PUSH1 0x20 SWAP1 RETURN JUMPDEST CALLVALUE PUSH2 0x1E5 JUMPI PUSH1 0x20 CALLDATASIZE PUSH1 0x3 NOT ADD SLT PUSH2 0x1E5 JUMPI PUSH32 0x542D1E36F54195E4E918EAA06CF4F40E8861C8AF6CF52111230F74BEC3DBADFE PUSH1 0xA0 PUSH1 0x4 CALLDATALOAD PUSH2 0x4B1 PUSH2 0x9CC JUMP JUMPDEST PUSH1 0x3 SLOAD SWAP1 DUP1 PUSH1 0x3 SSTORE PUSH1 0x40 MLOAD SWAP2 PUSH1 0x60 DUP4 MSTORE PUSH1 0x15 PUSH1 0x60 DUP5 ADD MSTORE PUSH21 0x333937B73A293AB723B0B9A6BAB63A34B83634B2B9 PUSH1 0x59 SHL PUSH1 0x80 DUP5 ADD MSTORE PUSH1 0x20 DUP4 ADD MSTORE PUSH1 0x40 DUP3 ADD MSTORE LOG1 STOP JUMPDEST PUSH1 0x60 SWAP1 PUSH1 0x3 NOT ADD SLT PUSH2 0x1E5 JUMPI PUSH1 0x4 CALLDATALOAD SWAP1 PUSH1 0x24 CALLDATALOAD SWAP1 PUSH1 0x44 CALLDATALOAD SWAP1 JUMP JUMPDEST SWAP1 ISZERO ISZERO DUP2 MSTORE PUSH1 0x60 DUP2 ADD SWAP4 SWAP3 SWAP2 SWAP1 PUSH1 0x4 DUP3 LT ISZERO PUSH2 0x52F JUMPI PUSH1 0x40 SWAP2 PUSH1 0x20 DUP3 ADD MSTORE ADD MSTORE JUMP JUMPDEST PUSH4 0x4E487B71 PUSH1 0xE0 SHL PUSH1 0x0 MSTORE PUSH1 0x21 PUSH1 0x4 MSTORE PUSH1 0x24 PUSH1 0x0 REVERT JUMPDEST CALLVALUE PUSH2 0x1E5 JUMPI PUSH2 0x1E1 PUSH2 0x567 PUSH2 0x559 CALLDATASIZE PUSH2 0x4F3 JUMP JUMPDEST SWAP2 PUSH2 0x562 PUSH2 0x9CC JUMP JUMPDEST PUSH2 0x15EA JUMP JUMPDEST PUSH1 0x40 SWAP4 SWAP2 SWAP4 MLOAD SWAP4 DUP5 SWAP4 DUP5 PUSH2 0x50D JUMP JUMPDEST PUSH4 0x4E487B71 PUSH1 0xE0 SHL PUSH1 0x0 MSTORE PUSH1 0x41 PUSH1 0x4 MSTORE PUSH1 0x24 PUSH1 0x0 REVERT JUMPDEST PUSH1 0x40 MLOAD SWAP1 PUSH1 0x40 DUP3 ADD DUP3 DUP2 LT PUSH8 0xFFFFFFFFFFFFFFFF DUP3 GT OR PUSH2 0x5AC JUMPI PUSH1 0x40 MSTORE JUMP JUMPDEST PUSH2 0x576 JUMP JUMPDEST PUSH1 0x40 MLOAD SWAP2 SWAP1 PUSH1 0x1F ADD PUSH1 0x1F NOT AND DUP3 ADD PUSH8 0xFFFFFFFFFFFFFFFF DUP2 GT DUP4 DUP3 LT OR PUSH2 0x5AC JUMPI PUSH1 0x40 MSTORE JUMP JUMPDEST PUSH8 0xFFFFFFFFFFFFFFFF DUP2 GT PUSH2 0x5AC JUMPI PUSH1 0x5 SHL PUSH1 0x20 ADD SWAP1 JUMP JUMPDEST CALLVALUE PUSH2 0x1E5 JUMPI PUSH1 0x20 DUP1 PUSH1 0x3 NOT CALLDATASIZE ADD SLT PUSH2 0x1E5 JUMPI PUSH1 0x4 CALLDATALOAD PUSH8 0xFFFFFFFFFFFFFFFF DUP2 GT PUSH2 0x1E5 JUMPI CALLDATASIZE PUSH1 0x23 DUP3 ADD SLT ISZERO PUSH2 0x1E5 JUMPI DUP1 PUSH1 0x4 ADD CALLDATALOAD SWAP1 PUSH2 0x635 PUSH2 0x630 DUP4 PUSH2 0x5D7 JUMP JUMPDEST PUSH2 0x5B1 JUMP JUMPDEST SWAP2 PUSH1 0x24 DUP5 DUP5 DUP4 DUP2 MSTORE ADD SWAP2 PUSH1 0x5 SHL DUP4 ADD ADD SWAP2 CALLDATASIZE DUP4 GT PUSH2 0x1E5 JUMPI PUSH1 0x24 ADD SWAP1 JUMPDEST DUP3 DUP3 LT PUSH2 0x675 JUMPI PUSH2 0x1E1 PUSH2 0x665 DUP6 PUSH2 0xD04 JUMP JUMPDEST PUSH1 0x40 MLOAD SWAP1 DUP2 MSTORE SWAP1 DUP2 SWAP1 PUSH1 0x20 DUP3 ADD SWAP1 JUMP JUMPDEST DUP2 CALLDATALOAD DUP2 MSTORE SWAP1 DUP5 ADD SWAP1 DUP5 ADD PUSH2 0x652 JUMP JUMPDEST CALLVALUE PUSH2 0x1E5 JUMPI PUSH1 0x0 CALLDATASIZE PUSH1 0x3 NOT ADD SLT PUSH2 0x1E5 JUMPI PUSH1 0x20 PUSH1 0x1 SLOAD PUSH1 0x40 MLOAD SWAP1 DUP2 MSTORE RETURN JUMPDEST CALLVALUE PUSH2 0x1E5 JUMPI PUSH1 0x0 CALLDATASIZE PUSH1 0x3 NOT ADD SLT PUSH2 0x1E5 JUMPI PUSH2 0x6BB PUSH2 0x58C JUMP JUMPDEST PUSH1 0x12 DUP2 MSTORE PUSH1 0x20 PUSH18 0x72656473746F6E652D6D61696E2D64656D6F PUSH1 0x70 SHL DUP2 DUP4 ADD MSTORE PUSH1 0x40 SWAP1 DUP2 MLOAD SWAP3 DUP2 DUP5 SWAP3 DUP4 MSTORE DUP2 MLOAD SWAP2 DUP3 DUP3 DUP6 ADD MSTORE PUSH1 0x0 JUMPDEST DUP4 DUP2 LT PUSH2 0x711 JUMPI POP POP PUSH1 0x0 DUP4 DUP4 ADD DUP6 ADD MSTORE POP PUSH1 0x1F ADD PUSH1 0x1F NOT AND DUP2 ADD SUB ADD SWAP1 RETURN JUMPDEST DUP2 DUP2 ADD DUP4 ADD MLOAD DUP8 DUP3 ADD DUP8 ADD MSTORE DUP7 SWAP5 POP DUP3 ADD PUSH2 0x6F1 JUMP JUMPDEST CALLVALUE PUSH2 0x1E5 JUMPI PUSH1 0x20 CALLDATASIZE PUSH1 0x3 NOT ADD SLT PUSH2 0x1E5 JUMPI PUSH32 0x542D1E36F54195E4E918EAA06CF4F40E8861C8AF6CF52111230F74BEC3DBADFE PUSH1 0xA0 PUSH1 0x4 CALLDATALOAD PUSH2 0x766 PUSH2 0x9CC JUMP JUMPDEST PUSH1 0x2 SLOAD SWAP1 DUP1 PUSH1 0x2 SSTORE PUSH1 0x40 MLOAD SWAP2 PUSH1 0x60 DUP4 MSTORE PUSH1 0xD PUSH1 0x60 DUP5 ADD MSTORE PUSH13 0x6D696E507269636544656C7461 PUSH1 0x98 SHL PUSH1 0x80 DUP5 ADD MSTORE PUSH1 0x20 DUP4 ADD MSTORE PUSH1 0x40 DUP3 ADD MSTORE LOG1 STOP JUMPDEST CALLVALUE PUSH2 0x1E5 JUMPI PUSH2 0x1E1 PUSH2 0x567 PUSH2 0x7B4 CALLDATASIZE PUSH2 0x4F3 JUMP JUMPDEST SWAP2 PUSH2 0x16ED JUMP JUMPDEST CALLVALUE PUSH2 0x1E5 JUMPI PUSH1 0x20 CALLDATASIZE PUSH1 0x3 NOT ADD SLT PUSH2 0x1E5 JUMPI PUSH1 0x4 CALLDATALOAD PUSH1 0x0 MSTORE PUSH1 0x4 PUSH1 0x20 MSTORE PUSH1 0x20 PUSH1 0x40 PUSH1 0x0 KECCAK256 SLOAD PUSH1 0x40 MLOAD SWAP1 DUP2 MSTORE RETURN JUMPDEST CALLVALUE PUSH2 0x1E5 JUMPI PUSH2 0x1E1 PUSH2 0x567 PUSH2 0x7FA CALLDATASIZE PUSH2 0x4F3 JUMP JUMPDEST SWAP2 PUSH2 0x803 PUSH2 0x9CC JUMP JUMPDEST PUSH2 0xDE8 JUMP JUMPDEST CALLVALUE PUSH2 0x1E5 JUMPI PUSH1 0x20 CALLDATASIZE PUSH1 0x3 NOT ADD SLT PUSH2 0x1E5 JUMPI PUSH1 0x4 CALLDATALOAD PUSH1 0x0 MSTORE PUSH1 0x5 PUSH1 0x20 MSTORE PUSH1 0x20 PUSH1 0x40 PUSH1 0x0 KECCAK256 SLOAD PUSH1 0x40 MLOAD SWAP1 DUP2 MSTORE RETURN JUMPDEST CALLVALUE PUSH2 0x1E5 JUMPI PUSH2 0x842 CALLDATASIZE PUSH2 0x22E JUMP JUMPDEST PUSH2 0x84A PUSH2 0x9CC JUMP JUMPDEST PUSH1 0x1 PUSH1 0x1 PUSH1 0xA0 SHL SUB SWAP1 DUP2 AND DUP1 ISZERO PUSH2 0x898 JUMPI PUSH1 0x0 DUP1 SLOAD PUSH1 0x1 PUSH1 0x1 PUSH1 0xA0 SHL SUB NOT DUP2 AND DUP4 OR DUP3 SSTORE SWAP1 SWAP3 AND PUSH32 0x8BE0079C531659141344CD1FD0A4F28419497F9722A3DAAFE3B4186F6B6457E0 DUP4 DUP1 LOG3 DUP1 RETURN JUMPDEST PUSH1 0x40 MLOAD PUSH3 0x461BCD PUSH1 0xE5 SHL DUP2 MSTORE PUSH1 0x20 PUSH1 0x4 DUP3 ADD MSTORE PUSH1 0x26 PUSH1 0x24 DUP3 ADD MSTORE PUSH32 0x4F776E61626C653A206E6577206F776E657220697320746865207A65726F2061 PUSH1 0x44 DUP3 ADD MSTORE PUSH6 0x646472657373 PUSH1 0xD0 SHL PUSH1 0x64 DUP3 ADD MSTORE PUSH1 0x84 SWAP1 REVERT JUMPDEST CALLVALUE PUSH2 0x1E5 JUMPI PUSH1 0x20 CALLDATASIZE PUSH1 0x3 NOT ADD SLT PUSH2 0x1E5 JUMPI PUSH2 0x3E8 PUSH1 0x4 CALLDATALOAD DIV DUP1 TIMESTAMP LT PUSH1 0x0 EQ PUSH2 0x941 JUMPI PUSH1 0x3C PUSH2 0x91A TIMESTAMP DUP4 PUSH2 0xAC7 JUMP JUMPDEST GT PUSH2 0x921 JUMPI STOP JUMPDEST PUSH1 0x40 MLOAD PUSH4 0xB6B0916D PUSH1 0xE0 SHL DUP2 MSTORE PUSH1 0x4 DUP2 ADD SWAP2 SWAP1 SWAP2 MSTORE TIMESTAMP PUSH1 0x24 DUP3 ADD MSTORE PUSH1 0x44 SWAP1 REVERT JUMPDEST DUP1 TIMESTAMP SUB TIMESTAMP DUP2 GT PUSH2 0x974 JUMPI PUSH1 0xB4 LT PUSH2 0x954 JUMPI STOP JUMPDEST PUSH1 0x40 MLOAD PUSH4 0x321D0B5 PUSH1 0xE0 SHL DUP2 MSTORE PUSH1 0x4 DUP2 ADD SWAP2 SWAP1 SWAP2 MSTORE TIMESTAMP PUSH1 0x24 DUP3 ADD MSTORE PUSH1 0x44 SWAP1 REVERT JUMPDEST PUSH2 0xA24 JUMP JUMPDEST CALLVALUE PUSH2 0x1E5 JUMPI PUSH1 0x0 CALLDATASIZE PUSH1 0x3 NOT ADD SLT PUSH2 0x1E5 JUMPI PUSH1 0x20 PUSH2 0x208 PUSH2 0x1557 JUMP JUMPDEST CALLVALUE PUSH2 0x1E5 JUMPI PUSH1 0x0 CALLDATASIZE PUSH1 0x3 NOT ADD SLT PUSH2 0x1E5 JUMPI PUSH1 0x20 PUSH1 0x40 MLOAD PUSH1 0x1 DUP2 MSTORE RETURN JUMPDEST CALLVALUE PUSH2 0x1E5 JUMPI PUSH1 0x0 CALLDATASIZE PUSH1 0x3 NOT ADD SLT PUSH2 0x1E5 JUMPI PUSH1 0x20 PUSH1 0x40 MLOAD PUSH1 0x64 DUP2 MSTORE RETURN JUMPDEST PUSH1 0x0 SLOAD PUSH1 0x1 PUSH1 0x1 PUSH1 0xA0 SHL SUB AND CALLER SUB PUSH2 0x9E0 JUMPI JUMP JUMPDEST PUSH1 0x64 PUSH1 0x40 MLOAD PUSH3 0x461BCD PUSH1 0xE5 SHL DUP2 MSTORE PUSH1 0x20 PUSH1 0x4 DUP3 ADD MSTORE PUSH1 0x20 PUSH1 0x24 DUP3 ADD MSTORE PUSH32 0x4F776E61626C653A2063616C6C6572206973206E6F7420746865206F776E6572 PUSH1 0x44 DUP3 ADD MSTORE REVERT JUMPDEST PUSH4 0x4E487B71 PUSH1 0xE0 SHL PUSH1 0x0 MSTORE PUSH1 0x11 PUSH1 0x4 MSTORE PUSH1 0x24 PUSH1 0x0 REVERT JUMPDEST PUSH1 0x0 NOT DUP2 EQ PUSH2 0x974 JUMPI PUSH1 0x1 ADD SWAP1 JUMP JUMPDEST SWAP1 PUSH1 0x68 DUP3 ADD DUP1 SWAP3 GT PUSH2 0x974 JUMPI JUMP JUMPDEST SWAP1 PUSH1 0x9 DUP3 ADD DUP1 SWAP3 GT PUSH2 0x974 JUMPI JUMP JUMPDEST SWAP1 PUSH1 0x2 DUP3 ADD DUP1 SWAP3 GT PUSH2 0x974 JUMPI JUMP JUMPDEST SWAP1 PUSH1 0x20 DUP3 ADD DUP1 SWAP3 GT PUSH2 0x974 JUMPI JUMP JUMPDEST SWAP1 PUSH1 0xD DUP3 ADD DUP1 SWAP3 GT PUSH2 0x974 JUMPI JUMP JUMPDEST SWAP1 PUSH1 0x41 DUP3 ADD DUP1 SWAP3 GT PUSH2 0x974 JUMPI JUMP JUMPDEST SWAP1 PUSH1 0x4E DUP3 ADD DUP1 SWAP3 GT PUSH2 0x974 JUMPI JUMP JUMPDEST SWAP2 SWAP1 DUP3 ADD DUP1 SWAP3 GT PUSH2 0x974 JUMPI JUMP JUMPDEST PUSH1 0x0 NOT DUP2 ADD SWAP2 SWAP1 DUP3 GT PUSH2 0x974 JUMPI JUMP JUMPDEST SWAP2 SWAP1 DUP3 SUB SWAP2 DUP3 GT PUSH2 0x974 JUMPI JUMP JUMPDEST SWAP1 PUSH2 0x2710 SWAP2 DUP3 DUP2 MUL SWAP3 DUP2 DUP5 DIV EQ SWAP1 ISZERO OR ISZERO PUSH2 0x974 JUMPI JUMP JUMPDEST DUP2 DUP2 MUL SWAP3 SWAP2 DUP2 ISZERO SWAP2 DUP5 DIV EQ OR ISZERO PUSH2 0x974 JUMPI JUMP JUMPDEST PUSH2 0xB07 SWAP1 PUSH2 0xBDE JUMP JUMPDEST PUSH1 0x20 ADD DUP1 PUSH1 0x20 GT PUSH2 0x974 JUMPI PUSH2 0xB1B SWAP2 PUSH2 0xAEB JUMP JUMPDEST PUSH1 0x4E DUP2 ADD DUP1 SWAP2 GT PUSH2 0x974 JUMPI SWAP1 JUMP JUMPDEST PUSH7 0x2ED57011DFFFF NOT CALLDATASIZE PUSH1 0x1F NOT ADD CALLDATALOAD PUSH7 0x2ED57011E0000 AND ADD PUSH2 0xBA3 JUMPI CALLDATASIZE PUSH1 0x29 GT PUSH2 0xB91 JUMPI PUSH3 0xFFFFFF PUSH1 0x28 NOT CALLDATASIZE ADD CALLDATALOAD AND PUSH1 0x3 DUP2 ADD DUP1 SWAP2 GT PUSH2 0x974 JUMPI PUSH2 0xB6D SWAP1 PUSH2 0xA57 JUMP JUMPDEST CALLDATASIZE PUSH2 0xB77 DUP3 PUSH2 0xA65 JUMP JUMPDEST GT PUSH2 0xB7F JUMPI SWAP1 JUMP JUMPDEST PUSH1 0x40 MLOAD PUSH4 0xC30A7BD7 PUSH1 0xE0 SHL DUP2 MSTORE PUSH1 0x4 SWAP1 REVERT JUMPDEST PUSH1 0x40 MLOAD PUSH4 0x2BCB7BC5 PUSH1 0xE1 SHL DUP2 MSTORE PUSH1 0x4 SWAP1 REVERT JUMPDEST PUSH1 0x40 MLOAD PUSH4 0x73BB264F PUSH1 0xE1 SHL DUP2 MSTORE PUSH1 0x4 SWAP1 REVERT JUMPDEST SWAP1 PUSH1 0x20 DUP3 ADD DUP1 DUP4 GT PUSH2 0x974 JUMPI CALLDATASIZE LT PUSH2 0xB91 JUMPI PUSH1 0x2 DUP3 ADD SWAP2 DUP3 DUP2 GT PUSH2 0x974 JUMPI CALLDATASIZE SUB PUSH1 0x1F NOT ADD CALLDATALOAD SWAP2 SWAP1 JUMP JUMPDEST PUSH1 0x41 DUP2 ADD DUP1 DUP3 GT PUSH2 0x974 JUMPI PUSH1 0x61 DUP3 ADD LT PUSH2 0x974 JUMPI CALLDATASIZE SUB SWAP1 PUSH1 0x60 NOT DUP3 ADD SWAP2 CALLDATASIZE DUP4 GT PUSH2 0x974 JUMPI PUSH1 0x63 NOT ADD SWAP2 DUP1 DUP4 GT PUSH2 0x974 JUMPI CALLDATALOAD PUSH3 0xFFFFFF AND SWAP2 CALLDATALOAD PUSH4 0xFFFFFFFF AND SWAP1 JUMP JUMPDEST DUP2 ISZERO PUSH2 0xC29 JUMPI DIV SWAP1 JUMP JUMPDEST PUSH4 0x4E487B71 PUSH1 0xE0 SHL PUSH1 0x0 MSTORE PUSH1 0x12 PUSH1 0x4 MSTORE PUSH1 0x24 PUSH1 0x0 REVERT JUMPDEST PUSH2 0x3E8 SWAP1 DIV DUP1 TIMESTAMP LT PUSH1 0x0 EQ PUSH2 0xC62 JUMPI TIMESTAMP DUP2 SUB DUP2 DUP2 GT PUSH2 0x974 JUMPI PUSH1 0x3C LT PUSH2 0x921 JUMPI POP JUMP JUMPDEST DUP1 TIMESTAMP SUB TIMESTAMP DUP2 GT PUSH2 0x974 JUMPI PUSH1 0xB4 LT PUSH2 0x954 JUMPI POP JUMP JUMPDEST PUSH1 0x1 PUSH1 0x1 PUSH1 0xA0 SHL SUB AND PUSH20 0xC39486F770B26F5527BBBF942726537986CD7EB DUP2 SUB PUSH2 0xCA0 JUMPI POP PUSH1 0x0 SWAP1 JUMP JUMPDEST PUSH1 0x24 SWAP1 PUSH1 0x40 MLOAD SWAP1 PUSH4 0x3B1166F PUSH1 0xE6 SHL DUP3 MSTORE PUSH1 0x4 DUP3 ADD MSTORE REVERT JUMPDEST PUSH4 0x4E487B71 PUSH1 0xE0 SHL PUSH1 0x0 MSTORE PUSH1 0x32 PUSH1 0x4 MSTORE PUSH1 0x24 PUSH1 0x0 REVERT JUMPDEST DUP1 MLOAD ISZERO PUSH2 0xCDB JUMPI PUSH1 0x20 ADD SWAP1 JUMP JUMPDEST PUSH2 0xCB8 JUMP JUMPDEST DUP1 MLOAD PUSH1 0x1 LT ISZERO PUSH2 0xCDB JUMPI PUSH1 0x40 ADD SWAP1 JUMP JUMPDEST DUP1 MLOAD DUP3 LT ISZERO PUSH2 0xCDB JUMPI PUSH1 0x20 SWAP2 PUSH1 0x5 SHL ADD ADD SWAP1 JUMP JUMPDEST PUSH1 0x2 DUP2 MLOAD EQ PUSH2 0xD7D JUMPI DUP1 MLOAD ISZERO PUSH2 0xD6B JUMPI PUSH2 0xD1D DUP2 PUSH2 0xD97 JUMP JUMPDEST DUP1 MLOAD PUSH1 0x1 DUP2 DUP2 SHR SWAP2 AND PUSH2 0xD5E JUMPI PUSH2 0xD5B SWAP2 PUSH2 0xD4E DUP3 PUSH2 0xD47 PUSH2 0xD41 PUSH2 0xD55 SWAP6 PUSH2 0xAB8 JUMP JUMPDEST DUP5 PUSH2 0xCF0 JUMP JUMPDEST MLOAD SWAP3 PUSH2 0xCF0 JUMP JUMPDEST MLOAD SWAP1 PUSH2 0xAAB JUMP JUMPDEST PUSH1 0x1 SHR SWAP1 JUMP JUMPDEST SWAP1 JUMP JUMPDEST PUSH2 0xD67 SWAP2 PUSH2 0xCF0 JUMP JUMPDEST MLOAD SWAP1 JUMP JUMPDEST PUSH1 0x40 MLOAD PUSH4 0x9E198AF9 PUSH1 0xE0 SHL DUP2 MSTORE PUSH1 0x4 SWAP1 REVERT JUMPDEST PUSH2 0xD55 DUP2 PUSH2 0xD4E PUSH2 0xD90 PUSH2 0xD5B SWAP5 PUSH2 0xCCE JUMP JUMPDEST MLOAD SWAP2 PUSH2 0xCE0 JUMP JUMPDEST DUP1 MLOAD PUSH1 0x20 DUP3 DUP2 DUP1 SWAP5 ADD SWAP3 PUSH1 0x5 SHL ADD ADD SWAP1 DUP1 JUMPDEST DUP3 DUP2 LT PUSH2 0xDB6 JUMPI POP POP POP POP JUMP JUMPDEST DUP4 DUP3 JUMPDEST DUP3 DUP2 LT PUSH2 0xDC7 JUMPI POP ADD PUSH2 0xDA9 JUMP JUMPDEST DUP3 MLOAD DUP2 MLOAD DUP1 DUP3 LT PUSH2 0xDDD JUMPI JUMPDEST POP POP ADD DUP5 SWAP1 PUSH2 0xDB9 JUMP JUMPDEST DUP5 MSTORE DUP2 MSTORE CODESIZE DUP1 PUSH2 0xDD3 JUMP JUMPDEST SWAP2 PUSH2 0xDF2 DUP4 PUSH2 0xFD9 JUMP JUMPDEST SWAP2 DUP3 PUSH2 0xE08 DUP6 PUSH1 0x0 MSTORE PUSH1 0x4 PUSH1 0x20 MSTORE PUSH1 0x40 PUSH1 0x0 KECCAK256 SWAP1 JUMP JUMPDEST SSTORE TIMESTAMP PUSH2 0xE1E DUP6 PUSH1 0x0 MSTORE PUSH1 0x5 PUSH1 0x20 MSTORE PUSH1 0x40 PUSH1 0x0 KECCAK256 SWAP1 JUMP JUMPDEST SSTORE DUP1 DUP4 GT ISZERO PUSH2 0xFC9 JUMPI PUSH2 0xE31 DUP2 DUP5 PUSH2 0xAC7 JUMP JUMPDEST SWAP1 JUMPDEST PUSH2 0xE45 DUP2 PUSH2 0xE40 DUP5 PUSH2 0xAD4 JUMP JUMPDEST PUSH2 0xC1F JUMP JUMPDEST SWAP2 PUSH2 0xE4F DUP5 PUSH2 0x150B JUMP JUMPDEST PUSH1 0x1 SLOAD DUP4 GT PUSH2 0xF3D JUMPI POP POP POP PUSH2 0xE63 PUSH2 0x1557 JUMP JUMPDEST SWAP1 DUP2 ISZERO ISZERO DUP1 PUSH2 0xF26 JUMPI JUMPDEST PUSH2 0xECF JUMPI POP POP PUSH2 0xE7D SWAP1 DUP3 PUSH2 0x1493 JUMP JUMPDEST PUSH2 0xE8D JUMPI POP PUSH1 0x0 SWAP1 PUSH1 0x3 SWAP1 PUSH1 0x0 SWAP1 JUMP JUMPDEST PUSH1 0x40 MLOAD PUSH1 0x0 DUP1 MLOAD PUSH1 0x20 PUSH2 0x1886 DUP4 CODECOPY DUP2 MLOAD SWAP2 MSTORE CALLER SWAP2 DUP1 PUSH2 0xEC0 TIMESTAMP DUP3 SWAP2 SWAP1 PUSH1 0x40 PUSH1 0x60 DUP5 ADD SWAP4 PUSH1 0x2 DUP2 MSTORE PUSH2 0x12C PUSH1 0x20 DUP3 ADD MSTORE ADD MSTORE JUMP JUMPDEST SUB SWAP1 LOG3 PUSH1 0x1 SWAP1 PUSH1 0x2 SWAP1 PUSH2 0x12C SWAP1 JUMP JUMPDEST PUSH2 0xEE6 SWAP3 POP PUSH2 0xEE1 DUP3 PUSH2 0xE40 SWAP3 PUSH2 0xAC7 JUMP JUMPDEST PUSH2 0xAD4 JUMP JUMPDEST SWAP1 PUSH1 0x40 MLOAD PUSH1 0x0 DUP1 MLOAD PUSH1 0x20 PUSH2 0x1886 DUP4 CODECOPY DUP2 MLOAD SWAP2 MSTORE CALLER SWAP2 DUP1 PUSH2 0xF1B TIMESTAMP DUP8 DUP4 PUSH1 0x40 SWAP1 SWAP4 SWAP3 SWAP2 SWAP4 PUSH1 0x60 DUP2 ADD SWAP5 PUSH1 0x1 DUP3 MSTORE PUSH1 0x20 DUP3 ADD MSTORE ADD MSTORE JUMP JUMPDEST SUB SWAP1 LOG3 PUSH1 0x1 SWAP2 DUP3 SWAP2 SWAP1 JUMP JUMPDEST POP PUSH1 0x64 PUSH2 0xF35 PUSH1 0x3 SLOAD DUP5 PUSH2 0xAEB JUMP JUMPDEST DIV DUP2 GT PUSH2 0xE6D JUMP JUMPDEST PUSH32 0x357CE8DB9C632EB267B5136EFA5FCF7F6559A762164709AFF4D5E8C4A4ABC15F SWAP4 POP PUSH2 0xFBD SWAP1 DUP7 PUSH1 0x40 SWAP8 SWAP7 SWAP5 SWAP8 MLOAD PUSH1 0x0 DUP1 MLOAD PUSH1 0x20 PUSH2 0x1886 DUP4 CODECOPY DUP2 MLOAD SWAP2 MSTORE CALLER SWAP2 DUP1 PUSH2 0xF9D TIMESTAMP DUP14 DUP4 PUSH1 0x40 SWAP1 SWAP4 SWAP3 SWAP2 SWAP4 PUSH1 0x60 DUP2 ADD SWAP5 PUSH1 0x0 DUP3 MSTORE PUSH1 0x20 DUP3 ADD MSTORE ADD MSTORE JUMP JUMPDEST SUB SWAP1 LOG3 PUSH1 0x40 MLOAD SWAP4 DUP5 SWAP4 DUP5 PUSH1 0x40 SWAP2 SWAP5 SWAP4 SWAP3 PUSH1 0x60 DUP3 ADD SWAP6 DUP3 MSTORE PUSH1 0x20 DUP3 ADD MSTORE ADD MSTORE JUMP JUMPDEST SUB SWAP1 LOG2 PUSH1 0x1 SWAP2 PUSH1 0x0 SWAP2 SWAP1 JUMP JUMPDEST PUSH2 0xFD3 DUP4 DUP3 PUSH2 0xAC7 JUMP JUMPDEST SWAP1 PUSH2 0xE33 JUMP JUMPDEST SWAP1 PUSH2 0xFE2 PUSH2 0x58C JUMP JUMPDEST SWAP2 PUSH1 0x1 SWAP1 DUP2 DUP5 MSTORE PUSH1 0x20 DUP5 ADD PUSH1 0x20 CALLDATASIZE DUP3 CALLDATACOPY DUP5 MLOAD ISZERO PUSH2 0xCDB JUMPI MSTORE PUSH1 0x0 SWAP1 PUSH2 0x1007 DUP5 MLOAD PUSH2 0x1117 JUMP JUMPDEST SWAP1 PUSH2 0x1012 DUP6 MLOAD PUSH2 0x1117 JUMP JUMPDEST SWAP5 PUSH2 0x101D DUP2 MLOAD PUSH2 0x113F JUMP JUMPDEST SWAP6 DUP3 DUP6 DUP2 JUMPDEST PUSH2 0x10CC JUMPI JUMPDEST POP POP PUSH2 0xFFFF SWAP1 PUSH2 0x1038 PUSH2 0x294 PUSH2 0xB29 JUMP JUMPDEST SWAP3 AND SWAP3 PUSH1 0x40 SWAP2 DUP3 MLOAD SWAP2 PUSH1 0x20 DUP10 SWAP4 ADD SWAP5 JUMPDEST DUP7 DUP5 LT PUSH2 0x1073 JUMPI POP POP POP POP POP POP POP POP PUSH2 0x1068 PUSH2 0x106E SWAP2 PUSH2 0xD67 SWAP5 SWAP6 PUSH2 0x1397 JUMP JUMPDEST SWAP2 PUSH2 0xC3F JUMP JUMPDEST PUSH2 0xCCE JUMP JUMPDEST PUSH2 0x1080 SWAP1 DUP13 DUP5 DUP12 DUP6 PUSH2 0x1198 JUMP JUMPDEST SWAP4 SWAP1 SWAP4 DUP1 ISZERO PUSH2 0x10BB JUMPI DUP11 DUP2 SUB PUSH2 0x109D JUMPI JUMPDEST POP DUP6 DUP6 MSTORE DUP8 ADD SWAP3 PUSH2 0x1048 JUMP JUMPDEST SWAP1 SWAP10 PUSH2 0x10AA JUMPI SWAP9 DUP8 PUSH2 0x1091 JUMP JUMPDEST DUP5 MLOAD PUSH4 0x265E23A1 PUSH1 0xE1 SHL DUP2 MSTORE PUSH1 0x4 SWAP1 REVERT JUMPDEST DUP6 MLOAD PUSH4 0xDFB25A79 PUSH1 0xE0 SHL DUP2 MSTORE PUSH1 0x4 SWAP1 REVERT JUMPDEST DUP4 MLOAD DUP2 LT ISZERO PUSH2 0x10FC JUMPI DUP2 SWAP1 PUSH2 0x10DF PUSH2 0x1101 JUMP JUMPDEST PUSH2 0x10E9 DUP3 DUP13 PUSH2 0xCF0 JUMP JUMPDEST MSTORE PUSH2 0x10F4 DUP2 DUP12 PUSH2 0xCF0 JUMP JUMPDEST POP ADD DUP2 PUSH2 0x1022 JUMP JUMPDEST PUSH2 0x1027 JUMP JUMPDEST PUSH2 0x1109 PUSH2 0x58C JUMP JUMPDEST PUSH1 0x1 DUP2 MSTORE SWAP1 PUSH1 0x20 CALLDATASIZE DUP2 DUP5 ADD CALLDATACOPY JUMP JUMPDEST SWAP1 PUSH2 0x1124 PUSH2 0x630 DUP4 PUSH2 0x5D7 JUMP JUMPDEST DUP3 DUP2 MSTORE DUP1 SWAP3 PUSH2 0x1135 PUSH1 0x1F NOT SWAP2 PUSH2 0x5D7 JUMP JUMPDEST ADD SWAP1 PUSH1 0x20 CALLDATASIZE SWAP2 ADD CALLDATACOPY JUMP JUMPDEST SWAP1 PUSH2 0x114C PUSH2 0x630 DUP4 PUSH2 0x5D7 JUMP JUMPDEST DUP3 DUP2 MSTORE DUP1 SWAP3 PUSH2 0x115D PUSH1 0x1F NOT SWAP2 PUSH2 0x5D7 JUMP JUMPDEST ADD SWAP1 PUSH1 0x0 JUMPDEST DUP3 DUP2 LT PUSH2 0x116E JUMPI POP POP POP JUMP JUMPDEST DUP1 PUSH1 0x60 PUSH1 0x20 DUP1 SWAP4 DUP6 ADD ADD MSTORE ADD PUSH2 0x1162 JUMP JUMPDEST SWAP1 PUSH1 0x40 MLOAD SWAP2 DUP2 DUP4 MSTORE PUSH1 0x20 DUP3 DUP5 ADD ADD PUSH1 0x40 MSTORE PUSH1 0x20 DUP4 ADD CALLDATACOPY SWAP1 JUMP JUMPDEST SWAP1 SWAP5 SWAP3 SWAP2 PUSH2 0x11A5 DUP6 PUSH2 0xBDE JUMP JUMPDEST SWAP2 SWAP1 SWAP4 PUSH2 0x11C2 PUSH2 0x11BD PUSH2 0x11B7 DUP6 PUSH2 0xA73 JUMP JUMPDEST DUP8 PUSH2 0xAEB JUMP JUMPDEST PUSH2 0xA81 JUMP JUMPDEST SWAP7 PUSH2 0x1219 PUSH2 0x1213 PUSH2 0x120D PUSH2 0x263 PUSH2 0x11DB PUSH2 0x2D7 DUP7 PUSH2 0xA49 JUMP JUMPDEST SWAP12 PUSH1 0x20 PUSH2 0x11FC DUP3 PUSH2 0x11F7 PUSH2 0x2D7 DUP3 PUSH2 0x11F2 DUP13 PUSH2 0xA8F JUMP JUMPDEST PUSH2 0xAAB JUMP JUMPDEST PUSH2 0x117F JUMP JUMPDEST ADD KECCAK256 PUSH2 0x1207 DUP7 PUSH2 0xA8F JUMP JUMPDEST SWAP1 PUSH2 0x141F JUMP JUMPDEST PUSH1 0xFF AND SWAP1 JUMP JUMPDEST SWAP2 PUSH2 0xA9D JUMP JUMPDEST SWAP6 PUSH1 0x0 SWAP10 DUP11 SWAP6 JUMPDEST DUP3 DUP8 LT PUSH2 0x123F JUMPI POP SWAP7 SWAP10 POP POP POP SWAP6 CALLDATALOAD PUSH6 0xFFFFFFFFFFFF AND SWAP6 POP POP POP POP POP JUMP JUMPDEST SWAP3 SWAP6 SWAP9 SWAP1 SWAP4 SWAP7 SWAP10 SWAP2 SWAP5 SWAP8 PUSH2 0x1256 DUP5 PUSH2 0x125B SWAP3 PUSH2 0xAAB JUMP JUMPDEST PUSH2 0xA73 JUMP JUMPDEST PUSH2 0x1265 DUP5 DUP3 PUSH2 0x1356 JUMP JUMPDEST SWAP7 SWAP1 SWAP13 DUP1 JUMPDEST DUP14 MLOAD DUP2 LT ISZERO PUSH2 0x1340 JUMPI DUP15 PUSH2 0x127F DUP16 DUP4 SWAP1 PUSH2 0xCF0 JUMP JUMPDEST MLOAD EQ PUSH2 0x128D JUMPI PUSH1 0x1 ADD PUSH2 0x126A JUMP JUMPDEST SWAP1 SWAP6 SWAP4 SWAP13 SWAP11 SWAP9 SWAP7 SWAP5 SWAP14 POP DUP10 PUSH1 0x1 SWAP4 SWAP13 SWAP3 SWAP11 SWAP9 PUSH2 0x12A9 DUP4 DUP13 PUSH2 0xCF0 JUMP JUMPDEST MLOAD DUP6 DUP11 SHL SWAP2 DUP3 DUP3 AND ISZERO DUP8 DUP2 PUSH2 0x132C JUMPI JUMPDEST POP PUSH2 0x12D8 JUMPI JUMPDEST POP POP POP POP POP JUMPDEST ADD SWAP7 SWAP2 SWAP1 SWAP11 SWAP10 SWAP9 SWAP8 SWAP7 SWAP6 SWAP5 SWAP4 SWAP3 SWAP11 PUSH2 0x1220 JUMP JUMPDEST PUSH2 0x12FA PUSH2 0x12E8 DUP7 PUSH2 0x1321 SWAP7 PUSH2 0xCF0 JUMP JUMPDEST MLOAD PUSH2 0x12F3 DUP8 DUP13 PUSH2 0xCF0 JUMP JUMPDEST MLOAD SWAP1 PUSH2 0xCF0 JUMP JUMPDEST MSTORE PUSH2 0x130E PUSH2 0x1308 DUP6 DUP11 PUSH2 0xCF0 JUMP JUMPDEST MLOAD PUSH2 0xA3A JUMP JUMPDEST PUSH2 0x1318 DUP6 DUP11 PUSH2 0xCF0 JUMP JUMPDEST MSTORE OR SWAP2 DUP11 PUSH2 0xCF0 JUMP JUMPDEST MSTORE CODESIZE DUP8 DUP2 DUP1 DUP1 PUSH2 0x12BF JUMP JUMPDEST SWAP1 POP PUSH2 0x1338 DUP7 DUP12 PUSH2 0xCF0 JUMP JUMPDEST MLOAD LT CODESIZE PUSH2 0x12B9 JUMP JUMPDEST POP SWAP5 SWAP3 SWAP12 SWAP10 SWAP8 SWAP6 SWAP4 SWAP13 POP SWAP8 SWAP6 POP SWAP9 PUSH1 0x1 SWAP1 PUSH2 0x12C5 JUMP JUMPDEST SWAP2 SWAP1 SWAP2 CALLDATASIZE SUB SWAP2 CALLDATASIZE DUP4 GT PUSH2 0x974 JUMPI DUP3 CALLDATALOAD SWAP3 PUSH1 0x21 DUP3 LT ISZERO PUSH2 0x137E JUMPI PUSH1 0x20 ADD CALLDATALOAD SWAP1 PUSH1 0x20 SUB PUSH1 0x3 SHL SHR SWAP1 JUMP JUMPDEST PUSH1 0x40 MLOAD PUSH4 0x60007E21 PUSH1 0xE1 SHL DUP2 MSTORE PUSH1 0x4 DUP2 ADD DUP4 SWAP1 MSTORE PUSH1 0x24 SWAP1 REVERT JUMPDEST SWAP2 SWAP1 PUSH2 0x13A3 DUP4 MLOAD PUSH2 0x1117 JUMP JUMPDEST SWAP1 PUSH1 0x0 JUMPDEST DUP5 MLOAD DUP2 LT ISZERO PUSH2 0x1418 JUMPI PUSH1 0x1 DUP1 PUSH2 0x13BD DUP4 DUP6 PUSH2 0xCF0 JUMP JUMPDEST MLOAD LT PUSH2 0x13F0 JUMPI POP DUP1 PUSH2 0x13DB PUSH2 0x13D5 PUSH2 0x13EB SWAP4 DUP9 PUSH2 0xCF0 JUMP JUMPDEST MLOAD PUSH2 0xD04 JUMP JUMPDEST PUSH2 0x13E5 DUP3 DUP7 PUSH2 0xCF0 JUMP JUMPDEST MSTORE PUSH2 0xA3A JUMP JUMPDEST PUSH2 0x13A7 JUMP JUMPDEST PUSH2 0x13FC PUSH1 0x44 SWAP3 DUP5 PUSH2 0xCF0 JUMP JUMPDEST MLOAD SWAP1 PUSH1 0x40 MLOAD SWAP2 PUSH4 0x2B13AEF5 PUSH1 0xE0 SHL DUP4 MSTORE PUSH1 0x4 DUP4 ADD MSTORE PUSH1 0x24 DUP3 ADD MSTORE REVERT JUMPDEST POP SWAP1 SWAP3 POP POP JUMP JUMPDEST SWAP2 SWAP1 PUSH1 0x20 DUP1 SWAP2 CALLDATASIZE SUB PUSH1 0x80 PUSH1 0x40 MLOAD DUP7 DUP2 MSTORE PUSH1 0x0 SWAP5 DUP4 PUSH1 0x40 DUP8 SWAP6 ADD CALLDATALOAD DUP6 BYTE DUP3 DUP5 ADD MSTORE DUP1 CALLDATALOAD PUSH1 0x40 DUP5 ADD MSTORE ADD CALLDATALOAD PUSH1 0x60 DUP3 ADD MSTORE DUP3 DUP1 MSTORE PUSH1 0x1 GAS STATICCALL ISZERO PUSH2 0x1487 JUMPI MLOAD SWAP2 PUSH1 0x1 PUSH1 0x1 PUSH1 0xA0 SHL SUB DUP4 AND ISZERO PUSH2 0x146D JUMPI POP JUMP JUMPDEST PUSH1 0x40 MLOAD PUSH4 0x3335BE5D PUSH1 0xE1 SHL DUP2 MSTORE PUSH1 0x4 DUP2 ADD SWAP2 SWAP1 SWAP2 MSTORE PUSH1 0x24 SWAP1 REVERT JUMPDEST PUSH1 0x40 MLOAD SWAP1 RETURNDATASIZE SWAP1 DUP3 RETURNDATACOPY RETURNDATASIZE SWAP1 REVERT JUMPDEST SWAP1 PUSH1 0x0 SWAP2 DUP3 MSTORE PUSH1 0x4 PUSH1 0x20 MSTORE PUSH1 0x40 DUP3 KECCAK256 SLOAD SWAP1 PUSH1 0x5 PUSH1 0x20 MSTORE PUSH1 0x40 DUP4 KECCAK256 SLOAD DUP3 ISZERO DUP1 ISZERO PUSH2 0x1503 JUMPI JUMPDEST PUSH2 0x14FD JUMPI TIMESTAMP SUB TIMESTAMP DUP2 GT PUSH2 0x974 JUMPI PUSH1 0x1E LT ISZERO PUSH2 0x14D1 JUMPI POP POP SWAP1 JUMP JUMPDEST PUSH2 0x14EC SWAP3 POP PUSH2 0xE40 SWAP1 DUP3 DUP1 DUP3 GT ISZERO PUSH2 0x14F3 JUMPI PUSH2 0xEE1 SWAP2 PUSH2 0xAC7 JUMP JUMPDEST PUSH1 0x2 SLOAD LT SWAP1 JUMP JUMPDEST SWAP1 PUSH2 0xEE1 SWAP2 PUSH2 0xAC7 JUMP JUMPDEST POP POP POP SWAP1 JUMP JUMPDEST POP DUP1 ISZERO PUSH2 0x14B7 JUMP JUMPDEST PUSH1 0x7 SLOAD PUSH1 0x6 SLOAD DUP2 LT ISZERO PUSH2 0xCDB JUMPI PUSH1 0x6 PUSH1 0x0 MSTORE PUSH32 0xF652222313E28459528D920B65115C16C04F3EFC82AAEDC97BE59F3F377C0D3F ADD SSTORE PUSH1 0x7 SLOAD PUSH1 0x1 DUP2 ADD DUP1 SWAP2 GT PUSH2 0x974 JUMPI PUSH1 0x64 SWAP1 MOD PUSH1 0x7 SSTORE JUMP JUMPDEST PUSH1 0x0 DUP1 DUP2 PUSH1 0x6 DUP1 SLOAD SWAP2 JUMPDEST PUSH1 0x64 DUP2 LT PUSH2 0x1585 JUMPI POP PUSH1 0x0 SWAP4 SWAP2 POP POP DUP2 ISZERO PUSH2 0x1580 JUMPI PUSH2 0xD5B SWAP3 POP PUSH2 0xC1F JUMP JUMPDEST POP POP SWAP1 JUMP JUMPDEST DUP3 DUP2 LT ISZERO PUSH2 0xCDB JUMPI DUP2 PUSH1 0x0 MSTORE DUP1 PUSH32 0xF652222313E28459528D920B65115C16C04F3EFC82AAEDC97BE59F3F377C0D3F ADD SLOAD DUP1 PUSH2 0x15CA JUMPI JUMPDEST POP PUSH2 0x15C5 SWAP1 PUSH2 0xA3A JUMP JUMPDEST PUSH2 0x1561 JUMP JUMPDEST DUP6 SWAP2 SWAP5 SWAP6 ADD DUP1 SWAP2 GT PUSH2 0x974 JUMPI PUSH2 0x15E3 PUSH2 0x15C5 SWAP2 SWAP6 PUSH2 0xA3A JUMP JUMPDEST SWAP4 SWAP1 PUSH2 0x15BB JUMP JUMPDEST SWAP2 DUP2 PUSH2 0x1600 DUP5 PUSH1 0x0 MSTORE PUSH1 0x4 PUSH1 0x20 MSTORE PUSH1 0x40 PUSH1 0x0 KECCAK256 SWAP1 JUMP JUMPDEST SSTORE TIMESTAMP PUSH2 0x1616 DUP5 PUSH1 0x0 MSTORE PUSH1 0x5 PUSH1 0x20 MSTORE PUSH1 0x40 PUSH1 0x0 KECCAK256 SWAP1 JUMP JUMPDEST SSTORE PUSH2 0x1620 DUP2 PUSH2 0x150B JUMP JUMPDEST PUSH2 0x1634 DUP4 PUSH1 0x0 MSTORE PUSH1 0x4 PUSH1 0x20 MSTORE PUSH1 0x40 PUSH1 0x0 KECCAK256 SWAP1 JUMP JUMPDEST SLOAD ISZERO PUSH2 0x16E7 JUMPI PUSH2 0x164E DUP4 PUSH1 0x0 MSTORE PUSH1 0x4 PUSH1 0x20 MSTORE PUSH1 0x40 PUSH1 0x0 KECCAK256 SWAP1 JUMP JUMPDEST SLOAD JUMPDEST DUP1 DUP4 GT ISZERO PUSH2 0x16D7 JUMPI PUSH2 0x1662 DUP2 DUP5 PUSH2 0xAC7 JUMP JUMPDEST SWAP1 JUMPDEST PUSH1 0x0 DUP2 ISZERO PUSH2 0x16CF JUMPI POP PUSH2 0xE40 PUSH2 0x1679 SWAP3 PUSH2 0xAD4 JUMP JUMPDEST PUSH1 0x1 SLOAD DUP2 GT PUSH2 0x168B JUMPI POP PUSH2 0xE63 PUSH2 0x1557 JUMP JUMPDEST SWAP3 SWAP2 POP POP PUSH1 0x40 MLOAD PUSH1 0x0 DUP1 MLOAD PUSH1 0x20 PUSH2 0x1886 DUP4 CODECOPY DUP2 MLOAD SWAP2 MSTORE CALLER SWAP2 DUP1 PUSH2 0x16C3 TIMESTAMP DUP8 DUP4 PUSH1 0x40 SWAP1 SWAP4 SWAP3 SWAP2 SWAP4 PUSH1 0x60 DUP2 ADD SWAP5 PUSH1 0x0 DUP3 MSTORE PUSH1 0x20 DUP3 ADD MSTORE ADD MSTORE JUMP JUMPDEST SUB SWAP1 LOG3 PUSH1 0x1 SWAP2 PUSH1 0x0 SWAP2 SWAP1 JUMP JUMPDEST SWAP2 POP POP PUSH2 0x1679 JUMP JUMPDEST PUSH2 0x16E1 DUP4 DUP3 PUSH2 0xAC7 JUMP JUMPDEST SWAP1 PUSH2 0x1664 JUMP JUMPDEST DUP2 PUSH2 0x1650 JUMP JUMPDEST SWAP2 PUSH2 0x1702 DUP4 PUSH1 0x0 MSTORE PUSH1 0x4 PUSH1 0x20 MSTORE PUSH1 0x40 PUSH1 0x0 KECCAK256 SWAP1 JUMP JUMPDEST SLOAD ISZERO PUSH2 0x187F JUMPI PUSH2 0x171C DUP4 PUSH1 0x0 MSTORE PUSH1 0x4 PUSH1 0x20 MSTORE PUSH1 0x40 PUSH1 0x0 KECCAK256 SWAP1 JUMP JUMPDEST SLOAD JUMPDEST DUP1 DUP4 GT ISZERO PUSH2 0x186F JUMPI PUSH2 0x1730 DUP2 DUP5 PUSH2 0xAC7 JUMP JUMPDEST SWAP1 JUMPDEST PUSH1 0x0 DUP2 ISZERO PUSH2 0x1867 JUMPI POP PUSH2 0xE40 PUSH2 0x1747 SWAP3 PUSH2 0xAD4 JUMP JUMPDEST PUSH1 0x1 SLOAD DUP2 GT PUSH2 0x185A JUMPI POP PUSH2 0x1759 PUSH2 0x1557 JUMP JUMPDEST SWAP1 DUP2 ISZERO ISZERO DUP1 PUSH2 0x1843 JUMPI JUMPDEST PUSH2 0x1826 JUMPI POP POP PUSH2 0x177D DUP3 PUSH1 0x0 MSTORE PUSH1 0x4 PUSH1 0x20 MSTORE PUSH1 0x40 PUSH1 0x0 KECCAK256 SWAP1 JUMP JUMPDEST SLOAD PUSH2 0x1790 JUMPI JUMPDEST POP POP PUSH1 0x0 SWAP1 PUSH1 0x3 SWAP1 PUSH1 0x0 SWAP1 JUMP JUMPDEST DUP2 PUSH2 0x17E9 PUSH2 0x17D8 PUSH2 0x17F0 SWAP4 PUSH2 0x17B1 PUSH1 0xC8 SWAP7 PUSH1 0x0 MSTORE PUSH1 0x4 PUSH1 0x20 MSTORE PUSH1 0x40 PUSH1 0x0 KECCAK256 SWAP1 JUMP JUMPDEST SLOAD DUP2 GT ISZERO PUSH2 0x1808 JUMPI PUSH2 0xEE1 SWAP1 PUSH2 0x17D1 DUP6 PUSH1 0x0 MSTORE PUSH1 0x4 PUSH1 0x20 MSTORE PUSH1 0x40 PUSH1 0x0 KECCAK256 SWAP1 JUMP JUMPDEST SLOAD SWAP1 PUSH2 0xAC7 JUMP JUMPDEST SWAP2 PUSH1 0x0 MSTORE PUSH1 0x4 PUSH1 0x20 MSTORE PUSH1 0x40 PUSH1 0x0 KECCAK256 SWAP1 JUMP JUMPDEST SLOAD SWAP1 PUSH2 0xC1F JUMP JUMPDEST GT PUSH2 0x17FC JUMPI CODESIZE DUP1 PUSH2 0x1783 JUMP JUMPDEST PUSH1 0x1 SWAP1 PUSH1 0x2 SWAP1 PUSH2 0x12C SWAP1 JUMP JUMPDEST PUSH2 0xEE1 SWAP1 PUSH2 0x1820 DUP6 PUSH1 0x0 MSTORE PUSH1 0x4 PUSH1 0x20 MSTORE PUSH1 0x40 PUSH1 0x0 KECCAK256 SWAP1 JUMP JUMPDEST SLOAD PUSH2 0xAC7 JUMP JUMPDEST PUSH2 0x183B SWAP4 POP DUP2 PUSH2 0xE40 SWAP3 SWAP4 POP PUSH2 0xEE1 SWAP2 PUSH2 0xAC7 JUMP JUMPDEST PUSH1 0x1 SWAP2 DUP3 SWAP2 SWAP1 JUMP JUMPDEST POP PUSH1 0x64 PUSH2 0x1852 PUSH1 0x3 SLOAD DUP5 PUSH2 0xAEB JUMP JUMPDEST DIV DUP2 GT PUSH2 0x1763 JUMP JUMPDEST SWAP3 POP POP POP PUSH1 0x1 SWAP2 PUSH1 0x0 SWAP2 SWAP1 JUMP JUMPDEST SWAP2 POP POP PUSH2 0x1747 JUMP JUMPDEST PUSH2 0x1879 DUP4 DUP3 PUSH2 0xAC7 JUMP JUMPDEST SWAP1 PUSH2 0x1732 JUMP JUMPDEST DUP2 PUSH2 0x171E JUMP INVALID SWAP15 0xE9 0xD1 PUSH1 0x83 TIMESTAMP 0xEE 0xD1 TIMESTAMP 0x29 0xD2 0xEC 0xA9 MUL 0xE2 PUSH7 0xAFF9ED9A3BDAF SWAP10 DUP11 CALL AND 0xAF 0xDF SLT 0xA6 0x21 LOG2 PUSH5 0x6970667358 0x22 SLT KECCAK256 DUP2 0x28 0xEF 0x2E 0xE0 SIGNEXTEND SWAP7 0x2D 0xD5 ORIGIN 0x4F NUMBER 0xDC PREVRANDAO 0xD0 0xF 0x29 PUSH13 0x88296352E85E3CED24091B32FF 0xB5 PUSH5 0x736F6C6343 STOP ADDMOD EQ STOP CALLER "},"methodIdentifiers":{"GAS_HISTORY_SIZE()":"ff53159c","aggregateValues(uint256[])":"b24ebfcc","detectMEV(bytes32,uint256,uint256)":"db148397","detectMEVWithMockPrice(bytes32,uint256,uint256)":"afbc738c","detectMEVWithMockPriceView(bytes32,uint256,uint256)":"c93ad619","extractTimestampsAndAssertAllAreEqual()":"55a547d5","frontRunGasMultiplier()":"37f8218e","getAuthorisedSignerIndex(address)":"3ce142f5","getAverageGasPrice()":"f5ab4485","getCurrentPrice(bytes32)":"161e444e","getDataServiceId()":"c274583a","getPriceHistory(bytes32)":"0bb30e24","getUniqueSignersThreshold()":"f90c4924","lastPrices(bytes32)":"d67e343c","lastUpdateTimestamp(bytes32)":"e4f269ec","minPriceDelta()":"7bfdfac7","owner()":"8da5cb5b","renounceOwnership()":"715018a6","riskThreshold()":"b43e6cb4","setFrontRunGasMultiplier(uint256)":"a833be21","setMinPriceDelta(uint256)":"c324feed","setRiskThreshold(uint256)":"7083d1c2","transferOwnership(address)":"f2fde38b","validateTimestamp(uint256)":"f50b2efe"}}}}}