{"contracts/MockDEXRouter.sol":{"MockDEXRouter":{"abi":[{"inputs":[],"stateMutability":"nonpayable","type":"constructor"},{"anonymous":false,"inputs":[{"indexed":true,"internalType":"address","name":"user","type":"address"},{"indexed":false,"internalType":"uint256","name":"riskScore","type":"uint256"}],"name":"MEVThreatDetected","type":"event"},{"anonymous":false,"inputs":[{"indexed":true,"internalType":"string","name":"pair","type":"string"},{"indexed":false,"internalType":"uint256","name":"newPrice","type":"uint256"}],"name":"PriceUpdated","type":"event"},{"anonymous":false,"inputs":[{"indexed":true,"internalType":"address","name":"user","type":"address"},{"indexed":false,"internalType":"uint256","name":"amountIn","type":"uint256"},{"indexed":false,"internalType":"uint256","name":"amountOut","type":"uint256"},{"indexed":false,"internalType":"string[]","name":"path","type":"string[]"}],"name":"SwapExecuted","type":"event"},{"inputs":[{"internalType":"address","name":"otherDex","type":"address"},{"internalType":"uint256","name":"amount","type":"uint256"},{"internalType":"string[]","name":"path","type":"string[]"}],"name":"arbitrageSwap","outputs":[{"internalType":"bool","name":"","type":"bool"}],"stateMutability":"nonpayable","type":"function"},{"inputs":[{"internalType":"address","name":"user","type":"address"},{"internalType":"uint256","name":"amount","type":"uint256"},{"internalType":"uint256","name":"gasPrice","type":"uint256"}],"name":"calculateMEVRisk","outputs":[{"internalType":"uint256","name":"riskScore","type":"uint256"}],"stateMutability":"view","type":"function"},{"inputs":[{"internalType":"string","name":"pair","type":"string"}],"name":"getPrice","outputs":[{"internalType":"uint256","name":"","type":"uint256"}],"stateMutability":"view","type":"function"},{"inputs":[{"internalType":"address","name":"","type":"address"}],"name":"mevProtected","outputs":[{"internalType":"bool","name":"","type":"bool"}],"stateMutability":"view","type":"function"},{"inputs":[{"internalType":"string","name":"","type":"string"}],"name":"prices","outputs":[{"internalType":"uint256","name":"","type":"uint256"}],"stateMutability":"view","type":"function"},{"inputs":[{"internalType":"address","name":"user","type":"address"},{"internalType":"bool","name":"protected","type":"bool"}],"name":"setMEVProtection","outputs":[],"stateMutability":"nonpayable","type":"function"},{"inputs":[{"internalType":"string","name":"pair","type":"string"},{"internalType":"uint256","name":"price","type":"uint256"}],"name":"setPrice","outputs":[],"stateMutability":"nonpayable","type":"function"},{"inputs":[{"internalType":"uint256","name":"amountIn","type":"uint256"},{"internalType":"uint256","name":"amountOutMin","type":"uint256"},{"internalType":"string[]","name":"path","type":"string[]"},{"internalType":"address","name":"to","type":"address"},{"internalType":"uint256","name":"deadline","type":"uint256"}],"name":"swapExactTokensForTokens","outputs":[{"internalType":"uint256[]","name":"amounts","type":"uint256[]"}],"stateMutability":"nonpayable","type":"function"}],"evm":{"bytecode":{"linkReferences":{},"object":"6080806040523461006157602881674554482f5553444360c01b686c6b935b8bbd40000093526000600882015220556601c6bf526340006028604051670aaa688865e8aa8960c31b8152600060088201522055604051610a5b90816100678239f35b600080fdfe6040608081526004908136101561001557600080fd5b6000803560e01c8063027ebaa91461068d57806322e01192146105f2578063524f3889146103d55780639e7f7fca146105be578063a18d005214610435578063c3825f4b146103d5578063eebbc26b146103975763f0ac385a1461007857600080fd5b346103945760a036600319011261039457604492833567ffffffffffffffff8111610390576100aa9036908301610799565b90606492833560018060a01b03811680910361038c578235936100cd3a86610920565b6046811161032a575042608435106102ff5760028151106102cf578051946100f486610781565b9588519661010290886106f2565b808752601f199061011290610781565b019660209586880198368a37826101288961083d565b526101328461083d565b519a878061013f87610860565b519d8d519e8f9180519081858501968792019161015b9261081a565b8201838101602f60f81b905281519182856021840192019161017c9261081a565b01039d60019e8f8101825260210161019490826106f2565b8d51809381925180926101a69261081a565b81018a81520301902054801561029f576101c9670de0b6b3a76400009186610870565b046101d38a610860565b526024356101e08a610860565b511061026057505050917f9d5425e332a9dd28ac94e5ce1d3dab735aee6539c8929d45e827341de257004d899592879461022a61021d8c9a610860565b51928a5193849384610899565b0390a28451948186019282875251809352850195925b82811061024d5785870386f35b8351875295810195928101928401610240565b8a5162461bcd60e51b8152918201889052601a60248301527f494e53554646494349454e545f4f55545055545f414d4f554e5400000000000090820152fd5b508a5162461bcd60e51b8152918201889052600d60248301526c14149250d157d393d517d4d155609a1b90820152fd5b865162461bcd60e51b8152602081860152600c60248201526b0929cac82989288bea082a8960a31b818a01528690fd5b865162461bcd60e51b815260208186015260076024820152661156141254915160ca1b818a01528690fd5b847213515597d5121491505517d111551150d51151606a1b8a60208b8b9581519081527f7e193569bc8188172005eb149928c1eabf1d56aead3e3a3e125866ae34f449d4833392a25162461bcd60e51b81529384015260136024840152820152fd5b5080fd5b8280fd5b80fd5b50903461038c57602036600319011261038c5760209160ff9082906001600160a01b036103c26106d7565b1681526001855220541690519015158152f35b50913461039057602036600319011261039057803567ffffffffffffffff81116104315760209361040d61042093869336910161072a565b908285519483868095519384920161081a565b820190815203019020549051908152f35b8380fd5b50346103945760603660031901126103945761044f6106d7565b506024359060443567ffffffffffffffff811161038c576104739036908601610799565b9061047d8261083d565b51946104ea61048b84610860565b51865197886104da602160209b8c95866104ae818401978881519384920161081a565b8201602f60f81b888201526104cb825180938a878501910161081a565b010360018101845201826106f2565b885193849283925192839161081a565b8101858152030190205491610401908184029184830414841517156105ab57506103e8900491821115610568575090670de0b6b3a764000061054d7f9d5425e332a9dd28ac94e5ce1d3dab735aee6539c8929d45e827341de257004d9385610870565b0461055e8551928392339684610899565b0390a25160018152f35b845162461bcd60e51b8152908101869052601860248201527f4e4f5f4152424954524147455f4f50504f5254554e49545900000000000000006044820152606490fd5b634e487b7160e01b815260118352602490fd5b50903461038c57606036600319011261038c576020906105dc6106d7565b506105eb604435602435610920565b9051908152f35b50913461039057816003193601126103905780359067ffffffffffffffff8211610431576106466020917f159e83f4712ba2552e68be9d848e49bf6dd35c24f19564ffd523b6549450a2f49336910161072a565b61067f602435918551908381519286818185019561066581838961081a565b81018c81520301902055865192839283925192839161081a565b81010390209351908152a280f35b50903461038c578060031936011261038c576106a76106d7565b90602435918215158093036104315760018060a01b03168352600160205282209060ff8019835416911617905580f35b600435906001600160a01b03821682036106ed57565b600080fd5b90601f8019910116810190811067ffffffffffffffff82111761071457604052565b634e487b7160e01b600052604160045260246000fd5b81601f820112156106ed5780359067ffffffffffffffff8211610714576040519261075f601f8401601f1916602001856106f2565b828452602083830101116106ed57816000926020809301838601378301015290565b67ffffffffffffffff81116107145760051b60200190565b9080601f830112156106ed578135906107b182610781565b926107bf60405194856106f2565b828452602092838086019160051b830101928084116106ed57848301915b8483106107ed5750505050505090565b823567ffffffffffffffff81116106ed57869161080f8484809489010161072a565b8152019201916107dd565b60005b83811061082d5750506000910152565b818101518382015260200161081d565b80511561084a5760200190565b634e487b7160e01b600052603260045260246000fd5b80516001101561084a5760400190565b8181029291811591840414171561088357565b634e487b7160e01b600052601160045260246000fd5b91606083019183526020908184015260606040840152835180925260808301928160808460051b8301019501936000915b8483106108da5750505050505090565b909192939495848080600193607f198682030187528a516109068151809281855285808601910161081a565b601f01601f191601019801969594919091019201906108ca565b90600080916409502f900081116000146109ed5750601e810180911161099457915b683635c9adc5dea000008111156109a85750906019810180911161099457905b60146064420610610971575090565b60148201809211610980575090565b634e487b7160e01b81526011600452602490fd5b634e487b7160e01b82526011600452602482fd5b68056bc75e2d631000008111156109cc575090600f81018091116109945790610962565b678ac7230489e8000010156109625790600581018091116109945790610962565b6406fc23ac00811115610a0c5750601481018091116109945791610942565b64059682f00090939193111561094257600a925061094256fea264697066735822122095b5e09381830ddeb07d7bb4ed4e9bebdb45f7aad11e01d65c0d4e0db1098dc864736f6c63430008140033","opcodes":"PUSH1 0x80 DUP1 PUSH1 0x40 MSTORE CALLVALUE PUSH2 0x61 JUMPI PUSH1 0x28 DUP2 PUSH8 0x4554482F55534443 PUSH1 0xC0 SHL PUSH9 0x6C6B935B8BBD400000 SWAP4 MSTORE PUSH1 0x0 PUSH1 0x8 DUP3 ADD MSTORE KECCAK256 SSTORE PUSH7 0x1C6BF52634000 PUSH1 0x28 PUSH1 0x40 MLOAD PUSH8 0xAAA688865E8AA89 PUSH1 0xC3 SHL DUP2 MSTORE PUSH1 0x0 PUSH1 0x8 DUP3 ADD MSTORE KECCAK256 SSTORE PUSH1 0x40 MLOAD PUSH2 0xA5B SWAP1 DUP2 PUSH2 0x67 DUP3 CODECOPY RETURN JUMPDEST PUSH1 0x0 DUP1 REVERT INVALID PUSH1 0x40 PUSH1 0x80 DUP2 MSTORE PUSH1 0x4 SWAP1 DUP2 CALLDATASIZE LT ISZERO PUSH2 0x15 JUMPI PUSH1 0x0 DUP1 REVERT JUMPDEST PUSH1 0x0 DUP1 CALLDATALOAD PUSH1 0xE0 SHR DUP1 PUSH4 0x27EBAA9 EQ PUSH2 0x68D JUMPI DUP1 PUSH4 0x22E01192 EQ PUSH2 0x5F2 JUMPI DUP1 PUSH4 0x524F3889 EQ PUSH2 0x3D5 JUMPI DUP1 PUSH4 0x9E7F7FCA EQ PUSH2 0x5BE JUMPI DUP1 PUSH4 0xA18D0052 EQ PUSH2 0x435 JUMPI DUP1 PUSH4 0xC3825F4B EQ PUSH2 0x3D5 JUMPI DUP1 PUSH4 0xEEBBC26B EQ PUSH2 0x397 JUMPI PUSH4 0xF0AC385A EQ PUSH2 0x78 JUMPI PUSH1 0x0 DUP1 REVERT JUMPDEST CALLVALUE PUSH2 0x394 JUMPI PUSH1 0xA0 CALLDATASIZE PUSH1 0x3 NOT ADD SLT PUSH2 0x394 JUMPI PUSH1 0x44 SWAP3 DUP4 CALLDATALOAD PUSH8 0xFFFFFFFFFFFFFFFF DUP2 GT PUSH2 0x390 JUMPI PUSH2 0xAA SWAP1 CALLDATASIZE SWAP1 DUP4 ADD PUSH2 0x799 JUMP JUMPDEST SWAP1 PUSH1 0x64 SWAP3 DUP4 CALLDATALOAD PUSH1 0x1 DUP1 PUSH1 0xA0 SHL SUB DUP2 AND DUP1 SWAP2 SUB PUSH2 0x38C JUMPI DUP3 CALLDATALOAD SWAP4 PUSH2 0xCD GASPRICE DUP7 PUSH2 0x920 JUMP JUMPDEST PUSH1 0x46 DUP2 GT PUSH2 0x32A JUMPI POP TIMESTAMP PUSH1 0x84 CALLDATALOAD LT PUSH2 0x2FF JUMPI PUSH1 0x2 DUP2 MLOAD LT PUSH2 0x2CF JUMPI DUP1 MLOAD SWAP5 PUSH2 0xF4 DUP7 PUSH2 0x781 JUMP JUMPDEST SWAP6 DUP9 MLOAD SWAP7 PUSH2 0x102 SWAP1 DUP9 PUSH2 0x6F2 JUMP JUMPDEST DUP1 DUP8 MSTORE PUSH1 0x1F NOT SWAP1 PUSH2 0x112 SWAP1 PUSH2 0x781 JUMP JUMPDEST ADD SWAP7 PUSH1 0x20 SWAP6 DUP7 DUP9 ADD SWAP9 CALLDATASIZE DUP11 CALLDATACOPY DUP3 PUSH2 0x128 DUP10 PUSH2 0x83D JUMP JUMPDEST MSTORE PUSH2 0x132 DUP5 PUSH2 0x83D JUMP JUMPDEST MLOAD SWAP11 DUP8 DUP1 PUSH2 0x13F DUP8 PUSH2 0x860 JUMP JUMPDEST MLOAD SWAP14 DUP14 MLOAD SWAP15 DUP16 SWAP2 DUP1 MLOAD SWAP1 DUP2 DUP6 DUP6 ADD SWAP7 DUP8 SWAP3 ADD SWAP2 PUSH2 0x15B SWAP3 PUSH2 0x81A JUMP JUMPDEST DUP3 ADD DUP4 DUP2 ADD PUSH1 0x2F PUSH1 0xF8 SHL SWAP1 MSTORE DUP2 MLOAD SWAP2 DUP3 DUP6 PUSH1 0x21 DUP5 ADD SWAP3 ADD SWAP2 PUSH2 0x17C SWAP3 PUSH2 0x81A JUMP JUMPDEST ADD SUB SWAP14 PUSH1 0x1 SWAP15 DUP16 DUP2 ADD DUP3 MSTORE PUSH1 0x21 ADD PUSH2 0x194 SWAP1 DUP3 PUSH2 0x6F2 JUMP JUMPDEST DUP14 MLOAD DUP1 SWAP4 DUP2 SWAP3 MLOAD DUP1 SWAP3 PUSH2 0x1A6 SWAP3 PUSH2 0x81A JUMP JUMPDEST DUP2 ADD DUP11 DUP2 MSTORE SUB ADD SWAP1 KECCAK256 SLOAD DUP1 ISZERO PUSH2 0x29F JUMPI PUSH2 0x1C9 PUSH8 0xDE0B6B3A7640000 SWAP2 DUP7 PUSH2 0x870 JUMP JUMPDEST DIV PUSH2 0x1D3 DUP11 PUSH2 0x860 JUMP JUMPDEST MSTORE PUSH1 0x24 CALLDATALOAD PUSH2 0x1E0 DUP11 PUSH2 0x860 JUMP JUMPDEST MLOAD LT PUSH2 0x260 JUMPI POP POP POP SWAP2 PUSH32 0x9D5425E332A9DD28AC94E5CE1D3DAB735AEE6539C8929D45E827341DE257004D DUP10 SWAP6 SWAP3 DUP8 SWAP5 PUSH2 0x22A PUSH2 0x21D DUP13 SWAP11 PUSH2 0x860 JUMP JUMPDEST MLOAD SWAP3 DUP11 MLOAD SWAP4 DUP5 SWAP4 DUP5 PUSH2 0x899 JUMP JUMPDEST SUB SWAP1 LOG2 DUP5 MLOAD SWAP5 DUP2 DUP7 ADD SWAP3 DUP3 DUP8 MSTORE MLOAD DUP1 SWAP4 MSTORE DUP6 ADD SWAP6 SWAP3 JUMPDEST DUP3 DUP2 LT PUSH2 0x24D JUMPI DUP6 DUP8 SUB DUP7 RETURN JUMPDEST DUP4 MLOAD DUP8 MSTORE SWAP6 DUP2 ADD SWAP6 SWAP3 DUP2 ADD SWAP3 DUP5 ADD PUSH2 0x240 JUMP JUMPDEST DUP11 MLOAD PUSH3 0x461BCD PUSH1 0xE5 SHL DUP2 MSTORE SWAP2 DUP3 ADD DUP9 SWAP1 MSTORE PUSH1 0x1A PUSH1 0x24 DUP4 ADD MSTORE PUSH32 0x494E53554646494349454E545F4F55545055545F414D4F554E54000000000000 SWAP1 DUP3 ADD MSTORE REVERT JUMPDEST POP DUP11 MLOAD PUSH3 0x461BCD PUSH1 0xE5 SHL DUP2 MSTORE SWAP2 DUP3 ADD DUP9 SWAP1 MSTORE PUSH1 0xD PUSH1 0x24 DUP4 ADD MSTORE PUSH13 0x14149250D157D393D517D4D155 PUSH1 0x9A SHL SWAP1 DUP3 ADD MSTORE REVERT JUMPDEST DUP7 MLOAD PUSH3 0x461BCD PUSH1 0xE5 SHL DUP2 MSTORE PUSH1 0x20 DUP2 DUP7 ADD MSTORE PUSH1 0xC PUSH1 0x24 DUP3 ADD MSTORE PUSH12 0x929CAC82989288BEA082A89 PUSH1 0xA3 SHL DUP2 DUP11 ADD MSTORE DUP7 SWAP1 REVERT JUMPDEST DUP7 MLOAD PUSH3 0x461BCD PUSH1 0xE5 SHL DUP2 MSTORE PUSH1 0x20 DUP2 DUP7 ADD MSTORE PUSH1 0x7 PUSH1 0x24 DUP3 ADD MSTORE PUSH7 0x11561412549151 PUSH1 0xCA SHL DUP2 DUP11 ADD MSTORE DUP7 SWAP1 REVERT JUMPDEST DUP5 PUSH19 0x13515597D5121491505517D111551150D51151 PUSH1 0x6A SHL DUP11 PUSH1 0x20 DUP12 DUP12 SWAP6 DUP2 MLOAD SWAP1 DUP2 MSTORE PUSH32 0x7E193569BC8188172005EB149928C1EABF1D56AEAD3E3A3E125866AE34F449D4 DUP4 CALLER SWAP3 LOG2 MLOAD PUSH3 0x461BCD PUSH1 0xE5 SHL DUP2 MSTORE SWAP4 DUP5 ADD MSTORE PUSH1 0x13 PUSH1 0x24 DUP5 ADD MSTORE DUP3 ADD MSTORE REVERT JUMPDEST POP DUP1 REVERT JUMPDEST DUP3 DUP1 REVERT JUMPDEST DUP1 REVERT JUMPDEST POP SWAP1 CALLVALUE PUSH2 0x38C JUMPI PUSH1 0x20 CALLDATASIZE PUSH1 0x3 NOT ADD SLT PUSH2 0x38C JUMPI PUSH1 0x20 SWAP2 PUSH1 0xFF SWAP1 DUP3 SWAP1 PUSH1 0x1 PUSH1 0x1 PUSH1 0xA0 SHL SUB PUSH2 0x3C2 PUSH2 0x6D7 JUMP JUMPDEST AND DUP2 MSTORE PUSH1 0x1 DUP6 MSTORE KECCAK256 SLOAD AND SWAP1 MLOAD SWAP1 ISZERO ISZERO DUP2 MSTORE RETURN JUMPDEST POP SWAP2 CALLVALUE PUSH2 0x390 JUMPI PUSH1 0x20 CALLDATASIZE PUSH1 0x3 NOT ADD SLT PUSH2 0x390 JUMPI DUP1 CALLDATALOAD PUSH8 0xFFFFFFFFFFFFFFFF DUP2 GT PUSH2 0x431 JUMPI PUSH1 0x20 SWAP4 PUSH2 0x40D PUSH2 0x420 SWAP4 DUP7 SWAP4 CALLDATASIZE SWAP2 ADD PUSH2 0x72A JUMP JUMPDEST SWAP1 DUP3 DUP6 MLOAD SWAP5 DUP4 DUP7 DUP1 SWAP6 MLOAD SWAP4 DUP5 SWAP3 ADD PUSH2 0x81A JUMP JUMPDEST DUP3 ADD SWAP1 DUP2 MSTORE SUB ADD SWAP1 KECCAK256 SLOAD SWAP1 MLOAD SWAP1 DUP2 MSTORE RETURN JUMPDEST DUP4 DUP1 REVERT JUMPDEST POP CALLVALUE PUSH2 0x394 JUMPI PUSH1 0x60 CALLDATASIZE PUSH1 0x3 NOT ADD SLT PUSH2 0x394 JUMPI PUSH2 0x44F PUSH2 0x6D7 JUMP JUMPDEST POP PUSH1 0x24 CALLDATALOAD SWAP1 PUSH1 0x44 CALLDATALOAD PUSH8 0xFFFFFFFFFFFFFFFF DUP2 GT PUSH2 0x38C JUMPI PUSH2 0x473 SWAP1 CALLDATASIZE SWAP1 DUP7 ADD PUSH2 0x799 JUMP JUMPDEST SWAP1 PUSH2 0x47D DUP3 PUSH2 0x83D JUMP JUMPDEST MLOAD SWAP5 PUSH2 0x4EA PUSH2 0x48B DUP5 PUSH2 0x860 JUMP JUMPDEST MLOAD DUP7 MLOAD SWAP8 DUP9 PUSH2 0x4DA PUSH1 0x21 PUSH1 0x20 SWAP12 DUP13 SWAP6 DUP7 PUSH2 0x4AE DUP2 DUP5 ADD SWAP8 DUP9 DUP2 MLOAD SWAP4 DUP5 SWAP3 ADD PUSH2 0x81A JUMP JUMPDEST DUP3 ADD PUSH1 0x2F PUSH1 0xF8 SHL DUP9 DUP3 ADD MSTORE PUSH2 0x4CB DUP3 MLOAD DUP1 SWAP4 DUP11 DUP8 DUP6 ADD SWAP2 ADD PUSH2 0x81A JUMP JUMPDEST ADD SUB PUSH1 0x1 DUP2 ADD DUP5 MSTORE ADD DUP3 PUSH2 0x6F2 JUMP JUMPDEST DUP9 MLOAD SWAP4 DUP5 SWAP3 DUP4 SWAP3 MLOAD SWAP3 DUP4 SWAP2 PUSH2 0x81A JUMP JUMPDEST DUP2 ADD DUP6 DUP2 MSTORE SUB ADD SWAP1 KECCAK256 SLOAD SWAP2 PUSH2 0x401 SWAP1 DUP2 DUP5 MUL SWAP2 DUP5 DUP4 DIV EQ DUP5 ISZERO OR ISZERO PUSH2 0x5AB JUMPI POP PUSH2 0x3E8 SWAP1 DIV SWAP2 DUP3 GT ISZERO PUSH2 0x568 JUMPI POP SWAP1 PUSH8 0xDE0B6B3A7640000 PUSH2 0x54D PUSH32 0x9D5425E332A9DD28AC94E5CE1D3DAB735AEE6539C8929D45E827341DE257004D SWAP4 DUP6 PUSH2 0x870 JUMP JUMPDEST DIV PUSH2 0x55E DUP6 MLOAD SWAP3 DUP4 SWAP3 CALLER SWAP7 DUP5 PUSH2 0x899 JUMP JUMPDEST SUB SWAP1 LOG2 MLOAD PUSH1 0x1 DUP2 MSTORE RETURN JUMPDEST DUP5 MLOAD PUSH3 0x461BCD PUSH1 0xE5 SHL DUP2 MSTORE SWAP1 DUP2 ADD DUP7 SWAP1 MSTORE PUSH1 0x18 PUSH1 0x24 DUP3 ADD MSTORE PUSH32 0x4E4F5F4152424954524147455F4F50504F5254554E4954590000000000000000 PUSH1 0x44 DUP3 ADD MSTORE PUSH1 0x64 SWAP1 REVERT JUMPDEST PUSH4 0x4E487B71 PUSH1 0xE0 SHL DUP2 MSTORE PUSH1 0x11 DUP4 MSTORE PUSH1 0x24 SWAP1 REVERT JUMPDEST POP SWAP1 CALLVALUE PUSH2 0x38C JUMPI PUSH1 0x60 CALLDATASIZE PUSH1 0x3 NOT ADD SLT PUSH2 0x38C JUMPI PUSH1 0x20 SWAP1 PUSH2 0x5DC PUSH2 0x6D7 JUMP JUMPDEST POP PUSH2 0x5EB PUSH1 0x44 CALLDATALOAD PUSH1 0x24 CALLDATALOAD PUSH2 0x920 JUMP JUMPDEST SWAP1 MLOAD SWAP1 DUP2 MSTORE RETURN JUMPDEST POP SWAP2 CALLVALUE PUSH2 0x390 JUMPI DUP2 PUSH1 0x3 NOT CALLDATASIZE ADD SLT PUSH2 0x390 JUMPI DUP1 CALLDATALOAD SWAP1 PUSH8 0xFFFFFFFFFFFFFFFF DUP3 GT PUSH2 0x431 JUMPI PUSH2 0x646 PUSH1 0x20 SWAP2 PUSH32 0x159E83F4712BA2552E68BE9D848E49BF6DD35C24F19564FFD523B6549450A2F4 SWAP4 CALLDATASIZE SWAP2 ADD PUSH2 0x72A JUMP JUMPDEST PUSH2 0x67F PUSH1 0x24 CALLDATALOAD SWAP2 DUP6 MLOAD SWAP1 DUP4 DUP2 MLOAD SWAP3 DUP7 DUP2 DUP2 DUP6 ADD SWAP6 PUSH2 0x665 DUP2 DUP4 DUP10 PUSH2 0x81A JUMP JUMPDEST DUP2 ADD DUP13 DUP2 MSTORE SUB ADD SWAP1 KECCAK256 SSTORE DUP7 MLOAD SWAP3 DUP4 SWAP3 DUP4 SWAP3 MLOAD SWAP3 DUP4 SWAP2 PUSH2 0x81A JUMP JUMPDEST DUP2 ADD SUB SWAP1 KECCAK256 SWAP4 MLOAD SWAP1 DUP2 MSTORE LOG2 DUP1 RETURN JUMPDEST POP SWAP1 CALLVALUE PUSH2 0x38C JUMPI DUP1 PUSH1 0x3 NOT CALLDATASIZE ADD SLT PUSH2 0x38C JUMPI PUSH2 0x6A7 PUSH2 0x6D7 JUMP JUMPDEST SWAP1 PUSH1 0x24 CALLDATALOAD SWAP2 DUP3 ISZERO ISZERO DUP1 SWAP4 SUB PUSH2 0x431 JUMPI PUSH1 0x1 DUP1 PUSH1 0xA0 SHL SUB AND DUP4 MSTORE PUSH1 0x1 PUSH1 0x20 MSTORE DUP3 KECCAK256 SWAP1 PUSH1 0xFF DUP1 NOT DUP4 SLOAD AND SWAP2 AND OR SWAP1 SSTORE DUP1 RETURN JUMPDEST PUSH1 0x4 CALLDATALOAD SWAP1 PUSH1 0x1 PUSH1 0x1 PUSH1 0xA0 SHL SUB DUP3 AND DUP3 SUB PUSH2 0x6ED JUMPI JUMP JUMPDEST PUSH1 0x0 DUP1 REVERT JUMPDEST SWAP1 PUSH1 0x1F DUP1 NOT SWAP2 ADD AND DUP2 ADD SWAP1 DUP2 LT PUSH8 0xFFFFFFFFFFFFFFFF DUP3 GT OR PUSH2 0x714 JUMPI PUSH1 0x40 MSTORE JUMP JUMPDEST PUSH4 0x4E487B71 PUSH1 0xE0 SHL PUSH1 0x0 MSTORE PUSH1 0x41 PUSH1 0x4 MSTORE PUSH1 0x24 PUSH1 0x0 REVERT JUMPDEST DUP2 PUSH1 0x1F DUP3 ADD SLT ISZERO PUSH2 0x6ED JUMPI DUP1 CALLDATALOAD SWAP1 PUSH8 0xFFFFFFFFFFFFFFFF DUP3 GT PUSH2 0x714 JUMPI PUSH1 0x40 MLOAD SWAP3 PUSH2 0x75F PUSH1 0x1F DUP5 ADD PUSH1 0x1F NOT AND PUSH1 0x20 ADD DUP6 PUSH2 0x6F2 JUMP JUMPDEST DUP3 DUP5 MSTORE PUSH1 0x20 DUP4 DUP4 ADD ADD GT PUSH2 0x6ED JUMPI DUP2 PUSH1 0x0 SWAP3 PUSH1 0x20 DUP1 SWAP4 ADD DUP4 DUP7 ADD CALLDATACOPY DUP4 ADD ADD MSTORE SWAP1 JUMP JUMPDEST PUSH8 0xFFFFFFFFFFFFFFFF DUP2 GT PUSH2 0x714 JUMPI PUSH1 0x5 SHL PUSH1 0x20 ADD SWAP1 JUMP JUMPDEST SWAP1 DUP1 PUSH1 0x1F DUP4 ADD SLT ISZERO PUSH2 0x6ED JUMPI DUP2 CALLDATALOAD SWAP1 PUSH2 0x7B1 DUP3 PUSH2 0x781 JUMP JUMPDEST SWAP3 PUSH2 0x7BF PUSH1 0x40 MLOAD SWAP5 DUP6 PUSH2 0x6F2 JUMP JUMPDEST DUP3 DUP5 MSTORE PUSH1 0x20 SWAP3 DUP4 DUP1 DUP7 ADD SWAP2 PUSH1 0x5 SHL DUP4 ADD ADD SWAP3 DUP1 DUP5 GT PUSH2 0x6ED JUMPI DUP5 DUP4 ADD SWAP2 JUMPDEST DUP5 DUP4 LT PUSH2 0x7ED JUMPI POP POP POP POP POP POP SWAP1 JUMP JUMPDEST DUP3 CALLDATALOAD PUSH8 0xFFFFFFFFFFFFFFFF DUP2 GT PUSH2 0x6ED JUMPI DUP7 SWAP2 PUSH2 0x80F DUP5 DUP5 DUP1 SWAP5 DUP10 ADD ADD PUSH2 0x72A JUMP JUMPDEST DUP2 MSTORE ADD SWAP3 ADD SWAP2 PUSH2 0x7DD JUMP JUMPDEST PUSH1 0x0 JUMPDEST DUP4 DUP2 LT PUSH2 0x82D JUMPI POP POP PUSH1 0x0 SWAP2 ADD MSTORE JUMP JUMPDEST DUP2 DUP2 ADD MLOAD DUP4 DUP3 ADD MSTORE PUSH1 0x20 ADD PUSH2 0x81D JUMP JUMPDEST DUP1 MLOAD ISZERO PUSH2 0x84A JUMPI PUSH1 0x20 ADD SWAP1 JUMP JUMPDEST PUSH4 0x4E487B71 PUSH1 0xE0 SHL PUSH1 0x0 MSTORE PUSH1 0x32 PUSH1 0x4 MSTORE PUSH1 0x24 PUSH1 0x0 REVERT JUMPDEST DUP1 MLOAD PUSH1 0x1 LT ISZERO PUSH2 0x84A JUMPI PUSH1 0x40 ADD SWAP1 JUMP JUMPDEST DUP2 DUP2 MUL SWAP3 SWAP2 DUP2 ISZERO SWAP2 DUP5 DIV EQ OR ISZERO PUSH2 0x883 JUMPI JUMP JUMPDEST PUSH4 0x4E487B71 PUSH1 0xE0 SHL PUSH1 0x0 MSTORE PUSH1 0x11 PUSH1 0x4 MSTORE PUSH1 0x24 PUSH1 0x0 REVERT JUMPDEST SWAP2 PUSH1 0x60 DUP4 ADD SWAP2 DUP4 MSTORE PUSH1 0x20 SWAP1 DUP2 DUP5 ADD MSTORE PUSH1 0x60 PUSH1 0x40 DUP5 ADD MSTORE DUP4 MLOAD DUP1 SWAP3 MSTORE PUSH1 0x80 DUP4 ADD SWAP3 DUP2 PUSH1 0x80 DUP5 PUSH1 0x5 SHL DUP4 ADD ADD SWAP6 ADD SWAP4 PUSH1 0x0 SWAP2 JUMPDEST DUP5 DUP4 LT PUSH2 0x8DA JUMPI POP POP POP POP POP POP SWAP1 JUMP JUMPDEST SWAP1 SWAP2 SWAP3 SWAP4 SWAP5 SWAP6 DUP5 DUP1 DUP1 PUSH1 0x1 SWAP4 PUSH1 0x7F NOT DUP7 DUP3 SUB ADD DUP8 MSTORE DUP11 MLOAD PUSH2 0x906 DUP2 MLOAD DUP1 SWAP3 DUP2 DUP6 MSTORE DUP6 DUP1 DUP7 ADD SWAP2 ADD PUSH2 0x81A JUMP JUMPDEST PUSH1 0x1F ADD PUSH1 0x1F NOT AND ADD ADD SWAP9 ADD SWAP7 SWAP6 SWAP5 SWAP2 SWAP1 SWAP2 ADD SWAP3 ADD SWAP1 PUSH2 0x8CA JUMP JUMPDEST SWAP1 PUSH1 0x0 DUP1 SWAP2 PUSH5 0x9502F9000 DUP2 GT PUSH1 0x0 EQ PUSH2 0x9ED JUMPI POP PUSH1 0x1E DUP2 ADD DUP1 SWAP2 GT PUSH2 0x994 JUMPI SWAP2 JUMPDEST PUSH9 0x3635C9ADC5DEA00000 DUP2 GT ISZERO PUSH2 0x9A8 JUMPI POP SWAP1 PUSH1 0x19 DUP2 ADD DUP1 SWAP2 GT PUSH2 0x994 JUMPI SWAP1 JUMPDEST PUSH1 0x14 PUSH1 0x64 TIMESTAMP MOD LT PUSH2 0x971 JUMPI POP SWAP1 JUMP JUMPDEST PUSH1 0x14 DUP3 ADD DUP1 SWAP3 GT PUSH2 0x980 JUMPI POP SWAP1 JUMP JUMPDEST PUSH4 0x4E487B71 PUSH1 0xE0 SHL DUP2 MSTORE PUSH1 0x11 PUSH1 0x4 MSTORE PUSH1 0x24 SWAP1 REVERT JUMPDEST PUSH4 0x4E487B71 PUSH1 0xE0 SHL DUP3 MSTORE PUSH1 0x11 PUSH1 0x4 MSTORE PUSH1 0x24 DUP3 REVERT JUMPDEST PUSH9 0x56BC75E2D63100000 DUP2 GT ISZERO PUSH2 0x9CC JUMPI POP SWAP1 PUSH1 0xF DUP2 ADD DUP1 SWAP2 GT PUSH2 0x994 JUMPI SWAP1 PUSH2 0x962 JUMP JUMPDEST PUSH8 0x8AC7230489E80000 LT ISZERO PUSH2 0x962 JUMPI SWAP1 PUSH1 0x5 DUP2 ADD DUP1 SWAP2 GT PUSH2 0x994 JUMPI SWAP1 PUSH2 0x962 JUMP JUMPDEST PUSH5 0x6FC23AC00 DUP2 GT ISZERO PUSH2 0xA0C JUMPI POP PUSH1 0x14 DUP2 ADD DUP1 SWAP2 GT PUSH2 0x994 JUMPI SWAP2 PUSH2 0x942 JUMP JUMPDEST PUSH5 0x59682F000 SWAP1 SWAP4 SWAP2 SWAP4 GT ISZERO PUSH2 0x942 JUMPI PUSH1 0xA SWAP3 POP PUSH2 0x942 JUMP INVALID LOG2 PUSH5 0x6970667358 0x22 SLT KECCAK256 SWAP6 0xB5 0xE0 SWAP4 DUP2 DUP4 0xD 0xDE 0xB0 PUSH30 0x7BB4ED4E9BEBDB45F7AAD11E01D65C0D4E0DB1098DC864736F6C63430008 EQ STOP CALLER "},"methodIdentifiers":{"arbitrageSwap(address,uint256,string[])":"a18d0052","calculateMEVRisk(address,uint256,uint256)":"9e7f7fca","getPrice(string)":"524f3889","mevProtected(address)":"eebbc26b","prices(string)":"c3825f4b","setMEVProtection(address,bool)":"027ebaa9","setPrice(string,uint256)":"22e01192","swapExactTokensForTokens(uint256,uint256,string[],address,uint256)":"f0ac385a"}}}}}