{"contracts/AegilonToken.sol":{"AegilonToken":{"abi":[{"inputs":[{"internalType":"address","name":"_treasuryAddress","type":"address"},{"internalType":"address","name":"_liquidityRewardsAddress","type":"address"}],"stateMutability":"nonpayable","type":"constructor"},{"anonymous":false,"inputs":[{"indexed":true,"internalType":"address","name":"owner","type":"address"},{"indexed":true,"internalType":"address","name":"spender","type":"address"},{"indexed":false,"internalType":"uint256","name":"value","type":"uint256"}],"name":"Approval","type":"event"},{"anonymous":false,"inputs":[{"indexed":true,"internalType":"address","name":"reporter","type":"address"},{"indexed":false,"internalType":"uint256","name":"reward","type":"uint256"}],"name":"MEVThreatReported","type":"event"},{"anonymous":false,"inputs":[{"indexed":true,"internalType":"address","name":"previousOwner","type":"address"},{"indexed":true,"internalType":"address","name":"newOwner","type":"address"}],"name":"OwnershipTransferred","type":"event"},{"anonymous":false,"inputs":[{"indexed":false,"internalType":"address","name":"account","type":"address"}],"name":"Paused","type":"event"},{"anonymous":false,"inputs":[{"indexed":true,"internalType":"address","name":"user","type":"address"},{"indexed":false,"internalType":"uint256","name":"stakedAmount","type":"uint256"}],"name":"ProtectionActivated","type":"event"},{"anonymous":false,"inputs":[{"indexed":true,"internalType":"address","name":"user","type":"address"},{"indexed":false,"internalType":"uint256","name":"amount","type":"uint256"}],"name":"RewardsClaimed","type":"event"},{"anonymous":false,"inputs":[{"indexed":true,"internalType":"address","name":"user","type":"address"},{"indexed":false,"internalType":"uint256","name":"amount","type":"uint256"}],"name":"TokensStaked","type":"event"},{"anonymous":false,"inputs":[{"indexed":true,"internalType":"address","name":"user","type":"address"},{"indexed":false,"internalType":"uint256","name":"amount","type":"uint256"}],"name":"TokensUnstaked","type":"event"},{"anonymous":false,"inputs":[{"indexed":true,"internalType":"address","name":"from","type":"address"},{"indexed":true,"internalType":"address","name":"to","type":"address"},{"indexed":false,"internalType":"uint256","name":"value","type":"uint256"}],"name":"Transfer","type":"event"},{"anonymous":false,"inputs":[{"indexed":false,"internalType":"address","name":"account","type":"address"}],"name":"Unpaused","type":"event"},{"inputs":[],"name":"COMMUNITY_AIRDROP","outputs":[{"internalType":"uint256","name":"","type":"uint256"}],"stateMutability":"view","type":"function"},{"inputs":[],"name":"GOVERNANCE_TREASURY","outputs":[{"internalType":"uint256","name":"","type":"uint256"}],"stateMutability":"view","type":"function"},{"inputs":[],"name":"LIQUIDITY_REWARDS","outputs":[{"internalType":"uint256","name":"","type":"uint256"}],"stateMutability":"view","type":"function"},{"inputs":[],"name":"TEAM_ALLOCATION","outputs":[{"internalType":"uint256","name":"","type":"uint256"}],"stateMutability":"view","type":"function"},{"inputs":[],"name":"TOTAL_SUPPLY","outputs":[{"internalType":"uint256","name":"","type":"uint256"}],"stateMutability":"view","type":"function"},{"inputs":[{"internalType":"address","name":"owner","type":"address"},{"internalType":"address","name":"spender","type":"address"}],"name":"allowance","outputs":[{"internalType":"uint256","name":"","type":"uint256"}],"stateMutability":"view","type":"function"},{"inputs":[{"internalType":"address","name":"spender","type":"address"},{"internalType":"uint256","name":"amount","type":"uint256"}],"name":"approve","outputs":[{"internalType":"bool","name":"","type":"bool"}],"stateMutability":"nonpayable","type":"function"},{"inputs":[{"internalType":"address","name":"account","type":"address"}],"name":"balanceOf","outputs":[{"internalType":"uint256","name":"","type":"uint256"}],"stateMutability":"view","type":"function"},{"inputs":[{"internalType":"uint256","name":"amount","type":"uint256"}],"name":"burn","outputs":[],"stateMutability":"nonpayable","type":"function"},{"inputs":[{"internalType":"address","name":"account","type":"address"},{"internalType":"uint256","name":"amount","type":"uint256"}],"name":"burnFrom","outputs":[],"stateMutability":"nonpayable","type":"function"},{"inputs":[{"internalType":"address","name":"user","type":"address"}],"name":"calculateStakingRewards","outputs":[{"internalType":"uint256","name":"","type":"uint256"}],"stateMutability":"view","type":"function"},{"inputs":[],"name":"claimRewards","outputs":[],"stateMutability":"nonpayable","type":"function"},{"inputs":[],"name":"decimals","outputs":[{"internalType":"uint8","name":"","type":"uint8"}],"stateMutability":"view","type":"function"},{"inputs":[{"internalType":"address","name":"spender","type":"address"},{"internalType":"uint256","name":"subtractedValue","type":"uint256"}],"name":"decreaseAllowance","outputs":[{"internalType":"bool","name":"","type":"bool"}],"stateMutability":"nonpayable","type":"function"},{"inputs":[{"internalType":"address","name":"user","type":"address"}],"name":"getProtectionLevel","outputs":[{"internalType":"uint256","name":"","type":"uint256"}],"stateMutability":"view","type":"function"},{"inputs":[{"internalType":"address","name":"spender","type":"address"},{"internalType":"uint256","name":"addedValue","type":"uint256"}],"name":"increaseAllowance","outputs":[{"internalType":"bool","name":"","type":"bool"}],"stateMutability":"nonpayable","type":"function"},{"inputs":[{"internalType":"address","name":"","type":"address"}],"name":"lastStakeTime","outputs":[{"internalType":"uint256","name":"","type":"uint256"}],"stateMutability":"view","type":"function"},{"inputs":[],"name":"liquidityRewardsAddress","outputs":[{"internalType":"address","name":"","type":"address"}],"stateMutability":"view","type":"function"},{"inputs":[],"name":"mevProtectorContract","outputs":[{"internalType":"address","name":"","type":"address"}],"stateMutability":"view","type":"function"},{"inputs":[],"name":"name","outputs":[{"internalType":"string","name":"","type":"string"}],"stateMutability":"view","type":"function"},{"inputs":[],"name":"owner","outputs":[{"internalType":"address","name":"","type":"address"}],"stateMutability":"view","type":"function"},{"inputs":[],"name":"pause","outputs":[],"stateMutability":"nonpayable","type":"function"},{"inputs":[],"name":"paused","outputs":[{"internalType":"bool","name":"","type":"bool"}],"stateMutability":"view","type":"function"},{"inputs":[],"name":"protectionBoostMultiplier","outputs":[{"internalType":"uint256","name":"","type":"uint256"}],"stateMutability":"view","type":"function"},{"inputs":[],"name":"renounceOwnership","outputs":[],"stateMutability":"nonpayable","type":"function"},{"inputs":[{"internalType":"address","name":"reporter","type":"address"},{"internalType":"uint256","name":"rewardAmount","type":"uint256"}],"name":"rewardThreatReporter","outputs":[],"stateMutability":"nonpayable","type":"function"},{"inputs":[{"internalType":"address","name":"_mevProtectorContract","type":"address"}],"name":"setMEVProtectorContract","outputs":[],"stateMutability":"nonpayable","type":"function"},{"inputs":[{"internalType":"uint256","name":"_multiplier","type":"uint256"}],"name":"setProtectionBoostMultiplier","outputs":[],"stateMutability":"nonpayable","type":"function"},{"inputs":[{"internalType":"uint256","name":"_newAPR","type":"uint256"}],"name":"setStakingAPR","outputs":[],"stateMutability":"nonpayable","type":"function"},{"inputs":[{"internalType":"uint256","name":"amount","type":"uint256"}],"name":"stakeTokens","outputs":[],"stateMutability":"nonpayable","type":"function"},{"inputs":[{"internalType":"address","name":"","type":"address"}],"name":"stakedBalance","outputs":[{"internalType":"uint256","name":"","type":"uint256"}],"stateMutability":"view","type":"function"},{"inputs":[],"name":"stakingAPR","outputs":[{"internalType":"uint256","name":"","type":"uint256"}],"stateMutability":"view","type":"function"},{"inputs":[{"internalType":"address","name":"","type":"address"}],"name":"stakingRewards","outputs":[{"internalType":"uint256","name":"","type":"uint256"}],"stateMutability":"view","type":"function"},{"inputs":[],"name":"symbol","outputs":[{"internalType":"string","name":"","type":"string"}],"stateMutability":"view","type":"function"},{"inputs":[],"name":"totalSupply","outputs":[{"internalType":"uint256","name":"","type":"uint256"}],"stateMutability":"view","type":"function"},{"inputs":[{"internalType":"address","name":"to","type":"address"},{"internalType":"uint256","name":"amount","type":"uint256"}],"name":"transfer","outputs":[{"internalType":"bool","name":"","type":"bool"}],"stateMutability":"nonpayable","type":"function"},{"inputs":[{"internalType":"address","name":"from","type":"address"},{"internalType":"address","name":"to","type":"address"},{"internalType":"uint256","name":"amount","type":"uint256"}],"name":"transferFrom","outputs":[{"internalType":"bool","name":"","type":"bool"}],"stateMutability":"nonpayable","type":"function"},{"inputs":[{"internalType":"address","name":"newOwner","type":"address"}],"name":"transferOwnership","outputs":[],"stateMutability":"nonpayable","type":"function"},{"inputs":[],"name":"treasuryAddress","outputs":[{"internalType":"address","name":"","type":"address"}],"stateMutability":"view","type":"function"},{"inputs":[],"name":"unpause","outputs":[],"stateMutability":"nonpayable","type":"function"},{"inputs":[{"internalType":"uint256","name":"amount","type":"uint256"}],"name":"unstakeTokens","outputs":[],"stateMutability":"nonpayable","type":"function"}],"evm":{"bytecode":{"linkReferences":{},"object":"608034620005435762001fc190601f90601f196001600160401b03388590038481018316840190828211858310176200043c57808591604098899485528339810103126200054357620000528362000568565b9062000062602080950162000568565b906200006d62000548565b95600d87526c20b2b3b4b637b7102a37b5b2b760991b868801526200009162000548565b906003918281526241454760e81b8882015288518481116200043c57835460019a8b82811c9216801562000538575b8b83101462000522578185849311620004cc575b508a908583116001146200045e5760009262000452575b505060001982861b1c1916908a1b1783555b80519384116200043c5760049687548a81811c9116801562000431575b8a8210146200041c57908184879695949311620003c0575b50899285116001146200035857506000936200034c575b505082881b92600019911b1c19161783555b600580546001600160a81b0319811633600881811b610100600160a81b0316929092179093558851976001600160a01b039493909290911c84167f8be0079c531659141344cd1fd0a4f28419497f9722a3daafe3b4186f6b6457e0600080a36006556101f4600a556096600b558183169586156200030b575016938415620002c8579084620002049260018060a01b03199081600c541617600c55600d541617600d556200057d565b60ff6005541662000285576002546a034f086f3b33b68400000091828201809211620002705750600255600083815280835284812080548301905584519182529160008051602062001f8183398151915291a362000262336200057d565b516118fa9081620006878239f35b601190634e487b7160e01b6000525260246000fd5b60849184519162461bcd60e51b8352820152602a602482015260008051602062001fa18339815191526044820152691a5b19481c185d5cd95960b21b6064820152fd5b855162461bcd60e51b8152808401859052601960248201527f496e76616c6964206c69717569646974792061646472657373000000000000006044820152606490fd5b62461bcd60e51b8152848101869052601860248201527f496e76616c6964207472656173757279206164647265737300000000000000006044820152606490fd5b01519150388062000149565b8a9593929193169288600052896000209360005b8b828210620003a957505085116200038e575b50505050811b0183556200015b565b01519060f884600019921b161c19169055388080806200037f565b8385015187558d989096019593840193016200036c565b90919293945088600052896000208480880160051c8201928c891062000412575b918d91899897969594930160051c01915b8281106200040257505062000132565b600081558897508d9101620003f2565b92508192620003e1565b602289634e487b7160e01b6000525260246000fd5b90607f16906200011a565b634e487b7160e01b600052604160045260246000fd5b015190503880620000eb565b908a8d941691876000528c600020928d6000905b828210620004ab575050841162000492575b505050811b018355620000fd565b015160001983881b60f8161c1916905538808062000484565b91929395968291958786015181550195019301908e95949392918e62000472565b909150856000528a6000208580850160051c8201928d861062000518575b918e91869594930160051c01915b82811062000508575050620000d4565b600081558594508e9101620004f8565b92508192620004ea565b634e487b7160e01b600052602260045260246000fd5b91607f1691620000c0565b600080fd5b60408051919082016001600160401b038111838210176200043c57604052565b51906001600160a01b03821682036200054357565b6001600160a01b03168015620006415760ff60055416620005fa576002546a027b46536c66c8e3000000808201809211620005e457602060008051602062001f818339815191529160009360025584845283825260408420818154019055604051908152a3565b634e487b7160e01b600052601160045260246000fd5b60405162461bcd60e51b815260206004820152602a602482015260008051602062001fa18339815191526044820152691a5b19481c185d5cd95960b21b6064820152608490fd5b60405162461bcd60e51b815260206004820152601f60248201527f45524332303a206d696e7420746f20746865207a65726f2061646472657373006044820152606490fdfe608060408181526004918236101561001657600080fd5b600092833560e01c91826306fdde0314610fb857508163095ea7b314610f8e5781630ca34d0114610f6957816318160ddd14610f4a5781631816f2b814610f2157816323b872dd14610ee45781633039819514610ebb578163313ce56714610e9f578163372500ab14610dd4578163375c948514610db55781633950935114610d655781633aacdc4614610cd45781633f4ba83a14610c3e57816342966c6814610c20578163499d7f9614610be85781635c975abb14610bc45781636021726714610b8c578163608e4dd014610a80578163649f7f5214610a3b57816370a0823114610a04578163715018a6146109a357816373e50210146109395781637547c7a3146107df57816379cc6790146107ac5781637bb1ca19146107745781638456cb59146107195781638da5cb5b146106ec578163902d55a5146106c657816395d89b41146105a7578163a457c2d7146104ff578163a9059cbb146104ce578163a91990f4146104a8578163bc00fd6714610482578163c5f956af14610459578163cf086d3f146103a8578163d47768de1461037b578163dd62ed3e14610332578163eb7203fe14610313578163ebdbe248146102ed578163f2fde38b14610210575063fd99cbed146101e857600080fd5b3461020c578160031936011261020c57602090516a01a784379d99db420000008152f35b5080fd5b9050346102e95760203660031901126102e95761022b6110d9565b61023361110a565b6001600160a01b0381811693909290841561029757505060058054610100600160a81b03198116600893841b610100600160a81b031617909155901c167f8be0079c531659141344cd1fd0a4f28419497f9722a3daafe3b4186f6b6457e08380a380f35b906020608492519162461bcd60e51b8352820152602660248201527f4f776e61626c653a206e6577206f776e657220697320746865207a65726f206160448201526564647265737360d01b6064820152fd5b8280fd5b50503461020c578160031936011261020c57602090516a034f086f3b33b6840000008152f35b50503461020c578160031936011261020c57602090600a549051908152f35b50503461020c578060031936011261020c57806020926103506110d9565b6103586110f4565b6001600160a01b0391821683526001865283832091168252845220549051908152f35b50503461020c57602036600319011261020c576020906103a161039c6110d9565b6117b6565b9051908152f35b9050346102e957816003193601126102e9576103c26110d9565b600e54602435936001600160a01b0393909184163303610417575091817fba29a1f6b0e8d9402f3fae592e8e8f66ae1dcb631e0d57908a12ff3c517e66529361040d866020956116f6565b519485521692a280f35b6020606492519162461bcd60e51b8352820152601b60248201527f4f6e6c79204d45562050726f746563746f722063616e2063616c6c00000000006044820152fd5b50503461020c578160031936011261020c57600c5490516001600160a01b039091168152602090f35b50503461020c57602036600319011261020c576020906103a16104a36110d9565b611835565b50503461020c578160031936011261020c57602090516a027b46536c66c8e30000008152f35b50503461020c578060031936011261020c576020906104f86104ee6110d9565b6024359033611188565b5160018152f35b905082346105a457826003193601126105a45761051a6110d9565b918360243592338152600160205281812060018060a01b0386168252602052205490828210610553576020856104f88585038733611358565b608490602086519162461bcd60e51b8352820152602560248201527f45524332303a2064656372656173656420616c6c6f77616e63652062656c6f77604482015264207a65726f60d81b6064820152fd5b80fd5b83833461020c578160031936011261020c57805190828454600181811c908083169283156106bc575b60209384841081146106a95783885290811561068d5750600114610638575b505050829003601f01601f191682019267ffffffffffffffff8411838510176106255750829182610621925282611090565b0390f35b634e487b7160e01b815260418552602490fd5b8787529192508591837f8a35acfbc15ff81a39ae7d344fd709f28e8600b4aa8c65c6b64bfe7fe36bd19b5b83851061067957505050508301018580806105ef565b805488860183015293019284908201610663565b60ff1916878501525050151560051b84010190508580806105ef565b634e487b7160e01b895260228a52602489fd5b91607f16916105d0565b50503461020c578160031936011261020c57602090516a084595161401484a0000008152f35b50503461020c578160031936011261020c57600554905160089190911c6001600160a01b03168152602090f35b50503461020c578160031936011261020c5760207f62e78cea01bee320cd4e420270b5ea74000d11b0c9f74754ebdbfc544b05a2589161075761110a565b61075f61164f565b600160ff19600554161760055551338152a180f35b50503461020c57602036600319011261020c5760209181906001600160a01b0361079c6110d9565b1681526009845220549051908152f35b50503461020c573660031901126105a4576107dc6107c86110d9565b602435906107d782338361145a565b6114f2565b80f35b9050346102e95760209081600319360112610935578035906107ff611693565b61080761164f565b610812821515611603565b3385528483528184862054106108fb5750907f985e9aa4ba7a346bc73ecb280a306df5aca60437b7fa6e2e8902a06e25c516cf9133855260078252838520546108c9575b610861813033611188565b33855260078252838520610876828254611165565b905533855260098252428486205583519081527fb539ca1e5c8d398ddf1c41c30166f33404941683be4683319b57669a93dad4ef823392a2338452600781528284205492519283523392a2600160065580f35b6108d2336117b6565b806108de575b50610856565b338652600883526108f3858720918254611165565b9055386108d8565b835162461bcd60e51b81529081018390526014602482015273496e73756666696369656e742062616c616e636560601b6044820152606490fd5b8380fd5b9050346102e95760203660031901126102e95780359161095761110a565b6107d08311610968575050600a5580f35b906020606492519162461bcd60e51b835282015260156024820152744150522063616e6e6f74206578636565642032302560581b6044820152fd5b83346105a457806003193601126105a4576109bc61110a565b60058054610100600160a81b03198116909155819060081c6001600160a01b03167f8be0079c531659141344cd1fd0a4f28419497f9722a3daafe3b4186f6b6457e08280a380f35b50503461020c57602036600319011261020c5760209181906001600160a01b03610a2c6110d9565b16815280845220549051908152f35b83346105a45760203660031901126105a457610a556110d9565b610a5d61110a565b60018060a01b03166bffffffffffffffffffffffff60a01b600e541617600e5580f35b919050346102e9576020908160031936011261093557823592610aa1611693565b610aac841515611603565b33855260078352838286205410610b4b5750907f9845e367b683334e5c0b12d7b81721ac518e649376fa65e3d68324e8f34f267991610aea336117b6565b80610b2e575b5033855260078252808520610b068582546116e9565b9055338552600982524281862055610b1f843330611188565b519283523392a2600160065580f35b33865260088352610b43828720918254611165565b905538610af0565b82606492519162461bcd60e51b8352820152601b60248201527f496e73756666696369656e74207374616b65642062616c616e636500000000006044820152fd5b50503461020c57602036600319011261020c5760209181906001600160a01b03610bb46110d9565b1681526007845220549051908152f35b50503461020c578160031936011261020c5760209060ff6005541690519015158152f35b50503461020c57602036600319011261020c5760209181906001600160a01b03610c106110d9565b1681526008845220549051908152f35b83903461020c57602036600319011261020c576107dc9035336114f2565b9050346102e957826003193601126102e957610c5861110a565b6005549060ff821615610c9a575060ff1916600555513381527f5db9ee0a495bf2e6ff9c91a7834c1ba4fdd244a5e8aa4e537bd38aeae4b073aa90602090a180f35b606490602084519162461bcd60e51b8352820152601460248201527314185d5cd8589b194e881b9bdd081c185d5cd95960621b6044820152fd5b9050346102e95760203660031901126102e957803591610cf261110a565b606483101580610d59575b15610d0a575050600b5580f35b906020608492519162461bcd60e51b83528201526024808201527f4d756c7469706c696572206d757374206265206265747765656e20317820616e6044820152630c84066f60e31b6064820152fd5b5061012c831115610cfd565b50503461020c578060031936011261020c576104f8602092610dae610d886110d9565b338352600186528483206001600160a01b03821684528652918490205460243590611165565b9033611358565b50503461020c578160031936011261020c57602090600b549051908152f35b919050346102e957826003193601126102e957610def611693565b610e0c610dfb336117b6565b338552600860205282852054611165565b918215610e6757503383526008602052828181205560096020524281842055610e3582336116f6565b519081527ffc30cddea38e2bf4d6ea7d3f9ed3b6ad7f176419f4963bd81318067a4aee73fe60203392a2600160065580f35b6020606492519162461bcd60e51b835282015260136024820152724e6f207265776172647320746f20636c61696d60681b6044820152fd5b50503461020c578160031936011261020c576020905160128152f35b50503461020c578160031936011261020c57600e5490516001600160a01b039091168152602090f35b50503461020c57606036600319011261020c576020906104f8610f056110d9565b610f0d6110f4565b60443591610f1c83338361145a565b611188565b50503461020c578160031936011261020c57600d5490516001600160a01b039091168152602090f35b50503461020c578160031936011261020c576020906002549051908152f35b50503461020c578160031936011261020c576020905169d3c21bcecceda10000008152f35b50503461020c578060031936011261020c576020906104f8610fae6110d9565b6024359033611358565b849084346102e957826003193601126102e95782600354600181811c90808316928315611086575b60209384841081146106a95783885290811561068d575060011461103057505050829003601f01601f191682019267ffffffffffffffff8411838510176106255750829182610621925282611090565b600387529192508591837fc2575a0e9e593c00f959f8c92f12db2869c3395a3b0502d05e2516446f71f85b5b83851061107257505050508301018580806105ef565b80548886018301529301928490820161105c565b91607f1691610fe0565b6020808252825181830181905290939260005b8281106110c557505060409293506000838284010152601f8019910116010190565b8181018601518482016040015285016110a3565b600435906001600160a01b03821682036110ef57565b600080fd5b602435906001600160a01b03821682036110ef57565b60055460081c6001600160a01b0316330361112157565b606460405162461bcd60e51b815260206004820152602060248201527f4f776e61626c653a2063616c6c6572206973206e6f7420746865206f776e65726044820152fd5b9190820180921161117257565b634e487b7160e01b600052601160045260246000fd5b6001600160a01b0390811691821561130557169182156112b45760ff6005541661125c5760008281528060205260408120549180831061120857604082827fddf252ad1be2c89b69c2b068fc378daa952ba7f163c4a11628f55a4df523b3ef958760209652828652038282205586815220818154019055604051908152a3565b60405162461bcd60e51b815260206004820152602660248201527f45524332303a207472616e7366657220616d6f756e7420657863656564732062604482015265616c616e636560d01b6064820152608490fd5b60405162461bcd60e51b815260206004820152602a60248201527f45524332305061757361626c653a20746f6b656e207472616e736665722077686044820152691a5b19481c185d5cd95960b21b6064820152608490fd5b60405162461bcd60e51b815260206004820152602360248201527f45524332303a207472616e7366657220746f20746865207a65726f206164647260448201526265737360e81b6064820152608490fd5b60405162461bcd60e51b815260206004820152602560248201527f45524332303a207472616e736665722066726f6d20746865207a65726f206164604482015264647265737360d81b6064820152608490fd5b6001600160a01b0390811691821561140957169182156113b95760207f8c5be1e5ebec7d5bd14f71427d1e84f3dd0314c0f7b2291e5b200ac8c7c3b925918360005260018252604060002085600052825280604060002055604051908152a3565b60405162461bcd60e51b815260206004820152602260248201527f45524332303a20617070726f766520746f20746865207a65726f206164647265604482015261737360f01b6064820152608490fd5b60405162461bcd60e51b8152602060048201526024808201527f45524332303a20617070726f76652066726f6d20746865207a65726f206164646044820152637265737360e01b6064820152608490fd5b9060018060a01b0380831660005260016020526040600020908216600052602052604060002054926000198403611492575b50505050565b8084106114ad576114a4930391611358565b3880808061148c565b60405162461bcd60e51b815260206004820152601d60248201527f45524332303a20696e73756666696369656e7420616c6c6f77616e63650000006044820152606490fd5b6001600160a01b031680156115b45760ff6005541661125c5760009181835282602052604083205481811061156457817fddf252ad1be2c89b69c2b068fc378daa952ba7f163c4a11628f55a4df523b3ef926020928587528684520360408620558060025403600255604051908152a3565b60405162461bcd60e51b815260206004820152602260248201527f45524332303a206275726e20616d6f756e7420657863656564732062616c616e604482015261636560f01b6064820152608490fd5b60405162461bcd60e51b815260206004820152602160248201527f45524332303a206275726e2066726f6d20746865207a65726f206164647265736044820152607360f81b6064820152608490fd5b1561160a57565b60405162461bcd60e51b815260206004820152601d60248201527f416d6f756e74206d7573742062652067726561746572207468616e20300000006044820152606490fd5b60ff6005541661165b57565b60405162461bcd60e51b815260206004820152601060248201526f14185d5cd8589b194e881c185d5cd95960821b6044820152606490fd5b6002600654146116a4576002600655565b60405162461bcd60e51b815260206004820152601f60248201527f5265656e7472616e637947756172643a207265656e7472616e742063616c6c006044820152606490fd5b9190820391821161117257565b6001600160a01b031690811561175e5760ff6005541661125c577fddf252ad1be2c89b69c2b068fc378daa952ba7f163c4a11628f55a4df523b3ef602082611742600094600254611165565b60025584845283825260408420818154019055604051908152a3565b60405162461bcd60e51b815260206004820152601f60248201527f45524332303a206d696e7420746f20746865207a65726f2061646472657373006044820152606490fd5b8181029291811591840414171561117257565b6001600160a01b039081166000818152600760205260408120541561182f5764496cebb8009161180a604061180f9360096020526117f782822054426116e9565b93815260076020522054600a54906117a3565b6117a3565b0490600e541661181c5790565b61182b606491600b54906117a3565b0490565b91505090565b6001600160a01b031660009081526007602052604090205469021e19e0c9bab24000008110156118be5769010f0cf064dd592000008110156118b857683635c9adc5dea000008110156118b25768056bc75e2d631000008110156118ac57678ac7230489e8000011156118a757600090565b600190565b50600290565b50600390565b50600490565b5060059056fea2646970667358221220ab6192c4ad32f5e6de8fdf7f40e263c5761e3a08b97ed73f3545607a721a1bee64736f6c63430008140033ddf252ad1be2c89b69c2b068fc378daa952ba7f163c4a11628f55a4df523b3ef45524332305061757361626c653a20746f6b656e207472616e73666572207768","opcodes":"PUSH1 0x80 CALLVALUE PUSH3 0x543 JUMPI PUSH3 0x1FC1 SWAP1 PUSH1 0x1F SWAP1 PUSH1 0x1F NOT PUSH1 0x1 PUSH1 0x1 PUSH1 0x40 SHL SUB CODESIZE DUP6 SWAP1 SUB DUP5 DUP2 ADD DUP4 AND DUP5 ADD SWAP1 DUP3 DUP3 GT DUP6 DUP4 LT OR PUSH3 0x43C JUMPI DUP1 DUP6 SWAP2 PUSH1 0x40 SWAP9 DUP10 SWAP5 DUP6 MSTORE DUP4 CODECOPY DUP2 ADD SUB SLT PUSH3 0x543 JUMPI PUSH3 0x52 DUP4 PUSH3 0x568 JUMP JUMPDEST SWAP1 PUSH3 0x62 PUSH1 0x20 DUP1 SWAP6 ADD PUSH3 0x568 JUMP JUMPDEST SWAP1 PUSH3 0x6D PUSH3 0x548 JUMP JUMPDEST SWAP6 PUSH1 0xD DUP8 MSTORE PUSH13 0x20B2B3B4B637B7102A37B5B2B7 PUSH1 0x99 SHL DUP7 DUP9 ADD MSTORE PUSH3 0x91 PUSH3 0x548 JUMP JUMPDEST SWAP1 PUSH1 0x3 SWAP2 DUP3 DUP2 MSTORE PUSH3 0x414547 PUSH1 0xE8 SHL DUP9 DUP3 ADD MSTORE DUP9 MLOAD DUP5 DUP2 GT PUSH3 0x43C JUMPI DUP4 SLOAD PUSH1 0x1 SWAP11 DUP12 DUP3 DUP2 SHR SWAP3 AND DUP1 ISZERO PUSH3 0x538 JUMPI JUMPDEST DUP12 DUP4 LT EQ PUSH3 0x522 JUMPI DUP2 DUP6 DUP5 SWAP4 GT PUSH3 0x4CC JUMPI JUMPDEST POP DUP11 SWAP1 DUP6 DUP4 GT PUSH1 0x1 EQ PUSH3 0x45E JUMPI PUSH1 0x0 SWAP3 PUSH3 0x452 JUMPI JUMPDEST POP POP PUSH1 0x0 NOT DUP3 DUP7 SHL SHR NOT AND SWAP1 DUP11 SHL OR DUP4 SSTORE JUMPDEST DUP1 MLOAD SWAP4 DUP5 GT PUSH3 0x43C JUMPI PUSH1 0x4 SWAP7 DUP8 SLOAD DUP11 DUP2 DUP2 SHR SWAP2 AND DUP1 ISZERO PUSH3 0x431 JUMPI JUMPDEST DUP11 DUP3 LT EQ PUSH3 0x41C JUMPI SWAP1 DUP2 DUP5 DUP8 SWAP7 SWAP6 SWAP5 SWAP4 GT PUSH3 0x3C0 JUMPI JUMPDEST POP DUP10 SWAP3 DUP6 GT PUSH1 0x1 EQ PUSH3 0x358 JUMPI POP PUSH1 0x0 SWAP4 PUSH3 0x34C JUMPI JUMPDEST POP POP DUP3 DUP9 SHL SWAP3 PUSH1 0x0 NOT SWAP2 SHL SHR NOT AND OR DUP4 SSTORE JUMPDEST PUSH1 0x5 DUP1 SLOAD PUSH1 0x1 PUSH1 0x1 PUSH1 0xA8 SHL SUB NOT DUP2 AND CALLER PUSH1 0x8 DUP2 DUP2 SHL PUSH2 0x100 PUSH1 0x1 PUSH1 0xA8 SHL SUB AND SWAP3 SWAP1 SWAP3 OR SWAP1 SWAP4 SSTORE DUP9 MLOAD SWAP8 PUSH1 0x1 PUSH1 0x1 PUSH1 0xA0 SHL SUB SWAP5 SWAP4 SWAP1 SWAP3 SWAP1 SWAP2 SHR DUP5 AND PUSH32 0x8BE0079C531659141344CD1FD0A4F28419497F9722A3DAAFE3B4186F6B6457E0 PUSH1 0x0 DUP1 LOG3 PUSH1 0x6 SSTORE PUSH2 0x1F4 PUSH1 0xA SSTORE PUSH1 0x96 PUSH1 0xB SSTORE DUP2 DUP4 AND SWAP6 DUP7 ISZERO PUSH3 0x30B JUMPI POP AND SWAP4 DUP5 ISZERO PUSH3 0x2C8 JUMPI SWAP1 DUP5 PUSH3 0x204 SWAP3 PUSH1 0x1 DUP1 PUSH1 0xA0 SHL SUB NOT SWAP1 DUP2 PUSH1 0xC SLOAD AND OR PUSH1 0xC SSTORE PUSH1 0xD SLOAD AND OR PUSH1 0xD SSTORE PUSH3 0x57D JUMP JUMPDEST PUSH1 0xFF PUSH1 0x5 SLOAD AND PUSH3 0x285 JUMPI PUSH1 0x2 SLOAD PUSH11 0x34F086F3B33B684000000 SWAP2 DUP3 DUP3 ADD DUP1 SWAP3 GT PUSH3 0x270 JUMPI POP PUSH1 0x2 SSTORE PUSH1 0x0 DUP4 DUP2 MSTORE DUP1 DUP4 MSTORE DUP5 DUP2 KECCAK256 DUP1 SLOAD DUP4 ADD SWAP1 SSTORE DUP5 MLOAD SWAP2 DUP3 MSTORE SWAP2 PUSH1 0x0 DUP1 MLOAD PUSH1 0x20 PUSH3 0x1F81 DUP4 CODECOPY DUP2 MLOAD SWAP2 MSTORE SWAP2 LOG3 PUSH3 0x262 CALLER PUSH3 0x57D JUMP JUMPDEST MLOAD PUSH2 0x18FA SWAP1 DUP2 PUSH3 0x687 DUP3 CODECOPY RETURN JUMPDEST PUSH1 0x11 SWAP1 PUSH4 0x4E487B71 PUSH1 0xE0 SHL PUSH1 0x0 MSTORE MSTORE PUSH1 0x24 PUSH1 0x0 REVERT JUMPDEST PUSH1 0x84 SWAP2 DUP5 MLOAD SWAP2 PUSH3 0x461BCD PUSH1 0xE5 SHL DUP4 MSTORE DUP3 ADD MSTORE PUSH1 0x2A PUSH1 0x24 DUP3 ADD MSTORE PUSH1 0x0 DUP1 MLOAD PUSH1 0x20 PUSH3 0x1FA1 DUP4 CODECOPY DUP2 MLOAD SWAP2 MSTORE PUSH1 0x44 DUP3 ADD MSTORE PUSH10 0x1A5B19481C185D5CD959 PUSH1 0xB2 SHL PUSH1 0x64 DUP3 ADD MSTORE REVERT JUMPDEST DUP6 MLOAD PUSH3 0x461BCD PUSH1 0xE5 SHL DUP2 MSTORE DUP1 DUP5 ADD DUP6 SWAP1 MSTORE PUSH1 0x19 PUSH1 0x24 DUP3 ADD MSTORE PUSH32 0x496E76616C6964206C6971756964697479206164647265737300000000000000 PUSH1 0x44 DUP3 ADD MSTORE PUSH1 0x64 SWAP1 REVERT JUMPDEST PUSH3 0x461BCD PUSH1 0xE5 SHL DUP2 MSTORE DUP5 DUP2 ADD DUP7 SWAP1 MSTORE PUSH1 0x18 PUSH1 0x24 DUP3 ADD MSTORE PUSH32 0x496E76616C696420747265617375727920616464726573730000000000000000 PUSH1 0x44 DUP3 ADD MSTORE PUSH1 0x64 SWAP1 REVERT JUMPDEST ADD MLOAD SWAP2 POP CODESIZE DUP1 PUSH3 0x149 JUMP JUMPDEST DUP11 SWAP6 SWAP4 SWAP3 SWAP2 SWAP4 AND SWAP3 DUP9 PUSH1 0x0 MSTORE DUP10 PUSH1 0x0 KECCAK256 SWAP4 PUSH1 0x0 JUMPDEST DUP12 DUP3 DUP3 LT PUSH3 0x3A9 JUMPI POP POP DUP6 GT PUSH3 0x38E JUMPI JUMPDEST POP POP POP POP DUP2 SHL ADD DUP4 SSTORE PUSH3 0x15B JUMP JUMPDEST ADD MLOAD SWAP1 PUSH1 0xF8 DUP5 PUSH1 0x0 NOT SWAP3 SHL AND SHR NOT AND SWAP1 SSTORE CODESIZE DUP1 DUP1 DUP1 PUSH3 0x37F JUMP JUMPDEST DUP4 DUP6 ADD MLOAD DUP8 SSTORE DUP14 SWAP9 SWAP1 SWAP7 ADD SWAP6 SWAP4 DUP5 ADD SWAP4 ADD PUSH3 0x36C JUMP JUMPDEST SWAP1 SWAP2 SWAP3 SWAP4 SWAP5 POP DUP9 PUSH1 0x0 MSTORE DUP10 PUSH1 0x0 KECCAK256 DUP5 DUP1 DUP9 ADD PUSH1 0x5 SHR DUP3 ADD SWAP3 DUP13 DUP10 LT PUSH3 0x412 JUMPI JUMPDEST SWAP2 DUP14 SWAP2 DUP10 SWAP9 SWAP8 SWAP7 SWAP6 SWAP5 SWAP4 ADD PUSH1 0x5 SHR ADD SWAP2 JUMPDEST DUP3 DUP2 LT PUSH3 0x402 JUMPI POP POP PUSH3 0x132 JUMP JUMPDEST PUSH1 0x0 DUP2 SSTORE DUP9 SWAP8 POP DUP14 SWAP2 ADD PUSH3 0x3F2 JUMP JUMPDEST SWAP3 POP DUP2 SWAP3 PUSH3 0x3E1 JUMP JUMPDEST PUSH1 0x22 DUP10 PUSH4 0x4E487B71 PUSH1 0xE0 SHL PUSH1 0x0 MSTORE MSTORE PUSH1 0x24 PUSH1 0x0 REVERT JUMPDEST SWAP1 PUSH1 0x7F AND SWAP1 PUSH3 0x11A JUMP JUMPDEST PUSH4 0x4E487B71 PUSH1 0xE0 SHL PUSH1 0x0 MSTORE PUSH1 0x41 PUSH1 0x4 MSTORE PUSH1 0x24 PUSH1 0x0 REVERT JUMPDEST ADD MLOAD SWAP1 POP CODESIZE DUP1 PUSH3 0xEB JUMP JUMPDEST SWAP1 DUP11 DUP14 SWAP5 AND SWAP2 DUP8 PUSH1 0x0 MSTORE DUP13 PUSH1 0x0 KECCAK256 SWAP3 DUP14 PUSH1 0x0 SWAP1 JUMPDEST DUP3 DUP3 LT PUSH3 0x4AB JUMPI POP POP DUP5 GT PUSH3 0x492 JUMPI JUMPDEST POP POP POP DUP2 SHL ADD DUP4 SSTORE PUSH3 0xFD JUMP JUMPDEST ADD MLOAD PUSH1 0x0 NOT DUP4 DUP9 SHL PUSH1 0xF8 AND SHR NOT AND SWAP1 SSTORE CODESIZE DUP1 DUP1 PUSH3 0x484 JUMP JUMPDEST SWAP2 SWAP3 SWAP4 SWAP6 SWAP7 DUP3 SWAP2 SWAP6 DUP8 DUP7 ADD MLOAD DUP2 SSTORE ADD SWAP6 ADD SWAP4 ADD SWAP1 DUP15 SWAP6 SWAP5 SWAP4 SWAP3 SWAP2 DUP15 PUSH3 0x472 JUMP JUMPDEST SWAP1 SWAP2 POP DUP6 PUSH1 0x0 MSTORE DUP11 PUSH1 0x0 KECCAK256 DUP6 DUP1 DUP6 ADD PUSH1 0x5 SHR DUP3 ADD SWAP3 DUP14 DUP7 LT PUSH3 0x518 JUMPI JUMPDEST SWAP2 DUP15 SWAP2 DUP7 SWAP6 SWAP5 SWAP4 ADD PUSH1 0x5 SHR ADD SWAP2 JUMPDEST DUP3 DUP2 LT PUSH3 0x508 JUMPI POP POP PUSH3 0xD4 JUMP JUMPDEST PUSH1 0x0 DUP2 SSTORE DUP6 SWAP5 POP DUP15 SWAP2 ADD PUSH3 0x4F8 JUMP JUMPDEST SWAP3 POP DUP2 SWAP3 PUSH3 0x4EA JUMP JUMPDEST PUSH4 0x4E487B71 PUSH1 0xE0 SHL PUSH1 0x0 MSTORE PUSH1 0x22 PUSH1 0x4 MSTORE PUSH1 0x24 PUSH1 0x0 REVERT JUMPDEST SWAP2 PUSH1 0x7F AND SWAP2 PUSH3 0xC0 JUMP JUMPDEST PUSH1 0x0 DUP1 REVERT JUMPDEST PUSH1 0x40 DUP1 MLOAD SWAP2 SWAP1 DUP3 ADD PUSH1 0x1 PUSH1 0x1 PUSH1 0x40 SHL SUB DUP2 GT DUP4 DUP3 LT OR PUSH3 0x43C JUMPI PUSH1 0x40 MSTORE JUMP JUMPDEST MLOAD SWAP1 PUSH1 0x1 PUSH1 0x1 PUSH1 0xA0 SHL SUB DUP3 AND DUP3 SUB PUSH3 0x543 JUMPI JUMP JUMPDEST PUSH1 0x1 PUSH1 0x1 PUSH1 0xA0 SHL SUB AND DUP1 ISZERO PUSH3 0x641 JUMPI PUSH1 0xFF PUSH1 0x5 SLOAD AND PUSH3 0x5FA JUMPI PUSH1 0x2 SLOAD PUSH11 0x27B46536C66C8E3000000 DUP1 DUP3 ADD DUP1 SWAP3 GT PUSH3 0x5E4 JUMPI PUSH1 0x20 PUSH1 0x0 DUP1 MLOAD PUSH1 0x20 PUSH3 0x1F81 DUP4 CODECOPY DUP2 MLOAD SWAP2 MSTORE SWAP2 PUSH1 0x0 SWAP4 PUSH1 0x2 SSTORE DUP5 DUP5 MSTORE DUP4 DUP3 MSTORE PUSH1 0x40 DUP5 KECCAK256 DUP2 DUP2 SLOAD ADD SWAP1 SSTORE PUSH1 0x40 MLOAD SWAP1 DUP2 MSTORE LOG3 JUMP JUMPDEST PUSH4 0x4E487B71 PUSH1 0xE0 SHL PUSH1 0x0 MSTORE PUSH1 0x11 PUSH1 0x4 MSTORE PUSH1 0x24 PUSH1 0x0 REVERT JUMPDEST PUSH1 0x40 MLOAD PUSH3 0x461BCD PUSH1 0xE5 SHL DUP2 MSTORE PUSH1 0x20 PUSH1 0x4 DUP3 ADD MSTORE PUSH1 0x2A PUSH1 0x24 DUP3 ADD MSTORE PUSH1 0x0 DUP1 MLOAD PUSH1 0x20 PUSH3 0x1FA1 DUP4 CODECOPY DUP2 MLOAD SWAP2 MSTORE PUSH1 0x44 DUP3 ADD MSTORE PUSH10 0x1A5B19481C185D5CD959 PUSH1 0xB2 SHL PUSH1 0x64 DUP3 ADD MSTORE PUSH1 0x84 SWAP1 REVERT JUMPDEST PUSH1 0x40 MLOAD PUSH3 0x461BCD PUSH1 0xE5 SHL DUP2 MSTORE PUSH1 0x20 PUSH1 0x4 DUP3 ADD MSTORE PUSH1 0x1F PUSH1 0x24 DUP3 ADD MSTORE PUSH32 0x45524332303A206D696E7420746F20746865207A65726F206164647265737300 PUSH1 0x44 DUP3 ADD MSTORE PUSH1 0x64 SWAP1 REVERT INVALID PUSH1 0x80 PUSH1 0x40 DUP2 DUP2 MSTORE PUSH1 0x4 SWAP2 DUP3 CALLDATASIZE LT ISZERO PUSH2 0x16 JUMPI PUSH1 0x0 DUP1 REVERT JUMPDEST PUSH1 0x0 SWAP3 DUP4 CALLDATALOAD PUSH1 0xE0 SHR SWAP2 DUP3 PUSH4 0x6FDDE03 EQ PUSH2 0xFB8 JUMPI POP DUP2 PUSH4 0x95EA7B3 EQ PUSH2 0xF8E JUMPI DUP2 PUSH4 0xCA34D01 EQ PUSH2 0xF69 JUMPI DUP2 PUSH4 0x18160DDD EQ PUSH2 0xF4A JUMPI DUP2 PUSH4 0x1816F2B8 EQ PUSH2 0xF21 JUMPI DUP2 PUSH4 0x23B872DD EQ PUSH2 0xEE4 JUMPI DUP2 PUSH4 0x30398195 EQ PUSH2 0xEBB JUMPI DUP2 PUSH4 0x313CE567 EQ PUSH2 0xE9F JUMPI DUP2 PUSH4 0x372500AB EQ PUSH2 0xDD4 JUMPI DUP2 PUSH4 0x375C9485 EQ PUSH2 0xDB5 JUMPI DUP2 PUSH4 0x39509351 EQ PUSH2 0xD65 JUMPI DUP2 PUSH4 0x3AACDC46 EQ PUSH2 0xCD4 JUMPI DUP2 PUSH4 0x3F4BA83A EQ PUSH2 0xC3E JUMPI DUP2 PUSH4 0x42966C68 EQ PUSH2 0xC20 JUMPI DUP2 PUSH4 0x499D7F96 EQ PUSH2 0xBE8 JUMPI DUP2 PUSH4 0x5C975ABB EQ PUSH2 0xBC4 JUMPI DUP2 PUSH4 0x60217267 EQ PUSH2 0xB8C JUMPI DUP2 PUSH4 0x608E4DD0 EQ PUSH2 0xA80 JUMPI DUP2 PUSH4 0x649F7F52 EQ PUSH2 0xA3B JUMPI DUP2 PUSH4 0x70A08231 EQ PUSH2 0xA04 JUMPI DUP2 PUSH4 0x715018A6 EQ PUSH2 0x9A3 JUMPI DUP2 PUSH4 0x73E50210 EQ PUSH2 0x939 JUMPI DUP2 PUSH4 0x7547C7A3 EQ PUSH2 0x7DF JUMPI DUP2 PUSH4 0x79CC6790 EQ PUSH2 0x7AC JUMPI DUP2 PUSH4 0x7BB1CA19 EQ PUSH2 0x774 JUMPI DUP2 PUSH4 0x8456CB59 EQ PUSH2 0x719 JUMPI DUP2 PUSH4 0x8DA5CB5B EQ PUSH2 0x6EC JUMPI DUP2 PUSH4 0x902D55A5 EQ PUSH2 0x6C6 JUMPI DUP2 PUSH4 0x95D89B41 EQ PUSH2 0x5A7 JUMPI DUP2 PUSH4 0xA457C2D7 EQ PUSH2 0x4FF JUMPI DUP2 PUSH4 0xA9059CBB EQ PUSH2 0x4CE JUMPI DUP2 PUSH4 0xA91990F4 EQ PUSH2 0x4A8 JUMPI DUP2 PUSH4 0xBC00FD67 EQ PUSH2 0x482 JUMPI DUP2 PUSH4 0xC5F956AF EQ PUSH2 0x459 JUMPI DUP2 PUSH4 0xCF086D3F EQ PUSH2 0x3A8 JUMPI DUP2 PUSH4 0xD47768DE EQ PUSH2 0x37B JUMPI DUP2 PUSH4 0xDD62ED3E EQ PUSH2 0x332 JUMPI DUP2 PUSH4 0xEB7203FE EQ PUSH2 0x313 JUMPI DUP2 PUSH4 0xEBDBE248 EQ PUSH2 0x2ED JUMPI DUP2 PUSH4 0xF2FDE38B EQ PUSH2 0x210 JUMPI POP PUSH4 0xFD99CBED EQ PUSH2 0x1E8 JUMPI PUSH1 0x0 DUP1 REVERT JUMPDEST CALLVALUE PUSH2 0x20C JUMPI DUP2 PUSH1 0x3 NOT CALLDATASIZE ADD SLT PUSH2 0x20C JUMPI PUSH1 0x20 SWAP1 MLOAD PUSH11 0x1A784379D99DB42000000 DUP2 MSTORE RETURN JUMPDEST POP DUP1 REVERT JUMPDEST SWAP1 POP CALLVALUE PUSH2 0x2E9 JUMPI PUSH1 0x20 CALLDATASIZE PUSH1 0x3 NOT ADD SLT PUSH2 0x2E9 JUMPI PUSH2 0x22B PUSH2 0x10D9 JUMP JUMPDEST PUSH2 0x233 PUSH2 0x110A JUMP JUMPDEST PUSH1 0x1 PUSH1 0x1 PUSH1 0xA0 SHL SUB DUP2 DUP2 AND SWAP4 SWAP1 SWAP3 SWAP1 DUP5 ISZERO PUSH2 0x297 JUMPI POP POP PUSH1 0x5 DUP1 SLOAD PUSH2 0x100 PUSH1 0x1 PUSH1 0xA8 SHL SUB NOT DUP2 AND PUSH1 0x8 SWAP4 DUP5 SHL PUSH2 0x100 PUSH1 0x1 PUSH1 0xA8 SHL SUB AND OR SWAP1 SWAP2 SSTORE SWAP1 SHR AND PUSH32 0x8BE0079C531659141344CD1FD0A4F28419497F9722A3DAAFE3B4186F6B6457E0 DUP4 DUP1 LOG3 DUP1 RETURN JUMPDEST SWAP1 PUSH1 0x20 PUSH1 0x84 SWAP3 MLOAD SWAP2 PUSH3 0x461BCD PUSH1 0xE5 SHL DUP4 MSTORE DUP3 ADD MSTORE PUSH1 0x26 PUSH1 0x24 DUP3 ADD MSTORE PUSH32 0x4F776E61626C653A206E6577206F776E657220697320746865207A65726F2061 PUSH1 0x44 DUP3 ADD MSTORE PUSH6 0x646472657373 PUSH1 0xD0 SHL PUSH1 0x64 DUP3 ADD MSTORE REVERT JUMPDEST DUP3 DUP1 REVERT JUMPDEST POP POP CALLVALUE PUSH2 0x20C JUMPI DUP2 PUSH1 0x3 NOT CALLDATASIZE ADD SLT PUSH2 0x20C JUMPI PUSH1 0x20 SWAP1 MLOAD PUSH11 0x34F086F3B33B684000000 DUP2 MSTORE RETURN JUMPDEST POP POP CALLVALUE PUSH2 0x20C JUMPI DUP2 PUSH1 0x3 NOT CALLDATASIZE ADD SLT PUSH2 0x20C JUMPI PUSH1 0x20 SWAP1 PUSH1 0xA SLOAD SWAP1 MLOAD SWAP1 DUP2 MSTORE RETURN JUMPDEST POP POP CALLVALUE PUSH2 0x20C JUMPI DUP1 PUSH1 0x3 NOT CALLDATASIZE ADD SLT PUSH2 0x20C JUMPI DUP1 PUSH1 0x20 SWAP3 PUSH2 0x350 PUSH2 0x10D9 JUMP JUMPDEST PUSH2 0x358 PUSH2 0x10F4 JUMP JUMPDEST PUSH1 0x1 PUSH1 0x1 PUSH1 0xA0 SHL SUB SWAP2 DUP3 AND DUP4 MSTORE PUSH1 0x1 DUP7 MSTORE DUP4 DUP4 KECCAK256 SWAP2 AND DUP3 MSTORE DUP5 MSTORE KECCAK256 SLOAD SWAP1 MLOAD SWAP1 DUP2 MSTORE RETURN JUMPDEST POP POP CALLVALUE PUSH2 0x20C JUMPI PUSH1 0x20 CALLDATASIZE PUSH1 0x3 NOT ADD SLT PUSH2 0x20C JUMPI PUSH1 0x20 SWAP1 PUSH2 0x3A1 PUSH2 0x39C PUSH2 0x10D9 JUMP JUMPDEST PUSH2 0x17B6 JUMP JUMPDEST SWAP1 MLOAD SWAP1 DUP2 MSTORE RETURN JUMPDEST SWAP1 POP CALLVALUE PUSH2 0x2E9 JUMPI DUP2 PUSH1 0x3 NOT CALLDATASIZE ADD SLT PUSH2 0x2E9 JUMPI PUSH2 0x3C2 PUSH2 0x10D9 JUMP JUMPDEST PUSH1 0xE SLOAD PUSH1 0x24 CALLDATALOAD SWAP4 PUSH1 0x1 PUSH1 0x1 PUSH1 0xA0 SHL SUB SWAP4 SWAP1 SWAP2 DUP5 AND CALLER SUB PUSH2 0x417 JUMPI POP SWAP2 DUP2 PUSH32 0xBA29A1F6B0E8D9402F3FAE592E8E8F66AE1DCB631E0D57908A12FF3C517E6652 SWAP4 PUSH2 0x40D DUP7 PUSH1 0x20 SWAP6 PUSH2 0x16F6 JUMP JUMPDEST MLOAD SWAP5 DUP6 MSTORE AND SWAP3 LOG2 DUP1 RETURN JUMPDEST PUSH1 0x20 PUSH1 0x64 SWAP3 MLOAD SWAP2 PUSH3 0x461BCD PUSH1 0xE5 SHL DUP4 MSTORE DUP3 ADD MSTORE PUSH1 0x1B PUSH1 0x24 DUP3 ADD MSTORE PUSH32 0x4F6E6C79204D45562050726F746563746F722063616E2063616C6C0000000000 PUSH1 0x44 DUP3 ADD MSTORE REVERT JUMPDEST POP POP CALLVALUE PUSH2 0x20C JUMPI DUP2 PUSH1 0x3 NOT CALLDATASIZE ADD SLT PUSH2 0x20C JUMPI PUSH1 0xC SLOAD SWAP1 MLOAD PUSH1 0x1 PUSH1 0x1 PUSH1 0xA0 SHL SUB SWAP1 SWAP2 AND DUP2 MSTORE PUSH1 0x20 SWAP1 RETURN JUMPDEST POP POP CALLVALUE PUSH2 0x20C JUMPI PUSH1 0x20 CALLDATASIZE PUSH1 0x3 NOT ADD SLT PUSH2 0x20C JUMPI PUSH1 0x20 SWAP1 PUSH2 0x3A1 PUSH2 0x4A3 PUSH2 0x10D9 JUMP JUMPDEST PUSH2 0x1835 JUMP JUMPDEST POP POP CALLVALUE PUSH2 0x20C JUMPI DUP2 PUSH1 0x3 NOT CALLDATASIZE ADD SLT PUSH2 0x20C JUMPI PUSH1 0x20 SWAP1 MLOAD PUSH11 0x27B46536C66C8E3000000 DUP2 MSTORE RETURN JUMPDEST POP POP CALLVALUE PUSH2 0x20C JUMPI DUP1 PUSH1 0x3 NOT CALLDATASIZE ADD SLT PUSH2 0x20C JUMPI PUSH1 0x20 SWAP1 PUSH2 0x4F8 PUSH2 0x4EE PUSH2 0x10D9 JUMP JUMPDEST PUSH1 0x24 CALLDATALOAD SWAP1 CALLER PUSH2 0x1188 JUMP JUMPDEST MLOAD PUSH1 0x1 DUP2 MSTORE RETURN JUMPDEST SWAP1 POP DUP3 CALLVALUE PUSH2 0x5A4 JUMPI DUP3 PUSH1 0x3 NOT CALLDATASIZE ADD SLT PUSH2 0x5A4 JUMPI PUSH2 0x51A PUSH2 0x10D9 JUMP JUMPDEST SWAP2 DUP4 PUSH1 0x24 CALLDATALOAD SWAP3 CALLER DUP2 MSTORE PUSH1 0x1 PUSH1 0x20 MSTORE DUP2 DUP2 KECCAK256 PUSH1 0x1 DUP1 PUSH1 0xA0 SHL SUB DUP7 AND DUP3 MSTORE PUSH1 0x20 MSTORE KECCAK256 SLOAD SWAP1 DUP3 DUP3 LT PUSH2 0x553 JUMPI PUSH1 0x20 DUP6 PUSH2 0x4F8 DUP6 DUP6 SUB DUP8 CALLER PUSH2 0x1358 JUMP JUMPDEST PUSH1 0x84 SWAP1 PUSH1 0x20 DUP7 MLOAD SWAP2 PUSH3 0x461BCD PUSH1 0xE5 SHL DUP4 MSTORE DUP3 ADD MSTORE PUSH1 0x25 PUSH1 0x24 DUP3 ADD MSTORE PUSH32 0x45524332303A2064656372656173656420616C6C6F77616E63652062656C6F77 PUSH1 0x44 DUP3 ADD MSTORE PUSH5 0x207A65726F PUSH1 0xD8 SHL PUSH1 0x64 DUP3 ADD MSTORE REVERT JUMPDEST DUP1 REVERT JUMPDEST DUP4 DUP4 CALLVALUE PUSH2 0x20C JUMPI DUP2 PUSH1 0x3 NOT CALLDATASIZE ADD SLT PUSH2 0x20C JUMPI DUP1 MLOAD SWAP1 DUP3 DUP5 SLOAD PUSH1 0x1 DUP2 DUP2 SHR SWAP1 DUP1 DUP4 AND SWAP3 DUP4 ISZERO PUSH2 0x6BC JUMPI JUMPDEST PUSH1 0x20 SWAP4 DUP5 DUP5 LT DUP2 EQ PUSH2 0x6A9 JUMPI DUP4 DUP9 MSTORE SWAP1 DUP2 ISZERO PUSH2 0x68D JUMPI POP PUSH1 0x1 EQ PUSH2 0x638 JUMPI JUMPDEST POP POP POP DUP3 SWAP1 SUB PUSH1 0x1F ADD PUSH1 0x1F NOT AND DUP3 ADD SWAP3 PUSH8 0xFFFFFFFFFFFFFFFF DUP5 GT DUP4 DUP6 LT OR PUSH2 0x625 JUMPI POP DUP3 SWAP2 DUP3 PUSH2 0x621 SWAP3 MSTORE DUP3 PUSH2 0x1090 JUMP JUMPDEST SUB SWAP1 RETURN JUMPDEST PUSH4 0x4E487B71 PUSH1 0xE0 SHL DUP2 MSTORE PUSH1 0x41 DUP6 MSTORE PUSH1 0x24 SWAP1 REVERT JUMPDEST DUP8 DUP8 MSTORE SWAP2 SWAP3 POP DUP6 SWAP2 DUP4 PUSH32 0x8A35ACFBC15FF81A39AE7D344FD709F28E8600B4AA8C65C6B64BFE7FE36BD19B JUMPDEST DUP4 DUP6 LT PUSH2 0x679 JUMPI POP POP POP POP DUP4 ADD ADD DUP6 DUP1 DUP1 PUSH2 0x5EF JUMP JUMPDEST DUP1 SLOAD DUP9 DUP7 ADD DUP4 ADD MSTORE SWAP4 ADD SWAP3 DUP5 SWAP1 DUP3 ADD PUSH2 0x663 JUMP JUMPDEST PUSH1 0xFF NOT AND DUP8 DUP6 ADD MSTORE POP POP ISZERO ISZERO PUSH1 0x5 SHL DUP5 ADD ADD SWAP1 POP DUP6 DUP1 DUP1 PUSH2 0x5EF JUMP JUMPDEST PUSH4 0x4E487B71 PUSH1 0xE0 SHL DUP10 MSTORE PUSH1 0x22 DUP11 MSTORE PUSH1 0x24 DUP10 REVERT JUMPDEST SWAP2 PUSH1 0x7F AND SWAP2 PUSH2 0x5D0 JUMP JUMPDEST POP POP CALLVALUE PUSH2 0x20C JUMPI DUP2 PUSH1 0x3 NOT CALLDATASIZE ADD SLT PUSH2 0x20C JUMPI PUSH1 0x20 SWAP1 MLOAD PUSH11 0x84595161401484A000000 DUP2 MSTORE RETURN JUMPDEST POP POP CALLVALUE PUSH2 0x20C JUMPI DUP2 PUSH1 0x3 NOT CALLDATASIZE ADD SLT PUSH2 0x20C JUMPI PUSH1 0x5 SLOAD SWAP1 MLOAD PUSH1 0x8 SWAP2 SWAP1 SWAP2 SHR PUSH1 0x1 PUSH1 0x1 PUSH1 0xA0 SHL SUB AND DUP2 MSTORE PUSH1 0x20 SWAP1 RETURN JUMPDEST POP POP CALLVALUE PUSH2 0x20C JUMPI DUP2 PUSH1 0x3 NOT CALLDATASIZE ADD SLT PUSH2 0x20C JUMPI PUSH1 0x20 PUSH32 0x62E78CEA01BEE320CD4E420270B5EA74000D11B0C9F74754EBDBFC544B05A258 SWAP2 PUSH2 0x757 PUSH2 0x110A JUMP JUMPDEST PUSH2 0x75F PUSH2 0x164F JUMP JUMPDEST PUSH1 0x1 PUSH1 0xFF NOT PUSH1 0x5 SLOAD AND OR PUSH1 0x5 SSTORE MLOAD CALLER DUP2 MSTORE LOG1 DUP1 RETURN JUMPDEST POP POP CALLVALUE PUSH2 0x20C JUMPI PUSH1 0x20 CALLDATASIZE PUSH1 0x3 NOT ADD SLT PUSH2 0x20C JUMPI PUSH1 0x20 SWAP2 DUP2 SWAP1 PUSH1 0x1 PUSH1 0x1 PUSH1 0xA0 SHL SUB PUSH2 0x79C PUSH2 0x10D9 JUMP JUMPDEST AND DUP2 MSTORE PUSH1 0x9 DUP5 MSTORE KECCAK256 SLOAD SWAP1 MLOAD SWAP1 DUP2 MSTORE RETURN JUMPDEST POP POP CALLVALUE PUSH2 0x20C JUMPI CALLDATASIZE PUSH1 0x3 NOT ADD SLT PUSH2 0x5A4 JUMPI PUSH2 0x7DC PUSH2 0x7C8 PUSH2 0x10D9 JUMP JUMPDEST PUSH1 0x24 CALLDATALOAD SWAP1 PUSH2 0x7D7 DUP3 CALLER DUP4 PUSH2 0x145A JUMP JUMPDEST PUSH2 0x14F2 JUMP JUMPDEST DUP1 RETURN JUMPDEST SWAP1 POP CALLVALUE PUSH2 0x2E9 JUMPI PUSH1 0x20 SWAP1 DUP2 PUSH1 0x3 NOT CALLDATASIZE ADD SLT PUSH2 0x935 JUMPI DUP1 CALLDATALOAD SWAP1 PUSH2 0x7FF PUSH2 0x1693 JUMP JUMPDEST PUSH2 0x807 PUSH2 0x164F JUMP JUMPDEST PUSH2 0x812 DUP3 ISZERO ISZERO PUSH2 0x1603 JUMP JUMPDEST CALLER DUP6 MSTORE DUP5 DUP4 MSTORE DUP2 DUP5 DUP7 KECCAK256 SLOAD LT PUSH2 0x8FB JUMPI POP SWAP1 PUSH32 0x985E9AA4BA7A346BC73ECB280A306DF5ACA60437B7FA6E2E8902A06E25C516CF SWAP2 CALLER DUP6 MSTORE PUSH1 0x7 DUP3 MSTORE DUP4 DUP6 KECCAK256 SLOAD PUSH2 0x8C9 JUMPI JUMPDEST PUSH2 0x861 DUP2 ADDRESS CALLER PUSH2 0x1188 JUMP JUMPDEST CALLER DUP6 MSTORE PUSH1 0x7 DUP3 MSTORE DUP4 DUP6 KECCAK256 PUSH2 0x876 DUP3 DUP3 SLOAD PUSH2 0x1165 JUMP JUMPDEST SWAP1 SSTORE CALLER DUP6 MSTORE PUSH1 0x9 DUP3 MSTORE TIMESTAMP DUP5 DUP7 KECCAK256 SSTORE DUP4 MLOAD SWAP1 DUP2 MSTORE PUSH32 0xB539CA1E5C8D398DDF1C41C30166F33404941683BE4683319B57669A93DAD4EF DUP3 CALLER SWAP3 LOG2 CALLER DUP5 MSTORE PUSH1 0x7 DUP2 MSTORE DUP3 DUP5 KECCAK256 SLOAD SWAP3 MLOAD SWAP3 DUP4 MSTORE CALLER SWAP3 LOG2 PUSH1 0x1 PUSH1 0x6 SSTORE DUP1 RETURN JUMPDEST PUSH2 0x8D2 CALLER PUSH2 0x17B6 JUMP JUMPDEST DUP1 PUSH2 0x8DE JUMPI JUMPDEST POP PUSH2 0x856 JUMP JUMPDEST CALLER DUP7 MSTORE PUSH1 0x8 DUP4 MSTORE PUSH2 0x8F3 DUP6 DUP8 KECCAK256 SWAP2 DUP3 SLOAD PUSH2 0x1165 JUMP JUMPDEST SWAP1 SSTORE CODESIZE PUSH2 0x8D8 JUMP JUMPDEST DUP4 MLOAD PUSH3 0x461BCD PUSH1 0xE5 SHL DUP2 MSTORE SWAP1 DUP2 ADD DUP4 SWAP1 MSTORE PUSH1 0x14 PUSH1 0x24 DUP3 ADD MSTORE PUSH20 0x496E73756666696369656E742062616C616E6365 PUSH1 0x60 SHL PUSH1 0x44 DUP3 ADD MSTORE PUSH1 0x64 SWAP1 REVERT JUMPDEST DUP4 DUP1 REVERT JUMPDEST SWAP1 POP CALLVALUE PUSH2 0x2E9 JUMPI PUSH1 0x20 CALLDATASIZE PUSH1 0x3 NOT ADD SLT PUSH2 0x2E9 JUMPI DUP1 CALLDATALOAD SWAP2 PUSH2 0x957 PUSH2 0x110A JUMP JUMPDEST PUSH2 0x7D0 DUP4 GT PUSH2 0x968 JUMPI POP POP PUSH1 0xA SSTORE DUP1 RETURN JUMPDEST SWAP1 PUSH1 0x20 PUSH1 0x64 SWAP3 MLOAD SWAP2 PUSH3 0x461BCD PUSH1 0xE5 SHL DUP4 MSTORE DUP3 ADD MSTORE PUSH1 0x15 PUSH1 0x24 DUP3 ADD MSTORE PUSH21 0x4150522063616E6E6F742065786365656420323025 PUSH1 0x58 SHL PUSH1 0x44 DUP3 ADD MSTORE REVERT JUMPDEST DUP4 CALLVALUE PUSH2 0x5A4 JUMPI DUP1 PUSH1 0x3 NOT CALLDATASIZE ADD SLT PUSH2 0x5A4 JUMPI PUSH2 0x9BC PUSH2 0x110A JUMP JUMPDEST PUSH1 0x5 DUP1 SLOAD PUSH2 0x100 PUSH1 0x1 PUSH1 0xA8 SHL SUB NOT DUP2 AND SWAP1 SWAP2 SSTORE DUP2 SWAP1 PUSH1 0x8 SHR PUSH1 0x1 PUSH1 0x1 PUSH1 0xA0 SHL SUB AND PUSH32 0x8BE0079C531659141344CD1FD0A4F28419497F9722A3DAAFE3B4186F6B6457E0 DUP3 DUP1 LOG3 DUP1 RETURN JUMPDEST POP POP CALLVALUE PUSH2 0x20C JUMPI PUSH1 0x20 CALLDATASIZE PUSH1 0x3 NOT ADD SLT PUSH2 0x20C JUMPI PUSH1 0x20 SWAP2 DUP2 SWAP1 PUSH1 0x1 PUSH1 0x1 PUSH1 0xA0 SHL SUB PUSH2 0xA2C PUSH2 0x10D9 JUMP JUMPDEST AND DUP2 MSTORE DUP1 DUP5 MSTORE KECCAK256 SLOAD SWAP1 MLOAD SWAP1 DUP2 MSTORE RETURN JUMPDEST DUP4 CALLVALUE PUSH2 0x5A4 JUMPI PUSH1 0x20 CALLDATASIZE PUSH1 0x3 NOT ADD SLT PUSH2 0x5A4 JUMPI PUSH2 0xA55 PUSH2 0x10D9 JUMP JUMPDEST PUSH2 0xA5D PUSH2 0x110A JUMP JUMPDEST PUSH1 0x1 DUP1 PUSH1 0xA0 SHL SUB AND PUSH12 0xFFFFFFFFFFFFFFFFFFFFFFFF PUSH1 0xA0 SHL PUSH1 0xE SLOAD AND OR PUSH1 0xE SSTORE DUP1 RETURN JUMPDEST SWAP2 SWAP1 POP CALLVALUE PUSH2 0x2E9 JUMPI PUSH1 0x20 SWAP1 DUP2 PUSH1 0x3 NOT CALLDATASIZE ADD SLT PUSH2 0x935 JUMPI DUP3 CALLDATALOAD SWAP3 PUSH2 0xAA1 PUSH2 0x1693 JUMP JUMPDEST PUSH2 0xAAC DUP5 ISZERO ISZERO PUSH2 0x1603 JUMP JUMPDEST CALLER DUP6 MSTORE PUSH1 0x7 DUP4 MSTORE DUP4 DUP3 DUP7 KECCAK256 SLOAD LT PUSH2 0xB4B JUMPI POP SWAP1 PUSH32 0x9845E367B683334E5C0B12D7B81721AC518E649376FA65E3D68324E8F34F2679 SWAP2 PUSH2 0xAEA CALLER PUSH2 0x17B6 JUMP JUMPDEST DUP1 PUSH2 0xB2E JUMPI JUMPDEST POP CALLER DUP6 MSTORE PUSH1 0x7 DUP3 MSTORE DUP1 DUP6 KECCAK256 PUSH2 0xB06 DUP6 DUP3 SLOAD PUSH2 0x16E9 JUMP JUMPDEST SWAP1 SSTORE CALLER DUP6 MSTORE PUSH1 0x9 DUP3 MSTORE TIMESTAMP DUP2 DUP7 KECCAK256 SSTORE PUSH2 0xB1F DUP5 CALLER ADDRESS PUSH2 0x1188 JUMP JUMPDEST MLOAD SWAP3 DUP4 MSTORE CALLER SWAP3 LOG2 PUSH1 0x1 PUSH1 0x6 SSTORE DUP1 RETURN JUMPDEST CALLER DUP7 MSTORE PUSH1 0x8 DUP4 MSTORE PUSH2 0xB43 DUP3 DUP8 KECCAK256 SWAP2 DUP3 SLOAD PUSH2 0x1165 JUMP JUMPDEST SWAP1 SSTORE CODESIZE PUSH2 0xAF0 JUMP JUMPDEST DUP3 PUSH1 0x64 SWAP3 MLOAD SWAP2 PUSH3 0x461BCD PUSH1 0xE5 SHL DUP4 MSTORE DUP3 ADD MSTORE PUSH1 0x1B PUSH1 0x24 DUP3 ADD MSTORE PUSH32 0x496E73756666696369656E74207374616B65642062616C616E63650000000000 PUSH1 0x44 DUP3 ADD MSTORE REVERT JUMPDEST POP POP CALLVALUE PUSH2 0x20C JUMPI PUSH1 0x20 CALLDATASIZE PUSH1 0x3 NOT ADD SLT PUSH2 0x20C JUMPI PUSH1 0x20 SWAP2 DUP2 SWAP1 PUSH1 0x1 PUSH1 0x1 PUSH1 0xA0 SHL SUB PUSH2 0xBB4 PUSH2 0x10D9 JUMP JUMPDEST AND DUP2 MSTORE PUSH1 0x7 DUP5 MSTORE KECCAK256 SLOAD SWAP1 MLOAD SWAP1 DUP2 MSTORE RETURN JUMPDEST POP POP CALLVALUE PUSH2 0x20C JUMPI DUP2 PUSH1 0x3 NOT CALLDATASIZE ADD SLT PUSH2 0x20C JUMPI PUSH1 0x20 SWAP1 PUSH1 0xFF PUSH1 0x5 SLOAD AND SWAP1 MLOAD SWAP1 ISZERO ISZERO DUP2 MSTORE RETURN JUMPDEST POP POP CALLVALUE PUSH2 0x20C JUMPI PUSH1 0x20 CALLDATASIZE PUSH1 0x3 NOT ADD SLT PUSH2 0x20C JUMPI PUSH1 0x20 SWAP2 DUP2 SWAP1 PUSH1 0x1 PUSH1 0x1 PUSH1 0xA0 SHL SUB PUSH2 0xC10 PUSH2 0x10D9 JUMP JUMPDEST AND DUP2 MSTORE PUSH1 0x8 DUP5 MSTORE KECCAK256 SLOAD SWAP1 MLOAD SWAP1 DUP2 MSTORE RETURN JUMPDEST DUP4 SWAP1 CALLVALUE PUSH2 0x20C JUMPI PUSH1 0x20 CALLDATASIZE PUSH1 0x3 NOT ADD SLT PUSH2 0x20C JUMPI PUSH2 0x7DC SWAP1 CALLDATALOAD CALLER PUSH2 0x14F2 JUMP JUMPDEST SWAP1 POP CALLVALUE PUSH2 0x2E9 JUMPI DUP3 PUSH1 0x3 NOT CALLDATASIZE ADD SLT PUSH2 0x2E9 JUMPI PUSH2 0xC58 PUSH2 0x110A JUMP JUMPDEST PUSH1 0x5 SLOAD SWAP1 PUSH1 0xFF DUP3 AND ISZERO PUSH2 0xC9A JUMPI POP PUSH1 0xFF NOT AND PUSH1 0x5 SSTORE MLOAD CALLER DUP2 MSTORE PUSH32 0x5DB9EE0A495BF2E6FF9C91A7834C1BA4FDD244A5E8AA4E537BD38AEAE4B073AA SWAP1 PUSH1 0x20 SWAP1 LOG1 DUP1 RETURN JUMPDEST PUSH1 0x64 SWAP1 PUSH1 0x20 DUP5 MLOAD SWAP2 PUSH3 0x461BCD PUSH1 0xE5 SHL DUP4 MSTORE DUP3 ADD MSTORE PUSH1 0x14 PUSH1 0x24 DUP3 ADD MSTORE PUSH20 0x14185D5CD8589B194E881B9BDD081C185D5CD959 PUSH1 0x62 SHL PUSH1 0x44 DUP3 ADD MSTORE REVERT JUMPDEST SWAP1 POP CALLVALUE PUSH2 0x2E9 JUMPI PUSH1 0x20 CALLDATASIZE PUSH1 0x3 NOT ADD SLT PUSH2 0x2E9 JUMPI DUP1 CALLDATALOAD SWAP2 PUSH2 0xCF2 PUSH2 0x110A JUMP JUMPDEST PUSH1 0x64 DUP4 LT ISZERO DUP1 PUSH2 0xD59 JUMPI JUMPDEST ISZERO PUSH2 0xD0A JUMPI POP POP PUSH1 0xB SSTORE DUP1 RETURN JUMPDEST SWAP1 PUSH1 0x20 PUSH1 0x84 SWAP3 MLOAD SWAP2 PUSH3 0x461BCD PUSH1 0xE5 SHL DUP4 MSTORE DUP3 ADD MSTORE PUSH1 0x24 DUP1 DUP3 ADD MSTORE PUSH32 0x4D756C7469706C696572206D757374206265206265747765656E20317820616E PUSH1 0x44 DUP3 ADD MSTORE PUSH4 0xC84066F PUSH1 0xE3 SHL PUSH1 0x64 DUP3 ADD MSTORE REVERT JUMPDEST POP PUSH2 0x12C DUP4 GT ISZERO PUSH2 0xCFD JUMP JUMPDEST POP POP CALLVALUE PUSH2 0x20C JUMPI DUP1 PUSH1 0x3 NOT CALLDATASIZE ADD SLT PUSH2 0x20C JUMPI PUSH2 0x4F8 PUSH1 0x20 SWAP3 PUSH2 0xDAE PUSH2 0xD88 PUSH2 0x10D9 JUMP JUMPDEST CALLER DUP4 MSTORE PUSH1 0x1 DUP7 MSTORE DUP5 DUP4 KECCAK256 PUSH1 0x1 PUSH1 0x1 PUSH1 0xA0 SHL SUB DUP3 AND DUP5 MSTORE DUP7 MSTORE SWAP2 DUP5 SWAP1 KECCAK256 SLOAD PUSH1 0x24 CALLDATALOAD SWAP1 PUSH2 0x1165 JUMP JUMPDEST SWAP1 CALLER PUSH2 0x1358 JUMP JUMPDEST POP POP CALLVALUE PUSH2 0x20C JUMPI DUP2 PUSH1 0x3 NOT CALLDATASIZE ADD SLT PUSH2 0x20C JUMPI PUSH1 0x20 SWAP1 PUSH1 0xB SLOAD SWAP1 MLOAD SWAP1 DUP2 MSTORE RETURN JUMPDEST SWAP2 SWAP1 POP CALLVALUE PUSH2 0x2E9 JUMPI DUP3 PUSH1 0x3 NOT CALLDATASIZE ADD SLT PUSH2 0x2E9 JUMPI PUSH2 0xDEF PUSH2 0x1693 JUMP JUMPDEST PUSH2 0xE0C PUSH2 0xDFB CALLER PUSH2 0x17B6 JUMP JUMPDEST CALLER DUP6 MSTORE PUSH1 0x8 PUSH1 0x20 MSTORE DUP3 DUP6 KECCAK256 SLOAD PUSH2 0x1165 JUMP JUMPDEST SWAP2 DUP3 ISZERO PUSH2 0xE67 JUMPI POP CALLER DUP4 MSTORE PUSH1 0x8 PUSH1 0x20 MSTORE DUP3 DUP2 DUP2 KECCAK256 SSTORE PUSH1 0x9 PUSH1 0x20 MSTORE TIMESTAMP DUP2 DUP5 KECCAK256 SSTORE PUSH2 0xE35 DUP3 CALLER PUSH2 0x16F6 JUMP JUMPDEST MLOAD SWAP1 DUP2 MSTORE PUSH32 0xFC30CDDEA38E2BF4D6EA7D3F9ED3B6AD7F176419F4963BD81318067A4AEE73FE PUSH1 0x20 CALLER SWAP3 LOG2 PUSH1 0x1 PUSH1 0x6 SSTORE DUP1 RETURN JUMPDEST PUSH1 0x20 PUSH1 0x64 SWAP3 MLOAD SWAP2 PUSH3 0x461BCD PUSH1 0xE5 SHL DUP4 MSTORE DUP3 ADD MSTORE PUSH1 0x13 PUSH1 0x24 DUP3 ADD MSTORE PUSH19 0x4E6F207265776172647320746F20636C61696D PUSH1 0x68 SHL PUSH1 0x44 DUP3 ADD MSTORE REVERT JUMPDEST POP POP CALLVALUE PUSH2 0x20C JUMPI DUP2 PUSH1 0x3 NOT CALLDATASIZE ADD SLT PUSH2 0x20C JUMPI PUSH1 0x20 SWAP1 MLOAD PUSH1 0x12 DUP2 MSTORE RETURN JUMPDEST POP POP CALLVALUE PUSH2 0x20C JUMPI DUP2 PUSH1 0x3 NOT CALLDATASIZE ADD SLT PUSH2 0x20C JUMPI PUSH1 0xE SLOAD SWAP1 MLOAD PUSH1 0x1 PUSH1 0x1 PUSH1 0xA0 SHL SUB SWAP1 SWAP2 AND DUP2 MSTORE PUSH1 0x20 SWAP1 RETURN JUMPDEST POP POP CALLVALUE PUSH2 0x20C JUMPI PUSH1 0x60 CALLDATASIZE PUSH1 0x3 NOT ADD SLT PUSH2 0x20C JUMPI PUSH1 0x20 SWAP1 PUSH2 0x4F8 PUSH2 0xF05 PUSH2 0x10D9 JUMP JUMPDEST PUSH2 0xF0D PUSH2 0x10F4 JUMP JUMPDEST PUSH1 0x44 CALLDATALOAD SWAP2 PUSH2 0xF1C DUP4 CALLER DUP4 PUSH2 0x145A JUMP JUMPDEST PUSH2 0x1188 JUMP JUMPDEST POP POP CALLVALUE PUSH2 0x20C JUMPI DUP2 PUSH1 0x3 NOT CALLDATASIZE ADD SLT PUSH2 0x20C JUMPI PUSH1 0xD SLOAD SWAP1 MLOAD PUSH1 0x1 PUSH1 0x1 PUSH1 0xA0 SHL SUB SWAP1 SWAP2 AND DUP2 MSTORE PUSH1 0x20 SWAP1 RETURN JUMPDEST POP POP CALLVALUE PUSH2 0x20C JUMPI DUP2 PUSH1 0x3 NOT CALLDATASIZE ADD SLT PUSH2 0x20C JUMPI PUSH1 0x20 SWAP1 PUSH1 0x2 SLOAD SWAP1 MLOAD SWAP1 DUP2 MSTORE RETURN JUMPDEST POP POP CALLVALUE PUSH2 0x20C JUMPI DUP2 PUSH1 0x3 NOT CALLDATASIZE ADD SLT PUSH2 0x20C JUMPI PUSH1 0x20 SWAP1 MLOAD PUSH10 0xD3C21BCECCEDA1000000 DUP2 MSTORE RETURN JUMPDEST POP POP CALLVALUE PUSH2 0x20C JUMPI DUP1 PUSH1 0x3 NOT CALLDATASIZE ADD SLT PUSH2 0x20C JUMPI PUSH1 0x20 SWAP1 PUSH2 0x4F8 PUSH2 0xFAE PUSH2 0x10D9 JUMP JUMPDEST PUSH1 0x24 CALLDATALOAD SWAP1 CALLER PUSH2 0x1358 JUMP JUMPDEST DUP5 SWAP1 DUP5 CALLVALUE PUSH2 0x2E9 JUMPI DUP3 PUSH1 0x3 NOT CALLDATASIZE ADD SLT PUSH2 0x2E9 JUMPI DUP3 PUSH1 0x3 SLOAD PUSH1 0x1 DUP2 DUP2 SHR SWAP1 DUP1 DUP4 AND SWAP3 DUP4 ISZERO PUSH2 0x1086 JUMPI JUMPDEST PUSH1 0x20 SWAP4 DUP5 DUP5 LT DUP2 EQ PUSH2 0x6A9 JUMPI DUP4 DUP9 MSTORE SWAP1 DUP2 ISZERO PUSH2 0x68D JUMPI POP PUSH1 0x1 EQ PUSH2 0x1030 JUMPI POP POP POP DUP3 SWAP1 SUB PUSH1 0x1F ADD PUSH1 0x1F NOT AND DUP3 ADD SWAP3 PUSH8 0xFFFFFFFFFFFFFFFF DUP5 GT DUP4 DUP6 LT OR PUSH2 0x625 JUMPI POP DUP3 SWAP2 DUP3 PUSH2 0x621 SWAP3 MSTORE DUP3 PUSH2 0x1090 JUMP JUMPDEST PUSH1 0x3 DUP8 MSTORE SWAP2 SWAP3 POP DUP6 SWAP2 DUP4 PUSH32 0xC2575A0E9E593C00F959F8C92F12DB2869C3395A3B0502D05E2516446F71F85B JUMPDEST DUP4 DUP6 LT PUSH2 0x1072 JUMPI POP POP POP POP DUP4 ADD ADD DUP6 DUP1 DUP1 PUSH2 0x5EF JUMP JUMPDEST DUP1 SLOAD DUP9 DUP7 ADD DUP4 ADD MSTORE SWAP4 ADD SWAP3 DUP5 SWAP1 DUP3 ADD PUSH2 0x105C JUMP JUMPDEST SWAP2 PUSH1 0x7F AND SWAP2 PUSH2 0xFE0 JUMP JUMPDEST PUSH1 0x20 DUP1 DUP3 MSTORE DUP3 MLOAD DUP2 DUP4 ADD DUP2 SWAP1 MSTORE SWAP1 SWAP4 SWAP3 PUSH1 0x0 JUMPDEST DUP3 DUP2 LT PUSH2 0x10C5 JUMPI POP POP PUSH1 0x40 SWAP3 SWAP4 POP PUSH1 0x0 DUP4 DUP3 DUP5 ADD ADD MSTORE PUSH1 0x1F DUP1 NOT SWAP2 ADD AND ADD ADD SWAP1 JUMP JUMPDEST DUP2 DUP2 ADD DUP7 ADD MLOAD DUP5 DUP3 ADD PUSH1 0x40 ADD MSTORE DUP6 ADD PUSH2 0x10A3 JUMP JUMPDEST PUSH1 0x4 CALLDATALOAD SWAP1 PUSH1 0x1 PUSH1 0x1 PUSH1 0xA0 SHL SUB DUP3 AND DUP3 SUB PUSH2 0x10EF JUMPI JUMP JUMPDEST PUSH1 0x0 DUP1 REVERT JUMPDEST PUSH1 0x24 CALLDATALOAD SWAP1 PUSH1 0x1 PUSH1 0x1 PUSH1 0xA0 SHL SUB DUP3 AND DUP3 SUB PUSH2 0x10EF JUMPI JUMP JUMPDEST PUSH1 0x5 SLOAD PUSH1 0x8 SHR PUSH1 0x1 PUSH1 0x1 PUSH1 0xA0 SHL SUB AND CALLER SUB PUSH2 0x1121 JUMPI JUMP JUMPDEST PUSH1 0x64 PUSH1 0x40 MLOAD PUSH3 0x461BCD PUSH1 0xE5 SHL DUP2 MSTORE PUSH1 0x20 PUSH1 0x4 DUP3 ADD MSTORE PUSH1 0x20 PUSH1 0x24 DUP3 ADD MSTORE PUSH32 0x4F776E61626C653A2063616C6C6572206973206E6F7420746865206F776E6572 PUSH1 0x44 DUP3 ADD MSTORE REVERT JUMPDEST SWAP2 SWAP1 DUP3 ADD DUP1 SWAP3 GT PUSH2 0x1172 JUMPI JUMP JUMPDEST PUSH4 0x4E487B71 PUSH1 0xE0 SHL PUSH1 0x0 MSTORE PUSH1 0x11 PUSH1 0x4 MSTORE PUSH1 0x24 PUSH1 0x0 REVERT JUMPDEST PUSH1 0x1 PUSH1 0x1 PUSH1 0xA0 SHL SUB SWAP1 DUP2 AND SWAP2 DUP3 ISZERO PUSH2 0x1305 JUMPI AND SWAP2 DUP3 ISZERO PUSH2 0x12B4 JUMPI PUSH1 0xFF PUSH1 0x5 SLOAD AND PUSH2 0x125C JUMPI PUSH1 0x0 DUP3 DUP2 MSTORE DUP1 PUSH1 0x20 MSTORE PUSH1 0x40 DUP2 KECCAK256 SLOAD SWAP2 DUP1 DUP4 LT PUSH2 0x1208 JUMPI PUSH1 0x40 DUP3 DUP3 PUSH32 0xDDF252AD1BE2C89B69C2B068FC378DAA952BA7F163C4A11628F55A4DF523B3EF SWAP6 DUP8 PUSH1 0x20 SWAP7 MSTORE DUP3 DUP7 MSTORE SUB DUP3 DUP3 KECCAK256 SSTORE DUP7 DUP2 MSTORE KECCAK256 DUP2 DUP2 SLOAD ADD SWAP1 SSTORE PUSH1 0x40 MLOAD SWAP1 DUP2 MSTORE LOG3 JUMP JUMPDEST PUSH1 0x40 MLOAD PUSH3 0x461BCD PUSH1 0xE5 SHL DUP2 MSTORE PUSH1 0x20 PUSH1 0x4 DUP3 ADD MSTORE PUSH1 0x26 PUSH1 0x24 DUP3 ADD MSTORE PUSH32 0x45524332303A207472616E7366657220616D6F756E7420657863656564732062 PUSH1 0x44 DUP3 ADD MSTORE PUSH6 0x616C616E6365 PUSH1 0xD0 SHL PUSH1 0x64 DUP3 ADD MSTORE PUSH1 0x84 SWAP1 REVERT JUMPDEST PUSH1 0x40 MLOAD PUSH3 0x461BCD PUSH1 0xE5 SHL DUP2 MSTORE PUSH1 0x20 PUSH1 0x4 DUP3 ADD MSTORE PUSH1 0x2A PUSH1 0x24 DUP3 ADD MSTORE PUSH32 0x45524332305061757361626C653A20746F6B656E207472616E73666572207768 PUSH1 0x44 DUP3 ADD MSTORE PUSH10 0x1A5B19481C185D5CD959 PUSH1 0xB2 SHL PUSH1 0x64 DUP3 ADD MSTORE PUSH1 0x84 SWAP1 REVERT JUMPDEST PUSH1 0x40 MLOAD PUSH3 0x461BCD PUSH1 0xE5 SHL DUP2 MSTORE PUSH1 0x20 PUSH1 0x4 DUP3 ADD MSTORE PUSH1 0x23 PUSH1 0x24 DUP3 ADD MSTORE PUSH32 0x45524332303A207472616E7366657220746F20746865207A65726F2061646472 PUSH1 0x44 DUP3 ADD MSTORE PUSH3 0x657373 PUSH1 0xE8 SHL PUSH1 0x64 DUP3 ADD MSTORE PUSH1 0x84 SWAP1 REVERT JUMPDEST PUSH1 0x40 MLOAD PUSH3 0x461BCD PUSH1 0xE5 SHL DUP2 MSTORE PUSH1 0x20 PUSH1 0x4 DUP3 ADD MSTORE PUSH1 0x25 PUSH1 0x24 DUP3 ADD MSTORE PUSH32 0x45524332303A207472616E736665722066726F6D20746865207A65726F206164 PUSH1 0x44 DUP3 ADD MSTORE PUSH5 0x6472657373 PUSH1 0xD8 SHL PUSH1 0x64 DUP3 ADD MSTORE PUSH1 0x84 SWAP1 REVERT JUMPDEST PUSH1 0x1 PUSH1 0x1 PUSH1 0xA0 SHL SUB SWAP1 DUP2 AND SWAP2 DUP3 ISZERO PUSH2 0x1409 JUMPI AND SWAP2 DUP3 ISZERO PUSH2 0x13B9 JUMPI PUSH1 0x20 PUSH32 0x8C5BE1E5EBEC7D5BD14F71427D1E84F3DD0314C0F7B2291E5B200AC8C7C3B925 SWAP2 DUP4 PUSH1 0x0 MSTORE PUSH1 0x1 DUP3 MSTORE PUSH1 0x40 PUSH1 0x0 KECCAK256 DUP6 PUSH1 0x0 MSTORE DUP3 MSTORE DUP1 PUSH1 0x40 PUSH1 0x0 KECCAK256 SSTORE PUSH1 0x40 MLOAD SWAP1 DUP2 MSTORE LOG3 JUMP JUMPDEST PUSH1 0x40 MLOAD PUSH3 0x461BCD PUSH1 0xE5 SHL DUP2 MSTORE PUSH1 0x20 PUSH1 0x4 DUP3 ADD MSTORE PUSH1 0x22 PUSH1 0x24 DUP3 ADD MSTORE PUSH32 0x45524332303A20617070726F766520746F20746865207A65726F206164647265 PUSH1 0x44 DUP3 ADD MSTORE PUSH2 0x7373 PUSH1 0xF0 SHL PUSH1 0x64 DUP3 ADD MSTORE PUSH1 0x84 SWAP1 REVERT JUMPDEST PUSH1 0x40 MLOAD PUSH3 0x461BCD PUSH1 0xE5 SHL DUP2 MSTORE PUSH1 0x20 PUSH1 0x4 DUP3 ADD MSTORE PUSH1 0x24 DUP1 DUP3 ADD MSTORE PUSH32 0x45524332303A20617070726F76652066726F6D20746865207A65726F20616464 PUSH1 0x44 DUP3 ADD MSTORE PUSH4 0x72657373 PUSH1 0xE0 SHL PUSH1 0x64 DUP3 ADD MSTORE PUSH1 0x84 SWAP1 REVERT JUMPDEST SWAP1 PUSH1 0x1 DUP1 PUSH1 0xA0 SHL SUB DUP1 DUP4 AND PUSH1 0x0 MSTORE PUSH1 0x1 PUSH1 0x20 MSTORE PUSH1 0x40 PUSH1 0x0 KECCAK256 SWAP1 DUP3 AND PUSH1 0x0 MSTORE PUSH1 0x20 MSTORE PUSH1 0x40 PUSH1 0x0 KECCAK256 SLOAD SWAP3 PUSH1 0x0 NOT DUP5 SUB PUSH2 0x1492 JUMPI JUMPDEST POP POP POP POP JUMP JUMPDEST DUP1 DUP5 LT PUSH2 0x14AD JUMPI PUSH2 0x14A4 SWAP4 SUB SWAP2 PUSH2 0x1358 JUMP JUMPDEST CODESIZE DUP1 DUP1 DUP1 PUSH2 0x148C JUMP JUMPDEST PUSH1 0x40 MLOAD PUSH3 0x461BCD PUSH1 0xE5 SHL DUP2 MSTORE PUSH1 0x20 PUSH1 0x4 DUP3 ADD MSTORE PUSH1 0x1D PUSH1 0x24 DUP3 ADD MSTORE PUSH32 0x45524332303A20696E73756666696369656E7420616C6C6F77616E6365000000 PUSH1 0x44 DUP3 ADD MSTORE PUSH1 0x64 SWAP1 REVERT JUMPDEST PUSH1 0x1 PUSH1 0x1 PUSH1 0xA0 SHL SUB AND DUP1 ISZERO PUSH2 0x15B4 JUMPI PUSH1 0xFF PUSH1 0x5 SLOAD AND PUSH2 0x125C JUMPI PUSH1 0x0 SWAP2 DUP2 DUP4 MSTORE DUP3 PUSH1 0x20 MSTORE PUSH1 0x40 DUP4 KECCAK256 SLOAD DUP2 DUP2 LT PUSH2 0x1564 JUMPI DUP2 PUSH32 0xDDF252AD1BE2C89B69C2B068FC378DAA952BA7F163C4A11628F55A4DF523B3EF SWAP3 PUSH1 0x20 SWAP3 DUP6 DUP8 MSTORE DUP7 DUP5 MSTORE SUB PUSH1 0x40 DUP7 KECCAK256 SSTORE DUP1 PUSH1 0x2 SLOAD SUB PUSH1 0x2 SSTORE PUSH1 0x40 MLOAD SWAP1 DUP2 MSTORE LOG3 JUMP JUMPDEST PUSH1 0x40 MLOAD PUSH3 0x461BCD PUSH1 0xE5 SHL DUP2 MSTORE PUSH1 0x20 PUSH1 0x4 DUP3 ADD MSTORE PUSH1 0x22 PUSH1 0x24 DUP3 ADD MSTORE PUSH32 0x45524332303A206275726E20616D6F756E7420657863656564732062616C616E PUSH1 0x44 DUP3 ADD MSTORE PUSH2 0x6365 PUSH1 0xF0 SHL PUSH1 0x64 DUP3 ADD MSTORE PUSH1 0x84 SWAP1 REVERT JUMPDEST PUSH1 0x40 MLOAD PUSH3 0x461BCD PUSH1 0xE5 SHL DUP2 MSTORE PUSH1 0x20 PUSH1 0x4 DUP3 ADD MSTORE PUSH1 0x21 PUSH1 0x24 DUP3 ADD MSTORE PUSH32 0x45524332303A206275726E2066726F6D20746865207A65726F20616464726573 PUSH1 0x44 DUP3 ADD MSTORE PUSH1 0x73 PUSH1 0xF8 SHL PUSH1 0x64 DUP3 ADD MSTORE PUSH1 0x84 SWAP1 REVERT JUMPDEST ISZERO PUSH2 0x160A JUMPI JUMP JUMPDEST PUSH1 0x40 MLOAD PUSH3 0x461BCD PUSH1 0xE5 SHL DUP2 MSTORE PUSH1 0x20 PUSH1 0x4 DUP3 ADD MSTORE PUSH1 0x1D PUSH1 0x24 DUP3 ADD MSTORE PUSH32 0x416D6F756E74206D7573742062652067726561746572207468616E2030000000 PUSH1 0x44 DUP3 ADD MSTORE PUSH1 0x64 SWAP1 REVERT JUMPDEST PUSH1 0xFF PUSH1 0x5 SLOAD AND PUSH2 0x165B JUMPI JUMP JUMPDEST PUSH1 0x40 MLOAD PUSH3 0x461BCD PUSH1 0xE5 SHL DUP2 MSTORE PUSH1 0x20 PUSH1 0x4 DUP3 ADD MSTORE PUSH1 0x10 PUSH1 0x24 DUP3 ADD MSTORE PUSH16 0x14185D5CD8589B194E881C185D5CD959 PUSH1 0x82 SHL PUSH1 0x44 DUP3 ADD MSTORE PUSH1 0x64 SWAP1 REVERT JUMPDEST PUSH1 0x2 PUSH1 0x6 SLOAD EQ PUSH2 0x16A4 JUMPI PUSH1 0x2 PUSH1 0x6 SSTORE JUMP JUMPDEST PUSH1 0x40 MLOAD PUSH3 0x461BCD PUSH1 0xE5 SHL DUP2 MSTORE PUSH1 0x20 PUSH1 0x4 DUP3 ADD MSTORE PUSH1 0x1F PUSH1 0x24 DUP3 ADD MSTORE PUSH32 0x5265656E7472616E637947756172643A207265656E7472616E742063616C6C00 PUSH1 0x44 DUP3 ADD MSTORE PUSH1 0x64 SWAP1 REVERT JUMPDEST SWAP2 SWAP1 DUP3 SUB SWAP2 DUP3 GT PUSH2 0x1172 JUMPI JUMP JUMPDEST PUSH1 0x1 PUSH1 0x1 PUSH1 0xA0 SHL SUB AND SWAP1 DUP2 ISZERO PUSH2 0x175E JUMPI PUSH1 0xFF PUSH1 0x5 SLOAD AND PUSH2 0x125C JUMPI PUSH32 0xDDF252AD1BE2C89B69C2B068FC378DAA952BA7F163C4A11628F55A4DF523B3EF PUSH1 0x20 DUP3 PUSH2 0x1742 PUSH1 0x0 SWAP5 PUSH1 0x2 SLOAD PUSH2 0x1165 JUMP JUMPDEST PUSH1 0x2 SSTORE DUP5 DUP5 MSTORE DUP4 DUP3 MSTORE PUSH1 0x40 DUP5 KECCAK256 DUP2 DUP2 SLOAD ADD SWAP1 SSTORE PUSH1 0x40 MLOAD SWAP1 DUP2 MSTORE LOG3 JUMP JUMPDEST PUSH1 0x40 MLOAD PUSH3 0x461BCD PUSH1 0xE5 SHL DUP2 MSTORE PUSH1 0x20 PUSH1 0x4 DUP3 ADD MSTORE PUSH1 0x1F PUSH1 0x24 DUP3 ADD MSTORE PUSH32 0x45524332303A206D696E7420746F20746865207A65726F206164647265737300 PUSH1 0x44 DUP3 ADD MSTORE PUSH1 0x64 SWAP1 REVERT JUMPDEST DUP2 DUP2 MUL SWAP3 SWAP2 DUP2 ISZERO SWAP2 DUP5 DIV EQ OR ISZERO PUSH2 0x1172 JUMPI JUMP JUMPDEST PUSH1 0x1 PUSH1 0x1 PUSH1 0xA0 SHL SUB SWAP1 DUP2 AND PUSH1 0x0 DUP2 DUP2 MSTORE PUSH1 0x7 PUSH1 0x20 MSTORE PUSH1 0x40 DUP2 KECCAK256 SLOAD ISZERO PUSH2 0x182F JUMPI PUSH5 0x496CEBB800 SWAP2 PUSH2 0x180A PUSH1 0x40 PUSH2 0x180F SWAP4 PUSH1 0x9 PUSH1 0x20 MSTORE PUSH2 0x17F7 DUP3 DUP3 KECCAK256 SLOAD TIMESTAMP PUSH2 0x16E9 JUMP JUMPDEST SWAP4 DUP2 MSTORE PUSH1 0x7 PUSH1 0x20 MSTORE KECCAK256 SLOAD PUSH1 0xA SLOAD SWAP1 PUSH2 0x17A3 JUMP JUMPDEST PUSH2 0x17A3 JUMP JUMPDEST DIV SWAP1 PUSH1 0xE SLOAD AND PUSH2 0x181C JUMPI SWAP1 JUMP JUMPDEST PUSH2 0x182B PUSH1 0x64 SWAP2 PUSH1 0xB SLOAD SWAP1 PUSH2 0x17A3 JUMP JUMPDEST DIV SWAP1 JUMP JUMPDEST SWAP2 POP POP SWAP1 JUMP JUMPDEST PUSH1 0x1 PUSH1 0x1 PUSH1 0xA0 SHL SUB AND PUSH1 0x0 SWAP1 DUP2 MSTORE PUSH1 0x7 PUSH1 0x20 MSTORE PUSH1 0x40 SWAP1 KECCAK256 SLOAD PUSH10 0x21E19E0C9BAB2400000 DUP2 LT ISZERO PUSH2 0x18BE JUMPI PUSH10 0x10F0CF064DD59200000 DUP2 LT ISZERO PUSH2 0x18B8 JUMPI PUSH9 0x3635C9ADC5DEA00000 DUP2 LT ISZERO PUSH2 0x18B2 JUMPI PUSH9 0x56BC75E2D63100000 DUP2 LT ISZERO PUSH2 0x18AC JUMPI PUSH8 0x8AC7230489E80000 GT ISZERO PUSH2 0x18A7 JUMPI PUSH1 0x0 SWAP1 JUMP JUMPDEST PUSH1 0x1 SWAP1 JUMP JUMPDEST POP PUSH1 0x2 SWAP1 JUMP JUMPDEST POP PUSH1 0x3 SWAP1 JUMP JUMPDEST POP PUSH1 0x4 SWAP1 JUMP JUMPDEST POP PUSH1 0x5 SWAP1 JUMP INVALID LOG2 PUSH5 0x6970667358 0x22 SLT KECCAK256 0xAB PUSH2 0x92C4 0xAD ORIGIN CREATE2 0xE6 0xDE DUP16 0xDF PUSH32 0x40E263C5761E3A08B97ED73F3545607A721A1BEE64736F6C63430008140033DD CALLCODE MSTORE 0xAD SHL 0xE2 0xC8 SWAP12 PUSH10 0xC2B068FC378DAA952BA7 CALL PUSH4 0xC4A11628 CREATE2 GAS 0x4D CREATE2 0x23 0xB3 0xEF GASLIMIT MSTORE NUMBER ORIGIN ADDRESS POP PUSH2 0x7573 PUSH2 0x626C PUSH6 0x3A20746F6B65 PUSH15 0x207472616E73666572207768000000 "},"methodIdentifiers":{"COMMUNITY_AIRDROP()":"0ca34d01","GOVERNANCE_TREASURY()":"a91990f4","LIQUIDITY_REWARDS()":"ebdbe248","TEAM_ALLOCATION()":"fd99cbed","TOTAL_SUPPLY()":"902d55a5","allowance(address,address)":"dd62ed3e","approve(address,uint256)":"095ea7b3","balanceOf(address)":"70a08231","burn(uint256)":"42966c68","burnFrom(address,uint256)":"79cc6790","calculateStakingRewards(address)":"d47768de","claimRewards()":"372500ab","decimals()":"313ce567","decreaseAllowance(address,uint256)":"a457c2d7","getProtectionLevel(address)":"bc00fd67","increaseAllowance(address,uint256)":"39509351","lastStakeTime(address)":"7bb1ca19","liquidityRewardsAddress()":"1816f2b8","mevProtectorContract()":"30398195","name()":"06fdde03","owner()":"8da5cb5b","pause()":"8456cb59","paused()":"5c975abb","protectionBoostMultiplier()":"375c9485","renounceOwnership()":"715018a6","rewardThreatReporter(address,uint256)":"cf086d3f","setMEVProtectorContract(address)":"649f7f52","setProtectionBoostMultiplier(uint256)":"3aacdc46","setStakingAPR(uint256)":"73e50210","stakeTokens(uint256)":"7547c7a3","stakedBalance(address)":"60217267","stakingAPR()":"eb7203fe","stakingRewards(address)":"499d7f96","symbol()":"95d89b41","totalSupply()":"18160ddd","transfer(address,uint256)":"a9059cbb","transferFrom(address,address,uint256)":"23b872dd","transferOwnership(address)":"f2fde38b","treasuryAddress()":"c5f956af","unpause()":"3f4ba83a","unstakeTokens(uint256)":"608e4dd0"}}}}}