{"contracts/MEVProtector.sol":{"MEVProtector":{"abi":[{"inputs":[{"internalType":"address","name":"_aegilonToken","type":"address"}],"stateMutability":"nonpayable","type":"constructor"},{"anonymous":false,"inputs":[{"indexed":true,"internalType":"bytes32","name":"threatId","type":"bytes32"},{"indexed":true,"internalType":"address","name":"target","type":"address"},{"indexed":true,"internalType":"address","name":"attacker","type":"address"},{"indexed":false,"internalType":"uint256","name":"threatType","type":"uint256"},{"indexed":false,"internalType":"uint256","name":"timestamp","type":"uint256"}],"name":"MEVThreatDetected","type":"event"},{"anonymous":false,"inputs":[{"indexed":true,"internalType":"bytes32","name":"threatId","type":"bytes32"},{"indexed":true,"internalType":"address","name":"protectedUser","type":"address"},{"indexed":false,"internalType":"uint256","name":"savedAmount","type":"uint256"},{"indexed":false,"internalType":"uint256","name":"timestamp","type":"uint256"}],"name":"MEVThreatPrevented","type":"event"},{"anonymous":false,"inputs":[{"indexed":true,"internalType":"string","name":"symbol","type":"string"},{"indexed":false,"internalType":"uint256","name":"price","type":"uint256"},{"indexed":false,"internalType":"uint256","name":"timestamp","type":"uint256"}],"name":"OraclePriceUpdated","type":"event"},{"anonymous":false,"inputs":[{"indexed":true,"internalType":"address","name":"previousOwner","type":"address"},{"indexed":true,"internalType":"address","name":"newOwner","type":"address"}],"name":"OwnershipTransferred","type":"event"},{"anonymous":false,"inputs":[{"indexed":false,"internalType":"address","name":"account","type":"address"}],"name":"Paused","type":"event"},{"anonymous":false,"inputs":[{"indexed":true,"internalType":"address","name":"user","type":"address"},{"indexed":false,"internalType":"uint256","name":"level","type":"uint256"}],"name":"ProtectionActivated","type":"event"},{"anonymous":false,"inputs":[{"indexed":true,"internalType":"address","name":"user","type":"address"}],"name":"ProtectionDeactivated","type":"event"},{"anonymous":false,"inputs":[{"indexed":true,"internalType":"address","name":"reporter","type":"address"},{"indexed":true,"internalType":"bytes32","name":"threatId","type":"bytes32"},{"indexed":false,"internalType":"uint256","name":"reward","type":"uint256"}],"name":"ThreatReported","type":"event"},{"anonymous":false,"inputs":[{"indexed":false,"internalType":"address","name":"account","type":"address"}],"name":"Unpaused","type":"event"},{"inputs":[],"name":"activateProtection","outputs":[],"stateMutability":"nonpayable","type":"function"},{"inputs":[],"name":"aegilonToken","outputs":[{"internalType":"contract AegilonToken","name":"","type":"address"}],"stateMutability":"view","type":"function"},{"inputs":[],"name":"authorizedIndexer","outputs":[{"internalType":"address","name":"","type":"address"}],"stateMutability":"view","type":"function"},{"inputs":[{"internalType":"string","name":"symbol","type":"string"},{"internalType":"uint256","name":"currentPrice","type":"uint256"}],"name":"checkPriceAnomaly","outputs":[{"internalType":"bool","name":"isAnomaly","type":"bool"}],"stateMutability":"view","type":"function"},{"inputs":[],"name":"deactivateProtection","outputs":[],"stateMutability":"nonpayable","type":"function"},{"inputs":[{"internalType":"address","name":"target","type":"address"},{"internalType":"address","name":"attacker","type":"address"},{"internalType":"uint8","name":"threatType","type":"uint8"},{"internalType":"bytes","name":"transactionData","type":"bytes"}],"name":"detectMEVThreat","outputs":[{"internalType":"bytes32","name":"threatId","type":"bytes32"}],"stateMutability":"nonpayable","type":"function"},{"inputs":[{"internalType":"bytes32","name":"","type":"bytes32"}],"name":"detectedThreats","outputs":[{"internalType":"bool","name":"","type":"bool"}],"stateMutability":"view","type":"function"},{"inputs":[{"internalType":"bytes32","name":"threatId","type":"bytes32"}],"name":"getThreatData","outputs":[{"components":[{"internalType":"address","name":"target","type":"address"},{"internalType":"address","name":"attacker","type":"address"},{"internalType":"enum MEVProtector.ThreatType","name":"threatType","type":"uint8"},{"internalType":"uint256","name":"detectedAt","type":"uint256"},{"internalType":"uint256","name":"estimatedLoss","type":"uint256"},{"internalType":"bool","name":"prevented","type":"bool"},{"internalType":"address","name":"reporter","type":"address"}],"internalType":"struct MEVProtector.ThreatData","name":"","type":"tuple"}],"stateMutability":"view","type":"function"},{"inputs":[{"internalType":"address","name":"user","type":"address"}],"name":"getUserProtectionStatus","outputs":[{"internalType":"bool","name":"protected","type":"bool"},{"internalType":"uint256","name":"level","type":"uint256"},{"internalType":"uint256","name":"reportsCount","type":"uint256"},{"internalType":"uint256","name":"preventedCount","type":"uint256"}],"stateMutability":"view","type":"function"},{"inputs":[],"name":"goldkySubgraphURL","outputs":[{"internalType":"string","name":"","type":"string"}],"stateMutability":"view","type":"function"},{"inputs":[{"internalType":"address","name":"","type":"address"}],"name":"isProtected","outputs":[{"internalType":"bool","name":"","type":"bool"}],"stateMutability":"view","type":"function"},{"inputs":[{"internalType":"string","name":"","type":"string"}],"name":"lastOraclePrices","outputs":[{"internalType":"uint256","name":"","type":"uint256"}],"stateMutability":"view","type":"function"},{"inputs":[{"internalType":"string","name":"","type":"string"}],"name":"lastOracleUpdate","outputs":[{"internalType":"uint256","name":"","type":"uint256"}],"stateMutability":"view","type":"function"},{"inputs":[{"internalType":"address","name":"","type":"address"}],"name":"lastTransactionTime","outputs":[{"internalType":"uint256","name":"","type":"uint256"}],"stateMutability":"view","type":"function"},{"inputs":[],"name":"minimumLiquidityForProtection","outputs":[{"internalType":"uint256","name":"","type":"uint256"}],"stateMutability":"view","type":"function"},{"inputs":[],"name":"owner","outputs":[{"internalType":"address","name":"","type":"address"}],"stateMutability":"view","type":"function"},{"inputs":[],"name":"pause","outputs":[],"stateMutability":"nonpayable","type":"function"},{"inputs":[],"name":"paused","outputs":[{"internalType":"bool","name":"","type":"bool"}],"stateMutability":"view","type":"function"},{"inputs":[],"name":"priceDeviationThreshold","outputs":[{"internalType":"uint256","name":"","type":"uint256"}],"stateMutability":"view","type":"function"},{"inputs":[{"internalType":"address","name":"","type":"address"}],"name":"protectionLevel","outputs":[{"internalType":"uint256","name":"","type":"uint256"}],"stateMutability":"view","type":"function"},{"inputs":[],"name":"protectionSuccessReward","outputs":[{"internalType":"uint256","name":"","type":"uint256"}],"stateMutability":"view","type":"function"},{"inputs":[],"name":"renounceOwnership","outputs":[],"stateMutability":"nonpayable","type":"function"},{"inputs":[{"internalType":"bytes32","name":"threatId","type":"bytes32"}],"name":"reportThreat","outputs":[],"stateMutability":"nonpayable","type":"function"},{"inputs":[{"internalType":"address","name":"_indexer","type":"address"}],"name":"setAuthorizedIndexer","outputs":[],"stateMutability":"nonpayable","type":"function"},{"inputs":[{"internalType":"string","name":"_url","type":"string"}],"name":"setGoldskySubgraphURL","outputs":[],"stateMutability":"nonpayable","type":"function"},{"inputs":[{"internalType":"uint256","name":"_threshold","type":"uint256"}],"name":"setPriceDeviationThreshold","outputs":[],"stateMutability":"nonpayable","type":"function"},{"inputs":[{"internalType":"uint256","name":"_reward","type":"uint256"}],"name":"setThreatReportReward","outputs":[],"stateMutability":"nonpayable","type":"function"},{"inputs":[{"internalType":"address","name":"","type":"address"}],"name":"successfulPrevented","outputs":[{"internalType":"uint256","name":"","type":"uint256"}],"stateMutability":"view","type":"function"},{"inputs":[],"name":"threatReportReward","outputs":[{"internalType":"uint256","name":"","type":"uint256"}],"stateMutability":"view","type":"function"},{"inputs":[{"internalType":"address","name":"","type":"address"}],"name":"threatReports","outputs":[{"internalType":"uint256","name":"","type":"uint256"}],"stateMutability":"view","type":"function"},{"inputs":[{"internalType":"bytes32","name":"","type":"bytes32"}],"name":"threats","outputs":[{"internalType":"address","name":"target","type":"address"},{"internalType":"address","name":"attacker","type":"address"},{"internalType":"enum MEVProtector.ThreatType","name":"threatType","type":"uint8"},{"internalType":"uint256","name":"detectedAt","type":"uint256"},{"internalType":"uint256","name":"estimatedLoss","type":"uint256"},{"internalType":"bool","name":"prevented","type":"bool"},{"internalType":"address","name":"reporter","type":"address"}],"stateMutability":"view","type":"function"},{"inputs":[],"name":"timeWindowForDetection","outputs":[{"internalType":"uint256","name":"","type":"uint256"}],"stateMutability":"view","type":"function"},{"inputs":[{"internalType":"address","name":"","type":"address"}],"name":"transactionCount","outputs":[{"internalType":"uint256","name":"","type":"uint256"}],"stateMutability":"view","type":"function"},{"inputs":[{"internalType":"address","name":"newOwner","type":"address"}],"name":"transferOwnership","outputs":[],"stateMutability":"nonpayable","type":"function"},{"inputs":[],"name":"unpause","outputs":[],"stateMutability":"nonpayable","type":"function"},{"inputs":[{"internalType":"string","name":"symbol","type":"string"},{"internalType":"uint256","name":"price","type":"uint256"}],"name":"updateOraclePrice","outputs":[],"stateMutability":"nonpayable","type":"function"},{"inputs":[],"name":"volumeAnomalyThreshold","outputs":[{"internalType":"uint256","name":"","type":"uint256"}],"stateMutability":"view","type":"function"}],"evm":{"bytecode":{"linkReferences":{},"object":"60803461014457601f611c4338819003918201601f19168301916001600160401b038311848410176101495780849260209460405283398101031261014457516001600160a01b038082169190828203610144576000543360018060a01b0319821617600055604051913391167f8be0079c531659141344cd1fd0a4f28419497f9722a3daafe3b4186f6b6457e0600080a3600180556002549260c86003556101f460045560058055683635c9adc5dea00000600655678ac7230489e80000601255674563918244f400006013551561010257506001600160a81b031990911660089190911b610100600160a81b031617600255604051611ae390816101608239f35b62461bcd60e51b815260206004820152601560248201527f496e76616c696420746f6b656e206164647265737300000000000000000000006044820152606490fd5b600080fd5b634e487b7160e01b600052604160045260246000fdfe608080604052600436101561001357600080fd5b600090813560e01c908163155ab637146116bb57508063289448101461155b57806329187cb71461152e5780632ff89351146114bd57806330251d6b14611495578063391227fb1461145c5780633d8687671461143e5780633e6b7473146113d55780633f4ba83a146113405780634b327429146111bb5780634fa0dbf914611035578063517ea55114610ad85780635c975abb14610ab55780635dcbf4a214610a975780636a330dfc14610a005780636aa0756f1461097b578063715018a61461092157806376584c0c146108e85780638456cb591461088d5780638da5cb5b1461086657806399be33751461082d578063aeca6fed146107f2578063b27dc01f1461073c578063b8fceb791461071e578063bd0f39d314610623578063c9a0fea2146105ea578063ce35de95146105ab578063cfea248f14610588578063d5595ba71461056a578063d7b85be3146104c0578063d9b33ad114610491578063e47ffac114610340578063e75b207314610307578063ee5b1bce146102de578063f2fde38b14610218578063fa596d32146101fa5763ff8ef107146101b857600080fd5b346101f75760203660031901126101f7576101d1611834565b6101d96118a7565b60018060a01b03166001600160601b0360a01b601154161760115580f35b80fd5b50346101f757806003193601126101f7576020600354604051908152f35b50346101f75760203660031901126101f757610232611834565b61023a6118a7565b6001600160a01b0390811690811561028a57600054826001600160601b0360a01b821617600055167f8be0079c531659141344cd1fd0a4f28419497f9722a3daafe3b4186f6b6457e0600080a380f35b60405162461bcd60e51b815260206004820152602660248201527f4f776e61626c653a206e6577206f776e657220697320746865207a65726f206160448201526564647265737360d01b6064820152608490fd5b50346101f757806003193601126101f7576011546040516001600160a01b039091168152602090f35b50346101f75760203660031901126101f7576020906040906001600160a01b0361032f611834565b168152600983522054604051908152f35b50346101f757806003193601126101f757610359611943565b6103616118ff565b60025460405163bc00fd6760e01b81523360048201529060209081908390602490829060081c6001600160a01b03165afa918215610486578392610453575b5081156103f9577f985e9aa4ba7a346bc73ecb280a306df5aca60437b7fa6e2e8902a06e25c516cf903384526007815260408420600160ff19825416179055600881528260408520556040519283523392a26001805580f35b6084906040519062461bcd60e51b82526004820152602d60248201527f496e73756666696369656e742041454720746f6b656e73207374616b6564206660448201526c37b910383937ba32b1ba34b7b760991b6064820152fd5b9080925081813d831161047f575b61046b818361177e565b8101031261047b575190386103a0565b8280fd5b503d610461565b6040513d85823e3d90fd5b50346101f75760203660031901126101f75760ff60406020926004358152600b84522054166040519015158152f35b50346101f757806003193601126101f757338152600760205260ff6040822054161561052d5733815260076020526040812060ff1981541690556008602052806040812055337fba75fd523ab0180ad119c4b7549bab9547803c091bbb56a7f3452dd90ed960a48280a280f35b60405162461bcd60e51b815260206004820152601560248201527450726f74656374696f6e206e6f742061637469766560581b6044820152606490fd5b50346101f757806003193601126101f7576020601354604051908152f35b50346101f75760203660031901126101f7576105a26118a7565b60043560125580f35b50346101f75760203660031901126101f75760209060ff906040906001600160a01b036105d6611834565b168152600784522054166040519015158152f35b50346101f75760203660031901126101f7576020906040906001600160a01b03610612611834565b168152600d83522054604051908152f35b50346101f757806003193601126101f7576040518190601054926106468461186d565b808352602080958185019360019182811690816000146106fe57506001146106a5575b5050505061067b82604094038361177e565b6106978351948593818552519283809286015285850190611811565b601f01601f19168101030190f35b92919550601083527f1b6847dc741a1b0cd08d278845f9d819d87b734759afb55fe2de5cb82a9ae6725b8284106106eb5750505082019092019161067b84604084610669565b80548685018801529286019281016106cf565b60ff1916865250505090151560051b830101925061067b84604084610669565b50346101f757806003193601126101f7576020600654604051908152f35b50346101f75760203660031901126101f75761079660408260e09360c0835161076481611762565b82815282602082015282858201528260608201528260808201528260a082015201526004358152601460205220611a16565b6040519060c060018060a01b03918281511684528260208201511660208501526107c86040820151604086019061184a565b606081015160608501526080810151608085015260a0810151151560a085015201511660c0820152f35b50346101f757602061081a81610807366117a0565b8160405193828580945193849201611811565b8101600f81520301902054604051908152f35b50346101f75760203660031901126101f7576020906040906001600160a01b03610855611834565b168152600a83522054604051908152f35b50346101f757806003193601126101f757546040516001600160a01b039091168152602090f35b50346101f757806003193601126101f7576108a66118a7565b6108ae6118ff565b600160ff1960025416176002557f62e78cea01bee320cd4e420270b5ea74000d11b0c9f74754ebdbfc544b05a2586020604051338152a180f35b50346101f75760203660031901126101f7576020906040906001600160a01b03610910611834565b168152600c83522054604051908152f35b50346101f757806003193601126101f75761093a6118a7565b600080546001600160a01b0319811682556001600160a01b03167f8be0079c531659141344cd1fd0a4f28419497f9722a3daafe3b4186f6b6457e08280a380f35b50346101f75760203660031901126101f757604060e091600435815260146020522060018060a01b03808254169160018101549060028101546109e06004600384015493015493604051968752858116602088015260ff604088019160a01c1661184a565b6060850152608084015260ff8116151560a084015260081c1660c0820152f35b50346101f75760407fb9405befe041b5b21277a25b6d9ea52beb031fdf565b9521766b510cf8498f97610a3236611705565b9391610a4960018060a01b03601154163314611999565b84835183838237602081858101600e8152030190205582518282823782810190600f82526020814293030190205581835192839283378101868152039020928151908152426020820152a280f35b50346101f757806003193601126101f7576020600454604051908152f35b50346101f757806003193601126101f757602060ff600254166040519015158152f35b50346101f75760803660031901126101f757610af2611834565b90602435906001600160a01b0382168203611030576044359060ff821682036101f75760643567ffffffffffffffff811161102c57610b359036906004016116d7565b610b4a60018060a01b03601154163314611999565b610ba3606960405183819460208301966001600160601b0319808d60601b1689528b60601b16603485015260ff60f81b8a60f81b166048850152426049850152848401378101868382015203604981018452018261177e565b51902092838252600b60205260ff604083205416610fe757600660ff84161015610fd35760009260ff8116610fa857683635c9adc5dea00000935b610f9457604051610bee81611762565b6001600160a01b0387811682528316602082019081526040820190610c1660ff8516836119e5565b4260608401526080830187905260a083018690523360c0840152878652601460205260408620835181546001600160a01b0319166001600160a01b03918216178255915160018201549351939192166006841015610f805790600492916affffffffffffffffffffff60a81b809560ff60a01b9060a01b169216171760018201556060840151600282015560808401516003820155019160a081015115159160ff84549260c0610100600160a81b0391015160081b169316911617179055848352600b602052604083209160ff199260018482541617905560ff6040519216825242602083015260018060a01b031690857f032c695ff241338aaf8e0988a670816fd8b2b5cadd7f8bd670bc0295c76b812d604060018060a01b038a1693a46001600160a01b03851682526007602052604082205460ff16610d5e575b602084604051908152f35b838252601460205260408220600281015415610f485780546001600160a01b03168084526007602052604084205460ff1615610f0c5783526008602052604083205460ff600183015460a01c166006811015610ef85780610ebf5750610dc5600292611a16565b5010155b15610d535783825260146020526001600460408420019182541617905560018060a01b0384168152600d60205260408120610e0481546119f1565b905560018060a01b0360025460081c16601354813b1561047b5760405163cf086d3f60e01b81526001600160a01b038716600482015260248101919091529082908290604490829084905af18015610eb457610ea0575b5050817f51afeab2617c3e51e78b872d528af4b0ba9165c1b588dc11dbfd36492831c13b60406020958151948552428786015260018060a01b031693a3388080610d53565b610eaa8291611738565b6101f75780610e5b565b6040513d84823e3d90fd5b60018103610edb5750610ed3600192611a16565b501015610dc9565b600303610eed57610ed3600392611a16565b610ed3600192611a16565b634e487b7160e01b85526021600452602485fd5b60405162461bcd60e51b815260206004820152601460248201527315185c99d95d081b9bdd081c1c9bdd1958dd195960621b6044820152606490fd5b60405162461bcd60e51b815260206004820152601060248201526f151a1c99585d081b9bdd08199bdd5b9960821b6044820152606490fd5b634e487b7160e01b88526021600452602488fd5b634e487b7160e01b83526021600452602483fd5b60ff8116600103610fc357681b1ae4d6e2ef50000093610bde565b68056bc75e2d6310000093610bde565b634e487b7160e01b82526021600452602482fd5b60405162461bcd60e51b815260206004820152601760248201527f54687265617420616c72656164792064657465637465640000000000000000006044820152606490fd5b5080fd5b600080fd5b50346101f75760208060031936011261102c5760043590611054611943565b818352600b815260ff60408420541615611181578183526014815260408320600401546001600160a01b039060081c8116331461113c578390338252600c8352604082206110a281546119f1565b905560025460081c16601254813b1561047b5760405163cf086d3f60e01b8152336004820152602481019190915291908290604490829084905af180156111315761111e575b507f2180129845d491246aae3ae02fc070bbb28e674858d201cfebc58661582c9740601254916040519283523392a36001805580f35b61112a90939193611738565b91386110e8565b6040513d86823e3d90fd5b60405162461bcd60e51b815260048101839052601b60248201527f43616e6e6f74207265706f7274206f776e20646574656374696f6e00000000006044820152606490fd5b6064906040519062461bcd60e51b825260048201526013602482015272151a1c99585d081b9bdd0819195d1958dd1959606a1b6044820152fd5b50346101f757602090816003193601126101f75767ffffffffffffffff60043581811161047b576111f09036906004016116d7565b916111f96118a7565b821161132c5761120a60105461186d565b601f81116112ce575b508293601f83116001146112505750928293829392611245575b50508160011b916000199060031b1c19161760105580f35b01359050388061122d565b601f198316947f1b6847dc741a1b0cd08d278845f9d819d87b734759afb55fe2de5cb82a9ae672929185905b8782106112b657505083600195961061129c575b505050811b0160105580f35b0135600019600384901b60f8161c19169055388080611290565b8060018496829495870135815501950192019061127c565b7f1b6847dc741a1b0cd08d278845f9d819d87b734759afb55fe2de5cb82a9ae672601f840160051c810191868510611322575b601f0160051c01905b8181106113175750611213565b84815560010161130a565b9091508190611301565b634e487b7160e01b83526041600452602483fd5b50346101f757806003193601126101f7576113596118a7565b60025460ff8116156113995760ff19166002557f5db9ee0a495bf2e6ff9c91a7834c1ba4fdd244a5e8aa4e537bd38aeae4b073aa6020604051338152a180f35b60405162461bcd60e51b815260206004820152601460248201527314185d5cd8589b194e881b9bdd081c185d5cd95960621b6044820152606490fd5b50346101f75760208060031936011261102c57608091906001600160a01b036113fc611834565b1682526007815260ff60408320541691600882526040812054600c835260408083205492600d8552205492604051941515855284015260408301526060820152f35b50346101f757806003193601126101f7576020601254604051908152f35b50346101f75760203660031901126101f7576020906040906001600160a01b03611484611834565b168152600883522054604051908152f35b50346101f75760206114aa81610807366117a0565b8101600e81520301902054604051908152f35b50346101f75760203660031901126101f7576004356114da6118a7565b6103e881116114e95760035580f35b60405162461bcd60e51b815260206004820152601b60248201527f5468726573686f6c642063616e6e6f74206578636565642031302500000000006044820152606490fd5b50346101f757806003193601126101f75760025460405160089190911c6001600160a01b03168152602090f35b50346101f75761156a36611705565b9060409392935181858237602081838101600e81520301902054938415611676578160206115af9261012c9460405193849283378101600f8152030190205442611a80565b101561163a578280821115611609576115c791611a80565b90612710918281029281840414901517156115f557506020916115e991611a8d565b60035410604051908152f35b634e487b7160e01b81526011600452602490fd5b9061161391611a80565b90612710918281029281840414901517156115f5575060209161163591611a8d565b6115e9565b60405162461bcd60e51b815260206004820152601460248201527313dc9858db19481c1c9a58d9481d1bdbc81bdb1960621b6044820152606490fd5b60405162461bcd60e51b815260206004820152601960248201527f4e6f206f7261636c6520707269636520617661696c61626c65000000000000006044820152606490fd5b90503461102c578160031936011261102c576020906005548152f35b9181601f840112156110305782359167ffffffffffffffff8311611030576020838186019501011161103057565b6040600319820112611030576004359067ffffffffffffffff821161103057611730916004016116d7565b909160243590565b67ffffffffffffffff811161174c57604052565b634e487b7160e01b600052604160045260246000fd5b60e0810190811067ffffffffffffffff82111761174c57604052565b90601f8019910116810190811067ffffffffffffffff82111761174c57604052565b60206003198201126110305767ffffffffffffffff600435818111611030578260238201121561103057806004013591821161174c57604051926117ee601f8401601f19166020018561177e565b828452602483830101116110305781600092602460209301838601378301015290565b60005b8381106118245750506000910152565b8181015183820152602001611814565b600435906001600160a01b038216820361103057565b9060068210156118575752565b634e487b7160e01b600052602160045260246000fd5b90600182811c9216801561189d575b602083101461188757565b634e487b7160e01b600052602260045260246000fd5b91607f169161187c565b6000546001600160a01b031633036118bb57565b606460405162461bcd60e51b815260206004820152602060248201527f4f776e61626c653a2063616c6c6572206973206e6f7420746865206f776e65726044820152fd5b60ff6002541661190b57565b60405162461bcd60e51b815260206004820152601060248201526f14185d5cd8589b194e881c185d5cd95960821b6044820152606490fd5b600260015414611954576002600155565b60405162461bcd60e51b815260206004820152601f60248201527f5265656e7472616e637947756172643a207265656e7472616e742063616c6c006044820152606490fd5b156119a057565b60405162461bcd60e51b815260206004820152601760248201527f4f6e6c7920617574686f72697a656420696e64657865720000000000000000006044820152606490fd5b60068210156118575752565b6000198114611a005760010190565b634e487b7160e01b600052601160045260246000fd5b90604051611a2381611762565b60c08193600460018060a01b0391828154168552611a5660ff6001830154858116602089015260a01c16604087016119e5565b6002810154606086015260038101546080860152015460ff8116151560a085015260081c16910152565b91908203918211611a0057565b8115611a97570490565b634e487b7160e01b600052601260045260246000fdfea2646970667358221220d0010b093abe96b450c3b6f3ec939d63f29aa2a654415a854472e432689753f664736f6c63430008140033","opcodes":"PUSH1 0x80 CALLVALUE PUSH2 0x144 JUMPI PUSH1 0x1F PUSH2 0x1C43 CODESIZE DUP2 SWAP1 SUB SWAP2 DUP3 ADD PUSH1 0x1F NOT AND DUP4 ADD SWAP2 PUSH1 0x1 PUSH1 0x1 PUSH1 0x40 SHL SUB DUP4 GT DUP5 DUP5 LT OR PUSH2 0x149 JUMPI DUP1 DUP5 SWAP3 PUSH1 0x20 SWAP5 PUSH1 0x40 MSTORE DUP4 CODECOPY DUP2 ADD SUB SLT PUSH2 0x144 JUMPI MLOAD PUSH1 0x1 PUSH1 0x1 PUSH1 0xA0 SHL SUB DUP1 DUP3 AND SWAP2 SWAP1 DUP3 DUP3 SUB PUSH2 0x144 JUMPI PUSH1 0x0 SLOAD CALLER PUSH1 0x1 DUP1 PUSH1 0xA0 SHL SUB NOT DUP3 AND OR PUSH1 0x0 SSTORE PUSH1 0x40 MLOAD SWAP2 CALLER SWAP2 AND PUSH32 0x8BE0079C531659141344CD1FD0A4F28419497F9722A3DAAFE3B4186F6B6457E0 PUSH1 0x0 DUP1 LOG3 PUSH1 0x1 DUP1 SSTORE PUSH1 0x2 SLOAD SWAP3 PUSH1 0xC8 PUSH1 0x3 SSTORE PUSH2 0x1F4 PUSH1 0x4 SSTORE PUSH1 0x5 DUP1 SSTORE PUSH9 0x3635C9ADC5DEA00000 PUSH1 0x6 SSTORE PUSH8 0x8AC7230489E80000 PUSH1 0x12 SSTORE PUSH8 0x4563918244F40000 PUSH1 0x13 SSTORE ISZERO PUSH2 0x102 JUMPI POP PUSH1 0x1 PUSH1 0x1 PUSH1 0xA8 SHL SUB NOT SWAP1 SWAP2 AND PUSH1 0x8 SWAP2 SWAP1 SWAP2 SHL PUSH2 0x100 PUSH1 0x1 PUSH1 0xA8 SHL SUB AND OR PUSH1 0x2 SSTORE PUSH1 0x40 MLOAD PUSH2 0x1AE3 SWAP1 DUP2 PUSH2 0x160 DUP3 CODECOPY RETURN JUMPDEST PUSH3 0x461BCD PUSH1 0xE5 SHL DUP2 MSTORE PUSH1 0x20 PUSH1 0x4 DUP3 ADD MSTORE PUSH1 0x15 PUSH1 0x24 DUP3 ADD MSTORE PUSH32 0x496E76616C696420746F6B656E20616464726573730000000000000000000000 PUSH1 0x44 DUP3 ADD MSTORE PUSH1 0x64 SWAP1 REVERT JUMPDEST PUSH1 0x0 DUP1 REVERT JUMPDEST PUSH4 0x4E487B71 PUSH1 0xE0 SHL PUSH1 0x0 MSTORE PUSH1 0x41 PUSH1 0x4 MSTORE PUSH1 0x24 PUSH1 0x0 REVERT INVALID PUSH1 0x80 DUP1 PUSH1 0x40 MSTORE PUSH1 0x4 CALLDATASIZE LT ISZERO PUSH2 0x13 JUMPI PUSH1 0x0 DUP1 REVERT JUMPDEST PUSH1 0x0 SWAP1 DUP2 CALLDATALOAD PUSH1 0xE0 SHR SWAP1 DUP2 PUSH4 0x155AB637 EQ PUSH2 0x16BB JUMPI POP DUP1 PUSH4 0x28944810 EQ PUSH2 0x155B JUMPI DUP1 PUSH4 0x29187CB7 EQ PUSH2 0x152E JUMPI DUP1 PUSH4 0x2FF89351 EQ PUSH2 0x14BD JUMPI DUP1 PUSH4 0x30251D6B EQ PUSH2 0x1495 JUMPI DUP1 PUSH4 0x391227FB EQ PUSH2 0x145C JUMPI DUP1 PUSH4 0x3D868767 EQ PUSH2 0x143E JUMPI DUP1 PUSH4 0x3E6B7473 EQ PUSH2 0x13D5 JUMPI DUP1 PUSH4 0x3F4BA83A EQ PUSH2 0x1340 JUMPI DUP1 PUSH4 0x4B327429 EQ PUSH2 0x11BB JUMPI DUP1 PUSH4 0x4FA0DBF9 EQ PUSH2 0x1035 JUMPI DUP1 PUSH4 0x517EA551 EQ PUSH2 0xAD8 JUMPI DUP1 PUSH4 0x5C975ABB EQ PUSH2 0xAB5 JUMPI DUP1 PUSH4 0x5DCBF4A2 EQ PUSH2 0xA97 JUMPI DUP1 PUSH4 0x6A330DFC EQ PUSH2 0xA00 JUMPI DUP1 PUSH4 0x6AA0756F EQ PUSH2 0x97B JUMPI DUP1 PUSH4 0x715018A6 EQ PUSH2 0x921 JUMPI DUP1 PUSH4 0x76584C0C EQ PUSH2 0x8E8 JUMPI DUP1 PUSH4 0x8456CB59 EQ PUSH2 0x88D JUMPI DUP1 PUSH4 0x8DA5CB5B EQ PUSH2 0x866 JUMPI DUP1 PUSH4 0x99BE3375 EQ PUSH2 0x82D JUMPI DUP1 PUSH4 0xAECA6FED EQ PUSH2 0x7F2 JUMPI DUP1 PUSH4 0xB27DC01F EQ PUSH2 0x73C JUMPI DUP1 PUSH4 0xB8FCEB79 EQ PUSH2 0x71E JUMPI DUP1 PUSH4 0xBD0F39D3 EQ PUSH2 0x623 JUMPI DUP1 PUSH4 0xC9A0FEA2 EQ PUSH2 0x5EA JUMPI DUP1 PUSH4 0xCE35DE95 EQ PUSH2 0x5AB JUMPI DUP1 PUSH4 0xCFEA248F EQ PUSH2 0x588 JUMPI DUP1 PUSH4 0xD5595BA7 EQ PUSH2 0x56A JUMPI DUP1 PUSH4 0xD7B85BE3 EQ PUSH2 0x4C0 JUMPI DUP1 PUSH4 0xD9B33AD1 EQ PUSH2 0x491 JUMPI DUP1 PUSH4 0xE47FFAC1 EQ PUSH2 0x340 JUMPI DUP1 PUSH4 0xE75B2073 EQ PUSH2 0x307 JUMPI DUP1 PUSH4 0xEE5B1BCE EQ PUSH2 0x2DE JUMPI DUP1 PUSH4 0xF2FDE38B EQ PUSH2 0x218 JUMPI DUP1 PUSH4 0xFA596D32 EQ PUSH2 0x1FA JUMPI PUSH4 0xFF8EF107 EQ PUSH2 0x1B8 JUMPI PUSH1 0x0 DUP1 REVERT JUMPDEST CALLVALUE PUSH2 0x1F7 JUMPI PUSH1 0x20 CALLDATASIZE PUSH1 0x3 NOT ADD SLT PUSH2 0x1F7 JUMPI PUSH2 0x1D1 PUSH2 0x1834 JUMP JUMPDEST PUSH2 0x1D9 PUSH2 0x18A7 JUMP JUMPDEST PUSH1 0x1 DUP1 PUSH1 0xA0 SHL SUB AND PUSH1 0x1 PUSH1 0x1 PUSH1 0x60 SHL SUB PUSH1 0xA0 SHL PUSH1 0x11 SLOAD AND OR PUSH1 0x11 SSTORE DUP1 RETURN JUMPDEST DUP1 REVERT JUMPDEST POP CALLVALUE PUSH2 0x1F7 JUMPI DUP1 PUSH1 0x3 NOT CALLDATASIZE ADD SLT PUSH2 0x1F7 JUMPI PUSH1 0x20 PUSH1 0x3 SLOAD PUSH1 0x40 MLOAD SWAP1 DUP2 MSTORE RETURN JUMPDEST POP CALLVALUE PUSH2 0x1F7 JUMPI PUSH1 0x20 CALLDATASIZE PUSH1 0x3 NOT ADD SLT PUSH2 0x1F7 JUMPI PUSH2 0x232 PUSH2 0x1834 JUMP JUMPDEST PUSH2 0x23A PUSH2 0x18A7 JUMP JUMPDEST PUSH1 0x1 PUSH1 0x1 PUSH1 0xA0 SHL SUB SWAP1 DUP2 AND SWAP1 DUP2 ISZERO PUSH2 0x28A JUMPI PUSH1 0x0 SLOAD DUP3 PUSH1 0x1 PUSH1 0x1 PUSH1 0x60 SHL SUB PUSH1 0xA0 SHL DUP3 AND OR PUSH1 0x0 SSTORE AND PUSH32 0x8BE0079C531659141344CD1FD0A4F28419497F9722A3DAAFE3B4186F6B6457E0 PUSH1 0x0 DUP1 LOG3 DUP1 RETURN JUMPDEST PUSH1 0x40 MLOAD PUSH3 0x461BCD PUSH1 0xE5 SHL DUP2 MSTORE PUSH1 0x20 PUSH1 0x4 DUP3 ADD MSTORE PUSH1 0x26 PUSH1 0x24 DUP3 ADD MSTORE PUSH32 0x4F776E61626C653A206E6577206F776E657220697320746865207A65726F2061 PUSH1 0x44 DUP3 ADD MSTORE PUSH6 0x646472657373 PUSH1 0xD0 SHL PUSH1 0x64 DUP3 ADD MSTORE PUSH1 0x84 SWAP1 REVERT JUMPDEST POP CALLVALUE PUSH2 0x1F7 JUMPI DUP1 PUSH1 0x3 NOT CALLDATASIZE ADD SLT PUSH2 0x1F7 JUMPI PUSH1 0x11 SLOAD PUSH1 0x40 MLOAD PUSH1 0x1 PUSH1 0x1 PUSH1 0xA0 SHL SUB SWAP1 SWAP2 AND DUP2 MSTORE PUSH1 0x20 SWAP1 RETURN JUMPDEST POP CALLVALUE PUSH2 0x1F7 JUMPI PUSH1 0x20 CALLDATASIZE PUSH1 0x3 NOT ADD SLT PUSH2 0x1F7 JUMPI PUSH1 0x20 SWAP1 PUSH1 0x40 SWAP1 PUSH1 0x1 PUSH1 0x1 PUSH1 0xA0 SHL SUB PUSH2 0x32F PUSH2 0x1834 JUMP JUMPDEST AND DUP2 MSTORE PUSH1 0x9 DUP4 MSTORE KECCAK256 SLOAD PUSH1 0x40 MLOAD SWAP1 DUP2 MSTORE RETURN JUMPDEST POP CALLVALUE PUSH2 0x1F7 JUMPI DUP1 PUSH1 0x3 NOT CALLDATASIZE ADD SLT PUSH2 0x1F7 JUMPI PUSH2 0x359 PUSH2 0x1943 JUMP JUMPDEST PUSH2 0x361 PUSH2 0x18FF JUMP JUMPDEST PUSH1 0x2 SLOAD PUSH1 0x40 MLOAD PUSH4 0xBC00FD67 PUSH1 0xE0 SHL DUP2 MSTORE CALLER PUSH1 0x4 DUP3 ADD MSTORE SWAP1 PUSH1 0x20 SWAP1 DUP2 SWAP1 DUP4 SWAP1 PUSH1 0x24 SWAP1 DUP3 SWAP1 PUSH1 0x8 SHR PUSH1 0x1 PUSH1 0x1 PUSH1 0xA0 SHL SUB AND GAS STATICCALL SWAP2 DUP3 ISZERO PUSH2 0x486 JUMPI DUP4 SWAP3 PUSH2 0x453 JUMPI JUMPDEST POP DUP2 ISZERO PUSH2 0x3F9 JUMPI PUSH32 0x985E9AA4BA7A346BC73ECB280A306DF5ACA60437B7FA6E2E8902A06E25C516CF SWAP1 CALLER DUP5 MSTORE PUSH1 0x7 DUP2 MSTORE PUSH1 0x40 DUP5 KECCAK256 PUSH1 0x1 PUSH1 0xFF NOT DUP3 SLOAD AND OR SWAP1 SSTORE PUSH1 0x8 DUP2 MSTORE DUP3 PUSH1 0x40 DUP6 KECCAK256 SSTORE PUSH1 0x40 MLOAD SWAP3 DUP4 MSTORE CALLER SWAP3 LOG2 PUSH1 0x1 DUP1 SSTORE DUP1 RETURN JUMPDEST PUSH1 0x84 SWAP1 PUSH1 0x40 MLOAD SWAP1 PUSH3 0x461BCD PUSH1 0xE5 SHL DUP3 MSTORE PUSH1 0x4 DUP3 ADD MSTORE PUSH1 0x2D PUSH1 0x24 DUP3 ADD MSTORE PUSH32 0x496E73756666696369656E742041454720746F6B656E73207374616B65642066 PUSH1 0x44 DUP3 ADD MSTORE PUSH13 0x37B910383937BA32B1BA34B7B7 PUSH1 0x99 SHL PUSH1 0x64 DUP3 ADD MSTORE REVERT JUMPDEST SWAP1 DUP1 SWAP3 POP DUP2 DUP2 RETURNDATASIZE DUP4 GT PUSH2 0x47F JUMPI JUMPDEST PUSH2 0x46B DUP2 DUP4 PUSH2 0x177E JUMP JUMPDEST DUP2 ADD SUB SLT PUSH2 0x47B JUMPI MLOAD SWAP1 CODESIZE PUSH2 0x3A0 JUMP JUMPDEST DUP3 DUP1 REVERT JUMPDEST POP RETURNDATASIZE PUSH2 0x461 JUMP JUMPDEST PUSH1 0x40 MLOAD RETURNDATASIZE DUP6 DUP3 RETURNDATACOPY RETURNDATASIZE SWAP1 REVERT JUMPDEST POP CALLVALUE PUSH2 0x1F7 JUMPI PUSH1 0x20 CALLDATASIZE PUSH1 0x3 NOT ADD SLT PUSH2 0x1F7 JUMPI PUSH1 0xFF PUSH1 0x40 PUSH1 0x20 SWAP3 PUSH1 0x4 CALLDATALOAD DUP2 MSTORE PUSH1 0xB DUP5 MSTORE KECCAK256 SLOAD AND PUSH1 0x40 MLOAD SWAP1 ISZERO ISZERO DUP2 MSTORE RETURN JUMPDEST POP CALLVALUE PUSH2 0x1F7 JUMPI DUP1 PUSH1 0x3 NOT CALLDATASIZE ADD SLT PUSH2 0x1F7 JUMPI CALLER DUP2 MSTORE PUSH1 0x7 PUSH1 0x20 MSTORE PUSH1 0xFF PUSH1 0x40 DUP3 KECCAK256 SLOAD AND ISZERO PUSH2 0x52D JUMPI CALLER DUP2 MSTORE PUSH1 0x7 PUSH1 0x20 MSTORE PUSH1 0x40 DUP2 KECCAK256 PUSH1 0xFF NOT DUP2 SLOAD AND SWAP1 SSTORE PUSH1 0x8 PUSH1 0x20 MSTORE DUP1 PUSH1 0x40 DUP2 KECCAK256 SSTORE CALLER PUSH32 0xBA75FD523AB0180AD119C4B7549BAB9547803C091BBB56A7F3452DD90ED960A4 DUP3 DUP1 LOG2 DUP1 RETURN JUMPDEST PUSH1 0x40 MLOAD PUSH3 0x461BCD PUSH1 0xE5 SHL DUP2 MSTORE PUSH1 0x20 PUSH1 0x4 DUP3 ADD MSTORE PUSH1 0x15 PUSH1 0x24 DUP3 ADD MSTORE PUSH21 0x50726F74656374696F6E206E6F7420616374697665 PUSH1 0x58 SHL PUSH1 0x44 DUP3 ADD MSTORE PUSH1 0x64 SWAP1 REVERT JUMPDEST POP CALLVALUE PUSH2 0x1F7 JUMPI DUP1 PUSH1 0x3 NOT CALLDATASIZE ADD SLT PUSH2 0x1F7 JUMPI PUSH1 0x20 PUSH1 0x13 SLOAD PUSH1 0x40 MLOAD SWAP1 DUP2 MSTORE RETURN JUMPDEST POP CALLVALUE PUSH2 0x1F7 JUMPI PUSH1 0x20 CALLDATASIZE PUSH1 0x3 NOT ADD SLT PUSH2 0x1F7 JUMPI PUSH2 0x5A2 PUSH2 0x18A7 JUMP JUMPDEST PUSH1 0x4 CALLDATALOAD PUSH1 0x12 SSTORE DUP1 RETURN JUMPDEST POP CALLVALUE PUSH2 0x1F7 JUMPI PUSH1 0x20 CALLDATASIZE PUSH1 0x3 NOT ADD SLT PUSH2 0x1F7 JUMPI PUSH1 0x20 SWAP1 PUSH1 0xFF SWAP1 PUSH1 0x40 SWAP1 PUSH1 0x1 PUSH1 0x1 PUSH1 0xA0 SHL SUB PUSH2 0x5D6 PUSH2 0x1834 JUMP JUMPDEST AND DUP2 MSTORE PUSH1 0x7 DUP5 MSTORE KECCAK256 SLOAD AND PUSH1 0x40 MLOAD SWAP1 ISZERO ISZERO DUP2 MSTORE RETURN JUMPDEST POP CALLVALUE PUSH2 0x1F7 JUMPI PUSH1 0x20 CALLDATASIZE PUSH1 0x3 NOT ADD SLT PUSH2 0x1F7 JUMPI PUSH1 0x20 SWAP1 PUSH1 0x40 SWAP1 PUSH1 0x1 PUSH1 0x1 PUSH1 0xA0 SHL SUB PUSH2 0x612 PUSH2 0x1834 JUMP JUMPDEST AND DUP2 MSTORE PUSH1 0xD DUP4 MSTORE KECCAK256 SLOAD PUSH1 0x40 MLOAD SWAP1 DUP2 MSTORE RETURN JUMPDEST POP CALLVALUE PUSH2 0x1F7 JUMPI DUP1 PUSH1 0x3 NOT CALLDATASIZE ADD SLT PUSH2 0x1F7 JUMPI PUSH1 0x40 MLOAD DUP2 SWAP1 PUSH1 0x10 SLOAD SWAP3 PUSH2 0x646 DUP5 PUSH2 0x186D JUMP JUMPDEST DUP1 DUP4 MSTORE PUSH1 0x20 DUP1 SWAP6 DUP2 DUP6 ADD SWAP4 PUSH1 0x1 SWAP2 DUP3 DUP2 AND SWAP1 DUP2 PUSH1 0x0 EQ PUSH2 0x6FE JUMPI POP PUSH1 0x1 EQ PUSH2 0x6A5 JUMPI JUMPDEST POP POP POP POP PUSH2 0x67B DUP3 PUSH1 0x40 SWAP5 SUB DUP4 PUSH2 0x177E JUMP JUMPDEST PUSH2 0x697 DUP4 MLOAD SWAP5 DUP6 SWAP4 DUP2 DUP6 MSTORE MLOAD SWAP3 DUP4 DUP1 SWAP3 DUP7 ADD MSTORE DUP6 DUP6 ADD SWAP1 PUSH2 0x1811 JUMP JUMPDEST PUSH1 0x1F ADD PUSH1 0x1F NOT AND DUP2 ADD SUB ADD SWAP1 RETURN JUMPDEST SWAP3 SWAP2 SWAP6 POP PUSH1 0x10 DUP4 MSTORE PUSH32 0x1B6847DC741A1B0CD08D278845F9D819D87B734759AFB55FE2DE5CB82A9AE672 JUMPDEST DUP3 DUP5 LT PUSH2 0x6EB JUMPI POP POP POP DUP3 ADD SWAP1 SWAP3 ADD SWAP2 PUSH2 0x67B DUP5 PUSH1 0x40 DUP5 PUSH2 0x669 JUMP JUMPDEST DUP1 SLOAD DUP7 DUP6 ADD DUP9 ADD MSTORE SWAP3 DUP7 ADD SWAP3 DUP2 ADD PUSH2 0x6CF JUMP JUMPDEST PUSH1 0xFF NOT AND DUP7 MSTORE POP POP POP SWAP1 ISZERO ISZERO PUSH1 0x5 SHL DUP4 ADD ADD SWAP3 POP PUSH2 0x67B DUP5 PUSH1 0x40 DUP5 PUSH2 0x669 JUMP JUMPDEST POP CALLVALUE PUSH2 0x1F7 JUMPI DUP1 PUSH1 0x3 NOT CALLDATASIZE ADD SLT PUSH2 0x1F7 JUMPI PUSH1 0x20 PUSH1 0x6 SLOAD PUSH1 0x40 MLOAD SWAP1 DUP2 MSTORE RETURN JUMPDEST POP CALLVALUE PUSH2 0x1F7 JUMPI PUSH1 0x20 CALLDATASIZE PUSH1 0x3 NOT ADD SLT PUSH2 0x1F7 JUMPI PUSH2 0x796 PUSH1 0x40 DUP3 PUSH1 0xE0 SWAP4 PUSH1 0xC0 DUP4 MLOAD PUSH2 0x764 DUP2 PUSH2 0x1762 JUMP JUMPDEST DUP3 DUP2 MSTORE DUP3 PUSH1 0x20 DUP3 ADD MSTORE DUP3 DUP6 DUP3 ADD MSTORE DUP3 PUSH1 0x60 DUP3 ADD MSTORE DUP3 PUSH1 0x80 DUP3 ADD MSTORE DUP3 PUSH1 0xA0 DUP3 ADD MSTORE ADD MSTORE PUSH1 0x4 CALLDATALOAD DUP2 MSTORE PUSH1 0x14 PUSH1 0x20 MSTORE KECCAK256 PUSH2 0x1A16 JUMP JUMPDEST PUSH1 0x40 MLOAD SWAP1 PUSH1 0xC0 PUSH1 0x1 DUP1 PUSH1 0xA0 SHL SUB SWAP2 DUP3 DUP2 MLOAD AND DUP5 MSTORE DUP3 PUSH1 0x20 DUP3 ADD MLOAD AND PUSH1 0x20 DUP6 ADD MSTORE PUSH2 0x7C8 PUSH1 0x40 DUP3 ADD MLOAD PUSH1 0x40 DUP7 ADD SWAP1 PUSH2 0x184A JUMP JUMPDEST PUSH1 0x60 DUP2 ADD MLOAD PUSH1 0x60 DUP6 ADD MSTORE PUSH1 0x80 DUP2 ADD MLOAD PUSH1 0x80 DUP6 ADD MSTORE PUSH1 0xA0 DUP2 ADD MLOAD ISZERO ISZERO PUSH1 0xA0 DUP6 ADD MSTORE ADD MLOAD AND PUSH1 0xC0 DUP3 ADD MSTORE RETURN JUMPDEST POP CALLVALUE PUSH2 0x1F7 JUMPI PUSH1 0x20 PUSH2 0x81A DUP2 PUSH2 0x807 CALLDATASIZE PUSH2 0x17A0 JUMP JUMPDEST DUP2 PUSH1 0x40 MLOAD SWAP4 DUP3 DUP6 DUP1 SWAP5 MLOAD SWAP4 DUP5 SWAP3 ADD PUSH2 0x1811 JUMP JUMPDEST DUP2 ADD PUSH1 0xF DUP2 MSTORE SUB ADD SWAP1 KECCAK256 SLOAD PUSH1 0x40 MLOAD SWAP1 DUP2 MSTORE RETURN JUMPDEST POP CALLVALUE PUSH2 0x1F7 JUMPI PUSH1 0x20 CALLDATASIZE PUSH1 0x3 NOT ADD SLT PUSH2 0x1F7 JUMPI PUSH1 0x20 SWAP1 PUSH1 0x40 SWAP1 PUSH1 0x1 PUSH1 0x1 PUSH1 0xA0 SHL SUB PUSH2 0x855 PUSH2 0x1834 JUMP JUMPDEST AND DUP2 MSTORE PUSH1 0xA DUP4 MSTORE KECCAK256 SLOAD PUSH1 0x40 MLOAD SWAP1 DUP2 MSTORE RETURN JUMPDEST POP CALLVALUE PUSH2 0x1F7 JUMPI DUP1 PUSH1 0x3 NOT CALLDATASIZE ADD SLT PUSH2 0x1F7 JUMPI SLOAD PUSH1 0x40 MLOAD PUSH1 0x1 PUSH1 0x1 PUSH1 0xA0 SHL SUB SWAP1 SWAP2 AND DUP2 MSTORE PUSH1 0x20 SWAP1 RETURN JUMPDEST POP CALLVALUE PUSH2 0x1F7 JUMPI DUP1 PUSH1 0x3 NOT CALLDATASIZE ADD SLT PUSH2 0x1F7 JUMPI PUSH2 0x8A6 PUSH2 0x18A7 JUMP JUMPDEST PUSH2 0x8AE PUSH2 0x18FF JUMP JUMPDEST PUSH1 0x1 PUSH1 0xFF NOT PUSH1 0x2 SLOAD AND OR PUSH1 0x2 SSTORE PUSH32 0x62E78CEA01BEE320CD4E420270B5EA74000D11B0C9F74754EBDBFC544B05A258 PUSH1 0x20 PUSH1 0x40 MLOAD CALLER DUP2 MSTORE LOG1 DUP1 RETURN JUMPDEST POP CALLVALUE PUSH2 0x1F7 JUMPI PUSH1 0x20 CALLDATASIZE PUSH1 0x3 NOT ADD SLT PUSH2 0x1F7 JUMPI PUSH1 0x20 SWAP1 PUSH1 0x40 SWAP1 PUSH1 0x1 PUSH1 0x1 PUSH1 0xA0 SHL SUB PUSH2 0x910 PUSH2 0x1834 JUMP JUMPDEST AND DUP2 MSTORE PUSH1 0xC DUP4 MSTORE KECCAK256 SLOAD PUSH1 0x40 MLOAD SWAP1 DUP2 MSTORE RETURN JUMPDEST POP CALLVALUE PUSH2 0x1F7 JUMPI DUP1 PUSH1 0x3 NOT CALLDATASIZE ADD SLT PUSH2 0x1F7 JUMPI PUSH2 0x93A PUSH2 0x18A7 JUMP JUMPDEST PUSH1 0x0 DUP1 SLOAD PUSH1 0x1 PUSH1 0x1 PUSH1 0xA0 SHL SUB NOT DUP2 AND DUP3 SSTORE PUSH1 0x1 PUSH1 0x1 PUSH1 0xA0 SHL SUB AND PUSH32 0x8BE0079C531659141344CD1FD0A4F28419497F9722A3DAAFE3B4186F6B6457E0 DUP3 DUP1 LOG3 DUP1 RETURN JUMPDEST POP CALLVALUE PUSH2 0x1F7 JUMPI PUSH1 0x20 CALLDATASIZE PUSH1 0x3 NOT ADD SLT PUSH2 0x1F7 JUMPI PUSH1 0x40 PUSH1 0xE0 SWAP2 PUSH1 0x4 CALLDATALOAD DUP2 MSTORE PUSH1 0x14 PUSH1 0x20 MSTORE KECCAK256 PUSH1 0x1 DUP1 PUSH1 0xA0 SHL SUB DUP1 DUP3 SLOAD AND SWAP2 PUSH1 0x1 DUP2 ADD SLOAD SWAP1 PUSH1 0x2 DUP2 ADD SLOAD PUSH2 0x9E0 PUSH1 0x4 PUSH1 0x3 DUP5 ADD SLOAD SWAP4 ADD SLOAD SWAP4 PUSH1 0x40 MLOAD SWAP7 DUP8 MSTORE DUP6 DUP2 AND PUSH1 0x20 DUP9 ADD MSTORE PUSH1 0xFF PUSH1 0x40 DUP9 ADD SWAP2 PUSH1 0xA0 SHR AND PUSH2 0x184A JUMP JUMPDEST PUSH1 0x60 DUP6 ADD MSTORE PUSH1 0x80 DUP5 ADD MSTORE PUSH1 0xFF DUP2 AND ISZERO ISZERO PUSH1 0xA0 DUP5 ADD MSTORE PUSH1 0x8 SHR AND PUSH1 0xC0 DUP3 ADD MSTORE RETURN JUMPDEST POP CALLVALUE PUSH2 0x1F7 JUMPI PUSH1 0x40 PUSH32 0xB9405BEFE041B5B21277A25B6D9EA52BEB031FDF565B9521766B510CF8498F97 PUSH2 0xA32 CALLDATASIZE PUSH2 0x1705 JUMP JUMPDEST SWAP4 SWAP2 PUSH2 0xA49 PUSH1 0x1 DUP1 PUSH1 0xA0 SHL SUB PUSH1 0x11 SLOAD AND CALLER EQ PUSH2 0x1999 JUMP JUMPDEST DUP5 DUP4 MLOAD DUP4 DUP4 DUP3 CALLDATACOPY PUSH1 0x20 DUP2 DUP6 DUP2 ADD PUSH1 0xE DUP2 MSTORE SUB ADD SWAP1 KECCAK256 SSTORE DUP3 MLOAD DUP3 DUP3 DUP3 CALLDATACOPY DUP3 DUP2 ADD SWAP1 PUSH1 0xF DUP3 MSTORE PUSH1 0x20 DUP2 TIMESTAMP SWAP4 SUB ADD SWAP1 KECCAK256 SSTORE DUP2 DUP4 MLOAD SWAP3 DUP4 SWAP3 DUP4 CALLDATACOPY DUP2 ADD DUP7 DUP2 MSTORE SUB SWAP1 KECCAK256 SWAP3 DUP2 MLOAD SWAP1 DUP2 MSTORE TIMESTAMP PUSH1 0x20 DUP3 ADD MSTORE LOG2 DUP1 RETURN JUMPDEST POP CALLVALUE PUSH2 0x1F7 JUMPI DUP1 PUSH1 0x3 NOT CALLDATASIZE ADD SLT PUSH2 0x1F7 JUMPI PUSH1 0x20 PUSH1 0x4 SLOAD PUSH1 0x40 MLOAD SWAP1 DUP2 MSTORE RETURN JUMPDEST POP CALLVALUE PUSH2 0x1F7 JUMPI DUP1 PUSH1 0x3 NOT CALLDATASIZE ADD SLT PUSH2 0x1F7 JUMPI PUSH1 0x20 PUSH1 0xFF PUSH1 0x2 SLOAD AND PUSH1 0x40 MLOAD SWAP1 ISZERO ISZERO DUP2 MSTORE RETURN JUMPDEST POP CALLVALUE PUSH2 0x1F7 JUMPI PUSH1 0x80 CALLDATASIZE PUSH1 0x3 NOT ADD SLT PUSH2 0x1F7 JUMPI PUSH2 0xAF2 PUSH2 0x1834 JUMP JUMPDEST SWAP1 PUSH1 0x24 CALLDATALOAD SWAP1 PUSH1 0x1 PUSH1 0x1 PUSH1 0xA0 SHL SUB DUP3 AND DUP3 SUB PUSH2 0x1030 JUMPI PUSH1 0x44 CALLDATALOAD SWAP1 PUSH1 0xFF DUP3 AND DUP3 SUB PUSH2 0x1F7 JUMPI PUSH1 0x64 CALLDATALOAD PUSH8 0xFFFFFFFFFFFFFFFF DUP2 GT PUSH2 0x102C JUMPI PUSH2 0xB35 SWAP1 CALLDATASIZE SWAP1 PUSH1 0x4 ADD PUSH2 0x16D7 JUMP JUMPDEST PUSH2 0xB4A PUSH1 0x1 DUP1 PUSH1 0xA0 SHL SUB PUSH1 0x11 SLOAD AND CALLER EQ PUSH2 0x1999 JUMP JUMPDEST PUSH2 0xBA3 PUSH1 0x69 PUSH1 0x40 MLOAD DUP4 DUP2 SWAP5 PUSH1 0x20 DUP4 ADD SWAP7 PUSH1 0x1 PUSH1 0x1 PUSH1 0x60 SHL SUB NOT DUP1 DUP14 PUSH1 0x60 SHL AND DUP10 MSTORE DUP12 PUSH1 0x60 SHL AND PUSH1 0x34 DUP6 ADD MSTORE PUSH1 0xFF PUSH1 0xF8 SHL DUP11 PUSH1 0xF8 SHL AND PUSH1 0x48 DUP6 ADD MSTORE TIMESTAMP PUSH1 0x49 DUP6 ADD MSTORE DUP5 DUP5 ADD CALLDATACOPY DUP2 ADD DUP7 DUP4 DUP3 ADD MSTORE SUB PUSH1 0x49 DUP2 ADD DUP5 MSTORE ADD DUP3 PUSH2 0x177E JUMP JUMPDEST MLOAD SWAP1 KECCAK256 SWAP3 DUP4 DUP3 MSTORE PUSH1 0xB PUSH1 0x20 MSTORE PUSH1 0xFF PUSH1 0x40 DUP4 KECCAK256 SLOAD AND PUSH2 0xFE7 JUMPI PUSH1 0x6 PUSH1 0xFF DUP5 AND LT ISZERO PUSH2 0xFD3 JUMPI PUSH1 0x0 SWAP3 PUSH1 0xFF DUP2 AND PUSH2 0xFA8 JUMPI PUSH9 0x3635C9ADC5DEA00000 SWAP4 JUMPDEST PUSH2 0xF94 JUMPI PUSH1 0x40 MLOAD PUSH2 0xBEE DUP2 PUSH2 0x1762 JUMP JUMPDEST PUSH1 0x1 PUSH1 0x1 PUSH1 0xA0 SHL SUB DUP8 DUP2 AND DUP3 MSTORE DUP4 AND PUSH1 0x20 DUP3 ADD SWAP1 DUP2 MSTORE PUSH1 0x40 DUP3 ADD SWAP1 PUSH2 0xC16 PUSH1 0xFF DUP6 AND DUP4 PUSH2 0x19E5 JUMP JUMPDEST TIMESTAMP PUSH1 0x60 DUP5 ADD MSTORE PUSH1 0x80 DUP4 ADD DUP8 SWAP1 MSTORE PUSH1 0xA0 DUP4 ADD DUP7 SWAP1 MSTORE CALLER PUSH1 0xC0 DUP5 ADD MSTORE DUP8 DUP7 MSTORE PUSH1 0x14 PUSH1 0x20 MSTORE PUSH1 0x40 DUP7 KECCAK256 DUP4 MLOAD DUP2 SLOAD PUSH1 0x1 PUSH1 0x1 PUSH1 0xA0 SHL SUB NOT AND PUSH1 0x1 PUSH1 0x1 PUSH1 0xA0 SHL SUB SWAP2 DUP3 AND OR DUP3 SSTORE SWAP2 MLOAD PUSH1 0x1 DUP3 ADD SLOAD SWAP4 MLOAD SWAP4 SWAP2 SWAP3 AND PUSH1 0x6 DUP5 LT ISZERO PUSH2 0xF80 JUMPI SWAP1 PUSH1 0x4 SWAP3 SWAP2 PUSH11 0xFFFFFFFFFFFFFFFFFFFFFF PUSH1 0xA8 SHL DUP1 SWAP6 PUSH1 0xFF PUSH1 0xA0 SHL SWAP1 PUSH1 0xA0 SHL AND SWAP3 AND OR OR PUSH1 0x1 DUP3 ADD SSTORE PUSH1 0x60 DUP5 ADD MLOAD PUSH1 0x2 DUP3 ADD SSTORE PUSH1 0x80 DUP5 ADD MLOAD PUSH1 0x3 DUP3 ADD SSTORE ADD SWAP2 PUSH1 0xA0 DUP2 ADD MLOAD ISZERO ISZERO SWAP2 PUSH1 0xFF DUP5 SLOAD SWAP3 PUSH1 0xC0 PUSH2 0x100 PUSH1 0x1 PUSH1 0xA8 SHL SUB SWAP2 ADD MLOAD PUSH1 0x8 SHL AND SWAP4 AND SWAP2 AND OR OR SWAP1 SSTORE DUP5 DUP4 MSTORE PUSH1 0xB PUSH1 0x20 MSTORE PUSH1 0x40 DUP4 KECCAK256 SWAP2 PUSH1 0xFF NOT SWAP3 PUSH1 0x1 DUP5 DUP3 SLOAD AND OR SWAP1 SSTORE PUSH1 0xFF PUSH1 0x40 MLOAD SWAP3 AND DUP3 MSTORE TIMESTAMP PUSH1 0x20 DUP4 ADD MSTORE PUSH1 0x1 DUP1 PUSH1 0xA0 SHL SUB AND SWAP1 DUP6 PUSH32 0x32C695FF241338AAF8E0988A670816FD8B2B5CADD7F8BD670BC0295C76B812D PUSH1 0x40 PUSH1 0x1 DUP1 PUSH1 0xA0 SHL SUB DUP11 AND SWAP4 LOG4 PUSH1 0x1 PUSH1 0x1 PUSH1 0xA0 SHL SUB DUP6 AND DUP3 MSTORE PUSH1 0x7 PUSH1 0x20 MSTORE PUSH1 0x40 DUP3 KECCAK256 SLOAD PUSH1 0xFF AND PUSH2 0xD5E JUMPI JUMPDEST PUSH1 0x20 DUP5 PUSH1 0x40 MLOAD SWAP1 DUP2 MSTORE RETURN JUMPDEST DUP4 DUP3 MSTORE PUSH1 0x14 PUSH1 0x20 MSTORE PUSH1 0x40 DUP3 KECCAK256 PUSH1 0x2 DUP2 ADD SLOAD ISZERO PUSH2 0xF48 JUMPI DUP1 SLOAD PUSH1 0x1 PUSH1 0x1 PUSH1 0xA0 SHL SUB AND DUP1 DUP5 MSTORE PUSH1 0x7 PUSH1 0x20 MSTORE PUSH1 0x40 DUP5 KECCAK256 SLOAD PUSH1 0xFF AND ISZERO PUSH2 0xF0C JUMPI DUP4 MSTORE PUSH1 0x8 PUSH1 0x20 MSTORE PUSH1 0x40 DUP4 KECCAK256 SLOAD PUSH1 0xFF PUSH1 0x1 DUP4 ADD SLOAD PUSH1 0xA0 SHR AND PUSH1 0x6 DUP2 LT ISZERO PUSH2 0xEF8 JUMPI DUP1 PUSH2 0xEBF JUMPI POP PUSH2 0xDC5 PUSH1 0x2 SWAP3 PUSH2 0x1A16 JUMP JUMPDEST POP LT ISZERO JUMPDEST ISZERO PUSH2 0xD53 JUMPI DUP4 DUP3 MSTORE PUSH1 0x14 PUSH1 0x20 MSTORE PUSH1 0x1 PUSH1 0x4 PUSH1 0x40 DUP5 KECCAK256 ADD SWAP2 DUP3 SLOAD AND OR SWAP1 SSTORE PUSH1 0x1 DUP1 PUSH1 0xA0 SHL SUB DUP5 AND DUP2 MSTORE PUSH1 0xD PUSH1 0x20 MSTORE PUSH1 0x40 DUP2 KECCAK256 PUSH2 0xE04 DUP2 SLOAD PUSH2 0x19F1 JUMP JUMPDEST SWAP1 SSTORE PUSH1 0x1 DUP1 PUSH1 0xA0 SHL SUB PUSH1 0x2 SLOAD PUSH1 0x8 SHR AND PUSH1 0x13 SLOAD DUP2 EXTCODESIZE ISZERO PUSH2 0x47B JUMPI PUSH1 0x40 MLOAD PUSH4 0xCF086D3F PUSH1 0xE0 SHL DUP2 MSTORE PUSH1 0x1 PUSH1 0x1 PUSH1 0xA0 SHL SUB DUP8 AND PUSH1 0x4 DUP3 ADD MSTORE PUSH1 0x24 DUP2 ADD SWAP2 SWAP1 SWAP2 MSTORE SWAP1 DUP3 SWAP1 DUP3 SWAP1 PUSH1 0x44 SWAP1 DUP3 SWAP1 DUP5 SWAP1 GAS CALL DUP1 ISZERO PUSH2 0xEB4 JUMPI PUSH2 0xEA0 JUMPI JUMPDEST POP POP DUP2 PUSH32 0x51AFEAB2617C3E51E78B872D528AF4B0BA9165C1B588DC11DBFD36492831C13B PUSH1 0x40 PUSH1 0x20 SWAP6 DUP2 MLOAD SWAP5 DUP6 MSTORE TIMESTAMP DUP8 DUP7 ADD MSTORE PUSH1 0x1 DUP1 PUSH1 0xA0 SHL SUB AND SWAP4 LOG3 CODESIZE DUP1 DUP1 PUSH2 0xD53 JUMP JUMPDEST PUSH2 0xEAA DUP3 SWAP2 PUSH2 0x1738 JUMP JUMPDEST PUSH2 0x1F7 JUMPI DUP1 PUSH2 0xE5B JUMP JUMPDEST PUSH1 0x40 MLOAD RETURNDATASIZE DUP5 DUP3 RETURNDATACOPY RETURNDATASIZE SWAP1 REVERT JUMPDEST PUSH1 0x1 DUP2 SUB PUSH2 0xEDB JUMPI POP PUSH2 0xED3 PUSH1 0x1 SWAP3 PUSH2 0x1A16 JUMP JUMPDEST POP LT ISZERO PUSH2 0xDC9 JUMP JUMPDEST PUSH1 0x3 SUB PUSH2 0xEED JUMPI PUSH2 0xED3 PUSH1 0x3 SWAP3 PUSH2 0x1A16 JUMP JUMPDEST PUSH2 0xED3 PUSH1 0x1 SWAP3 PUSH2 0x1A16 JUMP JUMPDEST PUSH4 0x4E487B71 PUSH1 0xE0 SHL DUP6 MSTORE PUSH1 0x21 PUSH1 0x4 MSTORE PUSH1 0x24 DUP6 REVERT JUMPDEST PUSH1 0x40 MLOAD PUSH3 0x461BCD PUSH1 0xE5 SHL DUP2 MSTORE PUSH1 0x20 PUSH1 0x4 DUP3 ADD MSTORE PUSH1 0x14 PUSH1 0x24 DUP3 ADD MSTORE PUSH20 0x15185C99D95D081B9BDD081C1C9BDD1958DD1959 PUSH1 0x62 SHL PUSH1 0x44 DUP3 ADD MSTORE PUSH1 0x64 SWAP1 REVERT JUMPDEST PUSH1 0x40 MLOAD PUSH3 0x461BCD PUSH1 0xE5 SHL DUP2 MSTORE PUSH1 0x20 PUSH1 0x4 DUP3 ADD MSTORE PUSH1 0x10 PUSH1 0x24 DUP3 ADD MSTORE PUSH16 0x151A1C99585D081B9BDD08199BDD5B99 PUSH1 0x82 SHL PUSH1 0x44 DUP3 ADD MSTORE PUSH1 0x64 SWAP1 REVERT JUMPDEST PUSH4 0x4E487B71 PUSH1 0xE0 SHL DUP9 MSTORE PUSH1 0x21 PUSH1 0x4 MSTORE PUSH1 0x24 DUP9 REVERT JUMPDEST PUSH4 0x4E487B71 PUSH1 0xE0 SHL DUP4 MSTORE PUSH1 0x21 PUSH1 0x4 MSTORE PUSH1 0x24 DUP4 REVERT JUMPDEST PUSH1 0xFF DUP2 AND PUSH1 0x1 SUB PUSH2 0xFC3 JUMPI PUSH9 0x1B1AE4D6E2EF500000 SWAP4 PUSH2 0xBDE JUMP JUMPDEST PUSH9 0x56BC75E2D63100000 SWAP4 PUSH2 0xBDE JUMP JUMPDEST PUSH4 0x4E487B71 PUSH1 0xE0 SHL DUP3 MSTORE PUSH1 0x21 PUSH1 0x4 MSTORE PUSH1 0x24 DUP3 REVERT JUMPDEST PUSH1 0x40 MLOAD PUSH3 0x461BCD PUSH1 0xE5 SHL DUP2 MSTORE PUSH1 0x20 PUSH1 0x4 DUP3 ADD MSTORE PUSH1 0x17 PUSH1 0x24 DUP3 ADD MSTORE PUSH32 0x54687265617420616C7265616479206465746563746564000000000000000000 PUSH1 0x44 DUP3 ADD MSTORE PUSH1 0x64 SWAP1 REVERT JUMPDEST POP DUP1 REVERT JUMPDEST PUSH1 0x0 DUP1 REVERT JUMPDEST POP CALLVALUE PUSH2 0x1F7 JUMPI PUSH1 0x20 DUP1 PUSH1 0x3 NOT CALLDATASIZE ADD SLT PUSH2 0x102C JUMPI PUSH1 0x4 CALLDATALOAD SWAP1 PUSH2 0x1054 PUSH2 0x1943 JUMP JUMPDEST DUP2 DUP4 MSTORE PUSH1 0xB DUP2 MSTORE PUSH1 0xFF PUSH1 0x40 DUP5 KECCAK256 SLOAD AND ISZERO PUSH2 0x1181 JUMPI DUP2 DUP4 MSTORE PUSH1 0x14 DUP2 MSTORE PUSH1 0x40 DUP4 KECCAK256 PUSH1 0x4 ADD SLOAD PUSH1 0x1 PUSH1 0x1 PUSH1 0xA0 SHL SUB SWAP1 PUSH1 0x8 SHR DUP2 AND CALLER EQ PUSH2 0x113C JUMPI DUP4 SWAP1 CALLER DUP3 MSTORE PUSH1 0xC DUP4 MSTORE PUSH1 0x40 DUP3 KECCAK256 PUSH2 0x10A2 DUP2 SLOAD PUSH2 0x19F1 JUMP JUMPDEST SWAP1 SSTORE PUSH1 0x2 SLOAD PUSH1 0x8 SHR AND PUSH1 0x12 SLOAD DUP2 EXTCODESIZE ISZERO PUSH2 0x47B JUMPI PUSH1 0x40 MLOAD PUSH4 0xCF086D3F PUSH1 0xE0 SHL DUP2 MSTORE CALLER PUSH1 0x4 DUP3 ADD MSTORE PUSH1 0x24 DUP2 ADD SWAP2 SWAP1 SWAP2 MSTORE SWAP2 SWAP1 DUP3 SWAP1 PUSH1 0x44 SWAP1 DUP3 SWAP1 DUP5 SWAP1 GAS CALL DUP1 ISZERO PUSH2 0x1131 JUMPI PUSH2 0x111E JUMPI JUMPDEST POP PUSH32 0x2180129845D491246AAE3AE02FC070BBB28E674858D201CFEBC58661582C9740 PUSH1 0x12 SLOAD SWAP2 PUSH1 0x40 MLOAD SWAP3 DUP4 MSTORE CALLER SWAP3 LOG3 PUSH1 0x1 DUP1 SSTORE DUP1 RETURN JUMPDEST PUSH2 0x112A SWAP1 SWAP4 SWAP2 SWAP4 PUSH2 0x1738 JUMP JUMPDEST SWAP2 CODESIZE PUSH2 0x10E8 JUMP JUMPDEST PUSH1 0x40 MLOAD RETURNDATASIZE DUP7 DUP3 RETURNDATACOPY RETURNDATASIZE SWAP1 REVERT JUMPDEST PUSH1 0x40 MLOAD PUSH3 0x461BCD PUSH1 0xE5 SHL DUP2 MSTORE PUSH1 0x4 DUP2 ADD DUP4 SWAP1 MSTORE PUSH1 0x1B PUSH1 0x24 DUP3 ADD MSTORE PUSH32 0x43616E6E6F74207265706F7274206F776E20646574656374696F6E0000000000 PUSH1 0x44 DUP3 ADD MSTORE PUSH1 0x64 SWAP1 REVERT JUMPDEST PUSH1 0x64 SWAP1 PUSH1 0x40 MLOAD SWAP1 PUSH3 0x461BCD PUSH1 0xE5 SHL DUP3 MSTORE PUSH1 0x4 DUP3 ADD MSTORE PUSH1 0x13 PUSH1 0x24 DUP3 ADD MSTORE PUSH19 0x151A1C99585D081B9BDD0819195D1958DD1959 PUSH1 0x6A SHL PUSH1 0x44 DUP3 ADD MSTORE REVERT JUMPDEST POP CALLVALUE PUSH2 0x1F7 JUMPI PUSH1 0x20 SWAP1 DUP2 PUSH1 0x3 NOT CALLDATASIZE ADD SLT PUSH2 0x1F7 JUMPI PUSH8 0xFFFFFFFFFFFFFFFF PUSH1 0x4 CALLDATALOAD DUP2 DUP2 GT PUSH2 0x47B JUMPI PUSH2 0x11F0 SWAP1 CALLDATASIZE SWAP1 PUSH1 0x4 ADD PUSH2 0x16D7 JUMP JUMPDEST SWAP2 PUSH2 0x11F9 PUSH2 0x18A7 JUMP JUMPDEST DUP3 GT PUSH2 0x132C JUMPI PUSH2 0x120A PUSH1 0x10 SLOAD PUSH2 0x186D JUMP JUMPDEST PUSH1 0x1F DUP2 GT PUSH2 0x12CE JUMPI JUMPDEST POP DUP3 SWAP4 PUSH1 0x1F DUP4 GT PUSH1 0x1 EQ PUSH2 0x1250 JUMPI POP SWAP3 DUP3 SWAP4 DUP3 SWAP4 SWAP3 PUSH2 0x1245 JUMPI JUMPDEST POP POP DUP2 PUSH1 0x1 SHL SWAP2 PUSH1 0x0 NOT SWAP1 PUSH1 0x3 SHL SHR NOT AND OR PUSH1 0x10 SSTORE DUP1 RETURN JUMPDEST ADD CALLDATALOAD SWAP1 POP CODESIZE DUP1 PUSH2 0x122D JUMP JUMPDEST PUSH1 0x1F NOT DUP4 AND SWAP5 PUSH32 0x1B6847DC741A1B0CD08D278845F9D819D87B734759AFB55FE2DE5CB82A9AE672 SWAP3 SWAP2 DUP6 SWAP1 JUMPDEST DUP8 DUP3 LT PUSH2 0x12B6 JUMPI POP POP DUP4 PUSH1 0x1 SWAP6 SWAP7 LT PUSH2 0x129C JUMPI JUMPDEST POP POP POP DUP2 SHL ADD PUSH1 0x10 SSTORE DUP1 RETURN JUMPDEST ADD CALLDATALOAD PUSH1 0x0 NOT PUSH1 0x3 DUP5 SWAP1 SHL PUSH1 0xF8 AND SHR NOT AND SWAP1 SSTORE CODESIZE DUP1 DUP1 PUSH2 0x1290 JUMP JUMPDEST DUP1 PUSH1 0x1 DUP5 SWAP7 DUP3 SWAP5 SWAP6 DUP8 ADD CALLDATALOAD DUP2 SSTORE ADD SWAP6 ADD SWAP3 ADD SWAP1 PUSH2 0x127C JUMP JUMPDEST PUSH32 0x1B6847DC741A1B0CD08D278845F9D819D87B734759AFB55FE2DE5CB82A9AE672 PUSH1 0x1F DUP5 ADD PUSH1 0x5 SHR DUP2 ADD SWAP2 DUP7 DUP6 LT PUSH2 0x1322 JUMPI JUMPDEST PUSH1 0x1F ADD PUSH1 0x5 SHR ADD SWAP1 JUMPDEST DUP2 DUP2 LT PUSH2 0x1317 JUMPI POP PUSH2 0x1213 JUMP JUMPDEST DUP5 DUP2 SSTORE PUSH1 0x1 ADD PUSH2 0x130A JUMP JUMPDEST SWAP1 SWAP2 POP DUP2 SWAP1 PUSH2 0x1301 JUMP JUMPDEST PUSH4 0x4E487B71 PUSH1 0xE0 SHL DUP4 MSTORE PUSH1 0x41 PUSH1 0x4 MSTORE PUSH1 0x24 DUP4 REVERT JUMPDEST POP CALLVALUE PUSH2 0x1F7 JUMPI DUP1 PUSH1 0x3 NOT CALLDATASIZE ADD SLT PUSH2 0x1F7 JUMPI PUSH2 0x1359 PUSH2 0x18A7 JUMP JUMPDEST PUSH1 0x2 SLOAD PUSH1 0xFF DUP2 AND ISZERO PUSH2 0x1399 JUMPI PUSH1 0xFF NOT AND PUSH1 0x2 SSTORE PUSH32 0x5DB9EE0A495BF2E6FF9C91A7834C1BA4FDD244A5E8AA4E537BD38AEAE4B073AA PUSH1 0x20 PUSH1 0x40 MLOAD CALLER DUP2 MSTORE LOG1 DUP1 RETURN JUMPDEST PUSH1 0x40 MLOAD PUSH3 0x461BCD PUSH1 0xE5 SHL DUP2 MSTORE PUSH1 0x20 PUSH1 0x4 DUP3 ADD MSTORE PUSH1 0x14 PUSH1 0x24 DUP3 ADD MSTORE PUSH20 0x14185D5CD8589B194E881B9BDD081C185D5CD959 PUSH1 0x62 SHL PUSH1 0x44 DUP3 ADD MSTORE PUSH1 0x64 SWAP1 REVERT JUMPDEST POP CALLVALUE PUSH2 0x1F7 JUMPI PUSH1 0x20 DUP1 PUSH1 0x3 NOT CALLDATASIZE ADD SLT PUSH2 0x102C JUMPI PUSH1 0x80 SWAP2 SWAP1 PUSH1 0x1 PUSH1 0x1 PUSH1 0xA0 SHL SUB PUSH2 0x13FC PUSH2 0x1834 JUMP JUMPDEST AND DUP3 MSTORE PUSH1 0x7 DUP2 MSTORE PUSH1 0xFF PUSH1 0x40 DUP4 KECCAK256 SLOAD AND SWAP2 PUSH1 0x8 DUP3 MSTORE PUSH1 0x40 DUP2 KECCAK256 SLOAD PUSH1 0xC DUP4 MSTORE PUSH1 0x40 DUP1 DUP4 KECCAK256 SLOAD SWAP3 PUSH1 0xD DUP6 MSTORE KECCAK256 SLOAD SWAP3 PUSH1 0x40 MLOAD SWAP5 ISZERO ISZERO DUP6 MSTORE DUP5 ADD MSTORE PUSH1 0x40 DUP4 ADD MSTORE PUSH1 0x60 DUP3 ADD MSTORE RETURN JUMPDEST POP CALLVALUE PUSH2 0x1F7 JUMPI DUP1 PUSH1 0x3 NOT CALLDATASIZE ADD SLT PUSH2 0x1F7 JUMPI PUSH1 0x20 PUSH1 0x12 SLOAD PUSH1 0x40 MLOAD SWAP1 DUP2 MSTORE RETURN JUMPDEST POP CALLVALUE PUSH2 0x1F7 JUMPI PUSH1 0x20 CALLDATASIZE PUSH1 0x3 NOT ADD SLT PUSH2 0x1F7 JUMPI PUSH1 0x20 SWAP1 PUSH1 0x40 SWAP1 PUSH1 0x1 PUSH1 0x1 PUSH1 0xA0 SHL SUB PUSH2 0x1484 PUSH2 0x1834 JUMP JUMPDEST AND DUP2 MSTORE PUSH1 0x8 DUP4 MSTORE KECCAK256 SLOAD PUSH1 0x40 MLOAD SWAP1 DUP2 MSTORE RETURN JUMPDEST POP CALLVALUE PUSH2 0x1F7 JUMPI PUSH1 0x20 PUSH2 0x14AA DUP2 PUSH2 0x807 CALLDATASIZE PUSH2 0x17A0 JUMP JUMPDEST DUP2 ADD PUSH1 0xE DUP2 MSTORE SUB ADD SWAP1 KECCAK256 SLOAD PUSH1 0x40 MLOAD SWAP1 DUP2 MSTORE RETURN JUMPDEST POP CALLVALUE PUSH2 0x1F7 JUMPI PUSH1 0x20 CALLDATASIZE PUSH1 0x3 NOT ADD SLT PUSH2 0x1F7 JUMPI PUSH1 0x4 CALLDATALOAD PUSH2 0x14DA PUSH2 0x18A7 JUMP JUMPDEST PUSH2 0x3E8 DUP2 GT PUSH2 0x14E9 JUMPI PUSH1 0x3 SSTORE DUP1 RETURN JUMPDEST PUSH1 0x40 MLOAD PUSH3 0x461BCD PUSH1 0xE5 SHL DUP2 MSTORE PUSH1 0x20 PUSH1 0x4 DUP3 ADD MSTORE PUSH1 0x1B PUSH1 0x24 DUP3 ADD MSTORE PUSH32 0x5468726573686F6C642063616E6E6F7420657863656564203130250000000000 PUSH1 0x44 DUP3 ADD MSTORE PUSH1 0x64 SWAP1 REVERT JUMPDEST POP CALLVALUE PUSH2 0x1F7 JUMPI DUP1 PUSH1 0x3 NOT CALLDATASIZE ADD SLT PUSH2 0x1F7 JUMPI PUSH1 0x2 SLOAD PUSH1 0x40 MLOAD PUSH1 0x8 SWAP2 SWAP1 SWAP2 SHR PUSH1 0x1 PUSH1 0x1 PUSH1 0xA0 SHL SUB AND DUP2 MSTORE PUSH1 0x20 SWAP1 RETURN JUMPDEST POP CALLVALUE PUSH2 0x1F7 JUMPI PUSH2 0x156A CALLDATASIZE PUSH2 0x1705 JUMP JUMPDEST SWAP1 PUSH1 0x40 SWAP4 SWAP3 SWAP4 MLOAD DUP2 DUP6 DUP3 CALLDATACOPY PUSH1 0x20 DUP2 DUP4 DUP2 ADD PUSH1 0xE DUP2 MSTORE SUB ADD SWAP1 KECCAK256 SLOAD SWAP4 DUP5 ISZERO PUSH2 0x1676 JUMPI DUP2 PUSH1 0x20 PUSH2 0x15AF SWAP3 PUSH2 0x12C SWAP5 PUSH1 0x40 MLOAD SWAP4 DUP5 SWAP3 DUP4 CALLDATACOPY DUP2 ADD PUSH1 0xF DUP2 MSTORE SUB ADD SWAP1 KECCAK256 SLOAD TIMESTAMP PUSH2 0x1A80 JUMP JUMPDEST LT ISZERO PUSH2 0x163A JUMPI DUP3 DUP1 DUP3 GT ISZERO PUSH2 0x1609 JUMPI PUSH2 0x15C7 SWAP2 PUSH2 0x1A80 JUMP JUMPDEST SWAP1 PUSH2 0x2710 SWAP2 DUP3 DUP2 MUL SWAP3 DUP2 DUP5 DIV EQ SWAP1 ISZERO OR ISZERO PUSH2 0x15F5 JUMPI POP PUSH1 0x20 SWAP2 PUSH2 0x15E9 SWAP2 PUSH2 0x1A8D JUMP JUMPDEST PUSH1 0x3 SLOAD LT PUSH1 0x40 MLOAD SWAP1 DUP2 MSTORE RETURN JUMPDEST PUSH4 0x4E487B71 PUSH1 0xE0 SHL DUP2 MSTORE PUSH1 0x11 PUSH1 0x4 MSTORE PUSH1 0x24 SWAP1 REVERT JUMPDEST SWAP1 PUSH2 0x1613 SWAP2 PUSH2 0x1A80 JUMP JUMPDEST SWAP1 PUSH2 0x2710 SWAP2 DUP3 DUP2 MUL SWAP3 DUP2 DUP5 DIV EQ SWAP1 ISZERO OR ISZERO PUSH2 0x15F5 JUMPI POP PUSH1 0x20 SWAP2 PUSH2 0x1635 SWAP2 PUSH2 0x1A8D JUMP JUMPDEST PUSH2 0x15E9 JUMP JUMPDEST PUSH1 0x40 MLOAD PUSH3 0x461BCD PUSH1 0xE5 SHL DUP2 MSTORE PUSH1 0x20 PUSH1 0x4 DUP3 ADD MSTORE PUSH1 0x14 PUSH1 0x24 DUP3 ADD MSTORE PUSH20 0x13DC9858DB19481C1C9A58D9481D1BDBC81BDB19 PUSH1 0x62 SHL PUSH1 0x44 DUP3 ADD MSTORE PUSH1 0x64 SWAP1 REVERT JUMPDEST PUSH1 0x40 MLOAD PUSH3 0x461BCD PUSH1 0xE5 SHL DUP2 MSTORE PUSH1 0x20 PUSH1 0x4 DUP3 ADD MSTORE PUSH1 0x19 PUSH1 0x24 DUP3 ADD MSTORE PUSH32 0x4E6F206F7261636C6520707269636520617661696C61626C6500000000000000 PUSH1 0x44 DUP3 ADD MSTORE PUSH1 0x64 SWAP1 REVERT JUMPDEST SWAP1 POP CALLVALUE PUSH2 0x102C JUMPI DUP2 PUSH1 0x3 NOT CALLDATASIZE ADD SLT PUSH2 0x102C JUMPI PUSH1 0x20 SWAP1 PUSH1 0x5 SLOAD DUP2 MSTORE RETURN JUMPDEST SWAP2 DUP2 PUSH1 0x1F DUP5 ADD SLT ISZERO PUSH2 0x1030 JUMPI DUP3 CALLDATALOAD SWAP2 PUSH8 0xFFFFFFFFFFFFFFFF DUP4 GT PUSH2 0x1030 JUMPI PUSH1 0x20 DUP4 DUP2 DUP7 ADD SWAP6 ADD ADD GT PUSH2 0x1030 JUMPI JUMP JUMPDEST PUSH1 0x40 PUSH1 0x3 NOT DUP3 ADD SLT PUSH2 0x1030 JUMPI PUSH1 0x4 CALLDATALOAD SWAP1 PUSH8 0xFFFFFFFFFFFFFFFF DUP3 GT PUSH2 0x1030 JUMPI PUSH2 0x1730 SWAP2 PUSH1 0x4 ADD PUSH2 0x16D7 JUMP JUMPDEST SWAP1 SWAP2 PUSH1 0x24 CALLDATALOAD SWAP1 JUMP JUMPDEST PUSH8 0xFFFFFFFFFFFFFFFF DUP2 GT PUSH2 0x174C JUMPI PUSH1 0x40 MSTORE JUMP JUMPDEST PUSH4 0x4E487B71 PUSH1 0xE0 SHL PUSH1 0x0 MSTORE PUSH1 0x41 PUSH1 0x4 MSTORE PUSH1 0x24 PUSH1 0x0 REVERT JUMPDEST PUSH1 0xE0 DUP2 ADD SWAP1 DUP2 LT PUSH8 0xFFFFFFFFFFFFFFFF DUP3 GT OR PUSH2 0x174C JUMPI PUSH1 0x40 MSTORE JUMP JUMPDEST SWAP1 PUSH1 0x1F DUP1 NOT SWAP2 ADD AND DUP2 ADD SWAP1 DUP2 LT PUSH8 0xFFFFFFFFFFFFFFFF DUP3 GT OR PUSH2 0x174C JUMPI PUSH1 0x40 MSTORE JUMP JUMPDEST PUSH1 0x20 PUSH1 0x3 NOT DUP3 ADD SLT PUSH2 0x1030 JUMPI PUSH8 0xFFFFFFFFFFFFFFFF PUSH1 0x4 CALLDATALOAD DUP2 DUP2 GT PUSH2 0x1030 JUMPI DUP3 PUSH1 0x23 DUP3 ADD SLT ISZERO PUSH2 0x1030 JUMPI DUP1 PUSH1 0x4 ADD CALLDATALOAD SWAP2 DUP3 GT PUSH2 0x174C JUMPI PUSH1 0x40 MLOAD SWAP3 PUSH2 0x17EE PUSH1 0x1F DUP5 ADD PUSH1 0x1F NOT AND PUSH1 0x20 ADD DUP6 PUSH2 0x177E JUMP JUMPDEST DUP3 DUP5 MSTORE PUSH1 0x24 DUP4 DUP4 ADD ADD GT PUSH2 0x1030 JUMPI DUP2 PUSH1 0x0 SWAP3 PUSH1 0x24 PUSH1 0x20 SWAP4 ADD DUP4 DUP7 ADD CALLDATACOPY DUP4 ADD ADD MSTORE SWAP1 JUMP JUMPDEST PUSH1 0x0 JUMPDEST DUP4 DUP2 LT PUSH2 0x1824 JUMPI POP POP PUSH1 0x0 SWAP2 ADD MSTORE JUMP JUMPDEST DUP2 DUP2 ADD MLOAD DUP4 DUP3 ADD MSTORE PUSH1 0x20 ADD PUSH2 0x1814 JUMP JUMPDEST PUSH1 0x4 CALLDATALOAD SWAP1 PUSH1 0x1 PUSH1 0x1 PUSH1 0xA0 SHL SUB DUP3 AND DUP3 SUB PUSH2 0x1030 JUMPI JUMP JUMPDEST SWAP1 PUSH1 0x6 DUP3 LT ISZERO PUSH2 0x1857 JUMPI MSTORE JUMP JUMPDEST PUSH4 0x4E487B71 PUSH1 0xE0 SHL PUSH1 0x0 MSTORE PUSH1 0x21 PUSH1 0x4 MSTORE PUSH1 0x24 PUSH1 0x0 REVERT JUMPDEST SWAP1 PUSH1 0x1 DUP3 DUP2 SHR SWAP3 AND DUP1 ISZERO PUSH2 0x189D JUMPI JUMPDEST PUSH1 0x20 DUP4 LT EQ PUSH2 0x1887 JUMPI JUMP JUMPDEST PUSH4 0x4E487B71 PUSH1 0xE0 SHL PUSH1 0x0 MSTORE PUSH1 0x22 PUSH1 0x4 MSTORE PUSH1 0x24 PUSH1 0x0 REVERT JUMPDEST SWAP2 PUSH1 0x7F AND SWAP2 PUSH2 0x187C JUMP JUMPDEST PUSH1 0x0 SLOAD PUSH1 0x1 PUSH1 0x1 PUSH1 0xA0 SHL SUB AND CALLER SUB PUSH2 0x18BB JUMPI JUMP JUMPDEST PUSH1 0x64 PUSH1 0x40 MLOAD PUSH3 0x461BCD PUSH1 0xE5 SHL DUP2 MSTORE PUSH1 0x20 PUSH1 0x4 DUP3 ADD MSTORE PUSH1 0x20 PUSH1 0x24 DUP3 ADD MSTORE PUSH32 0x4F776E61626C653A2063616C6C6572206973206E6F7420746865206F776E6572 PUSH1 0x44 DUP3 ADD MSTORE REVERT JUMPDEST PUSH1 0xFF PUSH1 0x2 SLOAD AND PUSH2 0x190B JUMPI JUMP JUMPDEST PUSH1 0x40 MLOAD PUSH3 0x461BCD PUSH1 0xE5 SHL DUP2 MSTORE PUSH1 0x20 PUSH1 0x4 DUP3 ADD MSTORE PUSH1 0x10 PUSH1 0x24 DUP3 ADD MSTORE PUSH16 0x14185D5CD8589B194E881C185D5CD959 PUSH1 0x82 SHL PUSH1 0x44 DUP3 ADD MSTORE PUSH1 0x64 SWAP1 REVERT JUMPDEST PUSH1 0x2 PUSH1 0x1 SLOAD EQ PUSH2 0x1954 JUMPI PUSH1 0x2 PUSH1 0x1 SSTORE JUMP JUMPDEST PUSH1 0x40 MLOAD PUSH3 0x461BCD PUSH1 0xE5 SHL DUP2 MSTORE PUSH1 0x20 PUSH1 0x4 DUP3 ADD MSTORE PUSH1 0x1F PUSH1 0x24 DUP3 ADD MSTORE PUSH32 0x5265656E7472616E637947756172643A207265656E7472616E742063616C6C00 PUSH1 0x44 DUP3 ADD MSTORE PUSH1 0x64 SWAP1 REVERT JUMPDEST ISZERO PUSH2 0x19A0 JUMPI JUMP JUMPDEST PUSH1 0x40 MLOAD PUSH3 0x461BCD PUSH1 0xE5 SHL DUP2 MSTORE PUSH1 0x20 PUSH1 0x4 DUP3 ADD MSTORE PUSH1 0x17 PUSH1 0x24 DUP3 ADD MSTORE PUSH32 0x4F6E6C7920617574686F72697A656420696E6465786572000000000000000000 PUSH1 0x44 DUP3 ADD MSTORE PUSH1 0x64 SWAP1 REVERT JUMPDEST PUSH1 0x6 DUP3 LT ISZERO PUSH2 0x1857 JUMPI MSTORE JUMP JUMPDEST PUSH1 0x0 NOT DUP2 EQ PUSH2 0x1A00 JUMPI PUSH1 0x1 ADD SWAP1 JUMP JUMPDEST PUSH4 0x4E487B71 PUSH1 0xE0 SHL PUSH1 0x0 MSTORE PUSH1 0x11 PUSH1 0x4 MSTORE PUSH1 0x24 PUSH1 0x0 REVERT JUMPDEST SWAP1 PUSH1 0x40 MLOAD PUSH2 0x1A23 DUP2 PUSH2 0x1762 JUMP JUMPDEST PUSH1 0xC0 DUP2 SWAP4 PUSH1 0x4 PUSH1 0x1 DUP1 PUSH1 0xA0 SHL SUB SWAP2 DUP3 DUP2 SLOAD AND DUP6 MSTORE PUSH2 0x1A56 PUSH1 0xFF PUSH1 0x1 DUP4 ADD SLOAD DUP6 DUP2 AND PUSH1 0x20 DUP10 ADD MSTORE PUSH1 0xA0 SHR AND PUSH1 0x40 DUP8 ADD PUSH2 0x19E5 JUMP JUMPDEST PUSH1 0x2 DUP2 ADD SLOAD PUSH1 0x60 DUP7 ADD MSTORE PUSH1 0x3 DUP2 ADD SLOAD PUSH1 0x80 DUP7 ADD MSTORE ADD SLOAD PUSH1 0xFF DUP2 AND ISZERO ISZERO PUSH1 0xA0 DUP6 ADD MSTORE PUSH1 0x8 SHR AND SWAP2 ADD MSTORE JUMP JUMPDEST SWAP2 SWAP1 DUP3 SUB SWAP2 DUP3 GT PUSH2 0x1A00 JUMPI JUMP JUMPDEST DUP2 ISZERO PUSH2 0x1A97 JUMPI DIV SWAP1 JUMP JUMPDEST PUSH4 0x4E487B71 PUSH1 0xE0 SHL PUSH1 0x0 MSTORE PUSH1 0x12 PUSH1 0x4 MSTORE PUSH1 0x24 PUSH1 0x0 REVERT INVALID LOG2 PUSH5 0x6970667358 0x22 SLT KECCAK256 0xD0 ADD SIGNEXTEND MULMOD GASPRICE 0xBE SWAP7 0xB4 POP 0xC3 0xB6 RETURN 0xEC SWAP4 SWAP14 PUSH4 0xF29AA2A6 SLOAD COINBASE GAS DUP6 PREVRANDAO PUSH19 0xE432689753F664736F6C634300081400330000 "},"methodIdentifiers":{"activateProtection()":"e47ffac1","aegilonToken()":"29187cb7","authorizedIndexer()":"ee5b1bce","checkPriceAnomaly(string,uint256)":"28944810","deactivateProtection()":"d7b85be3","detectMEVThreat(address,address,uint8,bytes)":"517ea551","detectedThreats(bytes32)":"d9b33ad1","getThreatData(bytes32)":"b27dc01f","getUserProtectionStatus(address)":"3e6b7473","goldkySubgraphURL()":"bd0f39d3","isProtected(address)":"ce35de95","lastOraclePrices(string)":"30251d6b","lastOracleUpdate(string)":"aeca6fed","lastTransactionTime(address)":"e75b2073","minimumLiquidityForProtection()":"b8fceb79","owner()":"8da5cb5b","pause()":"8456cb59","paused()":"5c975abb","priceDeviationThreshold()":"fa596d32","protectionLevel(address)":"391227fb","protectionSuccessReward()":"d5595ba7","renounceOwnership()":"715018a6","reportThreat(bytes32)":"4fa0dbf9","setAuthorizedIndexer(address)":"ff8ef107","setGoldskySubgraphURL(string)":"4b327429","setPriceDeviationThreshold(uint256)":"2ff89351","setThreatReportReward(uint256)":"cfea248f","successfulPrevented(address)":"c9a0fea2","threatReportReward()":"3d868767","threatReports(address)":"76584c0c","threats(bytes32)":"6aa0756f","timeWindowForDetection()":"155ab637","transactionCount(address)":"99be3375","transferOwnership(address)":"f2fde38b","unpause()":"3f4ba83a","updateOraclePrice(string,uint256)":"6a330dfc","volumeAnomalyThreshold()":"5dcbf4a2"}}}}}