{"@redstone-finance/evm-connector/contracts/core/CalldataExtractor.sol":{"CalldataExtractor":{"abi":[{"inputs":[],"name":"CalldataMustHaveValidPayload","type":"error"},{"inputs":[],"name":"CalldataOverOrUnderFlow","type":"error"},{"inputs":[],"name":"DataPackageTimestampMustNotBeZero","type":"error"},{"inputs":[],"name":"DataPackageTimestampsMustBeEqual","type":"error"},{"inputs":[],"name":"DataTimestampCannotBeZero","type":"error"},{"inputs":[],"name":"EachSignerMustProvideTheSameValue","type":"error"},{"inputs":[],"name":"EmptyCalldataPointersArr","type":"error"},{"inputs":[],"name":"IncorrectUnsignedMetadataSize","type":"error"},{"inputs":[{"internalType":"uint256","name":"receivedSignersCount","type":"uint256"},{"internalType":"uint256","name":"requiredSignersCount","type":"uint256"}],"name":"InsufficientNumberOfUniqueSigners","type":"error"},{"inputs":[],"name":"InvalidCalldataPointer","type":"error"},{"inputs":[],"name":"RedstonePayloadMustHaveAtLeastOneDataPackage","type":"error"},{"inputs":[{"internalType":"address","name":"receivedSigner","type":"address"}],"name":"SignerNotAuthorised","type":"error"},{"inputs":[],"name":"TimestampsMustBeEqual","type":"error"},{"inputs":[{"internalType":"uint256","name":"valueByteSize","type":"uint256"}],"name":"TooLargeValueByteSize","type":"error"},{"inputs":[],"name":"extractTimestampsAndAssertAllAreEqual","outputs":[{"internalType":"uint256","name":"extractedTimestamp","type":"uint256"}],"stateMutability":"pure","type":"function"}],"evm":{"bytecode":{"linkReferences":{},"object":"60808060405234610016576102a9908161001c8239f35b600080fdfe60806040908082526004918236101561001757600080fd5b6000803560e01c6355a547d51461002d57600080fd5b3461024d578060031936011261024d5780926602ed57011e000080601f19360135160361023f57503660291161022f5762ffffff9336602819013585166003810180821161021c57600c820180911161021c57600e8201908181116101785736821161020c57602c83018091116101785736106101fc573691909103602b19013561ffff169586156101ec5783915b8783106100cd576020878751908152f35b604181018082116101d957606182018091116101d9576100ed9036610250565b600219810197908089116101c6578390351663ffffffff602099351689018099116101c65788810298818a0414901517156101d957604e9081890189116101c657606883018084116101b35761014a65ffffffffffff9136610250565b35169081156101a3578061018b5750975b8201018091116101785791600019811461017857600101916100bc565b634e487b7160e01b855260118452602485fd5b9890891461015b57875163d9d1f46560e01b81528690fd5b8851630336dc9d60e41b81528790fd5b634e487b7160e01b885260118752602488fd5b634e487b7160e01b875260118652602487fd5b634e487b7160e01b865260118552602486fd5b8451632154bfcf60e21b81528390fd5b8451632bcb7bc560e11b81528390fd5b855163c30a7bd760e01b81528490fd5b634e487b7160e01b845260118352602484fd5b8151632bcb7bc560e11b81528490fd5b6373bb264f60e11b81528490fd5b80fd5b9190820391821161025d57565b634e487b7160e01b600052601160045260246000fdfea26469706673582212207da0bbf18d02fecd506a04af477f9e3b5709cd42122a53771ae50e7c1194ca6764736f6c63430008140033","opcodes":"PUSH1 0x80 DUP1 PUSH1 0x40 MSTORE CALLVALUE PUSH2 0x16 JUMPI PUSH2 0x2A9 SWAP1 DUP2 PUSH2 0x1C DUP3 CODECOPY RETURN JUMPDEST PUSH1 0x0 DUP1 REVERT INVALID PUSH1 0x80 PUSH1 0x40 SWAP1 DUP1 DUP3 MSTORE PUSH1 0x4 SWAP2 DUP3 CALLDATASIZE LT ISZERO PUSH2 0x17 JUMPI PUSH1 0x0 DUP1 REVERT JUMPDEST PUSH1 0x0 DUP1 CALLDATALOAD PUSH1 0xE0 SHR PUSH4 0x55A547D5 EQ PUSH2 0x2D JUMPI PUSH1 0x0 DUP1 REVERT JUMPDEST CALLVALUE PUSH2 0x24D JUMPI DUP1 PUSH1 0x3 NOT CALLDATASIZE ADD SLT PUSH2 0x24D JUMPI DUP1 SWAP3 PUSH7 0x2ED57011E0000 DUP1 PUSH1 0x1F NOT CALLDATASIZE ADD CALLDATALOAD AND SUB PUSH2 0x23F JUMPI POP CALLDATASIZE PUSH1 0x29 GT PUSH2 0x22F JUMPI PUSH3 0xFFFFFF SWAP4 CALLDATASIZE PUSH1 0x28 NOT ADD CALLDATALOAD DUP6 AND PUSH1 0x3 DUP2 ADD DUP1 DUP3 GT PUSH2 0x21C JUMPI PUSH1 0xC DUP3 ADD DUP1 SWAP2 GT PUSH2 0x21C JUMPI PUSH1 0xE DUP3 ADD SWAP1 DUP2 DUP2 GT PUSH2 0x178 JUMPI CALLDATASIZE DUP3 GT PUSH2 0x20C JUMPI PUSH1 0x2C DUP4 ADD DUP1 SWAP2 GT PUSH2 0x178 JUMPI CALLDATASIZE LT PUSH2 0x1FC JUMPI CALLDATASIZE SWAP2 SWAP1 SWAP2 SUB PUSH1 0x2B NOT ADD CALLDATALOAD PUSH2 0xFFFF AND SWAP6 DUP7 ISZERO PUSH2 0x1EC JUMPI DUP4 SWAP2 JUMPDEST DUP8 DUP4 LT PUSH2 0xCD JUMPI PUSH1 0x20 DUP8 DUP8 MLOAD SWAP1 DUP2 MSTORE RETURN JUMPDEST PUSH1 0x41 DUP2 ADD DUP1 DUP3 GT PUSH2 0x1D9 JUMPI PUSH1 0x61 DUP3 ADD DUP1 SWAP2 GT PUSH2 0x1D9 JUMPI PUSH2 0xED SWAP1 CALLDATASIZE PUSH2 0x250 JUMP JUMPDEST PUSH1 0x2 NOT DUP2 ADD SWAP8 SWAP1 DUP1 DUP10 GT PUSH2 0x1C6 JUMPI DUP4 SWAP1 CALLDATALOAD AND PUSH4 0xFFFFFFFF PUSH1 0x20 SWAP10 CALLDATALOAD AND DUP10 ADD DUP1 SWAP10 GT PUSH2 0x1C6 JUMPI DUP9 DUP2 MUL SWAP9 DUP2 DUP11 DIV EQ SWAP1 ISZERO OR ISZERO PUSH2 0x1D9 JUMPI PUSH1 0x4E SWAP1 DUP2 DUP10 ADD DUP10 GT PUSH2 0x1C6 JUMPI PUSH1 0x68 DUP4 ADD DUP1 DUP5 GT PUSH2 0x1B3 JUMPI PUSH2 0x14A PUSH6 0xFFFFFFFFFFFF SWAP2 CALLDATASIZE PUSH2 0x250 JUMP JUMPDEST CALLDATALOAD AND SWAP1 DUP2 ISZERO PUSH2 0x1A3 JUMPI DUP1 PUSH2 0x18B JUMPI POP SWAP8 JUMPDEST DUP3 ADD ADD DUP1 SWAP2 GT PUSH2 0x178 JUMPI SWAP2 PUSH1 0x0 NOT DUP2 EQ PUSH2 0x178 JUMPI PUSH1 0x1 ADD SWAP2 PUSH2 0xBC JUMP JUMPDEST PUSH4 0x4E487B71 PUSH1 0xE0 SHL DUP6 MSTORE PUSH1 0x11 DUP5 MSTORE PUSH1 0x24 DUP6 REVERT JUMPDEST SWAP9 SWAP1 DUP10 EQ PUSH2 0x15B JUMPI DUP8 MLOAD PUSH4 0xD9D1F465 PUSH1 0xE0 SHL DUP2 MSTORE DUP7 SWAP1 REVERT JUMPDEST DUP9 MLOAD PUSH4 0x336DC9D PUSH1 0xE4 SHL DUP2 MSTORE DUP8 SWAP1 REVERT JUMPDEST PUSH4 0x4E487B71 PUSH1 0xE0 SHL DUP9 MSTORE PUSH1 0x11 DUP8 MSTORE PUSH1 0x24 DUP9 REVERT JUMPDEST PUSH4 0x4E487B71 PUSH1 0xE0 SHL DUP8 MSTORE PUSH1 0x11 DUP7 MSTORE PUSH1 0x24 DUP8 REVERT JUMPDEST PUSH4 0x4E487B71 PUSH1 0xE0 SHL DUP7 MSTORE PUSH1 0x11 DUP6 MSTORE PUSH1 0x24 DUP7 REVERT JUMPDEST DUP5 MLOAD PUSH4 0x2154BFCF PUSH1 0xE2 SHL DUP2 MSTORE DUP4 SWAP1 REVERT JUMPDEST DUP5 MLOAD PUSH4 0x2BCB7BC5 PUSH1 0xE1 SHL DUP2 MSTORE DUP4 SWAP1 REVERT JUMPDEST DUP6 MLOAD PUSH4 0xC30A7BD7 PUSH1 0xE0 SHL DUP2 MSTORE DUP5 SWAP1 REVERT JUMPDEST PUSH4 0x4E487B71 PUSH1 0xE0 SHL DUP5 MSTORE PUSH1 0x11 DUP4 MSTORE PUSH1 0x24 DUP5 REVERT JUMPDEST DUP2 MLOAD PUSH4 0x2BCB7BC5 PUSH1 0xE1 SHL DUP2 MSTORE DUP5 SWAP1 REVERT JUMPDEST PUSH4 0x73BB264F PUSH1 0xE1 SHL DUP2 MSTORE DUP5 SWAP1 REVERT JUMPDEST DUP1 REVERT JUMPDEST SWAP2 SWAP1 DUP3 SUB SWAP2 DUP3 GT PUSH2 0x25D JUMPI JUMP JUMPDEST PUSH4 0x4E487B71 PUSH1 0xE0 SHL PUSH1 0x0 MSTORE PUSH1 0x11 PUSH1 0x4 MSTORE PUSH1 0x24 PUSH1 0x0 REVERT INVALID LOG2 PUSH5 0x6970667358 0x22 SLT KECCAK256 PUSH30 0xA0BBF18D02FECD506A04AF477F9E3B5709CD42122A53771AE50E7C1194CA PUSH8 0x64736F6C63430008 EQ STOP CALLER "},"methodIdentifiers":{"extractTimestampsAndAssertAllAreEqual()":"55a547d5"}}}}}