{"@redstone-finance/evm-connector/contracts/data-services/MainDemoConsumerBase.sol":{"MainDemoConsumerBase":{"abi":[{"inputs":[],"name":"CalldataMustHaveValidPayload","type":"error"},{"inputs":[],"name":"CalldataOverOrUnderFlow","type":"error"},{"inputs":[],"name":"CanNotPickMedianOfEmptyArray","type":"error"},{"inputs":[],"name":"DataPackageTimestampMustNotBeZero","type":"error"},{"inputs":[],"name":"DataPackageTimestampsMustBeEqual","type":"error"},{"inputs":[],"name":"DataTimestampCannotBeZero","type":"error"},{"inputs":[],"name":"EachSignerMustProvideTheSameValue","type":"error"},{"inputs":[],"name":"EmptyCalldataPointersArr","type":"error"},{"inputs":[],"name":"GetDataServiceIdNotImplemented","type":"error"},{"inputs":[],"name":"IncorrectUnsignedMetadataSize","type":"error"},{"inputs":[{"internalType":"uint256","name":"receivedSignersCount","type":"uint256"},{"internalType":"uint256","name":"requiredSignersCount","type":"uint256"}],"name":"InsufficientNumberOfUniqueSigners","type":"error"},{"inputs":[],"name":"InvalidCalldataPointer","type":"error"},{"inputs":[],"name":"RedstonePayloadMustHaveAtLeastOneDataPackage","type":"error"},{"inputs":[{"internalType":"address","name":"receivedSigner","type":"address"}],"name":"SignerNotAuthorised","type":"error"},{"inputs":[{"internalType":"uint256","name":"receivedTimestampSeconds","type":"uint256"},{"internalType":"uint256","name":"blockTimestamp","type":"uint256"}],"name":"TimestampFromTooLongFuture","type":"error"},{"inputs":[{"internalType":"uint256","name":"receivedTimestampSeconds","type":"uint256"},{"internalType":"uint256","name":"blockTimestamp","type":"uint256"}],"name":"TimestampIsTooOld","type":"error"},{"inputs":[],"name":"TimestampsMustBeEqual","type":"error"},{"inputs":[{"internalType":"uint256","name":"valueByteSize","type":"uint256"}],"name":"TooLargeValueByteSize","type":"error"},{"inputs":[{"internalType":"uint256[]","name":"values","type":"uint256[]"}],"name":"aggregateValues","outputs":[{"internalType":"uint256","name":"","type":"uint256"}],"stateMutability":"view","type":"function"},{"inputs":[],"name":"extractTimestampsAndAssertAllAreEqual","outputs":[{"internalType":"uint256","name":"extractedTimestamp","type":"uint256"}],"stateMutability":"pure","type":"function"},{"inputs":[{"internalType":"address","name":"signerAddress","type":"address"}],"name":"getAuthorisedSignerIndex","outputs":[{"internalType":"uint8","name":"","type":"uint8"}],"stateMutability":"view","type":"function"},{"inputs":[],"name":"getDataServiceId","outputs":[{"internalType":"string","name":"","type":"string"}],"stateMutability":"view","type":"function"},{"inputs":[],"name":"getUniqueSignersThreshold","outputs":[{"internalType":"uint8","name":"","type":"uint8"}],"stateMutability":"view","type":"function"},{"inputs":[{"internalType":"uint256","name":"receivedTimestampMilliseconds","type":"uint256"}],"name":"validateTimestamp","outputs":[],"stateMutability":"view","type":"function"}],"evm":{"bytecode":{"linkReferences":{},"object":"6080806040523461001657610708908161001c8239f35b600080fdfe6080604052600436101561001257600080fd5b6000803560e01c9081633ce142f51461007a5750806355a547d514610075578063b24ebfcc14610070578063c274583a1461006b578063f50b2efe146100665763f90c49241461006157600080fd5b6103ab565b61031e565b610299565b610203565b6100b8565b346100b55760203660031901126100b557600435906001600160a01b03821682036100b55760206100aa83610568565b60ff60405191168152f35b80fd5b3461019d57600036600319011261019d57600061ffff6100de6100d96104b3565b61053f565b911690811561018b579190815b81811061010157604051838152602090f35b0390f35b909161010c8461044d565b9065ffffffffffff610126610120876103ec565b36610440565b351690811561017957806101525750610149916101439195610424565b916103dd565b929190926100eb565b80959103610167576101499161014391610424565b60405163d9d1f46560e01b8152600490fd5b604051630336dc9d60e41b8152600490fd5b604051632154bfcf60e21b8152600490fd5b600080fd5b634e487b7160e01b600052604160045260246000fd5b604051906040820182811067ffffffffffffffff8211176101d857604052565b6101a2565b6040519190601f01601f1916820167ffffffffffffffff8111838210176101d857604052565b3461019d5760208060031936011261019d5767ffffffffffffffff60043581811161019d573660238201121561019d5780600401359182116101d8578160051b6024846102518184016101dd565b8095815201918301019136831161019d57602401905b82821061028a576100fd61027a856105f1565b6040519081529081906020820190565b81358152908401908401610267565b3461019d57600036600319011261019d576102b26101b8565b6012815260207172656473746f6e652d6d61696e2d64656d6f60701b818301526040908151928184928352815191828285015260005b838110610308575050600083830185015250601f01601f19168101030190f35b81810183015187820187015286945082016102e8565b3461019d57602036600319011261019d576103e86004350480421060001461037357603c61034c4283610440565b1161035357005b60405163b6b0916d60e01b81526004810191909152426024820152604490fd5b8042034281116103a65760b41061038657005b604051630321d0b560e01b81526004810191909152426024820152604490fd5b6103c7565b3461019d57600036600319011261019d57602060405160018152f35b634e487b7160e01b600052601160045260246000fd5b60001981146103a65760010190565b90606882018092116103a657565b90604e82018092116103a657565b90600982018092116103a657565b90600282018092116103a657565b919082018092116103a657565b6000198101919082116103a657565b919082039182116103a657565b604181018082116103a65760618201106103a65736036060198101903682116103a65760631901908082116103a65762ffffff63ffffffff91351691351660200190816020116103a6578181029181830414901517156103a6576104b0906103fa565b90565b6602ed57011dffff1936601f1901356602ed57011e0000160161052d573660291161051b5762ffffff60281936013516600381018091116103a6576104f790610408565b3661050182610416565b116105095790565b60405163c30a7bd760e01b8152600490fd5b604051632bcb7bc560e11b8152600490fd5b6040516373bb264f60e11b8152600490fd5b90602082018083116103a657361061051b5760028201918281116103a6573603601f1901359190565b6001600160a01b0316730c39486f770b26f5527bbbf942726537986cd7eb81036105925750600090565b602490604051906303b1166f60e61b82526004820152fd5b8051156105b75760200190565b634e487b7160e01b600052603260045260246000fd5b8051600110156105b75760400190565b80518210156105b75760209160051b010190565b6002815114610667578051156106555761060a81610681565b8051600181811c9116610648576104b09161063b8261063461062e61064295610431565b846105dd565b51926105dd565b5190610424565b60011c90565b610651916105dd565b5190565b604051639e198af960e01b8152600490fd5b6106428161063b61067a6104b0946105aa565b51916105cd565b8051602082818094019260051b010190805b8281106106a05750505050565b83825b8281106106b1575001610693565b825181518082106106c7575b50500184906106a3565b8452815238806106bd56fea2646970667358221220461b7e1435def13cc9d9252fab77b010b73a3d7e86a8e8db450ad1de1e876bb064736f6c63430008140033","opcodes":"PUSH1 0x80 DUP1 PUSH1 0x40 MSTORE CALLVALUE PUSH2 0x16 JUMPI PUSH2 0x708 SWAP1 DUP2 PUSH2 0x1C DUP3 CODECOPY RETURN JUMPDEST PUSH1 0x0 DUP1 REVERT INVALID PUSH1 0x80 PUSH1 0x40 MSTORE PUSH1 0x4 CALLDATASIZE LT ISZERO PUSH2 0x12 JUMPI PUSH1 0x0 DUP1 REVERT JUMPDEST PUSH1 0x0 DUP1 CALLDATALOAD PUSH1 0xE0 SHR SWAP1 DUP2 PUSH4 0x3CE142F5 EQ PUSH2 0x7A JUMPI POP DUP1 PUSH4 0x55A547D5 EQ PUSH2 0x75 JUMPI DUP1 PUSH4 0xB24EBFCC EQ PUSH2 0x70 JUMPI DUP1 PUSH4 0xC274583A EQ PUSH2 0x6B JUMPI DUP1 PUSH4 0xF50B2EFE EQ PUSH2 0x66 JUMPI PUSH4 0xF90C4924 EQ PUSH2 0x61 JUMPI PUSH1 0x0 DUP1 REVERT JUMPDEST PUSH2 0x3AB JUMP JUMPDEST PUSH2 0x31E JUMP JUMPDEST PUSH2 0x299 JUMP JUMPDEST PUSH2 0x203 JUMP JUMPDEST PUSH2 0xB8 JUMP JUMPDEST CALLVALUE PUSH2 0xB5 JUMPI PUSH1 0x20 CALLDATASIZE PUSH1 0x3 NOT ADD SLT PUSH2 0xB5 JUMPI PUSH1 0x4 CALLDATALOAD SWAP1 PUSH1 0x1 PUSH1 0x1 PUSH1 0xA0 SHL SUB DUP3 AND DUP3 SUB PUSH2 0xB5 JUMPI PUSH1 0x20 PUSH2 0xAA DUP4 PUSH2 0x568 JUMP JUMPDEST PUSH1 0xFF PUSH1 0x40 MLOAD SWAP2 AND DUP2 MSTORE RETURN JUMPDEST DUP1 REVERT JUMPDEST CALLVALUE PUSH2 0x19D JUMPI PUSH1 0x0 CALLDATASIZE PUSH1 0x3 NOT ADD SLT PUSH2 0x19D JUMPI PUSH1 0x0 PUSH2 0xFFFF PUSH2 0xDE PUSH2 0xD9 PUSH2 0x4B3 JUMP JUMPDEST PUSH2 0x53F JUMP JUMPDEST SWAP2 AND SWAP1 DUP2 ISZERO PUSH2 0x18B JUMPI SWAP2 SWAP1 DUP2 JUMPDEST DUP2 DUP2 LT PUSH2 0x101 JUMPI PUSH1 0x40 MLOAD DUP4 DUP2 MSTORE PUSH1 0x20 SWAP1 RETURN JUMPDEST SUB SWAP1 RETURN JUMPDEST SWAP1 SWAP2 PUSH2 0x10C DUP5 PUSH2 0x44D JUMP JUMPDEST SWAP1 PUSH6 0xFFFFFFFFFFFF PUSH2 0x126 PUSH2 0x120 DUP8 PUSH2 0x3EC JUMP JUMPDEST CALLDATASIZE PUSH2 0x440 JUMP JUMPDEST CALLDATALOAD AND SWAP1 DUP2 ISZERO PUSH2 0x179 JUMPI DUP1 PUSH2 0x152 JUMPI POP PUSH2 0x149 SWAP2 PUSH2 0x143 SWAP2 SWAP6 PUSH2 0x424 JUMP JUMPDEST SWAP2 PUSH2 0x3DD JUMP JUMPDEST SWAP3 SWAP2 SWAP1 SWAP3 PUSH2 0xEB JUMP JUMPDEST DUP1 SWAP6 SWAP2 SUB PUSH2 0x167 JUMPI PUSH2 0x149 SWAP2 PUSH2 0x143 SWAP2 PUSH2 0x424 JUMP JUMPDEST PUSH1 0x40 MLOAD PUSH4 0xD9D1F465 PUSH1 0xE0 SHL DUP2 MSTORE PUSH1 0x4 SWAP1 REVERT JUMPDEST PUSH1 0x40 MLOAD PUSH4 0x336DC9D PUSH1 0xE4 SHL DUP2 MSTORE PUSH1 0x4 SWAP1 REVERT JUMPDEST PUSH1 0x40 MLOAD PUSH4 0x2154BFCF PUSH1 0xE2 SHL DUP2 MSTORE PUSH1 0x4 SWAP1 REVERT JUMPDEST PUSH1 0x0 DUP1 REVERT JUMPDEST PUSH4 0x4E487B71 PUSH1 0xE0 SHL PUSH1 0x0 MSTORE PUSH1 0x41 PUSH1 0x4 MSTORE PUSH1 0x24 PUSH1 0x0 REVERT JUMPDEST PUSH1 0x40 MLOAD SWAP1 PUSH1 0x40 DUP3 ADD DUP3 DUP2 LT PUSH8 0xFFFFFFFFFFFFFFFF DUP3 GT OR PUSH2 0x1D8 JUMPI PUSH1 0x40 MSTORE JUMP JUMPDEST PUSH2 0x1A2 JUMP JUMPDEST PUSH1 0x40 MLOAD SWAP2 SWAP1 PUSH1 0x1F ADD PUSH1 0x1F NOT AND DUP3 ADD PUSH8 0xFFFFFFFFFFFFFFFF DUP2 GT DUP4 DUP3 LT OR PUSH2 0x1D8 JUMPI PUSH1 0x40 MSTORE JUMP JUMPDEST CALLVALUE PUSH2 0x19D JUMPI PUSH1 0x20 DUP1 PUSH1 0x3 NOT CALLDATASIZE ADD SLT PUSH2 0x19D JUMPI PUSH8 0xFFFFFFFFFFFFFFFF PUSH1 0x4 CALLDATALOAD DUP2 DUP2 GT PUSH2 0x19D JUMPI CALLDATASIZE PUSH1 0x23 DUP3 ADD SLT ISZERO PUSH2 0x19D JUMPI DUP1 PUSH1 0x4 ADD CALLDATALOAD SWAP2 DUP3 GT PUSH2 0x1D8 JUMPI DUP2 PUSH1 0x5 SHL PUSH1 0x24 DUP5 PUSH2 0x251 DUP2 DUP5 ADD PUSH2 0x1DD JUMP JUMPDEST DUP1 SWAP6 DUP2 MSTORE ADD SWAP2 DUP4 ADD ADD SWAP2 CALLDATASIZE DUP4 GT PUSH2 0x19D JUMPI PUSH1 0x24 ADD SWAP1 JUMPDEST DUP3 DUP3 LT PUSH2 0x28A JUMPI PUSH2 0xFD PUSH2 0x27A DUP6 PUSH2 0x5F1 JUMP JUMPDEST PUSH1 0x40 MLOAD SWAP1 DUP2 MSTORE SWAP1 DUP2 SWAP1 PUSH1 0x20 DUP3 ADD SWAP1 JUMP JUMPDEST DUP2 CALLDATALOAD DUP2 MSTORE SWAP1 DUP5 ADD SWAP1 DUP5 ADD PUSH2 0x267 JUMP JUMPDEST CALLVALUE PUSH2 0x19D JUMPI PUSH1 0x0 CALLDATASIZE PUSH1 0x3 NOT ADD SLT PUSH2 0x19D JUMPI PUSH2 0x2B2 PUSH2 0x1B8 JUMP JUMPDEST PUSH1 0x12 DUP2 MSTORE PUSH1 0x20 PUSH18 0x72656473746F6E652D6D61696E2D64656D6F PUSH1 0x70 SHL DUP2 DUP4 ADD MSTORE PUSH1 0x40 SWAP1 DUP2 MLOAD SWAP3 DUP2 DUP5 SWAP3 DUP4 MSTORE DUP2 MLOAD SWAP2 DUP3 DUP3 DUP6 ADD MSTORE PUSH1 0x0 JUMPDEST DUP4 DUP2 LT PUSH2 0x308 JUMPI POP POP PUSH1 0x0 DUP4 DUP4 ADD DUP6 ADD MSTORE POP PUSH1 0x1F ADD PUSH1 0x1F NOT AND DUP2 ADD SUB ADD SWAP1 RETURN JUMPDEST DUP2 DUP2 ADD DUP4 ADD MLOAD DUP8 DUP3 ADD DUP8 ADD MSTORE DUP7 SWAP5 POP DUP3 ADD PUSH2 0x2E8 JUMP JUMPDEST CALLVALUE PUSH2 0x19D JUMPI PUSH1 0x20 CALLDATASIZE PUSH1 0x3 NOT ADD SLT PUSH2 0x19D JUMPI PUSH2 0x3E8 PUSH1 0x4 CALLDATALOAD DIV DUP1 TIMESTAMP LT PUSH1 0x0 EQ PUSH2 0x373 JUMPI PUSH1 0x3C PUSH2 0x34C TIMESTAMP DUP4 PUSH2 0x440 JUMP JUMPDEST GT PUSH2 0x353 JUMPI STOP JUMPDEST PUSH1 0x40 MLOAD PUSH4 0xB6B0916D PUSH1 0xE0 SHL DUP2 MSTORE PUSH1 0x4 DUP2 ADD SWAP2 SWAP1 SWAP2 MSTORE TIMESTAMP PUSH1 0x24 DUP3 ADD MSTORE PUSH1 0x44 SWAP1 REVERT JUMPDEST DUP1 TIMESTAMP SUB TIMESTAMP DUP2 GT PUSH2 0x3A6 JUMPI PUSH1 0xB4 LT PUSH2 0x386 JUMPI STOP JUMPDEST PUSH1 0x40 MLOAD PUSH4 0x321D0B5 PUSH1 0xE0 SHL DUP2 MSTORE PUSH1 0x4 DUP2 ADD SWAP2 SWAP1 SWAP2 MSTORE TIMESTAMP PUSH1 0x24 DUP3 ADD MSTORE PUSH1 0x44 SWAP1 REVERT JUMPDEST PUSH2 0x3C7 JUMP JUMPDEST CALLVALUE PUSH2 0x19D JUMPI PUSH1 0x0 CALLDATASIZE PUSH1 0x3 NOT ADD SLT PUSH2 0x19D JUMPI PUSH1 0x20 PUSH1 0x40 MLOAD PUSH1 0x1 DUP2 MSTORE RETURN JUMPDEST PUSH4 0x4E487B71 PUSH1 0xE0 SHL PUSH1 0x0 MSTORE PUSH1 0x11 PUSH1 0x4 MSTORE PUSH1 0x24 PUSH1 0x0 REVERT JUMPDEST PUSH1 0x0 NOT DUP2 EQ PUSH2 0x3A6 JUMPI PUSH1 0x1 ADD SWAP1 JUMP JUMPDEST SWAP1 PUSH1 0x68 DUP3 ADD DUP1 SWAP3 GT PUSH2 0x3A6 JUMPI JUMP JUMPDEST SWAP1 PUSH1 0x4E DUP3 ADD DUP1 SWAP3 GT PUSH2 0x3A6 JUMPI JUMP JUMPDEST SWAP1 PUSH1 0x9 DUP3 ADD DUP1 SWAP3 GT PUSH2 0x3A6 JUMPI JUMP JUMPDEST SWAP1 PUSH1 0x2 DUP3 ADD DUP1 SWAP3 GT PUSH2 0x3A6 JUMPI JUMP JUMPDEST SWAP2 SWAP1 DUP3 ADD DUP1 SWAP3 GT PUSH2 0x3A6 JUMPI JUMP JUMPDEST PUSH1 0x0 NOT DUP2 ADD SWAP2 SWAP1 DUP3 GT PUSH2 0x3A6 JUMPI JUMP JUMPDEST SWAP2 SWAP1 DUP3 SUB SWAP2 DUP3 GT PUSH2 0x3A6 JUMPI JUMP JUMPDEST PUSH1 0x41 DUP2 ADD DUP1 DUP3 GT PUSH2 0x3A6 JUMPI PUSH1 0x61 DUP3 ADD LT PUSH2 0x3A6 JUMPI CALLDATASIZE SUB PUSH1 0x60 NOT DUP2 ADD SWAP1 CALLDATASIZE DUP3 GT PUSH2 0x3A6 JUMPI PUSH1 0x63 NOT ADD SWAP1 DUP1 DUP3 GT PUSH2 0x3A6 JUMPI PUSH3 0xFFFFFF PUSH4 0xFFFFFFFF SWAP2 CALLDATALOAD AND SWAP2 CALLDATALOAD AND PUSH1 0x20 ADD SWAP1 DUP2 PUSH1 0x20 GT PUSH2 0x3A6 JUMPI DUP2 DUP2 MUL SWAP2 DUP2 DUP4 DIV EQ SWAP1 ISZERO OR ISZERO PUSH2 0x3A6 JUMPI PUSH2 0x4B0 SWAP1 PUSH2 0x3FA JUMP JUMPDEST SWAP1 JUMP JUMPDEST PUSH7 0x2ED57011DFFFF NOT CALLDATASIZE PUSH1 0x1F NOT ADD CALLDATALOAD PUSH7 0x2ED57011E0000 AND ADD PUSH2 0x52D JUMPI CALLDATASIZE PUSH1 0x29 GT PUSH2 0x51B JUMPI PUSH3 0xFFFFFF PUSH1 0x28 NOT CALLDATASIZE ADD CALLDATALOAD AND PUSH1 0x3 DUP2 ADD DUP1 SWAP2 GT PUSH2 0x3A6 JUMPI PUSH2 0x4F7 SWAP1 PUSH2 0x408 JUMP JUMPDEST CALLDATASIZE PUSH2 0x501 DUP3 PUSH2 0x416 JUMP JUMPDEST GT PUSH2 0x509 JUMPI SWAP1 JUMP JUMPDEST PUSH1 0x40 MLOAD PUSH4 0xC30A7BD7 PUSH1 0xE0 SHL DUP2 MSTORE PUSH1 0x4 SWAP1 REVERT JUMPDEST PUSH1 0x40 MLOAD PUSH4 0x2BCB7BC5 PUSH1 0xE1 SHL DUP2 MSTORE PUSH1 0x4 SWAP1 REVERT JUMPDEST PUSH1 0x40 MLOAD PUSH4 0x73BB264F PUSH1 0xE1 SHL DUP2 MSTORE PUSH1 0x4 SWAP1 REVERT JUMPDEST SWAP1 PUSH1 0x20 DUP3 ADD DUP1 DUP4 GT PUSH2 0x3A6 JUMPI CALLDATASIZE LT PUSH2 0x51B JUMPI PUSH1 0x2 DUP3 ADD SWAP2 DUP3 DUP2 GT PUSH2 0x3A6 JUMPI CALLDATASIZE SUB PUSH1 0x1F NOT ADD CALLDATALOAD SWAP2 SWAP1 JUMP JUMPDEST PUSH1 0x1 PUSH1 0x1 PUSH1 0xA0 SHL SUB AND PUSH20 0xC39486F770B26F5527BBBF942726537986CD7EB DUP2 SUB PUSH2 0x592 JUMPI POP PUSH1 0x0 SWAP1 JUMP JUMPDEST PUSH1 0x24 SWAP1 PUSH1 0x40 MLOAD SWAP1 PUSH4 0x3B1166F PUSH1 0xE6 SHL DUP3 MSTORE PUSH1 0x4 DUP3 ADD MSTORE REVERT JUMPDEST DUP1 MLOAD ISZERO PUSH2 0x5B7 JUMPI PUSH1 0x20 ADD SWAP1 JUMP JUMPDEST PUSH4 0x4E487B71 PUSH1 0xE0 SHL PUSH1 0x0 MSTORE PUSH1 0x32 PUSH1 0x4 MSTORE PUSH1 0x24 PUSH1 0x0 REVERT JUMPDEST DUP1 MLOAD PUSH1 0x1 LT ISZERO PUSH2 0x5B7 JUMPI PUSH1 0x40 ADD SWAP1 JUMP JUMPDEST DUP1 MLOAD DUP3 LT ISZERO PUSH2 0x5B7 JUMPI PUSH1 0x20 SWAP2 PUSH1 0x5 SHL ADD ADD SWAP1 JUMP JUMPDEST PUSH1 0x2 DUP2 MLOAD EQ PUSH2 0x667 JUMPI DUP1 MLOAD ISZERO PUSH2 0x655 JUMPI PUSH2 0x60A DUP2 PUSH2 0x681 JUMP JUMPDEST DUP1 MLOAD PUSH1 0x1 DUP2 DUP2 SHR SWAP2 AND PUSH2 0x648 JUMPI PUSH2 0x4B0 SWAP2 PUSH2 0x63B DUP3 PUSH2 0x634 PUSH2 0x62E PUSH2 0x642 SWAP6 PUSH2 0x431 JUMP JUMPDEST DUP5 PUSH2 0x5DD JUMP JUMPDEST MLOAD SWAP3 PUSH2 0x5DD JUMP JUMPDEST MLOAD SWAP1 PUSH2 0x424 JUMP JUMPDEST PUSH1 0x1 SHR SWAP1 JUMP JUMPDEST PUSH2 0x651 SWAP2 PUSH2 0x5DD JUMP JUMPDEST MLOAD SWAP1 JUMP JUMPDEST PUSH1 0x40 MLOAD PUSH4 0x9E198AF9 PUSH1 0xE0 SHL DUP2 MSTORE PUSH1 0x4 SWAP1 REVERT JUMPDEST PUSH2 0x642 DUP2 PUSH2 0x63B PUSH2 0x67A PUSH2 0x4B0 SWAP5 PUSH2 0x5AA JUMP JUMPDEST MLOAD SWAP2 PUSH2 0x5CD JUMP JUMPDEST DUP1 MLOAD PUSH1 0x20 DUP3 DUP2 DUP1 SWAP5 ADD SWAP3 PUSH1 0x5 SHL ADD ADD SWAP1 DUP1 JUMPDEST DUP3 DUP2 LT PUSH2 0x6A0 JUMPI POP POP POP POP JUMP JUMPDEST DUP4 DUP3 JUMPDEST DUP3 DUP2 LT PUSH2 0x6B1 JUMPI POP ADD PUSH2 0x693 JUMP JUMPDEST DUP3 MLOAD DUP2 MLOAD DUP1 DUP3 LT PUSH2 0x6C7 JUMPI JUMPDEST POP POP ADD DUP5 SWAP1 PUSH2 0x6A3 JUMP JUMPDEST DUP5 MSTORE DUP2 MSTORE CODESIZE DUP1 PUSH2 0x6BD JUMP INVALID LOG2 PUSH5 0x6970667358 0x22 SLT KECCAK256 CHAINID SHL PUSH31 0x1435DEF13CC9D9252FAB77B010B73A3D7E86A8E8DB450AD1DE1E876BB06473 PUSH16 0x6C634300081400330000000000000000 "},"methodIdentifiers":{"aggregateValues(uint256[])":"b24ebfcc","extractTimestampsAndAssertAllAreEqual()":"55a547d5","getAuthorisedSignerIndex(address)":"3ce142f5","getDataServiceId()":"c274583a","getUniqueSignersThreshold()":"f90c4924","validateTimestamp(uint256)":"f50b2efe"}}}}}