{"contracts/MEVProtectorAdvanced.sol":{"MEVProtectorAdvanced":{"abi":[{"inputs":[{"internalType":"address","name":"_detector","type":"address"},{"internalType":"address","name":"_treasury","type":"address"}],"stateMutability":"nonpayable","type":"constructor"},{"anonymous":false,"inputs":[{"indexed":true,"internalType":"address","name":"user","type":"address"},{"indexed":false,"internalType":"enum MEVProtectorAdvanced.ProtectionStrategy","name":"strategy","type":"uint8"},{"indexed":false,"internalType":"uint256","name":"maxSlippage","type":"uint256"}],"name":"ConfigurationUpdated","type":"event"},{"anonymous":false,"inputs":[{"indexed":true,"internalType":"address","name":"user","type":"address"},{"indexed":false,"internalType":"string","name":"reason","type":"string"}],"name":"EmergencyStop","type":"event"},{"anonymous":false,"inputs":[{"indexed":true,"internalType":"address","name":"previousOwner","type":"address"},{"indexed":true,"internalType":"address","name":"newOwner","type":"address"}],"name":"OwnershipTransferred","type":"event"},{"anonymous":false,"inputs":[{"indexed":true,"internalType":"address","name":"user","type":"address"},{"indexed":true,"internalType":"address","name":"tokenIn","type":"address"},{"indexed":true,"internalType":"address","name":"tokenOut","type":"address"},{"indexed":false,"internalType":"uint256","name":"amountIn","type":"uint256"},{"indexed":false,"internalType":"enum MEVProtectorAdvanced.ProtectionStrategy","name":"strategy","type":"uint8"}],"name":"ProtectionActivated","type":"event"},{"anonymous":false,"inputs":[{"indexed":true,"internalType":"address","name":"user","type":"address"},{"indexed":true,"internalType":"address","name":"tokenIn","type":"address"},{"indexed":true,"internalType":"address","name":"tokenOut","type":"address"},{"indexed":false,"internalType":"uint256","name":"amountIn","type":"uint256"},{"indexed":false,"internalType":"uint256","name":"amountOut","type":"uint256"},{"indexed":false,"internalType":"uint256","name":"protectionFee","type":"uint256"}],"name":"SwapProtected","type":"event"},{"anonymous":false,"inputs":[{"indexed":true,"internalType":"address","name":"user","type":"address"},{"indexed":true,"internalType":"bytes32","name":"feedId","type":"bytes32"},{"indexed":false,"internalType":"enum MEVDetector.ThreatType","name":"threatType","type":"uint8"},{"indexed":false,"internalType":"uint256","name":"riskScore","type":"uint256"},{"indexed":false,"internalType":"enum MEVProtectorAdvanced.ProtectionStrategy","name":"strategy","type":"uint8"}],"name":"ThreatMitigated","type":"event"},{"stateMutability":"payable","type":"fallback"},{"inputs":[{"internalType":"address","name":"token","type":"address"}],"name":"addWhitelistedToken","outputs":[],"stateMutability":"nonpayable","type":"function"},{"inputs":[{"internalType":"enum MEVProtectorAdvanced.ProtectionStrategy","name":"strategy","type":"uint8"},{"internalType":"uint256","name":"maxSlippage","type":"uint256"},{"internalType":"uint256","name":"gasLimit","type":"uint256"},{"internalType":"bool","name":"whitelistMode","type":"bool"}],"name":"configureProtection","outputs":[],"stateMutability":"nonpayable","type":"function"},{"inputs":[],"name":"detector","outputs":[{"internalType":"contract MEVDetector","name":"","type":"address"}],"stateMutability":"view","type":"function"},{"inputs":[{"internalType":"address","name":"user","type":"address"},{"internalType":"string","name":"reason","type":"string"}],"name":"emergencyStop","outputs":[],"stateMutability":"nonpayable","type":"function"},{"inputs":[{"internalType":"address","name":"token","type":"address"},{"internalType":"uint256","name":"amount","type":"uint256"}],"name":"emergencyWithdraw","outputs":[],"stateMutability":"nonpayable","type":"function"},{"inputs":[],"name":"getGlobalStats","outputs":[{"components":[{"internalType":"uint256","name":"totalProtectedSwaps","type":"uint256"},{"internalType":"uint256","name":"threatsDetected","type":"uint256"},{"internalType":"uint256","name":"threatsBlocked","type":"uint256"},{"internalType":"uint256","name":"totalValueProtected","type":"uint256"},{"internalType":"uint256","name":"feesCollected","type":"uint256"}],"internalType":"struct MEVProtectorAdvanced.ProtectionStats","name":"","type":"tuple"}],"stateMutability":"view","type":"function"},{"inputs":[{"internalType":"bytes32","name":"feedId","type":"bytes32"}],"name":"getPriceDelay","outputs":[{"internalType":"uint256","name":"","type":"uint256"}],"stateMutability":"view","type":"function"},{"inputs":[{"internalType":"address","name":"user","type":"address"}],"name":"getUserConfig","outputs":[{"components":[{"internalType":"bool","name":"isActive","type":"bool"},{"internalType":"enum MEVProtectorAdvanced.ProtectionStrategy","name":"strategy","type":"uint8"},{"internalType":"uint256","name":"maxSlippage","type":"uint256"},{"internalType":"uint256","name":"gasLimit","type":"uint256"},{"internalType":"bool","name":"whitelistMode","type":"bool"}],"internalType":"struct MEVProtectorAdvanced.ProtectionConfig","name":"","type":"tuple"}],"stateMutability":"view","type":"function"},{"inputs":[{"internalType":"address","name":"user","type":"address"}],"name":"getUserStats","outputs":[{"components":[{"internalType":"uint256","name":"totalProtectedSwaps","type":"uint256"},{"internalType":"uint256","name":"threatsDetected","type":"uint256"},{"internalType":"uint256","name":"threatsBlocked","type":"uint256"},{"internalType":"uint256","name":"totalValueProtected","type":"uint256"},{"internalType":"uint256","name":"feesCollected","type":"uint256"}],"internalType":"struct MEVProtectorAdvanced.ProtectionStats","name":"","type":"tuple"}],"stateMutability":"view","type":"function"},{"inputs":[],"name":"globalStats","outputs":[{"internalType":"uint256","name":"totalProtectedSwaps","type":"uint256"},{"internalType":"uint256","name":"threatsDetected","type":"uint256"},{"internalType":"uint256","name":"threatsBlocked","type":"uint256"},{"internalType":"uint256","name":"totalValueProtected","type":"uint256"},{"internalType":"uint256","name":"feesCollected","type":"uint256"}],"stateMutability":"view","type":"function"},{"inputs":[{"internalType":"address","name":"token","type":"address"}],"name":"isTokenWhitelisted","outputs":[{"internalType":"bool","name":"","type":"bool"}],"stateMutability":"view","type":"function"},{"inputs":[],"name":"maxProtectionFee","outputs":[{"internalType":"uint256","name":"","type":"uint256"}],"stateMutability":"view","type":"function"},{"inputs":[],"name":"owner","outputs":[{"internalType":"address","name":"","type":"address"}],"stateMutability":"view","type":"function"},{"inputs":[{"internalType":"bytes32","name":"","type":"bytes32"}],"name":"priceDelays","outputs":[{"internalType":"uint256","name":"","type":"uint256"}],"stateMutability":"view","type":"function"},{"inputs":[{"components":[{"internalType":"address","name":"tokenIn","type":"address"},{"internalType":"address","name":"tokenOut","type":"address"},{"internalType":"uint256","name":"amountIn","type":"uint256"},{"internalType":"uint256","name":"minAmountOut","type":"uint256"},{"internalType":"bytes32","name":"pricefeedId","type":"bytes32"},{"internalType":"uint256","name":"deadline","type":"uint256"},{"internalType":"address","name":"recipient","type":"address"}],"internalType":"struct MEVProtectorAdvanced.SwapParams","name":"params","type":"tuple"}],"name":"protectSwap","outputs":[{"internalType":"bool","name":"success","type":"bool"},{"internalType":"uint256","name":"amountOut","type":"uint256"}],"stateMutability":"payable","type":"function"},{"inputs":[],"name":"protectionFee","outputs":[{"internalType":"uint256","name":"","type":"uint256"}],"stateMutability":"view","type":"function"},{"inputs":[{"internalType":"address","name":"token","type":"address"}],"name":"removeWhitelistedToken","outputs":[],"stateMutability":"nonpayable","type":"function"},{"inputs":[],"name":"renounceOwnership","outputs":[],"stateMutability":"nonpayable","type":"function"},{"inputs":[{"internalType":"uint256","name":"newFee","type":"uint256"}],"name":"setProtectionFee","outputs":[],"stateMutability":"nonpayable","type":"function"},{"inputs":[{"internalType":"address","name":"newTreasury","type":"address"}],"name":"setTreasury","outputs":[],"stateMutability":"nonpayable","type":"function"},{"inputs":[{"internalType":"address","name":"newOwner","type":"address"}],"name":"transferOwnership","outputs":[],"stateMutability":"nonpayable","type":"function"},{"inputs":[],"name":"treasury","outputs":[{"internalType":"address","name":"","type":"address"}],"stateMutability":"view","type":"function"},{"inputs":[{"internalType":"address","name":"newDetector","type":"address"}],"name":"updateDetector","outputs":[],"stateMutability":"nonpayable","type":"function"},{"inputs":[{"internalType":"address","name":"","type":"address"}],"name":"userConfigs","outputs":[{"internalType":"bool","name":"isActive","type":"bool"},{"internalType":"enum MEVProtectorAdvanced.ProtectionStrategy","name":"strategy","type":"uint8"},{"internalType":"uint256","name":"maxSlippage","type":"uint256"},{"internalType":"uint256","name":"gasLimit","type":"uint256"},{"internalType":"bool","name":"whitelistMode","type":"bool"}],"stateMutability":"view","type":"function"},{"inputs":[{"internalType":"address","name":"","type":"address"}],"name":"userStats","outputs":[{"internalType":"uint256","name":"totalProtectedSwaps","type":"uint256"},{"internalType":"uint256","name":"threatsDetected","type":"uint256"},{"internalType":"uint256","name":"threatsBlocked","type":"uint256"},{"internalType":"uint256","name":"totalValueProtected","type":"uint256"},{"internalType":"uint256","name":"feesCollected","type":"uint256"}],"stateMutability":"view","type":"function"},{"inputs":[{"internalType":"address","name":"","type":"address"}],"name":"whitelistedTokens","outputs":[{"internalType":"bool","name":"","type":"bool"}],"stateMutability":"view","type":"function"},{"stateMutability":"payable","type":"receive"}],"evm":{"bytecode":{"linkReferences":{},"object":"6080346200011857620017c6906001600160401b03601f38849003908101601f1916830190828211848310176200011d578084916040968794855283398101031262000118576200005e6020620000568462000133565b930162000133565b9160009260018455620000713362000148565b60646004556101f4600555600280546001600160a01b039384166001600160a01b03199182161790915560038054929093169116179055620000b33362000148565b82519060a08201908111828210176200010457829160809185528281528260208201528285820152826060820152015280600a5580600b5580600c5580600d55600e55516116349081620001928239f35b634e487b7160e01b83526041600452602483fd5b600080fd5b634e487b7160e01b600052604160045260246000fd5b51906001600160a01b03821682036200011857565b600180546001600160a01b039283166001600160a01b0319821681179092559091167f8be0079c531659141344cd1fd0a4f28419497f9722a3daafe3b4186f6b6457e0600080a356fe6040608081526004908136101561001d575b5050361561001b57005b005b600091823560e01c806316626ab914610bb75780631a7af54a14610b335780631c88705d14610b77578063207f4bee14610b5a5780632682a8fb14610b33578063363cb34d14610af057806336ab059214610a705780634e43603a146109c85780635b0f93171461096b57806361d027b3146109425780636b4169c3146108ba578063715018a61461085d5780638a65d874146107e95780638a855a74146106475780638da5cb5b1461061e5783816395ccea671461052e57508063b5af090f1461030d578063b899dd7c146104b2578063bd9ce64814610493578063c2200e3c14610419578063ce01730a1461034b578063daf9c2101461030d578063e4dc4efc146102c0578063e4e20d6314610293578063f0f44260146102135763f2fde38b1461014a5750610011565b3461020f57602036600319011261020f57610163610c70565b9061016c610cab565b6001600160a01b039182169283156101bd575050600154826001600160601b0360a01b821617600155167f8be0079c531659141344cd1fd0a4f28419497f9722a3daafe3b4186f6b6457e08380a380f35b906020608492519162461bcd60e51b8352820152602660248201527f4f776e61626c653a206e6577206f776e657220697320746865207a65726f206160448201526564647265737360d01b6064820152fd5b8280fd5b503461020f57602036600319011261020f5761022d610c70565b610235610cab565b6001600160a01b031691821561025d5750506001600160601b0360a01b600354161760035580f35b906020606492519162461bcd60e51b8352820152601060248201526f496e76616c696420747265617375727960801b6044820152fd5b5050346102bc57816003193601126102bc5760025490516001600160a01b039091168152602090f35b5080fd5b82843461030a578060031936011261030a5750600a54600b54600c54600d54600e549451938452602084019290925260408301526060820152608081019190915260a090f35b0390f35b80fd5b5050346102bc5760203660031901126102bc5760209160ff9082906001600160a01b03610338610c70565b1681526008855220541690519015158152f35b50903461020f578060031936011261020f57610365610c70565b6024359167ffffffffffffffff93848411610415573660238501121561041557830135938411610411573660248585010111610411577f1563b77cf90dc5239369e59f415971492f0001ebea4f20a7f58d55eb638b5504926024926103c8610cab565b60018060a01b031694858752600660205282872060ff1981541690558083519485936020855282602086015201848401378181018301879052601f01601f19168101030190a280f35b8480fd5b8580fd5b5050346102bc5760203660031901126102bc5760a09181906001600160a01b03610441610c70565b1681526006602052209081549160ff8360081c169160018201549060ff60036002850154940154169360ff825196161515865261047d81610c8b565b6020860152840152606083015215156080820152f35b5050346102bc57816003193601126102bc576020906005549051908152f35b50829060e03660031901126102bc5760028254146104eb57506002815560016104d9610dda565b91909255825191151582526020820152f35b606490602084519162461bcd60e51b8352820152601f60248201527f5265656e7472616e637947756172643a207265656e7472616e742063616c6c006044820152fd5b919050346102bc57826003193601126102bc57610549610c70565b60243591610555610cab565b6001600160a01b03918216908161059657505082809281926001541682821561058d575bf115610583575080f35b51903d90823e3d90fd5b506108fc610579565b600154865163a9059cbb60e01b815293166001600160a01b03169083019081526020808201949094529194938592839190829060400103925af190811561061557506105e0575080f35b6020813d821161060d575b816105f860209383610d35565b810103126102bc5761060990610d9b565b5080f35b3d91506105eb565b513d84823e3d90fd5b5050346102bc57816003193601126102bc5760015490516001600160a01b039091168152602090f35b50903461020f57608036600319011261020f57813591808310156107e5576024359060443590606435908115158092036107e1576103e884116107aa57620186a083106107735750839291600361075a927f9004b23454d66e9fa27ec483da407e6f3cd2a1b42f3ffe32ab8869b6788001b39651926106c584610d03565b60018452602084016106d68a610c8b565b898152878501908782526060860192835260808601938452338c526006602052610712898d2096511515879060ff801983541691151516179055565b5161071c81610c8b565b61072581610c8b565b61ff0086549160081b169061ff00191617855551600185015551600284015551151591019060ff801983541691151516179055565b81519361076681610c8b565b845260208401523392a280f35b606490602086519162461bcd60e51b83528201526011602482015270476173206c696d697420746f6f206c6f7760781b6044820152fd5b606490602086519162461bcd60e51b835282015260116024820152700a6d8d2e0e0c2ceca40e8dede40d0d2ced607b1b6044820152fd5b8680fd5b8380fd5b50913461030a57602036600319011261030a576103069082906001600160a01b03610812610c70565b1681526007602052209182549260018101549460028201549060038301549201549251958695869192608093969594919660a084019784526020840152604083015260608201520152565b833461030a578060031936011261030a57610876610cab565b600180546001600160a01b0319811690915581906001600160a01b03167f8be0079c531659141344cd1fd0a4f28419497f9722a3daafe3b4186f6b6457e08280a380f35b5050346102bc57816003193601126102bc57610306906108d86115d3565b508051906108e582610d03565b600a548252600b546020830152600c5481830152600d546060830152600e546080830152519182918291909160808060a0830194805184526020810151602085015260408101516040850152606081015160608501520151910152565b5050346102bc57816003193601126102bc5760035490516001600160a01b039091168152602090f35b503461020f57602036600319011261020f57803591610988610cab565b600554831161099657505580f35b906020606492519162461bcd60e51b8352820152600c60248201526b08ccaca40e8dede40d0d2ced60a31b6044820152fd5b50903461020f57602036600319011261020f5780610306936109e8610c70565b6109f06115d3565b506001600160a01b0316815260076020522081519290610a0f84610d03565b80548452600181015460208501526002810154838501526003810154606085015201546080830152519182918291909160808060a0830194805184526020810151602085015260408101516040850152606081015160608501520151910152565b503461020f57602036600319011261020f57610a8a610c70565b610a92610cab565b6001600160a01b0316918215610aba5750506001600160601b0360a01b600254161760025580f35b906020606492519162461bcd60e51b8352820152601060248201526f24b73b30b634b2103232ba32b1ba37b960811b6044820152fd5b5050346102bc5760203660031901126102bc57610b0b610c70565b610b13610cab565b6001600160a01b0316825260086020528120805460ff1916600117905580f35b503461020f57602036600319011261020f5760209282913581526009845220549051908152f35b503461020f578260031936011261020f5760209250549051908152f35b5050346102bc5760203660031901126102bc57610b92610c70565b610b9a610cab565b6001600160a01b0316825260086020528120805460ff1916905580f35b5050346102bc5760203660031901126102bc578060a092610bd6610c70565b610bde6115d3565b50600180861b0316815260066020522090805191610bfb83610d03565b60ff81548181161515855260081c16916020840192610c1981610c8b565b8352600182015481850190815260ff60036002850154946060880195865201541693608086019415158552825195511515865251610c5681610c8b565b602086015251908401525160608301525115156080820152f35b600435906001600160a01b0382168203610c8657565b600080fd5b60041115610c9557565b634e487b7160e01b600052602160045260246000fd5b6001546001600160a01b03163303610cbf57565b606460405162461bcd60e51b815260206004820152602060248201527f4f776e61626c653a2063616c6c6572206973206e6f7420746865206f776e65726044820152fd5b60a0810190811067ffffffffffffffff821117610d1f57604052565b634e487b7160e01b600052604160045260246000fd5b90601f8019910116810190811067ffffffffffffffff821117610d1f57604052565b15610d5e57565b60405162461bcd60e51b8152602060048201526015602482015274151bdad95b881b9bdd081dda1a5d195b1a5cdd1959605a1b6044820152606490fd5b51908115158203610c8657565b6000198114610db75760010190565b634e487b7160e01b600052601160045260246000fd5b91908201809211610db757565b4260a43510611232576044359081156111fc576000913383526020600681526040938481209260ff9586855416156111b95786600386015416611169575b60018060a01b039384600254169760843596876024848c875192838092630b0f222760e11b825260049e8f8301525afa90811561101e57889161113c575b5085519b8c9163db14839760e01b8352838c84015260248301523a604483015260609c8d91818b5a92606493f1801561101e578889928a926110ee575b50610e9f600a54610da8565b600a55338a5260078752878a20610eb68154610da8565b9055611031575b505050610ec981611301565b9a819991610f30575b50359587871680970361030a5760243597881680980361030a5750907fc1f1795ae4acb647f280e7b327456fc183dcf9b0b2aa91489025ef188cd48bad9392915460081c16908251948552610f2682610c8b565b8401523392a49190565b612710610f3e8354896112ee565b0490888a8380341015610ffe575b5050508235908a8216809203610ffa57610f6889600d54610dcd565b600d55610f7783600e54610dcd565b600e55338a52600787526003888b2001610f928a8254610dcd565b9055338a526007875283888b2001610fab848254610dcd565b9055602435928b8416809403610ff6578e917fb6389792332e8402cfc015f71558f4578fce3ab90c5e7bb2312fcb6de213b1cc918a51938c85528a8501528a8401523392a438610ed2565b8a80fd5b8980fd5b82809291819260035416828215611028575bf11561101e57888a83610f4c565b86513d8a823e3d90fd5b506108fc611010565b61103c600b54610da8565b600b55338952600786526001878a20016110568154610da8565b9055611069818387875460081c16611266565b15610ebd57939291995097507f739471936103e955bbfd4ded5f16cba877669bce0d9e5a83e4314f11209b86d4969a95506110a8600c95949554610da8565b600c55338b52600785526002848c20016110c28154610da8565b90555460081c16928251966110d681610c8b565b87528601526110e482610c8b565b8401523392a38190565b925050508b81813d8311611135575b6111078183610d35565b810103126111315761111881610d9b565b9085810151908b821015610ffa57870151909138610e93565b8780fd5b503d6110fd565b90508481813d8311611162575b6111538183610d35565b81010312611131575138610e56565b503d611149565b6001600160a01b036004358181169081900361041157845260088552611193888386205416610d57565b6024359081168091036107e5578352600884526111b4878285205416610d57565b610e18565b5162461bcd60e51b815260048101849052601960248201527f50726f74656374696f6e206e6f7420636f6e66696775726564000000000000006044820152606490fd5b60405162461bcd60e51b815260206004820152600e60248201526d125b9d985b1a5908185b5bdd5b9d60921b6044820152606490fd5b60405162461bcd60e51b815260206004820152600c60248201526b14ddd85c08195e1c1a5c995960a21b6044820152606490fd5b61126f81610c8b565b8061127c57505050600190565b61128581610c8b565b6001810361129557505050600090565b61129e81610c8b565b600281036112d057506112ba916112b491611564565b42610dcd565b6084356000526009602052604060002055600190565b9050600391506112df81610c8b565b146112e957600090565b600090565b81810292918115918404141715610db757565b6001600160a01b03600480358281169493929190859003610c86576044356040908151966323b872dd60e01b88523384890152306024890152816044890152602093600096858a6064818b875af180156115255761152f575b6024995085876002541686519b8c8092630b0f222760e11b8252608435878301525afa998a1561152557889a6114f6575b50670de0b6b3a7640000806113a08c876112ee565b049a6064358c106114bc576113b590866112ee565b048a8111156114b2578a810381811161149f57612710808202918204148c8314171561149f57811561148c5704906001905b01541061140557505050505060c4359081160361030a575060019190565b835163a9059cbb60e01b815233918101918252602082019390935295975090949293509091839185918290899082906040015b03925af1908115611483575061144f575b50508190565b81813d831161147c575b6114638183610d35565b8101031261020f5761147490610d9b565b503880611449565b503d611459565b513d86823e3d90fd5b634e487b7160e01b8a526012845260248afd5b634e487b7160e01b8a526011845260248afd5b50600188916113e7565b5050845163a9059cbb60e01b8152339281019283526020830194909452509597509094929350909183918591829089908290604001611438565b9099508581813d831161151e575b61150e8183610d35565b810103126111315751983861138b565b503d611504565b85513d8a823e3d90fd5b858a813d831161155d575b6115448183610d35565b810103126111315761155760249a610d9b565b5061135a565b503d61153a565b61156d81610c8b565b80611585575060649004601e0180601e11610db75790565b61158e81610c8b565b600181036115a9575060c89004600f0180600f11610db75790565b806115b5600292610c8b565b146115c05750600a90565b6101f4900460050180600511610db75790565b604051906115e082610d03565b6000608083828152826020820152826040820152826060820152015256fea264697066735822122042562dd782dae287c65bc8adf7ea5a2eec5691e097a434042cdce189a26a7f3a64736f6c63430008140033","opcodes":"PUSH1 0x80 CALLVALUE PUSH3 0x118 JUMPI PUSH3 0x17C6 SWAP1 PUSH1 0x1 PUSH1 0x1 PUSH1 0x40 SHL SUB PUSH1 0x1F CODESIZE DUP5 SWAP1 SUB SWAP1 DUP2 ADD PUSH1 0x1F NOT AND DUP4 ADD SWAP1 DUP3 DUP3 GT DUP5 DUP4 LT OR PUSH3 0x11D JUMPI DUP1 DUP5 SWAP2 PUSH1 0x40 SWAP7 DUP8 SWAP5 DUP6 MSTORE DUP4 CODECOPY DUP2 ADD SUB SLT PUSH3 0x118 JUMPI PUSH3 0x5E PUSH1 0x20 PUSH3 0x56 DUP5 PUSH3 0x133 JUMP JUMPDEST SWAP4 ADD PUSH3 0x133 JUMP JUMPDEST SWAP2 PUSH1 0x0 SWAP3 PUSH1 0x1 DUP5 SSTORE PUSH3 0x71 CALLER PUSH3 0x148 JUMP JUMPDEST PUSH1 0x64 PUSH1 0x4 SSTORE PUSH2 0x1F4 PUSH1 0x5 SSTORE PUSH1 0x2 DUP1 SLOAD PUSH1 0x1 PUSH1 0x1 PUSH1 0xA0 SHL SUB SWAP4 DUP5 AND PUSH1 0x1 PUSH1 0x1 PUSH1 0xA0 SHL SUB NOT SWAP2 DUP3 AND OR SWAP1 SWAP2 SSTORE PUSH1 0x3 DUP1 SLOAD SWAP3 SWAP1 SWAP4 AND SWAP2 AND OR SWAP1 SSTORE PUSH3 0xB3 CALLER PUSH3 0x148 JUMP JUMPDEST DUP3 MLOAD SWAP1 PUSH1 0xA0 DUP3 ADD SWAP1 DUP2 GT DUP3 DUP3 LT OR PUSH3 0x104 JUMPI DUP3 SWAP2 PUSH1 0x80 SWAP2 DUP6 MSTORE DUP3 DUP2 MSTORE DUP3 PUSH1 0x20 DUP3 ADD MSTORE DUP3 DUP6 DUP3 ADD MSTORE DUP3 PUSH1 0x60 DUP3 ADD MSTORE ADD MSTORE DUP1 PUSH1 0xA SSTORE DUP1 PUSH1 0xB SSTORE DUP1 PUSH1 0xC SSTORE DUP1 PUSH1 0xD SSTORE PUSH1 0xE SSTORE MLOAD PUSH2 0x1634 SWAP1 DUP2 PUSH3 0x192 DUP3 CODECOPY RETURN JUMPDEST PUSH4 0x4E487B71 PUSH1 0xE0 SHL DUP4 MSTORE PUSH1 0x41 PUSH1 0x4 MSTORE PUSH1 0x24 DUP4 REVERT JUMPDEST PUSH1 0x0 DUP1 REVERT JUMPDEST PUSH4 0x4E487B71 PUSH1 0xE0 SHL PUSH1 0x0 MSTORE PUSH1 0x41 PUSH1 0x4 MSTORE PUSH1 0x24 PUSH1 0x0 REVERT JUMPDEST MLOAD SWAP1 PUSH1 0x1 PUSH1 0x1 PUSH1 0xA0 SHL SUB DUP3 AND DUP3 SUB PUSH3 0x118 JUMPI JUMP JUMPDEST PUSH1 0x1 DUP1 SLOAD PUSH1 0x1 PUSH1 0x1 PUSH1 0xA0 SHL SUB SWAP3 DUP4 AND PUSH1 0x1 PUSH1 0x1 PUSH1 0xA0 SHL SUB NOT DUP3 AND DUP2 OR SWAP1 SWAP3 SSTORE SWAP1 SWAP2 AND PUSH32 0x8BE0079C531659141344CD1FD0A4F28419497F9722A3DAAFE3B4186F6B6457E0 PUSH1 0x0 DUP1 LOG3 JUMP INVALID PUSH1 0x40 PUSH1 0x80 DUP2 MSTORE PUSH1 0x4 SWAP1 DUP2 CALLDATASIZE LT ISZERO PUSH2 0x1D JUMPI JUMPDEST POP POP CALLDATASIZE ISZERO PUSH2 0x1B JUMPI STOP JUMPDEST STOP JUMPDEST PUSH1 0x0 SWAP2 DUP3 CALLDATALOAD PUSH1 0xE0 SHR DUP1 PUSH4 0x16626AB9 EQ PUSH2 0xBB7 JUMPI DUP1 PUSH4 0x1A7AF54A EQ PUSH2 0xB33 JUMPI DUP1 PUSH4 0x1C88705D EQ PUSH2 0xB77 JUMPI DUP1 PUSH4 0x207F4BEE EQ PUSH2 0xB5A JUMPI DUP1 PUSH4 0x2682A8FB EQ PUSH2 0xB33 JUMPI DUP1 PUSH4 0x363CB34D EQ PUSH2 0xAF0 JUMPI DUP1 PUSH4 0x36AB0592 EQ PUSH2 0xA70 JUMPI DUP1 PUSH4 0x4E43603A EQ PUSH2 0x9C8 JUMPI DUP1 PUSH4 0x5B0F9317 EQ PUSH2 0x96B JUMPI DUP1 PUSH4 0x61D027B3 EQ PUSH2 0x942 JUMPI DUP1 PUSH4 0x6B4169C3 EQ PUSH2 0x8BA JUMPI DUP1 PUSH4 0x715018A6 EQ PUSH2 0x85D JUMPI DUP1 PUSH4 0x8A65D874 EQ PUSH2 0x7E9 JUMPI DUP1 PUSH4 0x8A855A74 EQ PUSH2 0x647 JUMPI DUP1 PUSH4 0x8DA5CB5B EQ PUSH2 0x61E JUMPI DUP4 DUP2 PUSH4 0x95CCEA67 EQ PUSH2 0x52E JUMPI POP DUP1 PUSH4 0xB5AF090F EQ PUSH2 0x30D JUMPI DUP1 PUSH4 0xB899DD7C EQ PUSH2 0x4B2 JUMPI DUP1 PUSH4 0xBD9CE648 EQ PUSH2 0x493 JUMPI DUP1 PUSH4 0xC2200E3C EQ PUSH2 0x419 JUMPI DUP1 PUSH4 0xCE01730A EQ PUSH2 0x34B JUMPI DUP1 PUSH4 0xDAF9C210 EQ PUSH2 0x30D JUMPI DUP1 PUSH4 0xE4DC4EFC EQ PUSH2 0x2C0 JUMPI DUP1 PUSH4 0xE4E20D63 EQ PUSH2 0x293 JUMPI DUP1 PUSH4 0xF0F44260 EQ PUSH2 0x213 JUMPI PUSH4 0xF2FDE38B EQ PUSH2 0x14A JUMPI POP PUSH2 0x11 JUMP JUMPDEST CALLVALUE PUSH2 0x20F JUMPI PUSH1 0x20 CALLDATASIZE PUSH1 0x3 NOT ADD SLT PUSH2 0x20F JUMPI PUSH2 0x163 PUSH2 0xC70 JUMP JUMPDEST SWAP1 PUSH2 0x16C PUSH2 0xCAB JUMP JUMPDEST PUSH1 0x1 PUSH1 0x1 PUSH1 0xA0 SHL SUB SWAP2 DUP3 AND SWAP3 DUP4 ISZERO PUSH2 0x1BD JUMPI POP POP PUSH1 0x1 SLOAD DUP3 PUSH1 0x1 PUSH1 0x1 PUSH1 0x60 SHL SUB PUSH1 0xA0 SHL DUP3 AND OR PUSH1 0x1 SSTORE AND PUSH32 0x8BE0079C531659141344CD1FD0A4F28419497F9722A3DAAFE3B4186F6B6457E0 DUP4 DUP1 LOG3 DUP1 RETURN JUMPDEST SWAP1 PUSH1 0x20 PUSH1 0x84 SWAP3 MLOAD SWAP2 PUSH3 0x461BCD PUSH1 0xE5 SHL DUP4 MSTORE DUP3 ADD MSTORE PUSH1 0x26 PUSH1 0x24 DUP3 ADD MSTORE PUSH32 0x4F776E61626C653A206E6577206F776E657220697320746865207A65726F2061 PUSH1 0x44 DUP3 ADD MSTORE PUSH6 0x646472657373 PUSH1 0xD0 SHL PUSH1 0x64 DUP3 ADD MSTORE REVERT JUMPDEST DUP3 DUP1 REVERT JUMPDEST POP CALLVALUE PUSH2 0x20F JUMPI PUSH1 0x20 CALLDATASIZE PUSH1 0x3 NOT ADD SLT PUSH2 0x20F JUMPI PUSH2 0x22D PUSH2 0xC70 JUMP JUMPDEST PUSH2 0x235 PUSH2 0xCAB JUMP JUMPDEST PUSH1 0x1 PUSH1 0x1 PUSH1 0xA0 SHL SUB AND SWAP2 DUP3 ISZERO PUSH2 0x25D JUMPI POP POP PUSH1 0x1 PUSH1 0x1 PUSH1 0x60 SHL SUB PUSH1 0xA0 SHL PUSH1 0x3 SLOAD AND OR PUSH1 0x3 SSTORE DUP1 RETURN JUMPDEST SWAP1 PUSH1 0x20 PUSH1 0x64 SWAP3 MLOAD SWAP2 PUSH3 0x461BCD PUSH1 0xE5 SHL DUP4 MSTORE DUP3 ADD MSTORE PUSH1 0x10 PUSH1 0x24 DUP3 ADD MSTORE PUSH16 0x496E76616C6964207472656173757279 PUSH1 0x80 SHL PUSH1 0x44 DUP3 ADD MSTORE REVERT JUMPDEST POP POP CALLVALUE PUSH2 0x2BC JUMPI DUP2 PUSH1 0x3 NOT CALLDATASIZE ADD SLT PUSH2 0x2BC JUMPI PUSH1 0x2 SLOAD SWAP1 MLOAD PUSH1 0x1 PUSH1 0x1 PUSH1 0xA0 SHL SUB SWAP1 SWAP2 AND DUP2 MSTORE PUSH1 0x20 SWAP1 RETURN JUMPDEST POP DUP1 REVERT JUMPDEST DUP3 DUP5 CALLVALUE PUSH2 0x30A JUMPI DUP1 PUSH1 0x3 NOT CALLDATASIZE ADD SLT PUSH2 0x30A JUMPI POP PUSH1 0xA SLOAD PUSH1 0xB SLOAD PUSH1 0xC SLOAD PUSH1 0xD SLOAD PUSH1 0xE SLOAD SWAP5 MLOAD SWAP4 DUP5 MSTORE PUSH1 0x20 DUP5 ADD SWAP3 SWAP1 SWAP3 MSTORE PUSH1 0x40 DUP4 ADD MSTORE PUSH1 0x60 DUP3 ADD MSTORE PUSH1 0x80 DUP2 ADD SWAP2 SWAP1 SWAP2 MSTORE PUSH1 0xA0 SWAP1 RETURN JUMPDEST SUB SWAP1 RETURN JUMPDEST DUP1 REVERT JUMPDEST POP POP CALLVALUE PUSH2 0x2BC JUMPI PUSH1 0x20 CALLDATASIZE PUSH1 0x3 NOT ADD SLT PUSH2 0x2BC JUMPI PUSH1 0x20 SWAP2 PUSH1 0xFF SWAP1 DUP3 SWAP1 PUSH1 0x1 PUSH1 0x1 PUSH1 0xA0 SHL SUB PUSH2 0x338 PUSH2 0xC70 JUMP JUMPDEST AND DUP2 MSTORE PUSH1 0x8 DUP6 MSTORE KECCAK256 SLOAD AND SWAP1 MLOAD SWAP1 ISZERO ISZERO DUP2 MSTORE RETURN JUMPDEST POP SWAP1 CALLVALUE PUSH2 0x20F JUMPI DUP1 PUSH1 0x3 NOT CALLDATASIZE ADD SLT PUSH2 0x20F JUMPI PUSH2 0x365 PUSH2 0xC70 JUMP JUMPDEST PUSH1 0x24 CALLDATALOAD SWAP2 PUSH8 0xFFFFFFFFFFFFFFFF SWAP4 DUP5 DUP5 GT PUSH2 0x415 JUMPI CALLDATASIZE PUSH1 0x23 DUP6 ADD SLT ISZERO PUSH2 0x415 JUMPI DUP4 ADD CALLDATALOAD SWAP4 DUP5 GT PUSH2 0x411 JUMPI CALLDATASIZE PUSH1 0x24 DUP6 DUP6 ADD ADD GT PUSH2 0x411 JUMPI PUSH32 0x1563B77CF90DC5239369E59F415971492F0001EBEA4F20A7F58D55EB638B5504 SWAP3 PUSH1 0x24 SWAP3 PUSH2 0x3C8 PUSH2 0xCAB JUMP JUMPDEST PUSH1 0x1 DUP1 PUSH1 0xA0 SHL SUB AND SWAP5 DUP6 DUP8 MSTORE PUSH1 0x6 PUSH1 0x20 MSTORE DUP3 DUP8 KECCAK256 PUSH1 0xFF NOT DUP2 SLOAD AND SWAP1 SSTORE DUP1 DUP4 MLOAD SWAP5 DUP6 SWAP4 PUSH1 0x20 DUP6 MSTORE DUP3 PUSH1 0x20 DUP7 ADD MSTORE ADD DUP5 DUP5 ADD CALLDATACOPY DUP2 DUP2 ADD DUP4 ADD DUP8 SWAP1 MSTORE PUSH1 0x1F ADD PUSH1 0x1F NOT AND DUP2 ADD SUB ADD SWAP1 LOG2 DUP1 RETURN JUMPDEST DUP5 DUP1 REVERT JUMPDEST DUP6 DUP1 REVERT JUMPDEST POP POP CALLVALUE PUSH2 0x2BC JUMPI PUSH1 0x20 CALLDATASIZE PUSH1 0x3 NOT ADD SLT PUSH2 0x2BC JUMPI PUSH1 0xA0 SWAP2 DUP2 SWAP1 PUSH1 0x1 PUSH1 0x1 PUSH1 0xA0 SHL SUB PUSH2 0x441 PUSH2 0xC70 JUMP JUMPDEST AND DUP2 MSTORE PUSH1 0x6 PUSH1 0x20 MSTORE KECCAK256 SWAP1 DUP2 SLOAD SWAP2 PUSH1 0xFF DUP4 PUSH1 0x8 SHR AND SWAP2 PUSH1 0x1 DUP3 ADD SLOAD SWAP1 PUSH1 0xFF PUSH1 0x3 PUSH1 0x2 DUP6 ADD SLOAD SWAP5 ADD SLOAD AND SWAP4 PUSH1 0xFF DUP3 MLOAD SWAP7 AND ISZERO ISZERO DUP7 MSTORE PUSH2 0x47D DUP2 PUSH2 0xC8B JUMP JUMPDEST PUSH1 0x20 DUP7 ADD MSTORE DUP5 ADD MSTORE PUSH1 0x60 DUP4 ADD MSTORE ISZERO ISZERO PUSH1 0x80 DUP3 ADD MSTORE RETURN JUMPDEST POP POP CALLVALUE PUSH2 0x2BC JUMPI DUP2 PUSH1 0x3 NOT CALLDATASIZE ADD SLT PUSH2 0x2BC JUMPI PUSH1 0x20 SWAP1 PUSH1 0x5 SLOAD SWAP1 MLOAD SWAP1 DUP2 MSTORE RETURN JUMPDEST POP DUP3 SWAP1 PUSH1 0xE0 CALLDATASIZE PUSH1 0x3 NOT ADD SLT PUSH2 0x2BC JUMPI PUSH1 0x2 DUP3 SLOAD EQ PUSH2 0x4EB JUMPI POP PUSH1 0x2 DUP2 SSTORE PUSH1 0x1 PUSH2 0x4D9 PUSH2 0xDDA JUMP JUMPDEST SWAP2 SWAP1 SWAP3 SSTORE DUP3 MLOAD SWAP2 ISZERO ISZERO DUP3 MSTORE PUSH1 0x20 DUP3 ADD MSTORE RETURN JUMPDEST PUSH1 0x64 SWAP1 PUSH1 0x20 DUP5 MLOAD SWAP2 PUSH3 0x461BCD PUSH1 0xE5 SHL DUP4 MSTORE DUP3 ADD MSTORE PUSH1 0x1F PUSH1 0x24 DUP3 ADD MSTORE PUSH32 0x5265656E7472616E637947756172643A207265656E7472616E742063616C6C00 PUSH1 0x44 DUP3 ADD MSTORE REVERT JUMPDEST SWAP2 SWAP1 POP CALLVALUE PUSH2 0x2BC JUMPI DUP3 PUSH1 0x3 NOT CALLDATASIZE ADD SLT PUSH2 0x2BC JUMPI PUSH2 0x549 PUSH2 0xC70 JUMP JUMPDEST PUSH1 0x24 CALLDATALOAD SWAP2 PUSH2 0x555 PUSH2 0xCAB JUMP JUMPDEST PUSH1 0x1 PUSH1 0x1 PUSH1 0xA0 SHL SUB SWAP2 DUP3 AND SWAP1 DUP2 PUSH2 0x596 JUMPI POP POP DUP3 DUP1 SWAP3 DUP2 SWAP3 PUSH1 0x1 SLOAD AND DUP3 DUP3 ISZERO PUSH2 0x58D JUMPI JUMPDEST CALL ISZERO PUSH2 0x583 JUMPI POP DUP1 RETURN JUMPDEST MLOAD SWAP1 RETURNDATASIZE SWAP1 DUP3 RETURNDATACOPY RETURNDATASIZE SWAP1 REVERT JUMPDEST POP PUSH2 0x8FC PUSH2 0x579 JUMP JUMPDEST PUSH1 0x1 SLOAD DUP7 MLOAD PUSH4 0xA9059CBB PUSH1 0xE0 SHL DUP2 MSTORE SWAP4 AND PUSH1 0x1 PUSH1 0x1 PUSH1 0xA0 SHL SUB AND SWAP1 DUP4 ADD SWAP1 DUP2 MSTORE PUSH1 0x20 DUP1 DUP3 ADD SWAP5 SWAP1 SWAP5 MSTORE SWAP2 SWAP5 SWAP4 DUP6 SWAP3 DUP4 SWAP2 SWAP1 DUP3 SWAP1 PUSH1 0x40 ADD SUB SWAP3 GAS CALL SWAP1 DUP2 ISZERO PUSH2 0x615 JUMPI POP PUSH2 0x5E0 JUMPI POP DUP1 RETURN JUMPDEST PUSH1 0x20 DUP2 RETURNDATASIZE DUP3 GT PUSH2 0x60D JUMPI JUMPDEST DUP2 PUSH2 0x5F8 PUSH1 0x20 SWAP4 DUP4 PUSH2 0xD35 JUMP JUMPDEST DUP2 ADD SUB SLT PUSH2 0x2BC JUMPI PUSH2 0x609 SWAP1 PUSH2 0xD9B JUMP JUMPDEST POP DUP1 RETURN JUMPDEST RETURNDATASIZE SWAP2 POP PUSH2 0x5EB JUMP JUMPDEST MLOAD RETURNDATASIZE DUP5 DUP3 RETURNDATACOPY RETURNDATASIZE SWAP1 REVERT JUMPDEST POP POP CALLVALUE PUSH2 0x2BC JUMPI DUP2 PUSH1 0x3 NOT CALLDATASIZE ADD SLT PUSH2 0x2BC JUMPI PUSH1 0x1 SLOAD SWAP1 MLOAD PUSH1 0x1 PUSH1 0x1 PUSH1 0xA0 SHL SUB SWAP1 SWAP2 AND DUP2 MSTORE PUSH1 0x20 SWAP1 RETURN JUMPDEST POP SWAP1 CALLVALUE PUSH2 0x20F JUMPI PUSH1 0x80 CALLDATASIZE PUSH1 0x3 NOT ADD SLT PUSH2 0x20F JUMPI DUP2 CALLDATALOAD SWAP2 DUP1 DUP4 LT ISZERO PUSH2 0x7E5 JUMPI PUSH1 0x24 CALLDATALOAD SWAP1 PUSH1 0x44 CALLDATALOAD SWAP1 PUSH1 0x64 CALLDATALOAD SWAP1 DUP2 ISZERO ISZERO DUP1 SWAP3 SUB PUSH2 0x7E1 JUMPI PUSH2 0x3E8 DUP5 GT PUSH2 0x7AA JUMPI PUSH3 0x186A0 DUP4 LT PUSH2 0x773 JUMPI POP DUP4 SWAP3 SWAP2 PUSH1 0x3 PUSH2 0x75A SWAP3 PUSH32 0x9004B23454D66E9FA27EC483DA407E6F3CD2A1B42F3FFE32AB8869B6788001B3 SWAP7 MLOAD SWAP3 PUSH2 0x6C5 DUP5 PUSH2 0xD03 JUMP JUMPDEST PUSH1 0x1 DUP5 MSTORE PUSH1 0x20 DUP5 ADD PUSH2 0x6D6 DUP11 PUSH2 0xC8B JUMP JUMPDEST DUP10 DUP2 MSTORE DUP8 DUP6 ADD SWAP1 DUP8 DUP3 MSTORE PUSH1 0x60 DUP7 ADD SWAP3 DUP4 MSTORE PUSH1 0x80 DUP7 ADD SWAP4 DUP5 MSTORE CALLER DUP13 MSTORE PUSH1 0x6 PUSH1 0x20 MSTORE PUSH2 0x712 DUP10 DUP14 KECCAK256 SWAP7 MLOAD ISZERO ISZERO DUP8 SWAP1 PUSH1 0xFF DUP1 NOT DUP4 SLOAD AND SWAP2 ISZERO ISZERO AND OR SWAP1 SSTORE JUMP JUMPDEST MLOAD PUSH2 0x71C DUP2 PUSH2 0xC8B JUMP JUMPDEST PUSH2 0x725 DUP2 PUSH2 0xC8B JUMP JUMPDEST PUSH2 0xFF00 DUP7 SLOAD SWAP2 PUSH1 0x8 SHL AND SWAP1 PUSH2 0xFF00 NOT AND OR DUP6 SSTORE MLOAD PUSH1 0x1 DUP6 ADD SSTORE MLOAD PUSH1 0x2 DUP5 ADD SSTORE MLOAD ISZERO ISZERO SWAP2 ADD SWAP1 PUSH1 0xFF DUP1 NOT DUP4 SLOAD AND SWAP2 ISZERO ISZERO AND OR SWAP1 SSTORE JUMP JUMPDEST DUP2 MLOAD SWAP4 PUSH2 0x766 DUP2 PUSH2 0xC8B JUMP JUMPDEST DUP5 MSTORE PUSH1 0x20 DUP5 ADD MSTORE CALLER SWAP3 LOG2 DUP1 RETURN JUMPDEST PUSH1 0x64 SWAP1 PUSH1 0x20 DUP7 MLOAD SWAP2 PUSH3 0x461BCD PUSH1 0xE5 SHL DUP4 MSTORE DUP3 ADD MSTORE PUSH1 0x11 PUSH1 0x24 DUP3 ADD MSTORE PUSH17 0x476173206C696D697420746F6F206C6F77 PUSH1 0x78 SHL PUSH1 0x44 DUP3 ADD MSTORE REVERT JUMPDEST PUSH1 0x64 SWAP1 PUSH1 0x20 DUP7 MLOAD SWAP2 PUSH3 0x461BCD PUSH1 0xE5 SHL DUP4 MSTORE DUP3 ADD MSTORE PUSH1 0x11 PUSH1 0x24 DUP3 ADD MSTORE PUSH17 0xA6D8D2E0E0C2CECA40E8DEDE40D0D2CED PUSH1 0x7B SHL PUSH1 0x44 DUP3 ADD MSTORE REVERT JUMPDEST DUP7 DUP1 REVERT JUMPDEST DUP4 DUP1 REVERT JUMPDEST POP SWAP2 CALLVALUE PUSH2 0x30A JUMPI PUSH1 0x20 CALLDATASIZE PUSH1 0x3 NOT ADD SLT PUSH2 0x30A JUMPI PUSH2 0x306 SWAP1 DUP3 SWAP1 PUSH1 0x1 PUSH1 0x1 PUSH1 0xA0 SHL SUB PUSH2 0x812 PUSH2 0xC70 JUMP JUMPDEST AND DUP2 MSTORE PUSH1 0x7 PUSH1 0x20 MSTORE KECCAK256 SWAP2 DUP3 SLOAD SWAP3 PUSH1 0x1 DUP2 ADD SLOAD SWAP5 PUSH1 0x2 DUP3 ADD SLOAD SWAP1 PUSH1 0x3 DUP4 ADD SLOAD SWAP3 ADD SLOAD SWAP3 MLOAD SWAP6 DUP7 SWAP6 DUP7 SWAP2 SWAP3 PUSH1 0x80 SWAP4 SWAP7 SWAP6 SWAP5 SWAP2 SWAP7 PUSH1 0xA0 DUP5 ADD SWAP8 DUP5 MSTORE PUSH1 0x20 DUP5 ADD MSTORE PUSH1 0x40 DUP4 ADD MSTORE PUSH1 0x60 DUP3 ADD MSTORE ADD MSTORE JUMP JUMPDEST DUP4 CALLVALUE PUSH2 0x30A JUMPI DUP1 PUSH1 0x3 NOT CALLDATASIZE ADD SLT PUSH2 0x30A JUMPI PUSH2 0x876 PUSH2 0xCAB JUMP JUMPDEST PUSH1 0x1 DUP1 SLOAD PUSH1 0x1 PUSH1 0x1 PUSH1 0xA0 SHL SUB NOT DUP2 AND SWAP1 SWAP2 SSTORE DUP2 SWAP1 PUSH1 0x1 PUSH1 0x1 PUSH1 0xA0 SHL SUB AND PUSH32 0x8BE0079C531659141344CD1FD0A4F28419497F9722A3DAAFE3B4186F6B6457E0 DUP3 DUP1 LOG3 DUP1 RETURN JUMPDEST POP POP CALLVALUE PUSH2 0x2BC JUMPI DUP2 PUSH1 0x3 NOT CALLDATASIZE ADD SLT PUSH2 0x2BC JUMPI PUSH2 0x306 SWAP1 PUSH2 0x8D8 PUSH2 0x15D3 JUMP JUMPDEST POP DUP1 MLOAD SWAP1 PUSH2 0x8E5 DUP3 PUSH2 0xD03 JUMP JUMPDEST PUSH1 0xA SLOAD DUP3 MSTORE PUSH1 0xB SLOAD PUSH1 0x20 DUP4 ADD MSTORE PUSH1 0xC SLOAD DUP2 DUP4 ADD MSTORE PUSH1 0xD SLOAD PUSH1 0x60 DUP4 ADD MSTORE PUSH1 0xE SLOAD PUSH1 0x80 DUP4 ADD MSTORE MLOAD SWAP2 DUP3 SWAP2 DUP3 SWAP2 SWAP1 SWAP2 PUSH1 0x80 DUP1 PUSH1 0xA0 DUP4 ADD SWAP5 DUP1 MLOAD DUP5 MSTORE PUSH1 0x20 DUP2 ADD MLOAD PUSH1 0x20 DUP6 ADD MSTORE PUSH1 0x40 DUP2 ADD MLOAD PUSH1 0x40 DUP6 ADD MSTORE PUSH1 0x60 DUP2 ADD MLOAD PUSH1 0x60 DUP6 ADD MSTORE ADD MLOAD SWAP2 ADD MSTORE JUMP JUMPDEST POP POP CALLVALUE PUSH2 0x2BC JUMPI DUP2 PUSH1 0x3 NOT CALLDATASIZE ADD SLT PUSH2 0x2BC JUMPI PUSH1 0x3 SLOAD SWAP1 MLOAD PUSH1 0x1 PUSH1 0x1 PUSH1 0xA0 SHL SUB SWAP1 SWAP2 AND DUP2 MSTORE PUSH1 0x20 SWAP1 RETURN JUMPDEST POP CALLVALUE PUSH2 0x20F JUMPI PUSH1 0x20 CALLDATASIZE PUSH1 0x3 NOT ADD SLT PUSH2 0x20F JUMPI DUP1 CALLDATALOAD SWAP2 PUSH2 0x988 PUSH2 0xCAB JUMP JUMPDEST PUSH1 0x5 SLOAD DUP4 GT PUSH2 0x996 JUMPI POP SSTORE DUP1 RETURN JUMPDEST SWAP1 PUSH1 0x20 PUSH1 0x64 SWAP3 MLOAD SWAP2 PUSH3 0x461BCD PUSH1 0xE5 SHL DUP4 MSTORE DUP3 ADD MSTORE PUSH1 0xC PUSH1 0x24 DUP3 ADD MSTORE PUSH12 0x8CCACA40E8DEDE40D0D2CED PUSH1 0xA3 SHL PUSH1 0x44 DUP3 ADD MSTORE REVERT JUMPDEST POP SWAP1 CALLVALUE PUSH2 0x20F JUMPI PUSH1 0x20 CALLDATASIZE PUSH1 0x3 NOT ADD SLT PUSH2 0x20F JUMPI DUP1 PUSH2 0x306 SWAP4 PUSH2 0x9E8 PUSH2 0xC70 JUMP JUMPDEST PUSH2 0x9F0 PUSH2 0x15D3 JUMP JUMPDEST POP PUSH1 0x1 PUSH1 0x1 PUSH1 0xA0 SHL SUB AND DUP2 MSTORE PUSH1 0x7 PUSH1 0x20 MSTORE KECCAK256 DUP2 MLOAD SWAP3 SWAP1 PUSH2 0xA0F DUP5 PUSH2 0xD03 JUMP JUMPDEST DUP1 SLOAD DUP5 MSTORE PUSH1 0x1 DUP2 ADD SLOAD PUSH1 0x20 DUP6 ADD MSTORE PUSH1 0x2 DUP2 ADD SLOAD DUP4 DUP6 ADD MSTORE PUSH1 0x3 DUP2 ADD SLOAD PUSH1 0x60 DUP6 ADD MSTORE ADD SLOAD PUSH1 0x80 DUP4 ADD MSTORE MLOAD SWAP2 DUP3 SWAP2 DUP3 SWAP2 SWAP1 SWAP2 PUSH1 0x80 DUP1 PUSH1 0xA0 DUP4 ADD SWAP5 DUP1 MLOAD DUP5 MSTORE PUSH1 0x20 DUP2 ADD MLOAD PUSH1 0x20 DUP6 ADD MSTORE PUSH1 0x40 DUP2 ADD MLOAD PUSH1 0x40 DUP6 ADD MSTORE PUSH1 0x60 DUP2 ADD MLOAD PUSH1 0x60 DUP6 ADD MSTORE ADD MLOAD SWAP2 ADD MSTORE JUMP JUMPDEST POP CALLVALUE PUSH2 0x20F JUMPI PUSH1 0x20 CALLDATASIZE PUSH1 0x3 NOT ADD SLT PUSH2 0x20F JUMPI PUSH2 0xA8A PUSH2 0xC70 JUMP JUMPDEST PUSH2 0xA92 PUSH2 0xCAB JUMP JUMPDEST PUSH1 0x1 PUSH1 0x1 PUSH1 0xA0 SHL SUB AND SWAP2 DUP3 ISZERO PUSH2 0xABA JUMPI POP POP PUSH1 0x1 PUSH1 0x1 PUSH1 0x60 SHL SUB PUSH1 0xA0 SHL PUSH1 0x2 SLOAD AND OR PUSH1 0x2 SSTORE DUP1 RETURN JUMPDEST SWAP1 PUSH1 0x20 PUSH1 0x64 SWAP3 MLOAD SWAP2 PUSH3 0x461BCD PUSH1 0xE5 SHL DUP4 MSTORE DUP3 ADD MSTORE PUSH1 0x10 PUSH1 0x24 DUP3 ADD MSTORE PUSH16 0x24B73B30B634B2103232BA32B1BA37B9 PUSH1 0x81 SHL PUSH1 0x44 DUP3 ADD MSTORE REVERT JUMPDEST POP POP CALLVALUE PUSH2 0x2BC JUMPI PUSH1 0x20 CALLDATASIZE PUSH1 0x3 NOT ADD SLT PUSH2 0x2BC JUMPI PUSH2 0xB0B PUSH2 0xC70 JUMP JUMPDEST PUSH2 0xB13 PUSH2 0xCAB JUMP JUMPDEST PUSH1 0x1 PUSH1 0x1 PUSH1 0xA0 SHL SUB AND DUP3 MSTORE PUSH1 0x8 PUSH1 0x20 MSTORE DUP2 KECCAK256 DUP1 SLOAD PUSH1 0xFF NOT AND PUSH1 0x1 OR SWAP1 SSTORE DUP1 RETURN JUMPDEST POP CALLVALUE PUSH2 0x20F JUMPI PUSH1 0x20 CALLDATASIZE PUSH1 0x3 NOT ADD SLT PUSH2 0x20F JUMPI PUSH1 0x20 SWAP3 DUP3 SWAP2 CALLDATALOAD DUP2 MSTORE PUSH1 0x9 DUP5 MSTORE KECCAK256 SLOAD SWAP1 MLOAD SWAP1 DUP2 MSTORE RETURN JUMPDEST POP CALLVALUE PUSH2 0x20F JUMPI DUP3 PUSH1 0x3 NOT CALLDATASIZE ADD SLT PUSH2 0x20F JUMPI PUSH1 0x20 SWAP3 POP SLOAD SWAP1 MLOAD SWAP1 DUP2 MSTORE RETURN JUMPDEST POP POP CALLVALUE PUSH2 0x2BC JUMPI PUSH1 0x20 CALLDATASIZE PUSH1 0x3 NOT ADD SLT PUSH2 0x2BC JUMPI PUSH2 0xB92 PUSH2 0xC70 JUMP JUMPDEST PUSH2 0xB9A PUSH2 0xCAB JUMP JUMPDEST PUSH1 0x1 PUSH1 0x1 PUSH1 0xA0 SHL SUB AND DUP3 MSTORE PUSH1 0x8 PUSH1 0x20 MSTORE DUP2 KECCAK256 DUP1 SLOAD PUSH1 0xFF NOT AND SWAP1 SSTORE DUP1 RETURN JUMPDEST POP POP CALLVALUE PUSH2 0x2BC JUMPI PUSH1 0x20 CALLDATASIZE PUSH1 0x3 NOT ADD SLT PUSH2 0x2BC JUMPI DUP1 PUSH1 0xA0 SWAP3 PUSH2 0xBD6 PUSH2 0xC70 JUMP JUMPDEST PUSH2 0xBDE PUSH2 0x15D3 JUMP JUMPDEST POP PUSH1 0x1 DUP1 DUP7 SHL SUB AND DUP2 MSTORE PUSH1 0x6 PUSH1 0x20 MSTORE KECCAK256 SWAP1 DUP1 MLOAD SWAP2 PUSH2 0xBFB DUP4 PUSH2 0xD03 JUMP JUMPDEST PUSH1 0xFF DUP2 SLOAD DUP2 DUP2 AND ISZERO ISZERO DUP6 MSTORE PUSH1 0x8 SHR AND SWAP2 PUSH1 0x20 DUP5 ADD SWAP3 PUSH2 0xC19 DUP2 PUSH2 0xC8B JUMP JUMPDEST DUP4 MSTORE PUSH1 0x1 DUP3 ADD SLOAD DUP2 DUP6 ADD SWAP1 DUP2 MSTORE PUSH1 0xFF PUSH1 0x3 PUSH1 0x2 DUP6 ADD SLOAD SWAP5 PUSH1 0x60 DUP9 ADD SWAP6 DUP7 MSTORE ADD SLOAD AND SWAP4 PUSH1 0x80 DUP7 ADD SWAP5 ISZERO ISZERO DUP6 MSTORE DUP3 MLOAD SWAP6 MLOAD ISZERO ISZERO DUP7 MSTORE MLOAD PUSH2 0xC56 DUP2 PUSH2 0xC8B JUMP JUMPDEST PUSH1 0x20 DUP7 ADD MSTORE MLOAD SWAP1 DUP5 ADD MSTORE MLOAD PUSH1 0x60 DUP4 ADD MSTORE MLOAD ISZERO ISZERO PUSH1 0x80 DUP3 ADD MSTORE RETURN JUMPDEST PUSH1 0x4 CALLDATALOAD SWAP1 PUSH1 0x1 PUSH1 0x1 PUSH1 0xA0 SHL SUB DUP3 AND DUP3 SUB PUSH2 0xC86 JUMPI JUMP JUMPDEST PUSH1 0x0 DUP1 REVERT JUMPDEST PUSH1 0x4 GT ISZERO PUSH2 0xC95 JUMPI JUMP JUMPDEST PUSH4 0x4E487B71 PUSH1 0xE0 SHL PUSH1 0x0 MSTORE PUSH1 0x21 PUSH1 0x4 MSTORE PUSH1 0x24 PUSH1 0x0 REVERT JUMPDEST PUSH1 0x1 SLOAD PUSH1 0x1 PUSH1 0x1 PUSH1 0xA0 SHL SUB AND CALLER SUB PUSH2 0xCBF JUMPI JUMP JUMPDEST PUSH1 0x64 PUSH1 0x40 MLOAD PUSH3 0x461BCD PUSH1 0xE5 SHL DUP2 MSTORE PUSH1 0x20 PUSH1 0x4 DUP3 ADD MSTORE PUSH1 0x20 PUSH1 0x24 DUP3 ADD MSTORE PUSH32 0x4F776E61626C653A2063616C6C6572206973206E6F7420746865206F776E6572 PUSH1 0x44 DUP3 ADD MSTORE REVERT JUMPDEST PUSH1 0xA0 DUP2 ADD SWAP1 DUP2 LT PUSH8 0xFFFFFFFFFFFFFFFF DUP3 GT OR PUSH2 0xD1F JUMPI PUSH1 0x40 MSTORE JUMP JUMPDEST PUSH4 0x4E487B71 PUSH1 0xE0 SHL PUSH1 0x0 MSTORE PUSH1 0x41 PUSH1 0x4 MSTORE PUSH1 0x24 PUSH1 0x0 REVERT JUMPDEST SWAP1 PUSH1 0x1F DUP1 NOT SWAP2 ADD AND DUP2 ADD SWAP1 DUP2 LT PUSH8 0xFFFFFFFFFFFFFFFF DUP3 GT OR PUSH2 0xD1F JUMPI PUSH1 0x40 MSTORE JUMP JUMPDEST ISZERO PUSH2 0xD5E JUMPI JUMP JUMPDEST PUSH1 0x40 MLOAD PUSH3 0x461BCD PUSH1 0xE5 SHL DUP2 MSTORE PUSH1 0x20 PUSH1 0x4 DUP3 ADD MSTORE PUSH1 0x15 PUSH1 0x24 DUP3 ADD MSTORE PUSH21 0x151BDAD95B881B9BDD081DDA1A5D195B1A5CDD1959 PUSH1 0x5A SHL PUSH1 0x44 DUP3 ADD MSTORE PUSH1 0x64 SWAP1 REVERT JUMPDEST MLOAD SWAP1 DUP2 ISZERO ISZERO DUP3 SUB PUSH2 0xC86 JUMPI JUMP JUMPDEST PUSH1 0x0 NOT DUP2 EQ PUSH2 0xDB7 JUMPI PUSH1 0x1 ADD SWAP1 JUMP JUMPDEST PUSH4 0x4E487B71 PUSH1 0xE0 SHL PUSH1 0x0 MSTORE PUSH1 0x11 PUSH1 0x4 MSTORE PUSH1 0x24 PUSH1 0x0 REVERT JUMPDEST SWAP2 SWAP1 DUP3 ADD DUP1 SWAP3 GT PUSH2 0xDB7 JUMPI JUMP JUMPDEST TIMESTAMP PUSH1 0xA4 CALLDATALOAD LT PUSH2 0x1232 JUMPI PUSH1 0x44 CALLDATALOAD SWAP1 DUP2 ISZERO PUSH2 0x11FC JUMPI PUSH1 0x0 SWAP2 CALLER DUP4 MSTORE PUSH1 0x20 PUSH1 0x6 DUP2 MSTORE PUSH1 0x40 SWAP4 DUP5 DUP2 KECCAK256 SWAP3 PUSH1 0xFF SWAP6 DUP7 DUP6 SLOAD AND ISZERO PUSH2 0x11B9 JUMPI DUP7 PUSH1 0x3 DUP7 ADD SLOAD AND PUSH2 0x1169 JUMPI JUMPDEST PUSH1 0x1 DUP1 PUSH1 0xA0 SHL SUB SWAP4 DUP5 PUSH1 0x2 SLOAD AND SWAP8 PUSH1 0x84 CALLDATALOAD SWAP7 DUP8 PUSH1 0x24 DUP5 DUP13 DUP8 MLOAD SWAP3 DUP4 DUP1 SWAP3 PUSH4 0xB0F2227 PUSH1 0xE1 SHL DUP3 MSTORE PUSH1 0x4 SWAP15 DUP16 DUP4 ADD MSTORE GAS STATICCALL SWAP1 DUP2 ISZERO PUSH2 0x101E JUMPI DUP9 SWAP2 PUSH2 0x113C JUMPI JUMPDEST POP DUP6 MLOAD SWAP12 DUP13 SWAP2 PUSH4 0xDB148397 PUSH1 0xE0 SHL DUP4 MSTORE DUP4 DUP13 DUP5 ADD MSTORE PUSH1 0x24 DUP4 ADD MSTORE GASPRICE PUSH1 0x44 DUP4 ADD MSTORE PUSH1 0x60 SWAP13 DUP14 SWAP2 DUP2 DUP12 GAS SWAP3 PUSH1 0x64 SWAP4 CALL DUP1 ISZERO PUSH2 0x101E JUMPI DUP9 DUP10 SWAP3 DUP11 SWAP3 PUSH2 0x10EE JUMPI JUMPDEST POP PUSH2 0xE9F PUSH1 0xA SLOAD PUSH2 0xDA8 JUMP JUMPDEST PUSH1 0xA SSTORE CALLER DUP11 MSTORE PUSH1 0x7 DUP8 MSTORE DUP8 DUP11 KECCAK256 PUSH2 0xEB6 DUP2 SLOAD PUSH2 0xDA8 JUMP JUMPDEST SWAP1 SSTORE PUSH2 0x1031 JUMPI JUMPDEST POP POP POP PUSH2 0xEC9 DUP2 PUSH2 0x1301 JUMP JUMPDEST SWAP11 DUP2 SWAP10 SWAP2 PUSH2 0xF30 JUMPI JUMPDEST POP CALLDATALOAD SWAP6 DUP8 DUP8 AND DUP1 SWAP8 SUB PUSH2 0x30A JUMPI PUSH1 0x24 CALLDATALOAD SWAP8 DUP9 AND DUP1 SWAP9 SUB PUSH2 0x30A JUMPI POP SWAP1 PUSH32 0xC1F1795AE4ACB647F280E7B327456FC183DCF9B0B2AA91489025EF188CD48BAD SWAP4 SWAP3 SWAP2 SLOAD PUSH1 0x8 SHR AND SWAP1 DUP3 MLOAD SWAP5 DUP6 MSTORE PUSH2 0xF26 DUP3 PUSH2 0xC8B JUMP JUMPDEST DUP5 ADD MSTORE CALLER SWAP3 LOG4 SWAP2 SWAP1 JUMP JUMPDEST PUSH2 0x2710 PUSH2 0xF3E DUP4 SLOAD DUP10 PUSH2 0x12EE JUMP JUMPDEST DIV SWAP1 DUP9 DUP11 DUP4 DUP1 CALLVALUE LT ISZERO PUSH2 0xFFE JUMPI JUMPDEST POP POP POP DUP3 CALLDATALOAD SWAP1 DUP11 DUP3 AND DUP1 SWAP3 SUB PUSH2 0xFFA JUMPI PUSH2 0xF68 DUP10 PUSH1 0xD SLOAD PUSH2 0xDCD JUMP JUMPDEST PUSH1 0xD SSTORE PUSH2 0xF77 DUP4 PUSH1 0xE SLOAD PUSH2 0xDCD JUMP JUMPDEST PUSH1 0xE SSTORE CALLER DUP11 MSTORE PUSH1 0x7 DUP8 MSTORE PUSH1 0x3 DUP9 DUP12 KECCAK256 ADD PUSH2 0xF92 DUP11 DUP3 SLOAD PUSH2 0xDCD JUMP JUMPDEST SWAP1 SSTORE CALLER DUP11 MSTORE PUSH1 0x7 DUP8 MSTORE DUP4 DUP9 DUP12 KECCAK256 ADD PUSH2 0xFAB DUP5 DUP3 SLOAD PUSH2 0xDCD JUMP JUMPDEST SWAP1 SSTORE PUSH1 0x24 CALLDATALOAD SWAP3 DUP12 DUP5 AND DUP1 SWAP5 SUB PUSH2 0xFF6 JUMPI DUP15 SWAP2 PUSH32 0xB6389792332E8402CFC015F71558F4578FCE3AB90C5E7BB2312FCB6DE213B1CC SWAP2 DUP11 MLOAD SWAP4 DUP13 DUP6 MSTORE DUP11 DUP6 ADD MSTORE DUP11 DUP5 ADD MSTORE CALLER SWAP3 LOG4 CODESIZE PUSH2 0xED2 JUMP JUMPDEST DUP11 DUP1 REVERT JUMPDEST DUP10 DUP1 REVERT JUMPDEST DUP3 DUP1 SWAP3 SWAP2 DUP2 SWAP3 PUSH1 0x3 SLOAD AND DUP3 DUP3 ISZERO PUSH2 0x1028 JUMPI JUMPDEST CALL ISZERO PUSH2 0x101E JUMPI DUP9 DUP11 DUP4 PUSH2 0xF4C JUMP JUMPDEST DUP7 MLOAD RETURNDATASIZE DUP11 DUP3 RETURNDATACOPY RETURNDATASIZE SWAP1 REVERT JUMPDEST POP PUSH2 0x8FC PUSH2 0x1010 JUMP JUMPDEST PUSH2 0x103C PUSH1 0xB SLOAD PUSH2 0xDA8 JUMP JUMPDEST PUSH1 0xB SSTORE CALLER DUP10 MSTORE PUSH1 0x7 DUP7 MSTORE PUSH1 0x1 DUP8 DUP11 KECCAK256 ADD PUSH2 0x1056 DUP2 SLOAD PUSH2 0xDA8 JUMP JUMPDEST SWAP1 SSTORE PUSH2 0x1069 DUP2 DUP4 DUP8 DUP8 SLOAD PUSH1 0x8 SHR AND PUSH2 0x1266 JUMP JUMPDEST ISZERO PUSH2 0xEBD JUMPI SWAP4 SWAP3 SWAP2 SWAP10 POP SWAP8 POP PUSH32 0x739471936103E955BBFD4DED5F16CBA877669BCE0D9E5A83E4314F11209B86D4 SWAP7 SWAP11 SWAP6 POP PUSH2 0x10A8 PUSH1 0xC SWAP6 SWAP5 SWAP6 SLOAD PUSH2 0xDA8 JUMP JUMPDEST PUSH1 0xC SSTORE CALLER DUP12 MSTORE PUSH1 0x7 DUP6 MSTORE PUSH1 0x2 DUP5 DUP13 KECCAK256 ADD PUSH2 0x10C2 DUP2 SLOAD PUSH2 0xDA8 JUMP JUMPDEST SWAP1 SSTORE SLOAD PUSH1 0x8 SHR AND SWAP3 DUP3 MLOAD SWAP7 PUSH2 0x10D6 DUP2 PUSH2 0xC8B JUMP JUMPDEST DUP8 MSTORE DUP7 ADD MSTORE PUSH2 0x10E4 DUP3 PUSH2 0xC8B JUMP JUMPDEST DUP5 ADD MSTORE CALLER SWAP3 LOG3 DUP2 SWAP1 JUMP JUMPDEST SWAP3 POP POP POP DUP12 DUP2 DUP2 RETURNDATASIZE DUP4 GT PUSH2 0x1135 JUMPI JUMPDEST PUSH2 0x1107 DUP2 DUP4 PUSH2 0xD35 JUMP JUMPDEST DUP2 ADD SUB SLT PUSH2 0x1131 JUMPI PUSH2 0x1118 DUP2 PUSH2 0xD9B JUMP JUMPDEST SWAP1 DUP6 DUP2 ADD MLOAD SWAP1 DUP12 DUP3 LT ISZERO PUSH2 0xFFA JUMPI DUP8 ADD MLOAD SWAP1 SWAP2 CODESIZE PUSH2 0xE93 JUMP JUMPDEST DUP8 DUP1 REVERT JUMPDEST POP RETURNDATASIZE PUSH2 0x10FD JUMP JUMPDEST SWAP1 POP DUP5 DUP2 DUP2 RETURNDATASIZE DUP4 GT PUSH2 0x1162 JUMPI JUMPDEST PUSH2 0x1153 DUP2 DUP4 PUSH2 0xD35 JUMP JUMPDEST DUP2 ADD SUB SLT PUSH2 0x1131 JUMPI MLOAD CODESIZE PUSH2 0xE56 JUMP JUMPDEST POP RETURNDATASIZE PUSH2 0x1149 JUMP JUMPDEST PUSH1 0x1 PUSH1 0x1 PUSH1 0xA0 SHL SUB PUSH1 0x4 CALLDATALOAD DUP2 DUP2 AND SWAP1 DUP2 SWAP1 SUB PUSH2 0x411 JUMPI DUP5 MSTORE PUSH1 0x8 DUP6 MSTORE PUSH2 0x1193 DUP9 DUP4 DUP7 KECCAK256 SLOAD AND PUSH2 0xD57 JUMP JUMPDEST PUSH1 0x24 CALLDATALOAD SWAP1 DUP2 AND DUP1 SWAP2 SUB PUSH2 0x7E5 JUMPI DUP4 MSTORE PUSH1 0x8 DUP5 MSTORE PUSH2 0x11B4 DUP8 DUP3 DUP6 KECCAK256 SLOAD AND PUSH2 0xD57 JUMP JUMPDEST PUSH2 0xE18 JUMP JUMPDEST MLOAD PUSH3 0x461BCD PUSH1 0xE5 SHL DUP2 MSTORE PUSH1 0x4 DUP2 ADD DUP5 SWAP1 MSTORE PUSH1 0x19 PUSH1 0x24 DUP3 ADD MSTORE PUSH32 0x50726F74656374696F6E206E6F7420636F6E6669677572656400000000000000 PUSH1 0x44 DUP3 ADD MSTORE PUSH1 0x64 SWAP1 REVERT JUMPDEST PUSH1 0x40 MLOAD PUSH3 0x461BCD PUSH1 0xE5 SHL DUP2 MSTORE PUSH1 0x20 PUSH1 0x4 DUP3 ADD MSTORE PUSH1 0xE PUSH1 0x24 DUP3 ADD MSTORE PUSH14 0x125B9D985B1A5908185B5BDD5B9D PUSH1 0x92 SHL PUSH1 0x44 DUP3 ADD MSTORE PUSH1 0x64 SWAP1 REVERT JUMPDEST PUSH1 0x40 MLOAD PUSH3 0x461BCD PUSH1 0xE5 SHL DUP2 MSTORE PUSH1 0x20 PUSH1 0x4 DUP3 ADD MSTORE PUSH1 0xC PUSH1 0x24 DUP3 ADD MSTORE PUSH12 0x14DDD85C08195E1C1A5C9959 PUSH1 0xA2 SHL PUSH1 0x44 DUP3 ADD MSTORE PUSH1 0x64 SWAP1 REVERT JUMPDEST PUSH2 0x126F DUP2 PUSH2 0xC8B JUMP JUMPDEST DUP1 PUSH2 0x127C JUMPI POP POP POP PUSH1 0x1 SWAP1 JUMP JUMPDEST PUSH2 0x1285 DUP2 PUSH2 0xC8B JUMP JUMPDEST PUSH1 0x1 DUP2 SUB PUSH2 0x1295 JUMPI POP POP POP PUSH1 0x0 SWAP1 JUMP JUMPDEST PUSH2 0x129E DUP2 PUSH2 0xC8B JUMP JUMPDEST PUSH1 0x2 DUP2 SUB PUSH2 0x12D0 JUMPI POP PUSH2 0x12BA SWAP2 PUSH2 0x12B4 SWAP2 PUSH2 0x1564 JUMP JUMPDEST TIMESTAMP PUSH2 0xDCD JUMP JUMPDEST PUSH1 0x84 CALLDATALOAD PUSH1 0x0 MSTORE PUSH1 0x9 PUSH1 0x20 MSTORE PUSH1 0x40 PUSH1 0x0 KECCAK256 SSTORE PUSH1 0x1 SWAP1 JUMP JUMPDEST SWAP1 POP PUSH1 0x3 SWAP2 POP PUSH2 0x12DF DUP2 PUSH2 0xC8B JUMP JUMPDEST EQ PUSH2 0x12E9 JUMPI PUSH1 0x0 SWAP1 JUMP JUMPDEST PUSH1 0x0 SWAP1 JUMP JUMPDEST DUP2 DUP2 MUL SWAP3 SWAP2 DUP2 ISZERO SWAP2 DUP5 DIV EQ OR ISZERO PUSH2 0xDB7 JUMPI JUMP JUMPDEST PUSH1 0x1 PUSH1 0x1 PUSH1 0xA0 SHL SUB PUSH1 0x4 DUP1 CALLDATALOAD DUP3 DUP2 AND SWAP5 SWAP4 SWAP3 SWAP2 SWAP1 DUP6 SWAP1 SUB PUSH2 0xC86 JUMPI PUSH1 0x44 CALLDATALOAD PUSH1 0x40 SWAP1 DUP2 MLOAD SWAP7 PUSH4 0x23B872DD PUSH1 0xE0 SHL DUP9 MSTORE CALLER DUP5 DUP10 ADD MSTORE ADDRESS PUSH1 0x24 DUP10 ADD MSTORE DUP2 PUSH1 0x44 DUP10 ADD MSTORE PUSH1 0x20 SWAP4 PUSH1 0x0 SWAP7 DUP6 DUP11 PUSH1 0x64 DUP2 DUP12 DUP8 GAS CALL DUP1 ISZERO PUSH2 0x1525 JUMPI PUSH2 0x152F JUMPI JUMPDEST PUSH1 0x24 SWAP10 POP DUP6 DUP8 PUSH1 0x2 SLOAD AND DUP7 MLOAD SWAP12 DUP13 DUP1 SWAP3 PUSH4 0xB0F2227 PUSH1 0xE1 SHL DUP3 MSTORE PUSH1 0x84 CALLDATALOAD DUP8 DUP4 ADD MSTORE GAS STATICCALL SWAP10 DUP11 ISZERO PUSH2 0x1525 JUMPI DUP9 SWAP11 PUSH2 0x14F6 JUMPI JUMPDEST POP PUSH8 0xDE0B6B3A7640000 DUP1 PUSH2 0x13A0 DUP13 DUP8 PUSH2 0x12EE JUMP JUMPDEST DIV SWAP11 PUSH1 0x64 CALLDATALOAD DUP13 LT PUSH2 0x14BC JUMPI PUSH2 0x13B5 SWAP1 DUP7 PUSH2 0x12EE JUMP JUMPDEST DIV DUP11 DUP2 GT ISZERO PUSH2 0x14B2 JUMPI DUP11 DUP2 SUB DUP2 DUP2 GT PUSH2 0x149F JUMPI PUSH2 0x2710 DUP1 DUP3 MUL SWAP2 DUP3 DIV EQ DUP13 DUP4 EQ OR ISZERO PUSH2 0x149F JUMPI DUP2 ISZERO PUSH2 0x148C JUMPI DIV SWAP1 PUSH1 0x1 SWAP1 JUMPDEST ADD SLOAD LT PUSH2 0x1405 JUMPI POP POP POP POP POP PUSH1 0xC4 CALLDATALOAD SWAP1 DUP2 AND SUB PUSH2 0x30A JUMPI POP PUSH1 0x1 SWAP2 SWAP1 JUMP JUMPDEST DUP4 MLOAD PUSH4 0xA9059CBB PUSH1 0xE0 SHL DUP2 MSTORE CALLER SWAP2 DUP2 ADD SWAP2 DUP3 MSTORE PUSH1 0x20 DUP3 ADD SWAP4 SWAP1 SWAP4 MSTORE SWAP6 SWAP8 POP SWAP1 SWAP5 SWAP3 SWAP4 POP SWAP1 SWAP2 DUP4 SWAP2 DUP6 SWAP2 DUP3 SWAP1 DUP10 SWAP1 DUP3 SWAP1 PUSH1 0x40 ADD JUMPDEST SUB SWAP3 GAS CALL SWAP1 DUP2 ISZERO PUSH2 0x1483 JUMPI POP PUSH2 0x144F JUMPI JUMPDEST POP POP DUP2 SWAP1 JUMP JUMPDEST DUP2 DUP2 RETURNDATASIZE DUP4 GT PUSH2 0x147C JUMPI JUMPDEST PUSH2 0x1463 DUP2 DUP4 PUSH2 0xD35 JUMP JUMPDEST DUP2 ADD SUB SLT PUSH2 0x20F JUMPI PUSH2 0x1474 SWAP1 PUSH2 0xD9B JUMP JUMPDEST POP CODESIZE DUP1 PUSH2 0x1449 JUMP JUMPDEST POP RETURNDATASIZE PUSH2 0x1459 JUMP JUMPDEST MLOAD RETURNDATASIZE DUP7 DUP3 RETURNDATACOPY RETURNDATASIZE SWAP1 REVERT JUMPDEST PUSH4 0x4E487B71 PUSH1 0xE0 SHL DUP11 MSTORE PUSH1 0x12 DUP5 MSTORE PUSH1 0x24 DUP11 REVERT JUMPDEST PUSH4 0x4E487B71 PUSH1 0xE0 SHL DUP11 MSTORE PUSH1 0x11 DUP5 MSTORE PUSH1 0x24 DUP11 REVERT JUMPDEST POP PUSH1 0x1 DUP9 SWAP2 PUSH2 0x13E7 JUMP JUMPDEST POP POP DUP5 MLOAD PUSH4 0xA9059CBB PUSH1 0xE0 SHL DUP2 MSTORE CALLER SWAP3 DUP2 ADD SWAP3 DUP4 MSTORE PUSH1 0x20 DUP4 ADD SWAP5 SWAP1 SWAP5 MSTORE POP SWAP6 SWAP8 POP SWAP1 SWAP5 SWAP3 SWAP4 POP SWAP1 SWAP2 DUP4 SWAP2 DUP6 SWAP2 DUP3 SWAP1 DUP10 SWAP1 DUP3 SWAP1 PUSH1 0x40 ADD PUSH2 0x1438 JUMP JUMPDEST SWAP1 SWAP10 POP DUP6 DUP2 DUP2 RETURNDATASIZE DUP4 GT PUSH2 0x151E JUMPI JUMPDEST PUSH2 0x150E DUP2 DUP4 PUSH2 0xD35 JUMP JUMPDEST DUP2 ADD SUB SLT PUSH2 0x1131 JUMPI MLOAD SWAP9 CODESIZE PUSH2 0x138B JUMP JUMPDEST POP RETURNDATASIZE PUSH2 0x1504 JUMP JUMPDEST DUP6 MLOAD RETURNDATASIZE DUP11 DUP3 RETURNDATACOPY RETURNDATASIZE SWAP1 REVERT JUMPDEST DUP6 DUP11 DUP2 RETURNDATASIZE DUP4 GT PUSH2 0x155D JUMPI JUMPDEST PUSH2 0x1544 DUP2 DUP4 PUSH2 0xD35 JUMP JUMPDEST DUP2 ADD SUB SLT PUSH2 0x1131 JUMPI PUSH2 0x1557 PUSH1 0x24 SWAP11 PUSH2 0xD9B JUMP JUMPDEST POP PUSH2 0x135A JUMP JUMPDEST POP RETURNDATASIZE PUSH2 0x153A JUMP JUMPDEST PUSH2 0x156D DUP2 PUSH2 0xC8B JUMP JUMPDEST DUP1 PUSH2 0x1585 JUMPI POP PUSH1 0x64 SWAP1 DIV PUSH1 0x1E ADD DUP1 PUSH1 0x1E GT PUSH2 0xDB7 JUMPI SWAP1 JUMP JUMPDEST PUSH2 0x158E DUP2 PUSH2 0xC8B JUMP JUMPDEST PUSH1 0x1 DUP2 SUB PUSH2 0x15A9 JUMPI POP PUSH1 0xC8 SWAP1 DIV PUSH1 0xF ADD DUP1 PUSH1 0xF GT PUSH2 0xDB7 JUMPI SWAP1 JUMP JUMPDEST DUP1 PUSH2 0x15B5 PUSH1 0x2 SWAP3 PUSH2 0xC8B JUMP JUMPDEST EQ PUSH2 0x15C0 JUMPI POP PUSH1 0xA SWAP1 JUMP JUMPDEST PUSH2 0x1F4 SWAP1 DIV PUSH1 0x5 ADD DUP1 PUSH1 0x5 GT PUSH2 0xDB7 JUMPI SWAP1 JUMP JUMPDEST PUSH1 0x40 MLOAD SWAP1 PUSH2 0x15E0 DUP3 PUSH2 0xD03 JUMP JUMPDEST PUSH1 0x0 PUSH1 0x80 DUP4 DUP3 DUP2 MSTORE DUP3 PUSH1 0x20 DUP3 ADD MSTORE DUP3 PUSH1 0x40 DUP3 ADD MSTORE DUP3 PUSH1 0x60 DUP3 ADD MSTORE ADD MSTORE JUMP INVALID LOG2 PUSH5 0x6970667358 0x22 SLT KECCAK256 TIMESTAMP JUMP 0x2D 0xD7 DUP3 0xDA 0xE2 DUP8 0xC6 JUMPDEST 0xC8 0xAD 0xF7 0xEA GAS 0x2E 0xEC JUMP SWAP2 0xE0 SWAP8 LOG4 CALLVALUE DIV 0x2C 0xDC 0xE1 DUP10 LOG2 PUSH11 0x7F3A64736F6C6343000814 STOP CALLER "},"methodIdentifiers":{"addWhitelistedToken(address)":"363cb34d","configureProtection(uint8,uint256,uint256,bool)":"8a855a74","detector()":"e4e20d63","emergencyStop(address,string)":"ce01730a","emergencyWithdraw(address,uint256)":"95ccea67","getGlobalStats()":"6b4169c3","getPriceDelay(bytes32)":"2682a8fb","getUserConfig(address)":"16626ab9","getUserStats(address)":"4e43603a","globalStats()":"e4dc4efc","isTokenWhitelisted(address)":"b5af090f","maxProtectionFee()":"bd9ce648","owner()":"8da5cb5b","priceDelays(bytes32)":"1a7af54a","protectSwap((address,address,uint256,uint256,bytes32,uint256,address))":"b899dd7c","protectionFee()":"207f4bee","removeWhitelistedToken(address)":"1c88705d","renounceOwnership()":"715018a6","setProtectionFee(uint256)":"5b0f9317","setTreasury(address)":"f0f44260","transferOwnership(address)":"f2fde38b","treasury()":"61d027b3","updateDetector(address)":"36ab0592","userConfigs(address)":"c2200e3c","userStats(address)":"8a65d874","whitelistedTokens(address)":"daf9c210"}}}}}