{"contracts/MEVDetector.sol":{"MEVDetector":{"abi":[{"inputs":[],"stateMutability":"nonpayable","type":"constructor"},{"inputs":[],"name":"CalldataMustHaveValidPayload","type":"error"},{"inputs":[],"name":"CalldataOverOrUnderFlow","type":"error"},{"inputs":[],"name":"CanNotPickMedianOfEmptyArray","type":"error"},{"inputs":[],"name":"DataPackageTimestampMustNotBeZero","type":"error"},{"inputs":[],"name":"DataPackageTimestampsMustBeEqual","type":"error"},{"inputs":[],"name":"DataTimestampCannotBeZero","type":"error"},{"inputs":[],"name":"EachSignerMustProvideTheSameValue","type":"error"},{"inputs":[],"name":"EmptyCalldataPointersArr","type":"error"},{"inputs":[],"name":"GetDataServiceIdNotImplemented","type":"error"},{"inputs":[],"name":"IncorrectUnsignedMetadataSize","type":"error"},{"inputs":[{"internalType":"uint256","name":"receivedSignersCount","type":"uint256"},{"internalType":"uint256","name":"requiredSignersCount","type":"uint256"}],"name":"InsufficientNumberOfUniqueSigners","type":"error"},{"inputs":[],"name":"InvalidCalldataPointer","type":"error"},{"inputs":[{"internalType":"bytes32","name":"signedHash","type":"bytes32"}],"name":"InvalidSignature","type":"error"},{"inputs":[],"name":"RedstonePayloadMustHaveAtLeastOneDataPackage","type":"error"},{"inputs":[{"internalType":"address","name":"receivedSigner","type":"address"}],"name":"SignerNotAuthorised","type":"error"},{"inputs":[{"internalType":"uint256","name":"receivedTimestampSeconds","type":"uint256"},{"internalType":"uint256","name":"blockTimestamp","type":"uint256"}],"name":"TimestampFromTooLongFuture","type":"error"},{"inputs":[{"internalType":"uint256","name":"receivedTimestampSeconds","type":"uint256"},{"internalType":"uint256","name":"blockTimestamp","type":"uint256"}],"name":"TimestampIsTooOld","type":"error"},{"inputs":[],"name":"TimestampsMustBeEqual","type":"error"},{"inputs":[{"internalType":"uint256","name":"valueByteSize","type":"uint256"}],"name":"TooLargeValueByteSize","type":"error"},{"anonymous":false,"inputs":[{"indexed":false,"internalType":"string","name":"parameter","type":"string"},{"indexed":false,"internalType":"uint256","name":"oldValue","type":"uint256"},{"indexed":false,"internalType":"uint256","name":"newValue","type":"uint256"}],"name":"ConfigurationUpdated","type":"event"},{"anonymous":false,"inputs":[{"indexed":true,"internalType":"address","name":"user","type":"address"},{"indexed":true,"internalType":"bytes32","name":"feedId","type":"bytes32"},{"indexed":false,"internalType":"enum MEVDetector.ThreatType","name":"threatType","type":"uint8"},{"indexed":false,"internalType":"uint256","name":"riskScore","type":"uint256"},{"indexed":false,"internalType":"uint256","name":"timestamp","type":"uint256"}],"name":"MEVThreatDetected","type":"event"},{"anonymous":false,"inputs":[{"indexed":true,"internalType":"address","name":"previousOwner","type":"address"},{"indexed":true,"internalType":"address","name":"newOwner","type":"address"}],"name":"OwnershipTransferred","type":"event"},{"anonymous":false,"inputs":[{"indexed":true,"internalType":"bytes32","name":"feedId","type":"bytes32"},{"indexed":false,"internalType":"uint256","name":"expectedPrice","type":"uint256"},{"indexed":false,"internalType":"uint256","name":"actualPrice","type":"uint256"},{"indexed":false,"internalType":"uint256","name":"delta","type":"uint256"}],"name":"PriceAnomalyDetected","type":"event"},{"inputs":[],"name":"GAS_HISTORY_SIZE","outputs":[{"internalType":"uint256","name":"","type":"uint256"}],"stateMutability":"view","type":"function"},{"inputs":[{"internalType":"uint256[]","name":"values","type":"uint256[]"}],"name":"aggregateValues","outputs":[{"internalType":"uint256","name":"","type":"uint256"}],"stateMutability":"view","type":"function"},{"inputs":[{"internalType":"bytes32","name":"feedId","type":"bytes32"},{"internalType":"uint256","name":"expectedPrice","type":"uint256"},{"internalType":"uint256","name":"txGasPrice","type":"uint256"}],"name":"detectMEV","outputs":[{"internalType":"bool","name":"isThreat","type":"bool"},{"internalType":"enum MEVDetector.ThreatType","name":"threatType","type":"uint8"},{"internalType":"uint256","name":"riskScore","type":"uint256"}],"stateMutability":"nonpayable","type":"function"},{"inputs":[],"name":"extractTimestampsAndAssertAllAreEqual","outputs":[{"internalType":"uint256","name":"extractedTimestamp","type":"uint256"}],"stateMutability":"pure","type":"function"},{"inputs":[],"name":"frontRunGasMultiplier","outputs":[{"internalType":"uint256","name":"","type":"uint256"}],"stateMutability":"view","type":"function"},{"inputs":[{"internalType":"address","name":"signerAddress","type":"address"}],"name":"getAuthorisedSignerIndex","outputs":[{"internalType":"uint8","name":"","type":"uint8"}],"stateMutability":"view","type":"function"},{"inputs":[],"name":"getAverageGasPrice","outputs":[{"internalType":"uint256","name":"","type":"uint256"}],"stateMutability":"view","type":"function"},{"inputs":[{"internalType":"bytes32","name":"feedId","type":"bytes32"}],"name":"getCurrentPrice","outputs":[{"internalType":"uint256","name":"","type":"uint256"}],"stateMutability":"view","type":"function"},{"inputs":[],"name":"getDataServiceId","outputs":[{"internalType":"string","name":"","type":"string"}],"stateMutability":"view","type":"function"},{"inputs":[{"internalType":"bytes32","name":"feedId","type":"bytes32"}],"name":"getPriceHistory","outputs":[{"internalType":"uint256","name":"lastPrice","type":"uint256"},{"internalType":"uint256","name":"lastUpdate","type":"uint256"}],"stateMutability":"view","type":"function"},{"inputs":[],"name":"getUniqueSignersThreshold","outputs":[{"internalType":"uint8","name":"","type":"uint8"}],"stateMutability":"view","type":"function"},{"inputs":[{"internalType":"bytes32","name":"","type":"bytes32"}],"name":"lastPrices","outputs":[{"internalType":"uint256","name":"","type":"uint256"}],"stateMutability":"view","type":"function"},{"inputs":[{"internalType":"bytes32","name":"","type":"bytes32"}],"name":"lastUpdateTimestamp","outputs":[{"internalType":"uint256","name":"","type":"uint256"}],"stateMutability":"view","type":"function"},{"inputs":[],"name":"minPriceDelta","outputs":[{"internalType":"uint256","name":"","type":"uint256"}],"stateMutability":"view","type":"function"},{"inputs":[],"name":"owner","outputs":[{"internalType":"address","name":"","type":"address"}],"stateMutability":"view","type":"function"},{"inputs":[],"name":"renounceOwnership","outputs":[],"stateMutability":"nonpayable","type":"function"},{"inputs":[],"name":"riskThreshold","outputs":[{"internalType":"uint256","name":"","type":"uint256"}],"stateMutability":"view","type":"function"},{"inputs":[{"internalType":"uint256","name":"newMultiplier","type":"uint256"}],"name":"setFrontRunGasMultiplier","outputs":[],"stateMutability":"nonpayable","type":"function"},{"inputs":[{"internalType":"uint256","name":"newDelta","type":"uint256"}],"name":"setMinPriceDelta","outputs":[],"stateMutability":"nonpayable","type":"function"},{"inputs":[{"internalType":"uint256","name":"newThreshold","type":"uint256"}],"name":"setRiskThreshold","outputs":[],"stateMutability":"nonpayable","type":"function"},{"inputs":[{"internalType":"address","name":"newOwner","type":"address"}],"name":"transferOwnership","outputs":[],"stateMutability":"nonpayable","type":"function"},{"inputs":[{"internalType":"uint256","name":"receivedTimestampMilliseconds","type":"uint256"}],"name":"validateTimestamp","outputs":[],"stateMutability":"view","type":"function"}],"evm":{"bytecode":{"linkReferences":{},"object":"6080604052346100c657610012336100cb565b60016101f48155606480600255607860035560005b81811061004757610037336100cb565b6040516115da9081620001138239f35b60068054680100000000000000008110156100b05784810180835581101561009a5760009182526020822001556000198114610084578201610027565b634e487b7160e01b600052601160045260246000fd5b634e487b7160e01b600052603260045260246000fd5b634e487b7160e01b600052604160045260246000fd5b600080fd5b600080546001600160a01b039283166001600160a01b03198216811783559216907f8be0079c531659141344cd1fd0a4f28419497f9722a3daafe3b4186f6b6457e09080a356fe6080604052600436101561001257600080fd5b60003560e01c80630bb30e2414610177578063161e444e1461017257806337f8218e1461016d5780633ce142f51461016857806355a547d5146101635780637083d1c21461015e578063715018a6146101595780637bfdfac7146101545780638da5cb5b1461014f578063a833be211461014a578063b24ebfcc14610145578063b43e6cb414610140578063c274583a1461013b578063c324feed14610136578063d67e343c14610131578063db1483971461012c578063e4f269ec14610127578063f2fde38b14610122578063f50b2efe1461011d578063f5ab448514610118578063f90c4924146101135763ff53159c1461010e57600080fd5b610934565b610918565b6108fd565b610870565b6107b8565b61078c565b610729565b6106fd565b610684565b6105ff565b6105e1565b61054c565b610452565b610429565b61040b565b6103ad565b610334565b610253565b610230565b6101f0565b6101ca565b346101c55760203660031901126101c55760043560005260046020526040600020546005602052604060002054906101c16040519283928360209093929193604081019481520152565b0390f35b600080fd5b346101c55760203660031901126101c55760206101e8600435610f93565b604051908152f35b346101c55760003660031901126101c5576020600354604051908152f35b60209060031901126101c5576004356001600160a01b03811681036101c55790565b346101c55760206102486102433661020e565b610bfa565b60ff60405191168152f35b346101c55760003660031901126101c557600061ffff610279610274610aad565b610b39565b9116908115610322579190815b81811061029857604051838152602090f35b90916102a384610a82565b9065ffffffffffff6102bd6102b7876109cd565b36610a4b565b351690811561031057806102e957506102e0916102da9195610a2f565b916109be565b92919092610286565b809591036102fe576102e0916102da91610a2f565b60405163d9d1f46560e01b8152600490fd5b604051630336dc9d60e41b8152600490fd5b604051632154bfcf60e21b8152600490fd5b346101c55760203660031901126101c5577f542d1e36f54195e4e918eaa06cf4f40e8861c8af6cf52111230f74bec3dbadfe60a0600435610373610950565b60015490806001556040519160608352600d60608401526c1c9a5cdad51a1c995cda1bdb19609a1b608084015260208301526040820152a1005b346101c557600080600319360112610408576103c7610950565b80546001600160a01b03198116825581906001600160a01b03167f8be0079c531659141344cd1fd0a4f28419497f9722a3daafe3b4186f6b6457e08280a380f35b80fd5b346101c55760003660031901126101c5576020600254604051908152f35b346101c55760003660031901126101c5576000546040516001600160a01b039091168152602090f35b346101c55760203660031901126101c5577f542d1e36f54195e4e918eaa06cf4f40e8861c8af6cf52111230f74bec3dbadfe60a0600435610491610950565b600354908060035560405191606083526015606084015274333937b73a293ab723b0b9a6bab63a34b83634b2b960591b608084015260208301526040820152a1005b634e487b7160e01b600052604160045260246000fd5b604051906040820182811067ffffffffffffffff82111761050957604052565b6104d3565b6040519190601f01601f1916820167ffffffffffffffff81118382101761050957604052565b67ffffffffffffffff81116105095760051b60200190565b346101c5576020806003193601126101c55760043567ffffffffffffffff81116101c557366023820112156101c55780600401359061059261058d83610534565b61050e565b9160248484838152019160051b830101913683116101c557602401905b8282106105d2576101c16105c285610c88565b6040519081529081906020820190565b813581529084019084016105af565b346101c55760003660031901126101c5576020600154604051908152f35b346101c55760003660031901126101c5576106186104e9565b6012815260207172656473746f6e652d6d61696e2d64656d6f60701b818301526040908151928184928352815191828285015260005b83811061066e575050600083830185015250601f01601f19168101030190f35b818101830151878201870152869450820161064e565b346101c55760203660031901126101c5577f542d1e36f54195e4e918eaa06cf4f40e8861c8af6cf52111230f74bec3dbadfe60a06004356106c3610950565b60025490806002556040519160608352600d60608401526c6d696e507269636544656c746160981b608084015260208301526040820152a1005b346101c55760203660031901126101c55760043560005260046020526020604060002054604051908152f35b346101c55760603660031901126101c557610742610950565b610753604435602435600435610d6c565b604092919251911515825260048310156107765760609260208301526040820152f35b634e487b7160e01b600052602160045260246000fd5b346101c55760203660031901126101c55760043560005260056020526020604060002054604051908152f35b346101c5576107c63661020e565b6107ce610950565b6001600160a01b03908116801561081c57600080546001600160a01b03198116831782559092167f8be0079c531659141344cd1fd0a4f28419497f9722a3daafe3b4186f6b6457e08380a380f35b60405162461bcd60e51b815260206004820152602660248201527f4f776e61626c653a206e6577206f776e657220697320746865207a65726f206160448201526564647265737360d01b6064820152608490fd5b346101c55760203660031901126101c5576103e8600435048042106000146108c557603c61089e4283610a4b565b116108a557005b60405163b6b0916d60e01b81526004810191909152426024820152604490fd5b8042034281116108f85760b4106108d857005b604051630321d0b560e01b81526004810191909152426024820152604490fd5b6109a8565b346101c55760003660031901126101c55760206101e8611511565b346101c55760003660031901126101c557602060405160018152f35b346101c55760003660031901126101c557602060405160648152f35b6000546001600160a01b0316330361096457565b606460405162461bcd60e51b815260206004820152602060248201527f4f776e61626c653a2063616c6c6572206973206e6f7420746865206f776e65726044820152fd5b634e487b7160e01b600052601160045260246000fd5b60001981146108f85760010190565b90606882018092116108f857565b90600982018092116108f857565b90600282018092116108f857565b90602082018092116108f857565b90600d82018092116108f857565b90604182018092116108f857565b90604e82018092116108f857565b919082018092116108f857565b6000198101919082116108f857565b919082039182116108f857565b90612710918281029281840414901517156108f857565b818102929181159184041417156108f857565b610a8b90610b62565b602001806020116108f857610a9f91610a6f565b604e81018091116108f85790565b6602ed57011dffff1936601f1901356602ed57011e00001601610b275736602911610b155762ffffff60281936013516600381018091116108f857610af1906109db565b36610afb826109e9565b11610b035790565b60405163c30a7bd760e01b8152600490fd5b604051632bcb7bc560e11b8152600490fd5b6040516373bb264f60e11b8152600490fd5b90602082018083116108f8573610610b155760028201918281116108f8573603601f1901359190565b604181018082116108f85760618201106108f8573603906060198201913683116108f85760631901918083116108f8573562ffffff16913563ffffffff1690565b8115610bad570490565b634e487b7160e01b600052601260045260246000fd5b6103e89004804210600014610be6574281038181116108f857603c106108a55750565b8042034281116108f85760b4106108d85750565b6001600160a01b0316730c39486f770b26f5527bbbf942726537986cd7eb8103610c245750600090565b602490604051906303b1166f60e61b82526004820152fd5b634e487b7160e01b600052603260045260246000fd5b805115610c5f5760200190565b610c3c565b805160011015610c5f5760400190565b8051821015610c5f5760209160051b010190565b6002815114610d0157805115610cef57610ca181610d1b565b8051600181811c9116610ce257610cdf91610cd282610ccb610cc5610cd995610a3c565b84610c74565b5192610c74565b5190610a2f565b60011c90565b90565b610ceb91610c74565b5190565b604051639e198af960e01b8152600490fd5b610cd981610cd2610d14610cdf94610c52565b5191610c64565b8051602082818094019260051b010190805b828110610d3a5750505050565b83825b828110610d4b575001610d2d565b82518151808210610d61575b5050018490610d3d565b845281523880610d57565b91610d7683610f93565b9182610d8c856000526004602052604060002090565b5542610da2856000526005602052604060002090565b5580831115610f8357610db58184610a4b565b905b610dc981610dc484610a58565b610ba3565b91610dd3846114c5565b6001548311610ee557505050610de7611511565b9081151580610ece575b610e65575050610e01908261144d565b610e115750600090600390600090565b6040517f9ee9d1608342eed14229d2eca902e2660aff9ed9a3bdaf998af116afdf12a621339180610e5642829190604060608401936002815261012c60208201520152565b0390a360019060029061012c90565b610e7c9250610e7782610dc492610a4b565b610a58565b906040517f9ee9d1608342eed14229d2eca902e2660aff9ed9a3bdaf998af116afdf12a621339180610ec34287836040909392919360608101946001825260208201520152565b0390a3600191829190565b506064610edd60035484610a6f565b048111610df1565b7f357ce8db9c632eb267b5136efa5fcf7f6559a762164709aff4d5e8c4a4abc15f9350610f779086604097969497517f9ee9d1608342eed14229d2eca902e2660aff9ed9a3bdaf998af116afdf12a621339180610f57428d836040909392919360608101946000825260208201520152565b0390a3604051938493846040919493926060820195825260208201520152565b0390a260019160009190565b610f8d8382610a4b565b90610db7565b90610f9c6104e9565b91600190818452602084016020368237845115610c5f5752600090610fc184516110d1565b90610fcc85516110d1565b94610fd781516110f9565b958285815b611086575b505061ffff90610ff2610274610aad565b9216926040918251916020899301945b86841061102d57505050505050505061102261102891610ceb9495611351565b91610bc3565b610c52565b61103a908c848b85611152565b9390938015611075578a8103611057575b50858552870192611002565b909961106457988761104b565b845163265e23a160e11b8152600490fd5b855163dfb25a7960e01b8152600490fd5b83518110156110b65781906110996110bb565b6110a3828c610c74565b526110ae818b610c74565b500181610fdc565b610fe1565b6110c36104e9565b600181529060203681840137565b906110de61058d83610534565b82815280926110ef601f1991610534565b0190602036910137565b9061110661058d83610534565b8281528092611117601f1991610534565b019060005b82811061112857505050565b80606060208093850101520161111c565b9060405191818352602082840101604052602083013790565b9094929161115f85610b62565b91909361117c611177611171856109f7565b87610a6f565b610a05565b966111d36111cd6111c76102436111956102b7866109cd565b9b60206111b6826111b16102b7826111ac8c610a13565b610a2f565b611139565b01206111c186610a13565b906113d9565b60ff1690565b91610a21565b956000998a955b8287106111f957509699505050953565ffffffffffff16955050505050565b929598909396999194976112108461121592610a2f565b6109f7565b61121f8482611310565b96909c805b8d518110156112fa578e6112398f8390610c74565b511461124757600101611224565b9095939c9a9896949d50896001939c929a98611263838c610c74565b51858a1b918282161587816112e6575b50611292575b50505050505b019691909a99989796959493929a6111da565b6112b46112a2866112db96610c74565b516112ad878c610c74565b5190610c74565b526112c86112c2858a610c74565b516109be565b6112d2858a610c74565b5217918a610c74565b523887818080611279565b90506112f2868b610c74565b511038611273565b5094929b999795939c509795509860019061127f565b9190913603913683116108f857823592602182101561133857602001359060200360031b1c90565b6040516360007e2160e11b815260048101839052602490fd5b919061135d83516110d1565b9060005b84518110156113d2576001806113778385610c74565b51106113aa57508061139561138f6113a59388610c74565b51610c88565b61139f8286610c74565b526109be565b611361565b6113b660449284610c74565b519060405191632b13aef560e01b835260048301526024820152fd5b5090925050565b9190602080913603608060405186815260009483604087950135851a82840152803560408401520135606082015282805260015afa156114415751916001600160a01b038316156114275750565b604051633335be5d60e11b81526004810191909152602490fd5b604051903d90823e3d90fd5b906000918252600460205260408220549060056020526040832054821580156114bd575b6114b75742034281116108f857601e101561148b57505090565b6114a69250610dc49082808211156114ad57610e7791610a4b565b6002541090565b90610e7791610a4b565b50505090565b508015611471565b600754600654811015610c5f5760066000527ff652222313e28459528d920b65115c16c04f3efc82aaedc97be59f3f377c0d3f0155600754600181018091116108f85760649006600755565b6000808160068054915b6064811061153f5750600093915050811561153a57610cdf9250610ba3565b505090565b82811015610c5f5781600052807ff652222313e28459528d920b65115c16c04f3efc82aaedc97be59f3f377c0d3f015480611584575b5061157f906109be565b61151b565b85919495018091116108f85761159d61157f91956109be565b939061157556fea2646970667358221220d1b92b114f5fcd5be7e3456c69d08d8ddb3085b9269881b047cb8db0e0650c2c64736f6c63430008140033","opcodes":"PUSH1 0x80 PUSH1 0x40 MSTORE CALLVALUE PUSH2 0xC6 JUMPI PUSH2 0x12 CALLER PUSH2 0xCB JUMP JUMPDEST PUSH1 0x1 PUSH2 0x1F4 DUP2 SSTORE PUSH1 0x64 DUP1 PUSH1 0x2 SSTORE PUSH1 0x78 PUSH1 0x3 SSTORE PUSH1 0x0 JUMPDEST DUP2 DUP2 LT PUSH2 0x47 JUMPI PUSH2 0x37 CALLER PUSH2 0xCB JUMP JUMPDEST PUSH1 0x40 MLOAD PUSH2 0x15DA SWAP1 DUP2 PUSH3 0x113 DUP3 CODECOPY RETURN JUMPDEST PUSH1 0x6 DUP1 SLOAD PUSH9 0x10000000000000000 DUP2 LT ISZERO PUSH2 0xB0 JUMPI DUP5 DUP2 ADD DUP1 DUP4 SSTORE DUP2 LT ISZERO PUSH2 0x9A JUMPI PUSH1 0x0 SWAP2 DUP3 MSTORE PUSH1 0x20 DUP3 KECCAK256 ADD SSTORE PUSH1 0x0 NOT DUP2 EQ PUSH2 0x84 JUMPI DUP3 ADD PUSH2 0x27 JUMP JUMPDEST PUSH4 0x4E487B71 PUSH1 0xE0 SHL PUSH1 0x0 MSTORE PUSH1 0x11 PUSH1 0x4 MSTORE PUSH1 0x24 PUSH1 0x0 REVERT JUMPDEST PUSH4 0x4E487B71 PUSH1 0xE0 SHL PUSH1 0x0 MSTORE PUSH1 0x32 PUSH1 0x4 MSTORE PUSH1 0x24 PUSH1 0x0 REVERT JUMPDEST PUSH4 0x4E487B71 PUSH1 0xE0 SHL PUSH1 0x0 MSTORE PUSH1 0x41 PUSH1 0x4 MSTORE PUSH1 0x24 PUSH1 0x0 REVERT JUMPDEST PUSH1 0x0 DUP1 REVERT JUMPDEST PUSH1 0x0 DUP1 SLOAD PUSH1 0x1 PUSH1 0x1 PUSH1 0xA0 SHL SUB SWAP3 DUP4 AND PUSH1 0x1 PUSH1 0x1 PUSH1 0xA0 SHL SUB NOT DUP3 AND DUP2 OR DUP4 SSTORE SWAP3 AND SWAP1 PUSH32 0x8BE0079C531659141344CD1FD0A4F28419497F9722A3DAAFE3B4186F6B6457E0 SWAP1 DUP1 LOG3 JUMP INVALID PUSH1 0x80 PUSH1 0x40 MSTORE PUSH1 0x4 CALLDATASIZE LT ISZERO PUSH2 0x12 JUMPI PUSH1 0x0 DUP1 REVERT JUMPDEST PUSH1 0x0 CALLDATALOAD PUSH1 0xE0 SHR DUP1 PUSH4 0xBB30E24 EQ PUSH2 0x177 JUMPI DUP1 PUSH4 0x161E444E EQ PUSH2 0x172 JUMPI DUP1 PUSH4 0x37F8218E EQ PUSH2 0x16D JUMPI DUP1 PUSH4 0x3CE142F5 EQ PUSH2 0x168 JUMPI DUP1 PUSH4 0x55A547D5 EQ PUSH2 0x163 JUMPI DUP1 PUSH4 0x7083D1C2 EQ PUSH2 0x15E JUMPI DUP1 PUSH4 0x715018A6 EQ PUSH2 0x159 JUMPI DUP1 PUSH4 0x7BFDFAC7 EQ PUSH2 0x154 JUMPI DUP1 PUSH4 0x8DA5CB5B EQ PUSH2 0x14F JUMPI DUP1 PUSH4 0xA833BE21 EQ PUSH2 0x14A JUMPI DUP1 PUSH4 0xB24EBFCC EQ PUSH2 0x145 JUMPI DUP1 PUSH4 0xB43E6CB4 EQ PUSH2 0x140 JUMPI DUP1 PUSH4 0xC274583A EQ PUSH2 0x13B JUMPI DUP1 PUSH4 0xC324FEED EQ PUSH2 0x136 JUMPI DUP1 PUSH4 0xD67E343C EQ PUSH2 0x131 JUMPI DUP1 PUSH4 0xDB148397 EQ PUSH2 0x12C JUMPI DUP1 PUSH4 0xE4F269EC EQ PUSH2 0x127 JUMPI DUP1 PUSH4 0xF2FDE38B EQ PUSH2 0x122 JUMPI DUP1 PUSH4 0xF50B2EFE EQ PUSH2 0x11D JUMPI DUP1 PUSH4 0xF5AB4485 EQ PUSH2 0x118 JUMPI DUP1 PUSH4 0xF90C4924 EQ PUSH2 0x113 JUMPI PUSH4 0xFF53159C EQ PUSH2 0x10E JUMPI PUSH1 0x0 DUP1 REVERT JUMPDEST PUSH2 0x934 JUMP JUMPDEST PUSH2 0x918 JUMP JUMPDEST PUSH2 0x8FD JUMP JUMPDEST PUSH2 0x870 JUMP JUMPDEST PUSH2 0x7B8 JUMP JUMPDEST PUSH2 0x78C JUMP JUMPDEST PUSH2 0x729 JUMP JUMPDEST PUSH2 0x6FD JUMP JUMPDEST PUSH2 0x684 JUMP JUMPDEST PUSH2 0x5FF JUMP JUMPDEST PUSH2 0x5E1 JUMP JUMPDEST PUSH2 0x54C JUMP JUMPDEST PUSH2 0x452 JUMP JUMPDEST PUSH2 0x429 JUMP JUMPDEST PUSH2 0x40B JUMP JUMPDEST PUSH2 0x3AD JUMP JUMPDEST PUSH2 0x334 JUMP JUMPDEST PUSH2 0x253 JUMP JUMPDEST PUSH2 0x230 JUMP JUMPDEST PUSH2 0x1F0 JUMP JUMPDEST PUSH2 0x1CA JUMP JUMPDEST CALLVALUE PUSH2 0x1C5 JUMPI PUSH1 0x20 CALLDATASIZE PUSH1 0x3 NOT ADD SLT PUSH2 0x1C5 JUMPI PUSH1 0x4 CALLDATALOAD PUSH1 0x0 MSTORE PUSH1 0x4 PUSH1 0x20 MSTORE PUSH1 0x40 PUSH1 0x0 KECCAK256 SLOAD PUSH1 0x5 PUSH1 0x20 MSTORE PUSH1 0x40 PUSH1 0x0 KECCAK256 SLOAD SWAP1 PUSH2 0x1C1 PUSH1 0x40 MLOAD SWAP3 DUP4 SWAP3 DUP4 PUSH1 0x20 SWAP1 SWAP4 SWAP3 SWAP2 SWAP4 PUSH1 0x40 DUP2 ADD SWAP5 DUP2 MSTORE ADD MSTORE JUMP JUMPDEST SUB SWAP1 RETURN JUMPDEST PUSH1 0x0 DUP1 REVERT JUMPDEST CALLVALUE PUSH2 0x1C5 JUMPI PUSH1 0x20 CALLDATASIZE PUSH1 0x3 NOT ADD SLT PUSH2 0x1C5 JUMPI PUSH1 0x20 PUSH2 0x1E8 PUSH1 0x4 CALLDATALOAD PUSH2 0xF93 JUMP JUMPDEST PUSH1 0x40 MLOAD SWAP1 DUP2 MSTORE RETURN JUMPDEST CALLVALUE PUSH2 0x1C5 JUMPI PUSH1 0x0 CALLDATASIZE PUSH1 0x3 NOT ADD SLT PUSH2 0x1C5 JUMPI PUSH1 0x20 PUSH1 0x3 SLOAD PUSH1 0x40 MLOAD SWAP1 DUP2 MSTORE RETURN JUMPDEST PUSH1 0x20 SWAP1 PUSH1 0x3 NOT ADD SLT PUSH2 0x1C5 JUMPI PUSH1 0x4 CALLDATALOAD PUSH1 0x1 PUSH1 0x1 PUSH1 0xA0 SHL SUB DUP2 AND DUP2 SUB PUSH2 0x1C5 JUMPI SWAP1 JUMP JUMPDEST CALLVALUE PUSH2 0x1C5 JUMPI PUSH1 0x20 PUSH2 0x248 PUSH2 0x243 CALLDATASIZE PUSH2 0x20E JUMP JUMPDEST PUSH2 0xBFA JUMP JUMPDEST PUSH1 0xFF PUSH1 0x40 MLOAD SWAP2 AND DUP2 MSTORE RETURN JUMPDEST CALLVALUE PUSH2 0x1C5 JUMPI PUSH1 0x0 CALLDATASIZE PUSH1 0x3 NOT ADD SLT PUSH2 0x1C5 JUMPI PUSH1 0x0 PUSH2 0xFFFF PUSH2 0x279 PUSH2 0x274 PUSH2 0xAAD JUMP JUMPDEST PUSH2 0xB39 JUMP JUMPDEST SWAP2 AND SWAP1 DUP2 ISZERO PUSH2 0x322 JUMPI SWAP2 SWAP1 DUP2 JUMPDEST DUP2 DUP2 LT PUSH2 0x298 JUMPI PUSH1 0x40 MLOAD DUP4 DUP2 MSTORE PUSH1 0x20 SWAP1 RETURN JUMPDEST SWAP1 SWAP2 PUSH2 0x2A3 DUP5 PUSH2 0xA82 JUMP JUMPDEST SWAP1 PUSH6 0xFFFFFFFFFFFF PUSH2 0x2BD PUSH2 0x2B7 DUP8 PUSH2 0x9CD JUMP JUMPDEST CALLDATASIZE PUSH2 0xA4B JUMP JUMPDEST CALLDATALOAD AND SWAP1 DUP2 ISZERO PUSH2 0x310 JUMPI DUP1 PUSH2 0x2E9 JUMPI POP PUSH2 0x2E0 SWAP2 PUSH2 0x2DA SWAP2 SWAP6 PUSH2 0xA2F JUMP JUMPDEST SWAP2 PUSH2 0x9BE JUMP JUMPDEST SWAP3 SWAP2 SWAP1 SWAP3 PUSH2 0x286 JUMP JUMPDEST DUP1 SWAP6 SWAP2 SUB PUSH2 0x2FE JUMPI PUSH2 0x2E0 SWAP2 PUSH2 0x2DA SWAP2 PUSH2 0xA2F JUMP JUMPDEST PUSH1 0x40 MLOAD PUSH4 0xD9D1F465 PUSH1 0xE0 SHL DUP2 MSTORE PUSH1 0x4 SWAP1 REVERT JUMPDEST PUSH1 0x40 MLOAD PUSH4 0x336DC9D PUSH1 0xE4 SHL DUP2 MSTORE PUSH1 0x4 SWAP1 REVERT JUMPDEST PUSH1 0x40 MLOAD PUSH4 0x2154BFCF PUSH1 0xE2 SHL DUP2 MSTORE PUSH1 0x4 SWAP1 REVERT JUMPDEST CALLVALUE PUSH2 0x1C5 JUMPI PUSH1 0x20 CALLDATASIZE PUSH1 0x3 NOT ADD SLT PUSH2 0x1C5 JUMPI PUSH32 0x542D1E36F54195E4E918EAA06CF4F40E8861C8AF6CF52111230F74BEC3DBADFE PUSH1 0xA0 PUSH1 0x4 CALLDATALOAD PUSH2 0x373 PUSH2 0x950 JUMP JUMPDEST PUSH1 0x1 SLOAD SWAP1 DUP1 PUSH1 0x1 SSTORE PUSH1 0x40 MLOAD SWAP2 PUSH1 0x60 DUP4 MSTORE PUSH1 0xD PUSH1 0x60 DUP5 ADD MSTORE PUSH13 0x1C9A5CDAD51A1C995CDA1BDB19 PUSH1 0x9A SHL PUSH1 0x80 DUP5 ADD MSTORE PUSH1 0x20 DUP4 ADD MSTORE PUSH1 0x40 DUP3 ADD MSTORE LOG1 STOP JUMPDEST CALLVALUE PUSH2 0x1C5 JUMPI PUSH1 0x0 DUP1 PUSH1 0x3 NOT CALLDATASIZE ADD SLT PUSH2 0x408 JUMPI PUSH2 0x3C7 PUSH2 0x950 JUMP JUMPDEST DUP1 SLOAD PUSH1 0x1 PUSH1 0x1 PUSH1 0xA0 SHL SUB NOT DUP2 AND DUP3 SSTORE DUP2 SWAP1 PUSH1 0x1 PUSH1 0x1 PUSH1 0xA0 SHL SUB AND PUSH32 0x8BE0079C531659141344CD1FD0A4F28419497F9722A3DAAFE3B4186F6B6457E0 DUP3 DUP1 LOG3 DUP1 RETURN JUMPDEST DUP1 REVERT JUMPDEST CALLVALUE PUSH2 0x1C5 JUMPI PUSH1 0x0 CALLDATASIZE PUSH1 0x3 NOT ADD SLT PUSH2 0x1C5 JUMPI PUSH1 0x20 PUSH1 0x2 SLOAD PUSH1 0x40 MLOAD SWAP1 DUP2 MSTORE RETURN JUMPDEST CALLVALUE PUSH2 0x1C5 JUMPI PUSH1 0x0 CALLDATASIZE PUSH1 0x3 NOT ADD SLT PUSH2 0x1C5 JUMPI PUSH1 0x0 SLOAD PUSH1 0x40 MLOAD PUSH1 0x1 PUSH1 0x1 PUSH1 0xA0 SHL SUB SWAP1 SWAP2 AND DUP2 MSTORE PUSH1 0x20 SWAP1 RETURN JUMPDEST CALLVALUE PUSH2 0x1C5 JUMPI PUSH1 0x20 CALLDATASIZE PUSH1 0x3 NOT ADD SLT PUSH2 0x1C5 JUMPI PUSH32 0x542D1E36F54195E4E918EAA06CF4F40E8861C8AF6CF52111230F74BEC3DBADFE PUSH1 0xA0 PUSH1 0x4 CALLDATALOAD PUSH2 0x491 PUSH2 0x950 JUMP JUMPDEST PUSH1 0x3 SLOAD SWAP1 DUP1 PUSH1 0x3 SSTORE PUSH1 0x40 MLOAD SWAP2 PUSH1 0x60 DUP4 MSTORE PUSH1 0x15 PUSH1 0x60 DUP5 ADD MSTORE PUSH21 0x333937B73A293AB723B0B9A6BAB63A34B83634B2B9 PUSH1 0x59 SHL PUSH1 0x80 DUP5 ADD MSTORE PUSH1 0x20 DUP4 ADD MSTORE PUSH1 0x40 DUP3 ADD MSTORE LOG1 STOP JUMPDEST PUSH4 0x4E487B71 PUSH1 0xE0 SHL PUSH1 0x0 MSTORE PUSH1 0x41 PUSH1 0x4 MSTORE PUSH1 0x24 PUSH1 0x0 REVERT JUMPDEST PUSH1 0x40 MLOAD SWAP1 PUSH1 0x40 DUP3 ADD DUP3 DUP2 LT PUSH8 0xFFFFFFFFFFFFFFFF DUP3 GT OR PUSH2 0x509 JUMPI PUSH1 0x40 MSTORE JUMP JUMPDEST PUSH2 0x4D3 JUMP JUMPDEST PUSH1 0x40 MLOAD SWAP2 SWAP1 PUSH1 0x1F ADD PUSH1 0x1F NOT AND DUP3 ADD PUSH8 0xFFFFFFFFFFFFFFFF DUP2 GT DUP4 DUP3 LT OR PUSH2 0x509 JUMPI PUSH1 0x40 MSTORE JUMP JUMPDEST PUSH8 0xFFFFFFFFFFFFFFFF DUP2 GT PUSH2 0x509 JUMPI PUSH1 0x5 SHL PUSH1 0x20 ADD SWAP1 JUMP JUMPDEST CALLVALUE PUSH2 0x1C5 JUMPI PUSH1 0x20 DUP1 PUSH1 0x3 NOT CALLDATASIZE ADD SLT PUSH2 0x1C5 JUMPI PUSH1 0x4 CALLDATALOAD PUSH8 0xFFFFFFFFFFFFFFFF DUP2 GT PUSH2 0x1C5 JUMPI CALLDATASIZE PUSH1 0x23 DUP3 ADD SLT ISZERO PUSH2 0x1C5 JUMPI DUP1 PUSH1 0x4 ADD CALLDATALOAD SWAP1 PUSH2 0x592 PUSH2 0x58D DUP4 PUSH2 0x534 JUMP JUMPDEST PUSH2 0x50E JUMP JUMPDEST SWAP2 PUSH1 0x24 DUP5 DUP5 DUP4 DUP2 MSTORE ADD SWAP2 PUSH1 0x5 SHL DUP4 ADD ADD SWAP2 CALLDATASIZE DUP4 GT PUSH2 0x1C5 JUMPI PUSH1 0x24 ADD SWAP1 JUMPDEST DUP3 DUP3 LT PUSH2 0x5D2 JUMPI PUSH2 0x1C1 PUSH2 0x5C2 DUP6 PUSH2 0xC88 JUMP JUMPDEST PUSH1 0x40 MLOAD SWAP1 DUP2 MSTORE SWAP1 DUP2 SWAP1 PUSH1 0x20 DUP3 ADD SWAP1 JUMP JUMPDEST DUP2 CALLDATALOAD DUP2 MSTORE SWAP1 DUP5 ADD SWAP1 DUP5 ADD PUSH2 0x5AF JUMP JUMPDEST CALLVALUE PUSH2 0x1C5 JUMPI PUSH1 0x0 CALLDATASIZE PUSH1 0x3 NOT ADD SLT PUSH2 0x1C5 JUMPI PUSH1 0x20 PUSH1 0x1 SLOAD PUSH1 0x40 MLOAD SWAP1 DUP2 MSTORE RETURN JUMPDEST CALLVALUE PUSH2 0x1C5 JUMPI PUSH1 0x0 CALLDATASIZE PUSH1 0x3 NOT ADD SLT PUSH2 0x1C5 JUMPI PUSH2 0x618 PUSH2 0x4E9 JUMP JUMPDEST PUSH1 0x12 DUP2 MSTORE PUSH1 0x20 PUSH18 0x72656473746F6E652D6D61696E2D64656D6F PUSH1 0x70 SHL DUP2 DUP4 ADD MSTORE PUSH1 0x40 SWAP1 DUP2 MLOAD SWAP3 DUP2 DUP5 SWAP3 DUP4 MSTORE DUP2 MLOAD SWAP2 DUP3 DUP3 DUP6 ADD MSTORE PUSH1 0x0 JUMPDEST DUP4 DUP2 LT PUSH2 0x66E JUMPI POP POP PUSH1 0x0 DUP4 DUP4 ADD DUP6 ADD MSTORE POP PUSH1 0x1F ADD PUSH1 0x1F NOT AND DUP2 ADD SUB ADD SWAP1 RETURN JUMPDEST DUP2 DUP2 ADD DUP4 ADD MLOAD DUP8 DUP3 ADD DUP8 ADD MSTORE DUP7 SWAP5 POP DUP3 ADD PUSH2 0x64E JUMP JUMPDEST CALLVALUE PUSH2 0x1C5 JUMPI PUSH1 0x20 CALLDATASIZE PUSH1 0x3 NOT ADD SLT PUSH2 0x1C5 JUMPI PUSH32 0x542D1E36F54195E4E918EAA06CF4F40E8861C8AF6CF52111230F74BEC3DBADFE PUSH1 0xA0 PUSH1 0x4 CALLDATALOAD PUSH2 0x6C3 PUSH2 0x950 JUMP JUMPDEST PUSH1 0x2 SLOAD SWAP1 DUP1 PUSH1 0x2 SSTORE PUSH1 0x40 MLOAD SWAP2 PUSH1 0x60 DUP4 MSTORE PUSH1 0xD PUSH1 0x60 DUP5 ADD MSTORE PUSH13 0x6D696E507269636544656C7461 PUSH1 0x98 SHL PUSH1 0x80 DUP5 ADD MSTORE PUSH1 0x20 DUP4 ADD MSTORE PUSH1 0x40 DUP3 ADD MSTORE LOG1 STOP JUMPDEST CALLVALUE PUSH2 0x1C5 JUMPI PUSH1 0x20 CALLDATASIZE PUSH1 0x3 NOT ADD SLT PUSH2 0x1C5 JUMPI PUSH1 0x4 CALLDATALOAD PUSH1 0x0 MSTORE PUSH1 0x4 PUSH1 0x20 MSTORE PUSH1 0x20 PUSH1 0x40 PUSH1 0x0 KECCAK256 SLOAD PUSH1 0x40 MLOAD SWAP1 DUP2 MSTORE RETURN JUMPDEST CALLVALUE PUSH2 0x1C5 JUMPI PUSH1 0x60 CALLDATASIZE PUSH1 0x3 NOT ADD SLT PUSH2 0x1C5 JUMPI PUSH2 0x742 PUSH2 0x950 JUMP JUMPDEST PUSH2 0x753 PUSH1 0x44 CALLDATALOAD PUSH1 0x24 CALLDATALOAD PUSH1 0x4 CALLDATALOAD PUSH2 0xD6C JUMP JUMPDEST PUSH1 0x40 SWAP3 SWAP2 SWAP3 MLOAD SWAP2 ISZERO ISZERO DUP3 MSTORE PUSH1 0x4 DUP4 LT ISZERO PUSH2 0x776 JUMPI PUSH1 0x60 SWAP3 PUSH1 0x20 DUP4 ADD MSTORE PUSH1 0x40 DUP3 ADD MSTORE RETURN JUMPDEST PUSH4 0x4E487B71 PUSH1 0xE0 SHL PUSH1 0x0 MSTORE PUSH1 0x21 PUSH1 0x4 MSTORE PUSH1 0x24 PUSH1 0x0 REVERT JUMPDEST CALLVALUE PUSH2 0x1C5 JUMPI PUSH1 0x20 CALLDATASIZE PUSH1 0x3 NOT ADD SLT PUSH2 0x1C5 JUMPI PUSH1 0x4 CALLDATALOAD PUSH1 0x0 MSTORE PUSH1 0x5 PUSH1 0x20 MSTORE PUSH1 0x20 PUSH1 0x40 PUSH1 0x0 KECCAK256 SLOAD PUSH1 0x40 MLOAD SWAP1 DUP2 MSTORE RETURN JUMPDEST CALLVALUE PUSH2 0x1C5 JUMPI PUSH2 0x7C6 CALLDATASIZE PUSH2 0x20E JUMP JUMPDEST PUSH2 0x7CE PUSH2 0x950 JUMP JUMPDEST PUSH1 0x1 PUSH1 0x1 PUSH1 0xA0 SHL SUB SWAP1 DUP2 AND DUP1 ISZERO PUSH2 0x81C JUMPI PUSH1 0x0 DUP1 SLOAD PUSH1 0x1 PUSH1 0x1 PUSH1 0xA0 SHL SUB NOT DUP2 AND DUP4 OR DUP3 SSTORE SWAP1 SWAP3 AND PUSH32 0x8BE0079C531659141344CD1FD0A4F28419497F9722A3DAAFE3B4186F6B6457E0 DUP4 DUP1 LOG3 DUP1 RETURN JUMPDEST PUSH1 0x40 MLOAD PUSH3 0x461BCD PUSH1 0xE5 SHL DUP2 MSTORE PUSH1 0x20 PUSH1 0x4 DUP3 ADD MSTORE PUSH1 0x26 PUSH1 0x24 DUP3 ADD MSTORE PUSH32 0x4F776E61626C653A206E6577206F776E657220697320746865207A65726F2061 PUSH1 0x44 DUP3 ADD MSTORE PUSH6 0x646472657373 PUSH1 0xD0 SHL PUSH1 0x64 DUP3 ADD MSTORE PUSH1 0x84 SWAP1 REVERT JUMPDEST CALLVALUE PUSH2 0x1C5 JUMPI PUSH1 0x20 CALLDATASIZE PUSH1 0x3 NOT ADD SLT PUSH2 0x1C5 JUMPI PUSH2 0x3E8 PUSH1 0x4 CALLDATALOAD DIV DUP1 TIMESTAMP LT PUSH1 0x0 EQ PUSH2 0x8C5 JUMPI PUSH1 0x3C PUSH2 0x89E TIMESTAMP DUP4 PUSH2 0xA4B JUMP JUMPDEST GT PUSH2 0x8A5 JUMPI STOP JUMPDEST PUSH1 0x40 MLOAD PUSH4 0xB6B0916D PUSH1 0xE0 SHL DUP2 MSTORE PUSH1 0x4 DUP2 ADD SWAP2 SWAP1 SWAP2 MSTORE TIMESTAMP PUSH1 0x24 DUP3 ADD MSTORE PUSH1 0x44 SWAP1 REVERT JUMPDEST DUP1 TIMESTAMP SUB TIMESTAMP DUP2 GT PUSH2 0x8F8 JUMPI PUSH1 0xB4 LT PUSH2 0x8D8 JUMPI STOP JUMPDEST PUSH1 0x40 MLOAD PUSH4 0x321D0B5 PUSH1 0xE0 SHL DUP2 MSTORE PUSH1 0x4 DUP2 ADD SWAP2 SWAP1 SWAP2 MSTORE TIMESTAMP PUSH1 0x24 DUP3 ADD MSTORE PUSH1 0x44 SWAP1 REVERT JUMPDEST PUSH2 0x9A8 JUMP JUMPDEST CALLVALUE PUSH2 0x1C5 JUMPI PUSH1 0x0 CALLDATASIZE PUSH1 0x3 NOT ADD SLT PUSH2 0x1C5 JUMPI PUSH1 0x20 PUSH2 0x1E8 PUSH2 0x1511 JUMP JUMPDEST CALLVALUE PUSH2 0x1C5 JUMPI PUSH1 0x0 CALLDATASIZE PUSH1 0x3 NOT ADD SLT PUSH2 0x1C5 JUMPI PUSH1 0x20 PUSH1 0x40 MLOAD PUSH1 0x1 DUP2 MSTORE RETURN JUMPDEST CALLVALUE PUSH2 0x1C5 JUMPI PUSH1 0x0 CALLDATASIZE PUSH1 0x3 NOT ADD SLT PUSH2 0x1C5 JUMPI PUSH1 0x20 PUSH1 0x40 MLOAD PUSH1 0x64 DUP2 MSTORE RETURN JUMPDEST PUSH1 0x0 SLOAD PUSH1 0x1 PUSH1 0x1 PUSH1 0xA0 SHL SUB AND CALLER SUB PUSH2 0x964 JUMPI JUMP JUMPDEST PUSH1 0x64 PUSH1 0x40 MLOAD PUSH3 0x461BCD PUSH1 0xE5 SHL DUP2 MSTORE PUSH1 0x20 PUSH1 0x4 DUP3 ADD MSTORE PUSH1 0x20 PUSH1 0x24 DUP3 ADD MSTORE PUSH32 0x4F776E61626C653A2063616C6C6572206973206E6F7420746865206F776E6572 PUSH1 0x44 DUP3 ADD MSTORE REVERT JUMPDEST PUSH4 0x4E487B71 PUSH1 0xE0 SHL PUSH1 0x0 MSTORE PUSH1 0x11 PUSH1 0x4 MSTORE PUSH1 0x24 PUSH1 0x0 REVERT JUMPDEST PUSH1 0x0 NOT DUP2 EQ PUSH2 0x8F8 JUMPI PUSH1 0x1 ADD SWAP1 JUMP JUMPDEST SWAP1 PUSH1 0x68 DUP3 ADD DUP1 SWAP3 GT PUSH2 0x8F8 JUMPI JUMP JUMPDEST SWAP1 PUSH1 0x9 DUP3 ADD DUP1 SWAP3 GT PUSH2 0x8F8 JUMPI JUMP JUMPDEST SWAP1 PUSH1 0x2 DUP3 ADD DUP1 SWAP3 GT PUSH2 0x8F8 JUMPI JUMP JUMPDEST SWAP1 PUSH1 0x20 DUP3 ADD DUP1 SWAP3 GT PUSH2 0x8F8 JUMPI JUMP JUMPDEST SWAP1 PUSH1 0xD DUP3 ADD DUP1 SWAP3 GT PUSH2 0x8F8 JUMPI JUMP JUMPDEST SWAP1 PUSH1 0x41 DUP3 ADD DUP1 SWAP3 GT PUSH2 0x8F8 JUMPI JUMP JUMPDEST SWAP1 PUSH1 0x4E DUP3 ADD DUP1 SWAP3 GT PUSH2 0x8F8 JUMPI JUMP JUMPDEST SWAP2 SWAP1 DUP3 ADD DUP1 SWAP3 GT PUSH2 0x8F8 JUMPI JUMP JUMPDEST PUSH1 0x0 NOT DUP2 ADD SWAP2 SWAP1 DUP3 GT PUSH2 0x8F8 JUMPI JUMP JUMPDEST SWAP2 SWAP1 DUP3 SUB SWAP2 DUP3 GT PUSH2 0x8F8 JUMPI JUMP JUMPDEST SWAP1 PUSH2 0x2710 SWAP2 DUP3 DUP2 MUL SWAP3 DUP2 DUP5 DIV EQ SWAP1 ISZERO OR ISZERO PUSH2 0x8F8 JUMPI JUMP JUMPDEST DUP2 DUP2 MUL SWAP3 SWAP2 DUP2 ISZERO SWAP2 DUP5 DIV EQ OR ISZERO PUSH2 0x8F8 JUMPI JUMP JUMPDEST PUSH2 0xA8B SWAP1 PUSH2 0xB62 JUMP JUMPDEST PUSH1 0x20 ADD DUP1 PUSH1 0x20 GT PUSH2 0x8F8 JUMPI PUSH2 0xA9F SWAP2 PUSH2 0xA6F JUMP JUMPDEST PUSH1 0x4E DUP2 ADD DUP1 SWAP2 GT PUSH2 0x8F8 JUMPI SWAP1 JUMP JUMPDEST PUSH7 0x2ED57011DFFFF NOT CALLDATASIZE PUSH1 0x1F NOT ADD CALLDATALOAD PUSH7 0x2ED57011E0000 AND ADD PUSH2 0xB27 JUMPI CALLDATASIZE PUSH1 0x29 GT PUSH2 0xB15 JUMPI PUSH3 0xFFFFFF PUSH1 0x28 NOT CALLDATASIZE ADD CALLDATALOAD AND PUSH1 0x3 DUP2 ADD DUP1 SWAP2 GT PUSH2 0x8F8 JUMPI PUSH2 0xAF1 SWAP1 PUSH2 0x9DB JUMP JUMPDEST CALLDATASIZE PUSH2 0xAFB DUP3 PUSH2 0x9E9 JUMP JUMPDEST GT PUSH2 0xB03 JUMPI SWAP1 JUMP JUMPDEST PUSH1 0x40 MLOAD PUSH4 0xC30A7BD7 PUSH1 0xE0 SHL DUP2 MSTORE PUSH1 0x4 SWAP1 REVERT JUMPDEST PUSH1 0x40 MLOAD PUSH4 0x2BCB7BC5 PUSH1 0xE1 SHL DUP2 MSTORE PUSH1 0x4 SWAP1 REVERT JUMPDEST PUSH1 0x40 MLOAD PUSH4 0x73BB264F PUSH1 0xE1 SHL DUP2 MSTORE PUSH1 0x4 SWAP1 REVERT JUMPDEST SWAP1 PUSH1 0x20 DUP3 ADD DUP1 DUP4 GT PUSH2 0x8F8 JUMPI CALLDATASIZE LT PUSH2 0xB15 JUMPI PUSH1 0x2 DUP3 ADD SWAP2 DUP3 DUP2 GT PUSH2 0x8F8 JUMPI CALLDATASIZE SUB PUSH1 0x1F NOT ADD CALLDATALOAD SWAP2 SWAP1 JUMP JUMPDEST PUSH1 0x41 DUP2 ADD DUP1 DUP3 GT PUSH2 0x8F8 JUMPI PUSH1 0x61 DUP3 ADD LT PUSH2 0x8F8 JUMPI CALLDATASIZE SUB SWAP1 PUSH1 0x60 NOT DUP3 ADD SWAP2 CALLDATASIZE DUP4 GT PUSH2 0x8F8 JUMPI PUSH1 0x63 NOT ADD SWAP2 DUP1 DUP4 GT PUSH2 0x8F8 JUMPI CALLDATALOAD PUSH3 0xFFFFFF AND SWAP2 CALLDATALOAD PUSH4 0xFFFFFFFF AND SWAP1 JUMP JUMPDEST DUP2 ISZERO PUSH2 0xBAD JUMPI DIV SWAP1 JUMP JUMPDEST PUSH4 0x4E487B71 PUSH1 0xE0 SHL PUSH1 0x0 MSTORE PUSH1 0x12 PUSH1 0x4 MSTORE PUSH1 0x24 PUSH1 0x0 REVERT JUMPDEST PUSH2 0x3E8 SWAP1 DIV DUP1 TIMESTAMP LT PUSH1 0x0 EQ PUSH2 0xBE6 JUMPI TIMESTAMP DUP2 SUB DUP2 DUP2 GT PUSH2 0x8F8 JUMPI PUSH1 0x3C LT PUSH2 0x8A5 JUMPI POP JUMP JUMPDEST DUP1 TIMESTAMP SUB TIMESTAMP DUP2 GT PUSH2 0x8F8 JUMPI PUSH1 0xB4 LT PUSH2 0x8D8 JUMPI POP JUMP JUMPDEST PUSH1 0x1 PUSH1 0x1 PUSH1 0xA0 SHL SUB AND PUSH20 0xC39486F770B26F5527BBBF942726537986CD7EB DUP2 SUB PUSH2 0xC24 JUMPI POP PUSH1 0x0 SWAP1 JUMP JUMPDEST PUSH1 0x24 SWAP1 PUSH1 0x40 MLOAD SWAP1 PUSH4 0x3B1166F PUSH1 0xE6 SHL DUP3 MSTORE PUSH1 0x4 DUP3 ADD MSTORE REVERT JUMPDEST PUSH4 0x4E487B71 PUSH1 0xE0 SHL PUSH1 0x0 MSTORE PUSH1 0x32 PUSH1 0x4 MSTORE PUSH1 0x24 PUSH1 0x0 REVERT JUMPDEST DUP1 MLOAD ISZERO PUSH2 0xC5F JUMPI PUSH1 0x20 ADD SWAP1 JUMP JUMPDEST PUSH2 0xC3C JUMP JUMPDEST DUP1 MLOAD PUSH1 0x1 LT ISZERO PUSH2 0xC5F JUMPI PUSH1 0x40 ADD SWAP1 JUMP JUMPDEST DUP1 MLOAD DUP3 LT ISZERO PUSH2 0xC5F JUMPI PUSH1 0x20 SWAP2 PUSH1 0x5 SHL ADD ADD SWAP1 JUMP JUMPDEST PUSH1 0x2 DUP2 MLOAD EQ PUSH2 0xD01 JUMPI DUP1 MLOAD ISZERO PUSH2 0xCEF JUMPI PUSH2 0xCA1 DUP2 PUSH2 0xD1B JUMP JUMPDEST DUP1 MLOAD PUSH1 0x1 DUP2 DUP2 SHR SWAP2 AND PUSH2 0xCE2 JUMPI PUSH2 0xCDF SWAP2 PUSH2 0xCD2 DUP3 PUSH2 0xCCB PUSH2 0xCC5 PUSH2 0xCD9 SWAP6 PUSH2 0xA3C JUMP JUMPDEST DUP5 PUSH2 0xC74 JUMP JUMPDEST MLOAD SWAP3 PUSH2 0xC74 JUMP JUMPDEST MLOAD SWAP1 PUSH2 0xA2F JUMP JUMPDEST PUSH1 0x1 SHR SWAP1 JUMP JUMPDEST SWAP1 JUMP JUMPDEST PUSH2 0xCEB SWAP2 PUSH2 0xC74 JUMP JUMPDEST MLOAD SWAP1 JUMP JUMPDEST PUSH1 0x40 MLOAD PUSH4 0x9E198AF9 PUSH1 0xE0 SHL DUP2 MSTORE PUSH1 0x4 SWAP1 REVERT JUMPDEST PUSH2 0xCD9 DUP2 PUSH2 0xCD2 PUSH2 0xD14 PUSH2 0xCDF SWAP5 PUSH2 0xC52 JUMP JUMPDEST MLOAD SWAP2 PUSH2 0xC64 JUMP JUMPDEST DUP1 MLOAD PUSH1 0x20 DUP3 DUP2 DUP1 SWAP5 ADD SWAP3 PUSH1 0x5 SHL ADD ADD SWAP1 DUP1 JUMPDEST DUP3 DUP2 LT PUSH2 0xD3A JUMPI POP POP POP POP JUMP JUMPDEST DUP4 DUP3 JUMPDEST DUP3 DUP2 LT PUSH2 0xD4B JUMPI POP ADD PUSH2 0xD2D JUMP JUMPDEST DUP3 MLOAD DUP2 MLOAD DUP1 DUP3 LT PUSH2 0xD61 JUMPI JUMPDEST POP POP ADD DUP5 SWAP1 PUSH2 0xD3D JUMP JUMPDEST DUP5 MSTORE DUP2 MSTORE CODESIZE DUP1 PUSH2 0xD57 JUMP JUMPDEST SWAP2 PUSH2 0xD76 DUP4 PUSH2 0xF93 JUMP JUMPDEST SWAP2 DUP3 PUSH2 0xD8C DUP6 PUSH1 0x0 MSTORE PUSH1 0x4 PUSH1 0x20 MSTORE PUSH1 0x40 PUSH1 0x0 KECCAK256 SWAP1 JUMP JUMPDEST SSTORE TIMESTAMP PUSH2 0xDA2 DUP6 PUSH1 0x0 MSTORE PUSH1 0x5 PUSH1 0x20 MSTORE PUSH1 0x40 PUSH1 0x0 KECCAK256 SWAP1 JUMP JUMPDEST SSTORE DUP1 DUP4 GT ISZERO PUSH2 0xF83 JUMPI PUSH2 0xDB5 DUP2 DUP5 PUSH2 0xA4B JUMP JUMPDEST SWAP1 JUMPDEST PUSH2 0xDC9 DUP2 PUSH2 0xDC4 DUP5 PUSH2 0xA58 JUMP JUMPDEST PUSH2 0xBA3 JUMP JUMPDEST SWAP2 PUSH2 0xDD3 DUP5 PUSH2 0x14C5 JUMP JUMPDEST PUSH1 0x1 SLOAD DUP4 GT PUSH2 0xEE5 JUMPI POP POP POP PUSH2 0xDE7 PUSH2 0x1511 JUMP JUMPDEST SWAP1 DUP2 ISZERO ISZERO DUP1 PUSH2 0xECE JUMPI JUMPDEST PUSH2 0xE65 JUMPI POP POP PUSH2 0xE01 SWAP1 DUP3 PUSH2 0x144D JUMP JUMPDEST PUSH2 0xE11 JUMPI POP PUSH1 0x0 SWAP1 PUSH1 0x3 SWAP1 PUSH1 0x0 SWAP1 JUMP JUMPDEST PUSH1 0x40 MLOAD PUSH32 0x9EE9D1608342EED14229D2ECA902E2660AFF9ED9A3BDAF998AF116AFDF12A621 CALLER SWAP2 DUP1 PUSH2 0xE56 TIMESTAMP DUP3 SWAP2 SWAP1 PUSH1 0x40 PUSH1 0x60 DUP5 ADD SWAP4 PUSH1 0x2 DUP2 MSTORE PUSH2 0x12C PUSH1 0x20 DUP3 ADD MSTORE ADD MSTORE JUMP JUMPDEST SUB SWAP1 LOG3 PUSH1 0x1 SWAP1 PUSH1 0x2 SWAP1 PUSH2 0x12C SWAP1 JUMP JUMPDEST PUSH2 0xE7C SWAP3 POP PUSH2 0xE77 DUP3 PUSH2 0xDC4 SWAP3 PUSH2 0xA4B JUMP JUMPDEST PUSH2 0xA58 JUMP JUMPDEST SWAP1 PUSH1 0x40 MLOAD PUSH32 0x9EE9D1608342EED14229D2ECA902E2660AFF9ED9A3BDAF998AF116AFDF12A621 CALLER SWAP2 DUP1 PUSH2 0xEC3 TIMESTAMP DUP8 DUP4 PUSH1 0x40 SWAP1 SWAP4 SWAP3 SWAP2 SWAP4 PUSH1 0x60 DUP2 ADD SWAP5 PUSH1 0x1 DUP3 MSTORE PUSH1 0x20 DUP3 ADD MSTORE ADD MSTORE JUMP JUMPDEST SUB SWAP1 LOG3 PUSH1 0x1 SWAP2 DUP3 SWAP2 SWAP1 JUMP JUMPDEST POP PUSH1 0x64 PUSH2 0xEDD PUSH1 0x3 SLOAD DUP5 PUSH2 0xA6F JUMP JUMPDEST DIV DUP2 GT PUSH2 0xDF1 JUMP JUMPDEST PUSH32 0x357CE8DB9C632EB267B5136EFA5FCF7F6559A762164709AFF4D5E8C4A4ABC15F SWAP4 POP PUSH2 0xF77 SWAP1 DUP7 PUSH1 0x40 SWAP8 SWAP7 SWAP5 SWAP8 MLOAD PUSH32 0x9EE9D1608342EED14229D2ECA902E2660AFF9ED9A3BDAF998AF116AFDF12A621 CALLER SWAP2 DUP1 PUSH2 0xF57 TIMESTAMP DUP14 DUP4 PUSH1 0x40 SWAP1 SWAP4 SWAP3 SWAP2 SWAP4 PUSH1 0x60 DUP2 ADD SWAP5 PUSH1 0x0 DUP3 MSTORE PUSH1 0x20 DUP3 ADD MSTORE ADD MSTORE JUMP JUMPDEST SUB SWAP1 LOG3 PUSH1 0x40 MLOAD SWAP4 DUP5 SWAP4 DUP5 PUSH1 0x40 SWAP2 SWAP5 SWAP4 SWAP3 PUSH1 0x60 DUP3 ADD SWAP6 DUP3 MSTORE PUSH1 0x20 DUP3 ADD MSTORE ADD MSTORE JUMP JUMPDEST SUB SWAP1 LOG2 PUSH1 0x1 SWAP2 PUSH1 0x0 SWAP2 SWAP1 JUMP JUMPDEST PUSH2 0xF8D DUP4 DUP3 PUSH2 0xA4B JUMP JUMPDEST SWAP1 PUSH2 0xDB7 JUMP JUMPDEST SWAP1 PUSH2 0xF9C PUSH2 0x4E9 JUMP JUMPDEST SWAP2 PUSH1 0x1 SWAP1 DUP2 DUP5 MSTORE PUSH1 0x20 DUP5 ADD PUSH1 0x20 CALLDATASIZE DUP3 CALLDATACOPY DUP5 MLOAD ISZERO PUSH2 0xC5F JUMPI MSTORE PUSH1 0x0 SWAP1 PUSH2 0xFC1 DUP5 MLOAD PUSH2 0x10D1 JUMP JUMPDEST SWAP1 PUSH2 0xFCC DUP6 MLOAD PUSH2 0x10D1 JUMP JUMPDEST SWAP5 PUSH2 0xFD7 DUP2 MLOAD PUSH2 0x10F9 JUMP JUMPDEST SWAP6 DUP3 DUP6 DUP2 JUMPDEST PUSH2 0x1086 JUMPI JUMPDEST POP POP PUSH2 0xFFFF SWAP1 PUSH2 0xFF2 PUSH2 0x274 PUSH2 0xAAD JUMP JUMPDEST SWAP3 AND SWAP3 PUSH1 0x40 SWAP2 DUP3 MLOAD SWAP2 PUSH1 0x20 DUP10 SWAP4 ADD SWAP5 JUMPDEST DUP7 DUP5 LT PUSH2 0x102D JUMPI POP POP POP POP POP POP POP POP PUSH2 0x1022 PUSH2 0x1028 SWAP2 PUSH2 0xCEB SWAP5 SWAP6 PUSH2 0x1351 JUMP JUMPDEST SWAP2 PUSH2 0xBC3 JUMP JUMPDEST PUSH2 0xC52 JUMP JUMPDEST PUSH2 0x103A SWAP1 DUP13 DUP5 DUP12 DUP6 PUSH2 0x1152 JUMP JUMPDEST SWAP4 SWAP1 SWAP4 DUP1 ISZERO PUSH2 0x1075 JUMPI DUP11 DUP2 SUB PUSH2 0x1057 JUMPI JUMPDEST POP DUP6 DUP6 MSTORE DUP8 ADD SWAP3 PUSH2 0x1002 JUMP JUMPDEST SWAP1 SWAP10 PUSH2 0x1064 JUMPI SWAP9 DUP8 PUSH2 0x104B JUMP JUMPDEST DUP5 MLOAD PUSH4 0x265E23A1 PUSH1 0xE1 SHL DUP2 MSTORE PUSH1 0x4 SWAP1 REVERT JUMPDEST DUP6 MLOAD PUSH4 0xDFB25A79 PUSH1 0xE0 SHL DUP2 MSTORE PUSH1 0x4 SWAP1 REVERT JUMPDEST DUP4 MLOAD DUP2 LT ISZERO PUSH2 0x10B6 JUMPI DUP2 SWAP1 PUSH2 0x1099 PUSH2 0x10BB JUMP JUMPDEST PUSH2 0x10A3 DUP3 DUP13 PUSH2 0xC74 JUMP JUMPDEST MSTORE PUSH2 0x10AE DUP2 DUP12 PUSH2 0xC74 JUMP JUMPDEST POP ADD DUP2 PUSH2 0xFDC JUMP JUMPDEST PUSH2 0xFE1 JUMP JUMPDEST PUSH2 0x10C3 PUSH2 0x4E9 JUMP JUMPDEST PUSH1 0x1 DUP2 MSTORE SWAP1 PUSH1 0x20 CALLDATASIZE DUP2 DUP5 ADD CALLDATACOPY JUMP JUMPDEST SWAP1 PUSH2 0x10DE PUSH2 0x58D DUP4 PUSH2 0x534 JUMP JUMPDEST DUP3 DUP2 MSTORE DUP1 SWAP3 PUSH2 0x10EF PUSH1 0x1F NOT SWAP2 PUSH2 0x534 JUMP JUMPDEST ADD SWAP1 PUSH1 0x20 CALLDATASIZE SWAP2 ADD CALLDATACOPY JUMP JUMPDEST SWAP1 PUSH2 0x1106 PUSH2 0x58D DUP4 PUSH2 0x534 JUMP JUMPDEST DUP3 DUP2 MSTORE DUP1 SWAP3 PUSH2 0x1117 PUSH1 0x1F NOT SWAP2 PUSH2 0x534 JUMP JUMPDEST ADD SWAP1 PUSH1 0x0 JUMPDEST DUP3 DUP2 LT PUSH2 0x1128 JUMPI POP POP POP JUMP JUMPDEST DUP1 PUSH1 0x60 PUSH1 0x20 DUP1 SWAP4 DUP6 ADD ADD MSTORE ADD PUSH2 0x111C JUMP JUMPDEST SWAP1 PUSH1 0x40 MLOAD SWAP2 DUP2 DUP4 MSTORE PUSH1 0x20 DUP3 DUP5 ADD ADD PUSH1 0x40 MSTORE PUSH1 0x20 DUP4 ADD CALLDATACOPY SWAP1 JUMP JUMPDEST SWAP1 SWAP5 SWAP3 SWAP2 PUSH2 0x115F DUP6 PUSH2 0xB62 JUMP JUMPDEST SWAP2 SWAP1 SWAP4 PUSH2 0x117C PUSH2 0x1177 PUSH2 0x1171 DUP6 PUSH2 0x9F7 JUMP JUMPDEST DUP8 PUSH2 0xA6F JUMP JUMPDEST PUSH2 0xA05 JUMP JUMPDEST SWAP7 PUSH2 0x11D3 PUSH2 0x11CD PUSH2 0x11C7 PUSH2 0x243 PUSH2 0x1195 PUSH2 0x2B7 DUP7 PUSH2 0x9CD JUMP JUMPDEST SWAP12 PUSH1 0x20 PUSH2 0x11B6 DUP3 PUSH2 0x11B1 PUSH2 0x2B7 DUP3 PUSH2 0x11AC DUP13 PUSH2 0xA13 JUMP JUMPDEST PUSH2 0xA2F JUMP JUMPDEST PUSH2 0x1139 JUMP JUMPDEST ADD KECCAK256 PUSH2 0x11C1 DUP7 PUSH2 0xA13 JUMP JUMPDEST SWAP1 PUSH2 0x13D9 JUMP JUMPDEST PUSH1 0xFF AND SWAP1 JUMP JUMPDEST SWAP2 PUSH2 0xA21 JUMP JUMPDEST SWAP6 PUSH1 0x0 SWAP10 DUP11 SWAP6 JUMPDEST DUP3 DUP8 LT PUSH2 0x11F9 JUMPI POP SWAP7 SWAP10 POP POP POP SWAP6 CALLDATALOAD PUSH6 0xFFFFFFFFFFFF AND SWAP6 POP POP POP POP POP JUMP JUMPDEST SWAP3 SWAP6 SWAP9 SWAP1 SWAP4 SWAP7 SWAP10 SWAP2 SWAP5 SWAP8 PUSH2 0x1210 DUP5 PUSH2 0x1215 SWAP3 PUSH2 0xA2F JUMP JUMPDEST PUSH2 0x9F7 JUMP JUMPDEST PUSH2 0x121F DUP5 DUP3 PUSH2 0x1310 JUMP JUMPDEST SWAP7 SWAP1 SWAP13 DUP1 JUMPDEST DUP14 MLOAD DUP2 LT ISZERO PUSH2 0x12FA JUMPI DUP15 PUSH2 0x1239 DUP16 DUP4 SWAP1 PUSH2 0xC74 JUMP JUMPDEST MLOAD EQ PUSH2 0x1247 JUMPI PUSH1 0x1 ADD PUSH2 0x1224 JUMP JUMPDEST SWAP1 SWAP6 SWAP4 SWAP13 SWAP11 SWAP9 SWAP7 SWAP5 SWAP14 POP DUP10 PUSH1 0x1 SWAP4 SWAP13 SWAP3 SWAP11 SWAP9 PUSH2 0x1263 DUP4 DUP13 PUSH2 0xC74 JUMP JUMPDEST MLOAD DUP6 DUP11 SHL SWAP2 DUP3 DUP3 AND ISZERO DUP8 DUP2 PUSH2 0x12E6 JUMPI JUMPDEST POP PUSH2 0x1292 JUMPI JUMPDEST POP POP POP POP POP JUMPDEST ADD SWAP7 SWAP2 SWAP1 SWAP11 SWAP10 SWAP9 SWAP8 SWAP7 SWAP6 SWAP5 SWAP4 SWAP3 SWAP11 PUSH2 0x11DA JUMP JUMPDEST PUSH2 0x12B4 PUSH2 0x12A2 DUP7 PUSH2 0x12DB SWAP7 PUSH2 0xC74 JUMP JUMPDEST MLOAD PUSH2 0x12AD DUP8 DUP13 PUSH2 0xC74 JUMP JUMPDEST MLOAD SWAP1 PUSH2 0xC74 JUMP JUMPDEST MSTORE PUSH2 0x12C8 PUSH2 0x12C2 DUP6 DUP11 PUSH2 0xC74 JUMP JUMPDEST MLOAD PUSH2 0x9BE JUMP JUMPDEST PUSH2 0x12D2 DUP6 DUP11 PUSH2 0xC74 JUMP JUMPDEST MSTORE OR SWAP2 DUP11 PUSH2 0xC74 JUMP JUMPDEST MSTORE CODESIZE DUP8 DUP2 DUP1 DUP1 PUSH2 0x1279 JUMP JUMPDEST SWAP1 POP PUSH2 0x12F2 DUP7 DUP12 PUSH2 0xC74 JUMP JUMPDEST MLOAD LT CODESIZE PUSH2 0x1273 JUMP JUMPDEST POP SWAP5 SWAP3 SWAP12 SWAP10 SWAP8 SWAP6 SWAP4 SWAP13 POP SWAP8 SWAP6 POP SWAP9 PUSH1 0x1 SWAP1 PUSH2 0x127F JUMP JUMPDEST SWAP2 SWAP1 SWAP2 CALLDATASIZE SUB SWAP2 CALLDATASIZE DUP4 GT PUSH2 0x8F8 JUMPI DUP3 CALLDATALOAD SWAP3 PUSH1 0x21 DUP3 LT ISZERO PUSH2 0x1338 JUMPI PUSH1 0x20 ADD CALLDATALOAD SWAP1 PUSH1 0x20 SUB PUSH1 0x3 SHL SHR SWAP1 JUMP JUMPDEST PUSH1 0x40 MLOAD PUSH4 0x60007E21 PUSH1 0xE1 SHL DUP2 MSTORE PUSH1 0x4 DUP2 ADD DUP4 SWAP1 MSTORE PUSH1 0x24 SWAP1 REVERT JUMPDEST SWAP2 SWAP1 PUSH2 0x135D DUP4 MLOAD PUSH2 0x10D1 JUMP JUMPDEST SWAP1 PUSH1 0x0 JUMPDEST DUP5 MLOAD DUP2 LT ISZERO PUSH2 0x13D2 JUMPI PUSH1 0x1 DUP1 PUSH2 0x1377 DUP4 DUP6 PUSH2 0xC74 JUMP JUMPDEST MLOAD LT PUSH2 0x13AA JUMPI POP DUP1 PUSH2 0x1395 PUSH2 0x138F PUSH2 0x13A5 SWAP4 DUP9 PUSH2 0xC74 JUMP JUMPDEST MLOAD PUSH2 0xC88 JUMP JUMPDEST PUSH2 0x139F DUP3 DUP7 PUSH2 0xC74 JUMP JUMPDEST MSTORE PUSH2 0x9BE JUMP JUMPDEST PUSH2 0x1361 JUMP JUMPDEST PUSH2 0x13B6 PUSH1 0x44 SWAP3 DUP5 PUSH2 0xC74 JUMP JUMPDEST MLOAD SWAP1 PUSH1 0x40 MLOAD SWAP2 PUSH4 0x2B13AEF5 PUSH1 0xE0 SHL DUP4 MSTORE PUSH1 0x4 DUP4 ADD MSTORE PUSH1 0x24 DUP3 ADD MSTORE REVERT JUMPDEST POP SWAP1 SWAP3 POP POP JUMP JUMPDEST SWAP2 SWAP1 PUSH1 0x20 DUP1 SWAP2 CALLDATASIZE SUB PUSH1 0x80 PUSH1 0x40 MLOAD DUP7 DUP2 MSTORE PUSH1 0x0 SWAP5 DUP4 PUSH1 0x40 DUP8 SWAP6 ADD CALLDATALOAD DUP6 BYTE DUP3 DUP5 ADD MSTORE DUP1 CALLDATALOAD PUSH1 0x40 DUP5 ADD MSTORE ADD CALLDATALOAD PUSH1 0x60 DUP3 ADD MSTORE DUP3 DUP1 MSTORE PUSH1 0x1 GAS STATICCALL ISZERO PUSH2 0x1441 JUMPI MLOAD SWAP2 PUSH1 0x1 PUSH1 0x1 PUSH1 0xA0 SHL SUB DUP4 AND ISZERO PUSH2 0x1427 JUMPI POP JUMP JUMPDEST PUSH1 0x40 MLOAD PUSH4 0x3335BE5D PUSH1 0xE1 SHL DUP2 MSTORE PUSH1 0x4 DUP2 ADD SWAP2 SWAP1 SWAP2 MSTORE PUSH1 0x24 SWAP1 REVERT JUMPDEST PUSH1 0x40 MLOAD SWAP1 RETURNDATASIZE SWAP1 DUP3 RETURNDATACOPY RETURNDATASIZE SWAP1 REVERT JUMPDEST SWAP1 PUSH1 0x0 SWAP2 DUP3 MSTORE PUSH1 0x4 PUSH1 0x20 MSTORE PUSH1 0x40 DUP3 KECCAK256 SLOAD SWAP1 PUSH1 0x5 PUSH1 0x20 MSTORE PUSH1 0x40 DUP4 KECCAK256 SLOAD DUP3 ISZERO DUP1 ISZERO PUSH2 0x14BD JUMPI JUMPDEST PUSH2 0x14B7 JUMPI TIMESTAMP SUB TIMESTAMP DUP2 GT PUSH2 0x8F8 JUMPI PUSH1 0x1E LT ISZERO PUSH2 0x148B JUMPI POP POP SWAP1 JUMP JUMPDEST PUSH2 0x14A6 SWAP3 POP PUSH2 0xDC4 SWAP1 DUP3 DUP1 DUP3 GT ISZERO PUSH2 0x14AD JUMPI PUSH2 0xE77 SWAP2 PUSH2 0xA4B JUMP JUMPDEST PUSH1 0x2 SLOAD LT SWAP1 JUMP JUMPDEST SWAP1 PUSH2 0xE77 SWAP2 PUSH2 0xA4B JUMP JUMPDEST POP POP POP SWAP1 JUMP JUMPDEST POP DUP1 ISZERO PUSH2 0x1471 JUMP JUMPDEST PUSH1 0x7 SLOAD PUSH1 0x6 SLOAD DUP2 LT ISZERO PUSH2 0xC5F JUMPI PUSH1 0x6 PUSH1 0x0 MSTORE PUSH32 0xF652222313E28459528D920B65115C16C04F3EFC82AAEDC97BE59F3F377C0D3F ADD SSTORE PUSH1 0x7 SLOAD PUSH1 0x1 DUP2 ADD DUP1 SWAP2 GT PUSH2 0x8F8 JUMPI PUSH1 0x64 SWAP1 MOD PUSH1 0x7 SSTORE JUMP JUMPDEST PUSH1 0x0 DUP1 DUP2 PUSH1 0x6 DUP1 SLOAD SWAP2 JUMPDEST PUSH1 0x64 DUP2 LT PUSH2 0x153F JUMPI POP PUSH1 0x0 SWAP4 SWAP2 POP POP DUP2 ISZERO PUSH2 0x153A JUMPI PUSH2 0xCDF SWAP3 POP PUSH2 0xBA3 JUMP JUMPDEST POP POP SWAP1 JUMP JUMPDEST DUP3 DUP2 LT ISZERO PUSH2 0xC5F JUMPI DUP2 PUSH1 0x0 MSTORE DUP1 PUSH32 0xF652222313E28459528D920B65115C16C04F3EFC82AAEDC97BE59F3F377C0D3F ADD SLOAD DUP1 PUSH2 0x1584 JUMPI JUMPDEST POP PUSH2 0x157F SWAP1 PUSH2 0x9BE JUMP JUMPDEST PUSH2 0x151B JUMP JUMPDEST DUP6 SWAP2 SWAP5 SWAP6 ADD DUP1 SWAP2 GT PUSH2 0x8F8 JUMPI PUSH2 0x159D PUSH2 0x157F SWAP2 SWAP6 PUSH2 0x9BE JUMP JUMPDEST SWAP4 SWAP1 PUSH2 0x1575 JUMP INVALID LOG2 PUSH5 0x6970667358 0x22 SLT KECCAK256 0xD1 0xB9 0x2B GT 0x4F PUSH0 0xCD JUMPDEST 0xE7 0xE3 GASLIMIT PUSH13 0x69D08D8DDB3085B9269881B047 0xCB DUP14 0xB0 0xE0 PUSH6 0xC2C64736F6C PUSH4 0x43000814 STOP CALLER "},"methodIdentifiers":{"GAS_HISTORY_SIZE()":"ff53159c","aggregateValues(uint256[])":"b24ebfcc","detectMEV(bytes32,uint256,uint256)":"db148397","extractTimestampsAndAssertAllAreEqual()":"55a547d5","frontRunGasMultiplier()":"37f8218e","getAuthorisedSignerIndex(address)":"3ce142f5","getAverageGasPrice()":"f5ab4485","getCurrentPrice(bytes32)":"161e444e","getDataServiceId()":"c274583a","getPriceHistory(bytes32)":"0bb30e24","getUniqueSignersThreshold()":"f90c4924","lastPrices(bytes32)":"d67e343c","lastUpdateTimestamp(bytes32)":"e4f269ec","minPriceDelta()":"7bfdfac7","owner()":"8da5cb5b","renounceOwnership()":"715018a6","riskThreshold()":"b43e6cb4","setFrontRunGasMultiplier(uint256)":"a833be21","setMinPriceDelta(uint256)":"c324feed","setRiskThreshold(uint256)":"7083d1c2","transferOwnership(address)":"f2fde38b","validateTimestamp(uint256)":"f50b2efe"}}}}}