{
  "_format": "hh-sol-artifact-1",
  "contractName": "MainDemoConsumerBase",
  "sourceName": "@redstone-finance/evm-connector/contracts/data-services/MainDemoConsumerBase.sol",
  "abi": [
    {
      "inputs": [],
      "name": "CalldataMustHaveValidPayload",
      "type": "error"
    },
    {
      "inputs": [],
      "name": "CalldataOverOrUnderFlow",
      "type": "error"
    },
    {
      "inputs": [],
      "name": "CanNotPickMedianOfEmptyArray",
      "type": "error"
    },
    {
      "inputs": [],
      "name": "DataPackageTimestampMustNotBeZero",
      "type": "error"
    },
    {
      "inputs": [],
      "name": "DataPackageTimestampsMustBeEqual",
      "type": "error"
    },
    {
      "inputs": [],
      "name": "DataTimestampCannotBeZero",
      "type": "error"
    },
    {
      "inputs": [],
      "name": "EachSignerMustProvideTheSameValue",
      "type": "error"
    },
    {
      "inputs": [],
      "name": "EmptyCalldataPointersArr",
      "type": "error"
    },
    {
      "inputs": [],
      "name": "GetDataServiceIdNotImplemented",
      "type": "error"
    },
    {
      "inputs": [],
      "name": "IncorrectUnsignedMetadataSize",
      "type": "error"
    },
    {
      "inputs": [
        {
          "internalType": "uint256",
          "name": "receivedSignersCount",
          "type": "uint256"
        },
        {
          "internalType": "uint256",
          "name": "requiredSignersCount",
          "type": "uint256"
        }
      ],
      "name": "InsufficientNumberOfUniqueSigners",
      "type": "error"
    },
    {
      "inputs": [],
      "name": "InvalidCalldataPointer",
      "type": "error"
    },
    {
      "inputs": [],
      "name": "RedstonePayloadMustHaveAtLeastOneDataPackage",
      "type": "error"
    },
    {
      "inputs": [
        {
          "internalType": "address",
          "name": "receivedSigner",
          "type": "address"
        }
      ],
      "name": "SignerNotAuthorised",
      "type": "error"
    },
    {
      "inputs": [
        {
          "internalType": "uint256",
          "name": "receivedTimestampSeconds",
          "type": "uint256"
        },
        {
          "internalType": "uint256",
          "name": "blockTimestamp",
          "type": "uint256"
        }
      ],
      "name": "TimestampFromTooLongFuture",
      "type": "error"
    },
    {
      "inputs": [
        {
          "internalType": "uint256",
          "name": "receivedTimestampSeconds",
          "type": "uint256"
        },
        {
          "internalType": "uint256",
          "name": "blockTimestamp",
          "type": "uint256"
        }
      ],
      "name": "TimestampIsTooOld",
      "type": "error"
    },
    {
      "inputs": [],
      "name": "TimestampsMustBeEqual",
      "type": "error"
    },
    {
      "inputs": [
        {
          "internalType": "uint256",
          "name": "valueByteSize",
          "type": "uint256"
        }
      ],
      "name": "TooLargeValueByteSize",
      "type": "error"
    },
    {
      "inputs": [
        {
          "internalType": "uint256[]",
          "name": "values",
          "type": "uint256[]"
        }
      ],
      "name": "aggregateValues",
      "outputs": [
        {
          "internalType": "uint256",
          "name": "",
          "type": "uint256"
        }
      ],
      "stateMutability": "view",
      "type": "function"
    },
    {
      "inputs": [],
      "name": "extractTimestampsAndAssertAllAreEqual",
      "outputs": [
        {
          "internalType": "uint256",
          "name": "extractedTimestamp",
          "type": "uint256"
        }
      ],
      "stateMutability": "pure",
      "type": "function"
    },
    {
      "inputs": [
        {
          "internalType": "address",
          "name": "signerAddress",
          "type": "address"
        }
      ],
      "name": "getAuthorisedSignerIndex",
      "outputs": [
        {
          "internalType": "uint8",
          "name": "",
          "type": "uint8"
        }
      ],
      "stateMutability": "view",
      "type": "function"
    },
    {
      "inputs": [],
      "name": "getDataServiceId",
      "outputs": [
        {
          "internalType": "string",
          "name": "",
          "type": "string"
        }
      ],
      "stateMutability": "view",
      "type": "function"
    },
    {
      "inputs": [],
      "name": "getUniqueSignersThreshold",
      "outputs": [
        {
          "internalType": "uint8",
          "name": "",
          "type": "uint8"
        }
      ],
      "stateMutability": "view",
      "type": "function"
    },
    {
      "inputs": [
        {
          "internalType": "uint256",
          "name": "receivedTimestampMilliseconds",
          "type": "uint256"
        }
      ],
      "name": "validateTimestamp",
      "outputs": [],
      "stateMutability": "view",
      "type": "function"
    }
  ],
  "bytecode": "0x6080806040523461001657610708908161001c8239f35b600080fdfe6080604052600436101561001257600080fd5b6000803560e01c9081633ce142f51461007a5750806355a547d514610075578063b24ebfcc14610070578063c274583a1461006b578063f50b2efe146100665763f90c49241461006157600080fd5b6103ab565b61031e565b610299565b610203565b6100b8565b346100b55760203660031901126100b557600435906001600160a01b03821682036100b55760206100aa83610568565b60ff60405191168152f35b80fd5b3461019d57600036600319011261019d57600061ffff6100de6100d96104b3565b61053f565b911690811561018b579190815b81811061010157604051838152602090f35b0390f35b909161010c8461044d565b9065ffffffffffff610126610120876103ec565b36610440565b351690811561017957806101525750610149916101439195610424565b916103dd565b929190926100eb565b80959103610167576101499161014391610424565b60405163d9d1f46560e01b8152600490fd5b604051630336dc9d60e41b8152600490fd5b604051632154bfcf60e21b8152600490fd5b600080fd5b634e487b7160e01b600052604160045260246000fd5b604051906040820182811067ffffffffffffffff8211176101d857604052565b6101a2565b6040519190601f01601f1916820167ffffffffffffffff8111838210176101d857604052565b3461019d5760208060031936011261019d5767ffffffffffffffff60043581811161019d573660238201121561019d5780600401359182116101d8578160051b6024846102518184016101dd565b8095815201918301019136831161019d57602401905b82821061028a576100fd61027a856105f1565b6040519081529081906020820190565b81358152908401908401610267565b3461019d57600036600319011261019d576102b26101b8565b6012815260207172656473746f6e652d6d61696e2d64656d6f60701b818301526040908151928184928352815191828285015260005b838110610308575050600083830185015250601f01601f19168101030190f35b81810183015187820187015286945082016102e8565b3461019d57602036600319011261019d576103e86004350480421060001461037357603c61034c4283610440565b1161035357005b60405163b6b0916d60e01b81526004810191909152426024820152604490fd5b8042034281116103a65760b41061038657005b604051630321d0b560e01b81526004810191909152426024820152604490fd5b6103c7565b3461019d57600036600319011261019d57602060405160018152f35b634e487b7160e01b600052601160045260246000fd5b60001981146103a65760010190565b90606882018092116103a657565b90604e82018092116103a657565b90600982018092116103a657565b90600282018092116103a657565b919082018092116103a657565b6000198101919082116103a657565b919082039182116103a657565b604181018082116103a65760618201106103a65736036060198101903682116103a65760631901908082116103a65762ffffff63ffffffff91351691351660200190816020116103a6578181029181830414901517156103a6576104b0906103fa565b90565b6602ed57011dffff1936601f1901356602ed57011e0000160161052d573660291161051b5762ffffff60281936013516600381018091116103a6576104f790610408565b3661050182610416565b116105095790565b60405163c30a7bd760e01b8152600490fd5b604051632bcb7bc560e11b8152600490fd5b6040516373bb264f60e11b8152600490fd5b90602082018083116103a657361061051b5760028201918281116103a6573603601f1901359190565b6001600160a01b0316730c39486f770b26f5527bbbf942726537986cd7eb81036105925750600090565b602490604051906303b1166f60e61b82526004820152fd5b8051156105b75760200190565b634e487b7160e01b600052603260045260246000fd5b8051600110156105b75760400190565b80518210156105b75760209160051b010190565b6002815114610667578051156106555761060a81610681565b8051600181811c9116610648576104b09161063b8261063461062e61064295610431565b846105dd565b51926105dd565b5190610424565b60011c90565b610651916105dd565b5190565b604051639e198af960e01b8152600490fd5b6106428161063b61067a6104b0946105aa565b51916105cd565b8051602082818094019260051b010190805b8281106106a05750505050565b83825b8281106106b1575001610693565b825181518082106106c7575b50500184906106a3565b8452815238806106bd56fea2646970667358221220461b7e1435def13cc9d9252fab77b010b73a3d7e86a8e8db450ad1de1e876bb064736f6c63430008140033",
  "linkReferences": {},
  "deployedLinkReferences": {}
}