{
  "_format": "hh-sol-artifact-1",
  "contractName": "MEVDetector",
  "sourceName": "contracts/MEVDetector.sol",
  "abi": [
    {
      "inputs": [],
      "stateMutability": "nonpayable",
      "type": "constructor"
    },
    {
      "inputs": [],
      "name": "CalldataMustHaveValidPayload",
      "type": "error"
    },
    {
      "inputs": [],
      "name": "CalldataOverOrUnderFlow",
      "type": "error"
    },
    {
      "inputs": [],
      "name": "CanNotPickMedianOfEmptyArray",
      "type": "error"
    },
    {
      "inputs": [],
      "name": "DataPackageTimestampMustNotBeZero",
      "type": "error"
    },
    {
      "inputs": [],
      "name": "DataPackageTimestampsMustBeEqual",
      "type": "error"
    },
    {
      "inputs": [],
      "name": "DataTimestampCannotBeZero",
      "type": "error"
    },
    {
      "inputs": [],
      "name": "EachSignerMustProvideTheSameValue",
      "type": "error"
    },
    {
      "inputs": [],
      "name": "EmptyCalldataPointersArr",
      "type": "error"
    },
    {
      "inputs": [],
      "name": "GetDataServiceIdNotImplemented",
      "type": "error"
    },
    {
      "inputs": [],
      "name": "IncorrectUnsignedMetadataSize",
      "type": "error"
    },
    {
      "inputs": [
        {
          "internalType": "uint256",
          "name": "receivedSignersCount",
          "type": "uint256"
        },
        {
          "internalType": "uint256",
          "name": "requiredSignersCount",
          "type": "uint256"
        }
      ],
      "name": "InsufficientNumberOfUniqueSigners",
      "type": "error"
    },
    {
      "inputs": [],
      "name": "InvalidCalldataPointer",
      "type": "error"
    },
    {
      "inputs": [
        {
          "internalType": "bytes32",
          "name": "signedHash",
          "type": "bytes32"
        }
      ],
      "name": "InvalidSignature",
      "type": "error"
    },
    {
      "inputs": [],
      "name": "RedstonePayloadMustHaveAtLeastOneDataPackage",
      "type": "error"
    },
    {
      "inputs": [
        {
          "internalType": "address",
          "name": "receivedSigner",
          "type": "address"
        }
      ],
      "name": "SignerNotAuthorised",
      "type": "error"
    },
    {
      "inputs": [
        {
          "internalType": "uint256",
          "name": "receivedTimestampSeconds",
          "type": "uint256"
        },
        {
          "internalType": "uint256",
          "name": "blockTimestamp",
          "type": "uint256"
        }
      ],
      "name": "TimestampFromTooLongFuture",
      "type": "error"
    },
    {
      "inputs": [
        {
          "internalType": "uint256",
          "name": "receivedTimestampSeconds",
          "type": "uint256"
        },
        {
          "internalType": "uint256",
          "name": "blockTimestamp",
          "type": "uint256"
        }
      ],
      "name": "TimestampIsTooOld",
      "type": "error"
    },
    {
      "inputs": [],
      "name": "TimestampsMustBeEqual",
      "type": "error"
    },
    {
      "inputs": [
        {
          "internalType": "uint256",
          "name": "valueByteSize",
          "type": "uint256"
        }
      ],
      "name": "TooLargeValueByteSize",
      "type": "error"
    },
    {
      "anonymous": false,
      "inputs": [
        {
          "indexed": false,
          "internalType": "string",
          "name": "parameter",
          "type": "string"
        },
        {
          "indexed": false,
          "internalType": "uint256",
          "name": "oldValue",
          "type": "uint256"
        },
        {
          "indexed": false,
          "internalType": "uint256",
          "name": "newValue",
          "type": "uint256"
        }
      ],
      "name": "ConfigurationUpdated",
      "type": "event"
    },
    {
      "anonymous": false,
      "inputs": [
        {
          "indexed": true,
          "internalType": "address",
          "name": "user",
          "type": "address"
        },
        {
          "indexed": true,
          "internalType": "bytes32",
          "name": "feedId",
          "type": "bytes32"
        },
        {
          "indexed": false,
          "internalType": "enum MEVDetector.ThreatType",
          "name": "threatType",
          "type": "uint8"
        },
        {
          "indexed": false,
          "internalType": "uint256",
          "name": "riskScore",
          "type": "uint256"
        },
        {
          "indexed": false,
          "internalType": "uint256",
          "name": "timestamp",
          "type": "uint256"
        }
      ],
      "name": "MEVThreatDetected",
      "type": "event"
    },
    {
      "anonymous": false,
      "inputs": [
        {
          "indexed": true,
          "internalType": "address",
          "name": "previousOwner",
          "type": "address"
        },
        {
          "indexed": true,
          "internalType": "address",
          "name": "newOwner",
          "type": "address"
        }
      ],
      "name": "OwnershipTransferred",
      "type": "event"
    },
    {
      "anonymous": false,
      "inputs": [
        {
          "indexed": true,
          "internalType": "bytes32",
          "name": "feedId",
          "type": "bytes32"
        },
        {
          "indexed": false,
          "internalType": "uint256",
          "name": "expectedPrice",
          "type": "uint256"
        },
        {
          "indexed": false,
          "internalType": "uint256",
          "name": "actualPrice",
          "type": "uint256"
        },
        {
          "indexed": false,
          "internalType": "uint256",
          "name": "delta",
          "type": "uint256"
        }
      ],
      "name": "PriceAnomalyDetected",
      "type": "event"
    },
    {
      "inputs": [],
      "name": "GAS_HISTORY_SIZE",
      "outputs": [
        {
          "internalType": "uint256",
          "name": "",
          "type": "uint256"
        }
      ],
      "stateMutability": "view",
      "type": "function"
    },
    {
      "inputs": [
        {
          "internalType": "uint256[]",
          "name": "values",
          "type": "uint256[]"
        }
      ],
      "name": "aggregateValues",
      "outputs": [
        {
          "internalType": "uint256",
          "name": "",
          "type": "uint256"
        }
      ],
      "stateMutability": "view",
      "type": "function"
    },
    {
      "inputs": [
        {
          "internalType": "bytes32",
          "name": "feedId",
          "type": "bytes32"
        },
        {
          "internalType": "uint256",
          "name": "expectedPrice",
          "type": "uint256"
        },
        {
          "internalType": "uint256",
          "name": "txGasPrice",
          "type": "uint256"
        }
      ],
      "name": "detectMEV",
      "outputs": [
        {
          "internalType": "bool",
          "name": "isThreat",
          "type": "bool"
        },
        {
          "internalType": "enum MEVDetector.ThreatType",
          "name": "threatType",
          "type": "uint8"
        },
        {
          "internalType": "uint256",
          "name": "riskScore",
          "type": "uint256"
        }
      ],
      "stateMutability": "nonpayable",
      "type": "function"
    },
    {
      "inputs": [],
      "name": "extractTimestampsAndAssertAllAreEqual",
      "outputs": [
        {
          "internalType": "uint256",
          "name": "extractedTimestamp",
          "type": "uint256"
        }
      ],
      "stateMutability": "pure",
      "type": "function"
    },
    {
      "inputs": [],
      "name": "frontRunGasMultiplier",
      "outputs": [
        {
          "internalType": "uint256",
          "name": "",
          "type": "uint256"
        }
      ],
      "stateMutability": "view",
      "type": "function"
    },
    {
      "inputs": [
        {
          "internalType": "address",
          "name": "signerAddress",
          "type": "address"
        }
      ],
      "name": "getAuthorisedSignerIndex",
      "outputs": [
        {
          "internalType": "uint8",
          "name": "",
          "type": "uint8"
        }
      ],
      "stateMutability": "view",
      "type": "function"
    },
    {
      "inputs": [],
      "name": "getAverageGasPrice",
      "outputs": [
        {
          "internalType": "uint256",
          "name": "",
          "type": "uint256"
        }
      ],
      "stateMutability": "view",
      "type": "function"
    },
    {
      "inputs": [
        {
          "internalType": "bytes32",
          "name": "feedId",
          "type": "bytes32"
        }
      ],
      "name": "getCurrentPrice",
      "outputs": [
        {
          "internalType": "uint256",
          "name": "",
          "type": "uint256"
        }
      ],
      "stateMutability": "view",
      "type": "function"
    },
    {
      "inputs": [],
      "name": "getDataServiceId",
      "outputs": [
        {
          "internalType": "string",
          "name": "",
          "type": "string"
        }
      ],
      "stateMutability": "view",
      "type": "function"
    },
    {
      "inputs": [
        {
          "internalType": "bytes32",
          "name": "feedId",
          "type": "bytes32"
        }
      ],
      "name": "getPriceHistory",
      "outputs": [
        {
          "internalType": "uint256",
          "name": "lastPrice",
          "type": "uint256"
        },
        {
          "internalType": "uint256",
          "name": "lastUpdate",
          "type": "uint256"
        }
      ],
      "stateMutability": "view",
      "type": "function"
    },
    {
      "inputs": [],
      "name": "getUniqueSignersThreshold",
      "outputs": [
        {
          "internalType": "uint8",
          "name": "",
          "type": "uint8"
        }
      ],
      "stateMutability": "view",
      "type": "function"
    },
    {
      "inputs": [
        {
          "internalType": "bytes32",
          "name": "",
          "type": "bytes32"
        }
      ],
      "name": "lastPrices",
      "outputs": [
        {
          "internalType": "uint256",
          "name": "",
          "type": "uint256"
        }
      ],
      "stateMutability": "view",
      "type": "function"
    },
    {
      "inputs": [
        {
          "internalType": "bytes32",
          "name": "",
          "type": "bytes32"
        }
      ],
      "name": "lastUpdateTimestamp",
      "outputs": [
        {
          "internalType": "uint256",
          "name": "",
          "type": "uint256"
        }
      ],
      "stateMutability": "view",
      "type": "function"
    },
    {
      "inputs": [],
      "name": "minPriceDelta",
      "outputs": [
        {
          "internalType": "uint256",
          "name": "",
          "type": "uint256"
        }
      ],
      "stateMutability": "view",
      "type": "function"
    },
    {
      "inputs": [],
      "name": "owner",
      "outputs": [
        {
          "internalType": "address",
          "name": "",
          "type": "address"
        }
      ],
      "stateMutability": "view",
      "type": "function"
    },
    {
      "inputs": [],
      "name": "renounceOwnership",
      "outputs": [],
      "stateMutability": "nonpayable",
      "type": "function"
    },
    {
      "inputs": [],
      "name": "riskThreshold",
      "outputs": [
        {
          "internalType": "uint256",
          "name": "",
          "type": "uint256"
        }
      ],
      "stateMutability": "view",
      "type": "function"
    },
    {
      "inputs": [
        {
          "internalType": "uint256",
          "name": "newMultiplier",
          "type": "uint256"
        }
      ],
      "name": "setFrontRunGasMultiplier",
      "outputs": [],
      "stateMutability": "nonpayable",
      "type": "function"
    },
    {
      "inputs": [
        {
          "internalType": "uint256",
          "name": "newDelta",
          "type": "uint256"
        }
      ],
      "name": "setMinPriceDelta",
      "outputs": [],
      "stateMutability": "nonpayable",
      "type": "function"
    },
    {
      "inputs": [
        {
          "internalType": "uint256",
          "name": "newThreshold",
          "type": "uint256"
        }
      ],
      "name": "setRiskThreshold",
      "outputs": [],
      "stateMutability": "nonpayable",
      "type": "function"
    },
    {
      "inputs": [
        {
          "internalType": "address",
          "name": "newOwner",
          "type": "address"
        }
      ],
      "name": "transferOwnership",
      "outputs": [],
      "stateMutability": "nonpayable",
      "type": "function"
    },
    {
      "inputs": [
        {
          "internalType": "uint256",
          "name": "receivedTimestampMilliseconds",
          "type": "uint256"
        }
      ],
      "name": "validateTimestamp",
      "outputs": [],
      "stateMutability": "view",
      "type": "function"
    }
  ],
  "bytecode": "0x6080604052346100c657610012336100cb565b60016101f48155606480600255607860035560005b81811061004757610037336100cb565b6040516115da9081620001138239f35b60068054680100000000000000008110156100b05784810180835581101561009a5760009182526020822001556000198114610084578201610027565b634e487b7160e01b600052601160045260246000fd5b634e487b7160e01b600052603260045260246000fd5b634e487b7160e01b600052604160045260246000fd5b600080fd5b600080546001600160a01b039283166001600160a01b03198216811783559216907f8be0079c531659141344cd1fd0a4f28419497f9722a3daafe3b4186f6b6457e09080a356fe6080604052600436101561001257600080fd5b60003560e01c80630bb30e2414610177578063161e444e1461017257806337f8218e1461016d5780633ce142f51461016857806355a547d5146101635780637083d1c21461015e578063715018a6146101595780637bfdfac7146101545780638da5cb5b1461014f578063a833be211461014a578063b24ebfcc14610145578063b43e6cb414610140578063c274583a1461013b578063c324feed14610136578063d67e343c14610131578063db1483971461012c578063e4f269ec14610127578063f2fde38b14610122578063f50b2efe1461011d578063f5ab448514610118578063f90c4924146101135763ff53159c1461010e57600080fd5b610934565b610918565b6108fd565b610870565b6107b8565b61078c565b610729565b6106fd565b610684565b6105ff565b6105e1565b61054c565b610452565b610429565b61040b565b6103ad565b610334565b610253565b610230565b6101f0565b6101ca565b346101c55760203660031901126101c55760043560005260046020526040600020546005602052604060002054906101c16040519283928360209093929193604081019481520152565b0390f35b600080fd5b346101c55760203660031901126101c55760206101e8600435610f93565b604051908152f35b346101c55760003660031901126101c5576020600354604051908152f35b60209060031901126101c5576004356001600160a01b03811681036101c55790565b346101c55760206102486102433661020e565b610bfa565b60ff60405191168152f35b346101c55760003660031901126101c557600061ffff610279610274610aad565b610b39565b9116908115610322579190815b81811061029857604051838152602090f35b90916102a384610a82565b9065ffffffffffff6102bd6102b7876109cd565b36610a4b565b351690811561031057806102e957506102e0916102da9195610a2f565b916109be565b92919092610286565b809591036102fe576102e0916102da91610a2f565b60405163d9d1f46560e01b8152600490fd5b604051630336dc9d60e41b8152600490fd5b604051632154bfcf60e21b8152600490fd5b346101c55760203660031901126101c5577f542d1e36f54195e4e918eaa06cf4f40e8861c8af6cf52111230f74bec3dbadfe60a0600435610373610950565b60015490806001556040519160608352600d60608401526c1c9a5cdad51a1c995cda1bdb19609a1b608084015260208301526040820152a1005b346101c557600080600319360112610408576103c7610950565b80546001600160a01b03198116825581906001600160a01b03167f8be0079c531659141344cd1fd0a4f28419497f9722a3daafe3b4186f6b6457e08280a380f35b80fd5b346101c55760003660031901126101c5576020600254604051908152f35b346101c55760003660031901126101c5576000546040516001600160a01b039091168152602090f35b346101c55760203660031901126101c5577f542d1e36f54195e4e918eaa06cf4f40e8861c8af6cf52111230f74bec3dbadfe60a0600435610491610950565b600354908060035560405191606083526015606084015274333937b73a293ab723b0b9a6bab63a34b83634b2b960591b608084015260208301526040820152a1005b634e487b7160e01b600052604160045260246000fd5b604051906040820182811067ffffffffffffffff82111761050957604052565b6104d3565b6040519190601f01601f1916820167ffffffffffffffff81118382101761050957604052565b67ffffffffffffffff81116105095760051b60200190565b346101c5576020806003193601126101c55760043567ffffffffffffffff81116101c557366023820112156101c55780600401359061059261058d83610534565b61050e565b9160248484838152019160051b830101913683116101c557602401905b8282106105d2576101c16105c285610c88565b6040519081529081906020820190565b813581529084019084016105af565b346101c55760003660031901126101c5576020600154604051908152f35b346101c55760003660031901126101c5576106186104e9565b6012815260207172656473746f6e652d6d61696e2d64656d6f60701b818301526040908151928184928352815191828285015260005b83811061066e575050600083830185015250601f01601f19168101030190f35b818101830151878201870152869450820161064e565b346101c55760203660031901126101c5577f542d1e36f54195e4e918eaa06cf4f40e8861c8af6cf52111230f74bec3dbadfe60a06004356106c3610950565b60025490806002556040519160608352600d60608401526c6d696e507269636544656c746160981b608084015260208301526040820152a1005b346101c55760203660031901126101c55760043560005260046020526020604060002054604051908152f35b346101c55760603660031901126101c557610742610950565b610753604435602435600435610d6c565b604092919251911515825260048310156107765760609260208301526040820152f35b634e487b7160e01b600052602160045260246000fd5b346101c55760203660031901126101c55760043560005260056020526020604060002054604051908152f35b346101c5576107c63661020e565b6107ce610950565b6001600160a01b03908116801561081c57600080546001600160a01b03198116831782559092167f8be0079c531659141344cd1fd0a4f28419497f9722a3daafe3b4186f6b6457e08380a380f35b60405162461bcd60e51b815260206004820152602660248201527f4f776e61626c653a206e6577206f776e657220697320746865207a65726f206160448201526564647265737360d01b6064820152608490fd5b346101c55760203660031901126101c5576103e8600435048042106000146108c557603c61089e4283610a4b565b116108a557005b60405163b6b0916d60e01b81526004810191909152426024820152604490fd5b8042034281116108f85760b4106108d857005b604051630321d0b560e01b81526004810191909152426024820152604490fd5b6109a8565b346101c55760003660031901126101c55760206101e8611511565b346101c55760003660031901126101c557602060405160018152f35b346101c55760003660031901126101c557602060405160648152f35b6000546001600160a01b0316330361096457565b606460405162461bcd60e51b815260206004820152602060248201527f4f776e61626c653a2063616c6c6572206973206e6f7420746865206f776e65726044820152fd5b634e487b7160e01b600052601160045260246000fd5b60001981146108f85760010190565b90606882018092116108f857565b90600982018092116108f857565b90600282018092116108f857565b90602082018092116108f857565b90600d82018092116108f857565b90604182018092116108f857565b90604e82018092116108f857565b919082018092116108f857565b6000198101919082116108f857565b919082039182116108f857565b90612710918281029281840414901517156108f857565b818102929181159184041417156108f857565b610a8b90610b62565b602001806020116108f857610a9f91610a6f565b604e81018091116108f85790565b6602ed57011dffff1936601f1901356602ed57011e00001601610b275736602911610b155762ffffff60281936013516600381018091116108f857610af1906109db565b36610afb826109e9565b11610b035790565b60405163c30a7bd760e01b8152600490fd5b604051632bcb7bc560e11b8152600490fd5b6040516373bb264f60e11b8152600490fd5b90602082018083116108f8573610610b155760028201918281116108f8573603601f1901359190565b604181018082116108f85760618201106108f8573603906060198201913683116108f85760631901918083116108f8573562ffffff16913563ffffffff1690565b8115610bad570490565b634e487b7160e01b600052601260045260246000fd5b6103e89004804210600014610be6574281038181116108f857603c106108a55750565b8042034281116108f85760b4106108d85750565b6001600160a01b0316730c39486f770b26f5527bbbf942726537986cd7eb8103610c245750600090565b602490604051906303b1166f60e61b82526004820152fd5b634e487b7160e01b600052603260045260246000fd5b805115610c5f5760200190565b610c3c565b805160011015610c5f5760400190565b8051821015610c5f5760209160051b010190565b6002815114610d0157805115610cef57610ca181610d1b565b8051600181811c9116610ce257610cdf91610cd282610ccb610cc5610cd995610a3c565b84610c74565b5192610c74565b5190610a2f565b60011c90565b90565b610ceb91610c74565b5190565b604051639e198af960e01b8152600490fd5b610cd981610cd2610d14610cdf94610c52565b5191610c64565b8051602082818094019260051b010190805b828110610d3a5750505050565b83825b828110610d4b575001610d2d565b82518151808210610d61575b5050018490610d3d565b845281523880610d57565b91610d7683610f93565b9182610d8c856000526004602052604060002090565b5542610da2856000526005602052604060002090565b5580831115610f8357610db58184610a4b565b905b610dc981610dc484610a58565b610ba3565b91610dd3846114c5565b6001548311610ee557505050610de7611511565b9081151580610ece575b610e65575050610e01908261144d565b610e115750600090600390600090565b6040517f9ee9d1608342eed14229d2eca902e2660aff9ed9a3bdaf998af116afdf12a621339180610e5642829190604060608401936002815261012c60208201520152565b0390a360019060029061012c90565b610e7c9250610e7782610dc492610a4b565b610a58565b906040517f9ee9d1608342eed14229d2eca902e2660aff9ed9a3bdaf998af116afdf12a621339180610ec34287836040909392919360608101946001825260208201520152565b0390a3600191829190565b506064610edd60035484610a6f565b048111610df1565b7f357ce8db9c632eb267b5136efa5fcf7f6559a762164709aff4d5e8c4a4abc15f9350610f779086604097969497517f9ee9d1608342eed14229d2eca902e2660aff9ed9a3bdaf998af116afdf12a621339180610f57428d836040909392919360608101946000825260208201520152565b0390a3604051938493846040919493926060820195825260208201520152565b0390a260019160009190565b610f8d8382610a4b565b90610db7565b90610f9c6104e9565b91600190818452602084016020368237845115610c5f5752600090610fc184516110d1565b90610fcc85516110d1565b94610fd781516110f9565b958285815b611086575b505061ffff90610ff2610274610aad565b9216926040918251916020899301945b86841061102d57505050505050505061102261102891610ceb9495611351565b91610bc3565b610c52565b61103a908c848b85611152565b9390938015611075578a8103611057575b50858552870192611002565b909961106457988761104b565b845163265e23a160e11b8152600490fd5b855163dfb25a7960e01b8152600490fd5b83518110156110b65781906110996110bb565b6110a3828c610c74565b526110ae818b610c74565b500181610fdc565b610fe1565b6110c36104e9565b600181529060203681840137565b906110de61058d83610534565b82815280926110ef601f1991610534565b0190602036910137565b9061110661058d83610534565b8281528092611117601f1991610534565b019060005b82811061112857505050565b80606060208093850101520161111c565b9060405191818352602082840101604052602083013790565b9094929161115f85610b62565b91909361117c611177611171856109f7565b87610a6f565b610a05565b966111d36111cd6111c76102436111956102b7866109cd565b9b60206111b6826111b16102b7826111ac8c610a13565b610a2f565b611139565b01206111c186610a13565b906113d9565b60ff1690565b91610a21565b956000998a955b8287106111f957509699505050953565ffffffffffff16955050505050565b929598909396999194976112108461121592610a2f565b6109f7565b61121f8482611310565b96909c805b8d518110156112fa578e6112398f8390610c74565b511461124757600101611224565b9095939c9a9896949d50896001939c929a98611263838c610c74565b51858a1b918282161587816112e6575b50611292575b50505050505b019691909a99989796959493929a6111da565b6112b46112a2866112db96610c74565b516112ad878c610c74565b5190610c74565b526112c86112c2858a610c74565b516109be565b6112d2858a610c74565b5217918a610c74565b523887818080611279565b90506112f2868b610c74565b511038611273565b5094929b999795939c509795509860019061127f565b9190913603913683116108f857823592602182101561133857602001359060200360031b1c90565b6040516360007e2160e11b815260048101839052602490fd5b919061135d83516110d1565b9060005b84518110156113d2576001806113778385610c74565b51106113aa57508061139561138f6113a59388610c74565b51610c88565b61139f8286610c74565b526109be565b611361565b6113b660449284610c74565b519060405191632b13aef560e01b835260048301526024820152fd5b5090925050565b9190602080913603608060405186815260009483604087950135851a82840152803560408401520135606082015282805260015afa156114415751916001600160a01b038316156114275750565b604051633335be5d60e11b81526004810191909152602490fd5b604051903d90823e3d90fd5b906000918252600460205260408220549060056020526040832054821580156114bd575b6114b75742034281116108f857601e101561148b57505090565b6114a69250610dc49082808211156114ad57610e7791610a4b565b6002541090565b90610e7791610a4b565b50505090565b508015611471565b600754600654811015610c5f5760066000527ff652222313e28459528d920b65115c16c04f3efc82aaedc97be59f3f377c0d3f0155600754600181018091116108f85760649006600755565b6000808160068054915b6064811061153f5750600093915050811561153a57610cdf9250610ba3565b505090565b82811015610c5f5781600052807ff652222313e28459528d920b65115c16c04f3efc82aaedc97be59f3f377c0d3f015480611584575b5061157f906109be565b61151b565b85919495018091116108f85761159d61157f91956109be565b939061157556fea2646970667358221220d1b92b114f5fcd5be7e3456c69d08d8ddb3085b9269881b047cb8db0e0650c2c64736f6c63430008140033",
  "linkReferences": {},
  "deployedLinkReferences": {}
}