{
  "_format": "hh-sol-artifact-1",
  "contractName": "MEVDetector",
  "sourceName": "contracts/MEVDetector.sol",
  "abi": [
    {
      "inputs": [],
      "stateMutability": "nonpayable",
      "type": "constructor"
    },
    {
      "inputs": [],
      "name": "CalldataMustHaveValidPayload",
      "type": "error"
    },
    {
      "inputs": [],
      "name": "CalldataOverOrUnderFlow",
      "type": "error"
    },
    {
      "inputs": [],
      "name": "CanNotPickMedianOfEmptyArray",
      "type": "error"
    },
    {
      "inputs": [],
      "name": "DataPackageTimestampMustNotBeZero",
      "type": "error"
    },
    {
      "inputs": [],
      "name": "DataPackageTimestampsMustBeEqual",
      "type": "error"
    },
    {
      "inputs": [],
      "name": "DataTimestampCannotBeZero",
      "type": "error"
    },
    {
      "inputs": [],
      "name": "EachSignerMustProvideTheSameValue",
      "type": "error"
    },
    {
      "inputs": [],
      "name": "EmptyCalldataPointersArr",
      "type": "error"
    },
    {
      "inputs": [],
      "name": "GetDataServiceIdNotImplemented",
      "type": "error"
    },
    {
      "inputs": [],
      "name": "IncorrectUnsignedMetadataSize",
      "type": "error"
    },
    {
      "inputs": [
        {
          "internalType": "uint256",
          "name": "receivedSignersCount",
          "type": "uint256"
        },
        {
          "internalType": "uint256",
          "name": "requiredSignersCount",
          "type": "uint256"
        }
      ],
      "name": "InsufficientNumberOfUniqueSigners",
      "type": "error"
    },
    {
      "inputs": [],
      "name": "InvalidCalldataPointer",
      "type": "error"
    },
    {
      "inputs": [
        {
          "internalType": "bytes32",
          "name": "signedHash",
          "type": "bytes32"
        }
      ],
      "name": "InvalidSignature",
      "type": "error"
    },
    {
      "inputs": [],
      "name": "RedstonePayloadMustHaveAtLeastOneDataPackage",
      "type": "error"
    },
    {
      "inputs": [
        {
          "internalType": "address",
          "name": "receivedSigner",
          "type": "address"
        }
      ],
      "name": "SignerNotAuthorised",
      "type": "error"
    },
    {
      "inputs": [
        {
          "internalType": "uint256",
          "name": "receivedTimestampSeconds",
          "type": "uint256"
        },
        {
          "internalType": "uint256",
          "name": "blockTimestamp",
          "type": "uint256"
        }
      ],
      "name": "TimestampFromTooLongFuture",
      "type": "error"
    },
    {
      "inputs": [
        {
          "internalType": "uint256",
          "name": "receivedTimestampSeconds",
          "type": "uint256"
        },
        {
          "internalType": "uint256",
          "name": "blockTimestamp",
          "type": "uint256"
        }
      ],
      "name": "TimestampIsTooOld",
      "type": "error"
    },
    {
      "inputs": [],
      "name": "TimestampsMustBeEqual",
      "type": "error"
    },
    {
      "inputs": [
        {
          "internalType": "uint256",
          "name": "valueByteSize",
          "type": "uint256"
        }
      ],
      "name": "TooLargeValueByteSize",
      "type": "error"
    },
    {
      "anonymous": false,
      "inputs": [
        {
          "indexed": false,
          "internalType": "string",
          "name": "parameter",
          "type": "string"
        },
        {
          "indexed": false,
          "internalType": "uint256",
          "name": "oldValue",
          "type": "uint256"
        },
        {
          "indexed": false,
          "internalType": "uint256",
          "name": "newValue",
          "type": "uint256"
        }
      ],
      "name": "ConfigurationUpdated",
      "type": "event"
    },
    {
      "anonymous": false,
      "inputs": [
        {
          "indexed": true,
          "internalType": "address",
          "name": "user",
          "type": "address"
        },
        {
          "indexed": true,
          "internalType": "bytes32",
          "name": "feedId",
          "type": "bytes32"
        },
        {
          "indexed": false,
          "internalType": "enum MEVDetector.ThreatType",
          "name": "threatType",
          "type": "uint8"
        },
        {
          "indexed": false,
          "internalType": "uint256",
          "name": "riskScore",
          "type": "uint256"
        },
        {
          "indexed": false,
          "internalType": "uint256",
          "name": "timestamp",
          "type": "uint256"
        }
      ],
      "name": "MEVThreatDetected",
      "type": "event"
    },
    {
      "anonymous": false,
      "inputs": [
        {
          "indexed": true,
          "internalType": "address",
          "name": "previousOwner",
          "type": "address"
        },
        {
          "indexed": true,
          "internalType": "address",
          "name": "newOwner",
          "type": "address"
        }
      ],
      "name": "OwnershipTransferred",
      "type": "event"
    },
    {
      "anonymous": false,
      "inputs": [
        {
          "indexed": true,
          "internalType": "bytes32",
          "name": "feedId",
          "type": "bytes32"
        },
        {
          "indexed": false,
          "internalType": "uint256",
          "name": "expectedPrice",
          "type": "uint256"
        },
        {
          "indexed": false,
          "internalType": "uint256",
          "name": "actualPrice",
          "type": "uint256"
        },
        {
          "indexed": false,
          "internalType": "uint256",
          "name": "delta",
          "type": "uint256"
        }
      ],
      "name": "PriceAnomalyDetected",
      "type": "event"
    },
    {
      "inputs": [],
      "name": "GAS_HISTORY_SIZE",
      "outputs": [
        {
          "internalType": "uint256",
          "name": "",
          "type": "uint256"
        }
      ],
      "stateMutability": "view",
      "type": "function"
    },
    {
      "inputs": [
        {
          "internalType": "uint256[]",
          "name": "values",
          "type": "uint256[]"
        }
      ],
      "name": "aggregateValues",
      "outputs": [
        {
          "internalType": "uint256",
          "name": "",
          "type": "uint256"
        }
      ],
      "stateMutability": "view",
      "type": "function"
    },
    {
      "inputs": [
        {
          "internalType": "bytes32",
          "name": "feedId",
          "type": "bytes32"
        },
        {
          "internalType": "uint256",
          "name": "expectedPrice",
          "type": "uint256"
        },
        {
          "internalType": "uint256",
          "name": "txGasPrice",
          "type": "uint256"
        }
      ],
      "name": "detectMEV",
      "outputs": [
        {
          "internalType": "bool",
          "name": "isThreat",
          "type": "bool"
        },
        {
          "internalType": "enum MEVDetector.ThreatType",
          "name": "threatType",
          "type": "uint8"
        },
        {
          "internalType": "uint256",
          "name": "riskScore",
          "type": "uint256"
        }
      ],
      "stateMutability": "nonpayable",
      "type": "function"
    },
    {
      "inputs": [
        {
          "internalType": "bytes32",
          "name": "feedId",
          "type": "bytes32"
        },
        {
          "internalType": "uint256",
          "name": "mockPrice",
          "type": "uint256"
        },
        {
          "internalType": "uint256",
          "name": "txGasPrice",
          "type": "uint256"
        }
      ],
      "name": "detectMEVWithMockPrice",
      "outputs": [
        {
          "internalType": "bool",
          "name": "isThreat",
          "type": "bool"
        },
        {
          "internalType": "enum MEVDetector.ThreatType",
          "name": "threatType",
          "type": "uint8"
        },
        {
          "internalType": "uint256",
          "name": "riskScore",
          "type": "uint256"
        }
      ],
      "stateMutability": "nonpayable",
      "type": "function"
    },
    {
      "inputs": [
        {
          "internalType": "bytes32",
          "name": "feedId",
          "type": "bytes32"
        },
        {
          "internalType": "uint256",
          "name": "mockPrice",
          "type": "uint256"
        },
        {
          "internalType": "uint256",
          "name": "txGasPrice",
          "type": "uint256"
        }
      ],
      "name": "detectMEVWithMockPriceView",
      "outputs": [
        {
          "internalType": "bool",
          "name": "isThreat",
          "type": "bool"
        },
        {
          "internalType": "enum MEVDetector.ThreatType",
          "name": "threatType",
          "type": "uint8"
        },
        {
          "internalType": "uint256",
          "name": "riskScore",
          "type": "uint256"
        }
      ],
      "stateMutability": "view",
      "type": "function"
    },
    {
      "inputs": [],
      "name": "extractTimestampsAndAssertAllAreEqual",
      "outputs": [
        {
          "internalType": "uint256",
          "name": "extractedTimestamp",
          "type": "uint256"
        }
      ],
      "stateMutability": "pure",
      "type": "function"
    },
    {
      "inputs": [],
      "name": "frontRunGasMultiplier",
      "outputs": [
        {
          "internalType": "uint256",
          "name": "",
          "type": "uint256"
        }
      ],
      "stateMutability": "view",
      "type": "function"
    },
    {
      "inputs": [
        {
          "internalType": "address",
          "name": "signerAddress",
          "type": "address"
        }
      ],
      "name": "getAuthorisedSignerIndex",
      "outputs": [
        {
          "internalType": "uint8",
          "name": "",
          "type": "uint8"
        }
      ],
      "stateMutability": "view",
      "type": "function"
    },
    {
      "inputs": [],
      "name": "getAverageGasPrice",
      "outputs": [
        {
          "internalType": "uint256",
          "name": "",
          "type": "uint256"
        }
      ],
      "stateMutability": "view",
      "type": "function"
    },
    {
      "inputs": [
        {
          "internalType": "bytes32",
          "name": "feedId",
          "type": "bytes32"
        }
      ],
      "name": "getCurrentPrice",
      "outputs": [
        {
          "internalType": "uint256",
          "name": "",
          "type": "uint256"
        }
      ],
      "stateMutability": "view",
      "type": "function"
    },
    {
      "inputs": [],
      "name": "getDataServiceId",
      "outputs": [
        {
          "internalType": "string",
          "name": "",
          "type": "string"
        }
      ],
      "stateMutability": "view",
      "type": "function"
    },
    {
      "inputs": [
        {
          "internalType": "bytes32",
          "name": "feedId",
          "type": "bytes32"
        }
      ],
      "name": "getPriceHistory",
      "outputs": [
        {
          "internalType": "uint256",
          "name": "lastPrice",
          "type": "uint256"
        },
        {
          "internalType": "uint256",
          "name": "lastUpdate",
          "type": "uint256"
        }
      ],
      "stateMutability": "view",
      "type": "function"
    },
    {
      "inputs": [],
      "name": "getUniqueSignersThreshold",
      "outputs": [
        {
          "internalType": "uint8",
          "name": "",
          "type": "uint8"
        }
      ],
      "stateMutability": "view",
      "type": "function"
    },
    {
      "inputs": [
        {
          "internalType": "bytes32",
          "name": "",
          "type": "bytes32"
        }
      ],
      "name": "lastPrices",
      "outputs": [
        {
          "internalType": "uint256",
          "name": "",
          "type": "uint256"
        }
      ],
      "stateMutability": "view",
      "type": "function"
    },
    {
      "inputs": [
        {
          "internalType": "bytes32",
          "name": "",
          "type": "bytes32"
        }
      ],
      "name": "lastUpdateTimestamp",
      "outputs": [
        {
          "internalType": "uint256",
          "name": "",
          "type": "uint256"
        }
      ],
      "stateMutability": "view",
      "type": "function"
    },
    {
      "inputs": [],
      "name": "minPriceDelta",
      "outputs": [
        {
          "internalType": "uint256",
          "name": "",
          "type": "uint256"
        }
      ],
      "stateMutability": "view",
      "type": "function"
    },
    {
      "inputs": [],
      "name": "owner",
      "outputs": [
        {
          "internalType": "address",
          "name": "",
          "type": "address"
        }
      ],
      "stateMutability": "view",
      "type": "function"
    },
    {
      "inputs": [],
      "name": "renounceOwnership",
      "outputs": [],
      "stateMutability": "nonpayable",
      "type": "function"
    },
    {
      "inputs": [],
      "name": "riskThreshold",
      "outputs": [
        {
          "internalType": "uint256",
          "name": "",
          "type": "uint256"
        }
      ],
      "stateMutability": "view",
      "type": "function"
    },
    {
      "inputs": [
        {
          "internalType": "uint256",
          "name": "newMultiplier",
          "type": "uint256"
        }
      ],
      "name": "setFrontRunGasMultiplier",
      "outputs": [],
      "stateMutability": "nonpayable",
      "type": "function"
    },
    {
      "inputs": [
        {
          "internalType": "uint256",
          "name": "newDelta",
          "type": "uint256"
        }
      ],
      "name": "setMinPriceDelta",
      "outputs": [],
      "stateMutability": "nonpayable",
      "type": "function"
    },
    {
      "inputs": [
        {
          "internalType": "uint256",
          "name": "newThreshold",
          "type": "uint256"
        }
      ],
      "name": "setRiskThreshold",
      "outputs": [],
      "stateMutability": "nonpayable",
      "type": "function"
    },
    {
      "inputs": [
        {
          "internalType": "address",
          "name": "newOwner",
          "type": "address"
        }
      ],
      "name": "transferOwnership",
      "outputs": [],
      "stateMutability": "nonpayable",
      "type": "function"
    },
    {
      "inputs": [
        {
          "internalType": "uint256",
          "name": "receivedTimestampMilliseconds",
          "type": "uint256"
        }
      ],
      "name": "validateTimestamp",
      "outputs": [],
      "stateMutability": "view",
      "type": "function"
    }
  ],
  "bytecode": "0x608060405234620000d0576200001533620000d5565b60016101f48155606480600255607860035560005b8181106200004d576200003d33620000d5565b6040516118db90816200011d8239f35b6006805468010000000000000000811015620000ba57848101808355811015620000a457600091825260208220015560001981146200008e5782016200002a565b634e487b7160e01b600052601160045260246000fd5b634e487b7160e01b600052603260045260246000fd5b634e487b7160e01b600052604160045260246000fd5b600080fd5b600080546001600160a01b039283166001600160a01b03198216811783559216907f8be0079c531659141344cd1fd0a4f28419497f9722a3daafe3b4186f6b6457e09080a356fe6080604052600436101561001257600080fd5b60003560e01c80630bb30e2414610197578063161e444e1461019257806337f8218e1461018d5780633ce142f51461018857806355a547d5146101835780637083d1c21461017e578063715018a6146101795780637bfdfac7146101745780638da5cb5b1461016f578063a833be211461016a578063afbc738c14610165578063b24ebfcc14610160578063b43e6cb41461015b578063c274583a14610156578063c324feed14610151578063c93ad6191461014c578063d67e343c14610147578063db14839714610142578063e4f269ec1461013d578063f2fde38b14610138578063f50b2efe14610133578063f5ab44851461012e578063f90c4924146101295763ff53159c1461012457600080fd5b6109b0565b610994565b610979565b6108ec565b610834565b610808565b6107e6565b6107ba565b6107a0565b610727565b6106a2565b610684565b6105ef565b610545565b610472565b610449565b61042b565b6103cd565b610354565b610273565b610250565b610210565b6101ea565b346101e55760203660031901126101e55760043560005260046020526040600020546005602052604060002054906101e16040519283928360209093929193604081019481520152565b0390f35b600080fd5b346101e55760203660031901126101e5576020610208600435610fd9565b604051908152f35b346101e55760003660031901126101e5576020600354604051908152f35b60209060031901126101e5576004356001600160a01b03811681036101e55790565b346101e55760206102686102633661022e565b610c76565b60ff60405191168152f35b346101e55760003660031901126101e557600061ffff610299610294610b29565b610bb5565b9116908115610342579190815b8181106102b857604051838152602090f35b90916102c384610afe565b9065ffffffffffff6102dd6102d787610a49565b36610ac7565b351690811561033057806103095750610300916102fa9195610aab565b91610a3a565b929190926102a6565b8095910361031e57610300916102fa91610aab565b60405163d9d1f46560e01b8152600490fd5b604051630336dc9d60e41b8152600490fd5b604051632154bfcf60e21b8152600490fd5b346101e55760203660031901126101e5577f542d1e36f54195e4e918eaa06cf4f40e8861c8af6cf52111230f74bec3dbadfe60a06004356103936109cc565b60015490806001556040519160608352600d60608401526c1c9a5cdad51a1c995cda1bdb19609a1b608084015260208301526040820152a1005b346101e557600080600319360112610428576103e76109cc565b80546001600160a01b03198116825581906001600160a01b03167f8be0079c531659141344cd1fd0a4f28419497f9722a3daafe3b4186f6b6457e08280a380f35b80fd5b346101e55760003660031901126101e5576020600254604051908152f35b346101e55760003660031901126101e5576000546040516001600160a01b039091168152602090f35b346101e55760203660031901126101e5577f542d1e36f54195e4e918eaa06cf4f40e8861c8af6cf52111230f74bec3dbadfe60a06004356104b16109cc565b600354908060035560405191606083526015606084015274333937b73a293ab723b0b9a6bab63a34b83634b2b960591b608084015260208301526040820152a1005b60609060031901126101e557600435906024359060443590565b90151581526060810193929190600482101561052f5760409160208201520152565b634e487b7160e01b600052602160045260246000fd5b346101e5576101e1610567610559366104f3565b916105626109cc565b6115ea565b6040939193519384938461050d565b634e487b7160e01b600052604160045260246000fd5b604051906040820182811067ffffffffffffffff8211176105ac57604052565b610576565b6040519190601f01601f1916820167ffffffffffffffff8111838210176105ac57604052565b67ffffffffffffffff81116105ac5760051b60200190565b346101e5576020806003193601126101e55760043567ffffffffffffffff81116101e557366023820112156101e557806004013590610635610630836105d7565b6105b1565b9160248484838152019160051b830101913683116101e557602401905b828210610675576101e161066585610d04565b6040519081529081906020820190565b81358152908401908401610652565b346101e55760003660031901126101e5576020600154604051908152f35b346101e55760003660031901126101e5576106bb61058c565b6012815260207172656473746f6e652d6d61696e2d64656d6f60701b818301526040908151928184928352815191828285015260005b838110610711575050600083830185015250601f01601f19168101030190f35b81810183015187820187015286945082016106f1565b346101e55760203660031901126101e5577f542d1e36f54195e4e918eaa06cf4f40e8861c8af6cf52111230f74bec3dbadfe60a06004356107666109cc565b60025490806002556040519160608352600d60608401526c6d696e507269636544656c746160981b608084015260208301526040820152a1005b346101e5576101e16105676107b4366104f3565b916116ed565b346101e55760203660031901126101e55760043560005260046020526020604060002054604051908152f35b346101e5576101e16105676107fa366104f3565b916108036109cc565b610de8565b346101e55760203660031901126101e55760043560005260056020526020604060002054604051908152f35b346101e5576108423661022e565b61084a6109cc565b6001600160a01b03908116801561089857600080546001600160a01b03198116831782559092167f8be0079c531659141344cd1fd0a4f28419497f9722a3daafe3b4186f6b6457e08380a380f35b60405162461bcd60e51b815260206004820152602660248201527f4f776e61626c653a206e6577206f776e657220697320746865207a65726f206160448201526564647265737360d01b6064820152608490fd5b346101e55760203660031901126101e5576103e86004350480421060001461094157603c61091a4283610ac7565b1161092157005b60405163b6b0916d60e01b81526004810191909152426024820152604490fd5b8042034281116109745760b41061095457005b604051630321d0b560e01b81526004810191909152426024820152604490fd5b610a24565b346101e55760003660031901126101e5576020610208611557565b346101e55760003660031901126101e557602060405160018152f35b346101e55760003660031901126101e557602060405160648152f35b6000546001600160a01b031633036109e057565b606460405162461bcd60e51b815260206004820152602060248201527f4f776e61626c653a2063616c6c6572206973206e6f7420746865206f776e65726044820152fd5b634e487b7160e01b600052601160045260246000fd5b60001981146109745760010190565b906068820180921161097457565b906009820180921161097457565b906002820180921161097457565b906020820180921161097457565b90600d820180921161097457565b906041820180921161097457565b90604e820180921161097457565b9190820180921161097457565b60001981019190821161097457565b9190820391821161097457565b906127109182810292818404149015171561097457565b8181029291811591840414171561097457565b610b0790610bde565b6020018060201161097457610b1b91610aeb565b604e81018091116109745790565b6602ed57011dffff1936601f1901356602ed57011e00001601610ba35736602911610b915762ffffff602819360135166003810180911161097457610b6d90610a57565b36610b7782610a65565b11610b7f5790565b60405163c30a7bd760e01b8152600490fd5b604051632bcb7bc560e11b8152600490fd5b6040516373bb264f60e11b8152600490fd5b9060208201808311610974573610610b91576002820191828111610974573603601f1901359190565b6041810180821161097457606182011061097457360390606019820191368311610974576063190191808311610974573562ffffff16913563ffffffff1690565b8115610c29570490565b634e487b7160e01b600052601260045260246000fd5b6103e89004804210600014610c625742810381811161097457603c106109215750565b8042034281116109745760b4106109545750565b6001600160a01b0316730c39486f770b26f5527bbbf942726537986cd7eb8103610ca05750600090565b602490604051906303b1166f60e61b82526004820152fd5b634e487b7160e01b600052603260045260246000fd5b805115610cdb5760200190565b610cb8565b805160011015610cdb5760400190565b8051821015610cdb5760209160051b010190565b6002815114610d7d57805115610d6b57610d1d81610d97565b8051600181811c9116610d5e57610d5b91610d4e82610d47610d41610d5595610ab8565b84610cf0565b5192610cf0565b5190610aab565b60011c90565b90565b610d6791610cf0565b5190565b604051639e198af960e01b8152600490fd5b610d5581610d4e610d90610d5b94610cce565b5191610ce0565b8051602082818094019260051b010190805b828110610db65750505050565b83825b828110610dc7575001610da9565b82518151808210610ddd575b5050018490610db9565b845281523880610dd3565b91610df283610fd9565b9182610e08856000526004602052604060002090565b5542610e1e856000526005602052604060002090565b5580831115610fc957610e318184610ac7565b905b610e4581610e4084610ad4565b610c1f565b91610e4f8461150b565b6001548311610f3d57505050610e63611557565b9081151580610f26575b610ecf575050610e7d9082611493565b610e8d5750600090600390600090565b604051600080516020611886833981519152339180610ec042829190604060608401936002815261012c60208201520152565b0390a360019060029061012c90565b610ee69250610ee182610e4092610ac7565b610ad4565b90604051600080516020611886833981519152339180610f1b4287836040909392919360608101946001825260208201520152565b0390a3600191829190565b506064610f3560035484610aeb565b048111610e6d565b7f357ce8db9c632eb267b5136efa5fcf7f6559a762164709aff4d5e8c4a4abc15f9350610fbd908660409796949751600080516020611886833981519152339180610f9d428d836040909392919360608101946000825260208201520152565b0390a3604051938493846040919493926060820195825260208201520152565b0390a260019160009190565b610fd38382610ac7565b90610e33565b90610fe261058c565b91600190818452602084016020368237845115610cdb57526000906110078451611117565b906110128551611117565b9461101d815161113f565b958285815b6110cc575b505061ffff90611038610294610b29565b9216926040918251916020899301945b86841061107357505050505050505061106861106e91610d679495611397565b91610c3f565b610cce565b611080908c848b85611198565b93909380156110bb578a810361109d575b50858552870192611048565b90996110aa579887611091565b845163265e23a160e11b8152600490fd5b855163dfb25a7960e01b8152600490fd5b83518110156110fc5781906110df611101565b6110e9828c610cf0565b526110f4818b610cf0565b500181611022565b611027565b61110961058c565b600181529060203681840137565b90611124610630836105d7565b8281528092611135601f19916105d7565b0190602036910137565b9061114c610630836105d7565b828152809261115d601f19916105d7565b019060005b82811061116e57505050565b806060602080938501015201611162565b9060405191818352602082840101604052602083013790565b909492916111a585610bde565b9190936111c26111bd6111b785610a73565b87610aeb565b610a81565b9661121961121361120d6102636111db6102d786610a49565b9b60206111fc826111f76102d7826111f28c610a8f565b610aab565b61117f565b012061120786610a8f565b9061141f565b60ff1690565b91610a9d565b956000998a955b82871061123f57509699505050953565ffffffffffff16955050505050565b929598909396999194976112568461125b92610aab565b610a73565b6112658482611356565b96909c805b8d51811015611340578e61127f8f8390610cf0565b511461128d5760010161126a565b9095939c9a9896949d50896001939c929a986112a9838c610cf0565b51858a1b9182821615878161132c575b506112d8575b50505050505b019691909a99989796959493929a611220565b6112fa6112e88661132196610cf0565b516112f3878c610cf0565b5190610cf0565b5261130e611308858a610cf0565b51610a3a565b611318858a610cf0565b5217918a610cf0565b5238878180806112bf565b9050611338868b610cf0565b5110386112b9565b5094929b999795939c50979550986001906112c5565b91909136039136831161097457823592602182101561137e57602001359060200360031b1c90565b6040516360007e2160e11b815260048101839052602490fd5b91906113a38351611117565b9060005b8451811015611418576001806113bd8385610cf0565b51106113f05750806113db6113d56113eb9388610cf0565b51610d04565b6113e58286610cf0565b52610a3a565b6113a7565b6113fc60449284610cf0565b519060405191632b13aef560e01b835260048301526024820152fd5b5090925050565b9190602080913603608060405186815260009483604087950135851a82840152803560408401520135606082015282805260015afa156114875751916001600160a01b0383161561146d5750565b604051633335be5d60e11b81526004810191909152602490fd5b604051903d90823e3d90fd5b90600091825260046020526040822054906005602052604083205482158015611503575b6114fd57420342811161097457601e10156114d157505090565b6114ec9250610e409082808211156114f357610ee191610ac7565b6002541090565b90610ee191610ac7565b50505090565b5080156114b7565b600754600654811015610cdb5760066000527ff652222313e28459528d920b65115c16c04f3efc82aaedc97be59f3f377c0d3f0155600754600181018091116109745760649006600755565b6000808160068054915b606481106115855750600093915050811561158057610d5b9250610c1f565b505090565b82811015610cdb5781600052807ff652222313e28459528d920b65115c16c04f3efc82aaedc97be59f3f377c0d3f0154806115ca575b506115c590610a3a565b611561565b8591949501809111610974576115e36115c59195610a3a565b93906115bb565b9181611600846000526004602052604060002090565b5542611616846000526005602052604060002090565b556116208161150b565b611634836000526004602052604060002090565b54156116e75761164e836000526004602052604060002090565b545b808311156116d7576116628184610ac7565b905b600081156116cf5750610e4061167992610ad4565b600154811161168b5750610e63611557565b929150506040516000805160206118868339815191523391806116c34287836040909392919360608101946000825260208201520152565b0390a360019160009190565b915050611679565b6116e18382610ac7565b90611664565b81611650565b91611702836000526004602052604060002090565b541561187f5761171c836000526004602052604060002090565b545b8083111561186f576117308184610ac7565b905b600081156118675750610e4061174792610ad4565b600154811161185a5750611759611557565b9081151580611843575b61182657505061177d826000526004602052604060002090565b54611790575b5050600090600390600090565b816117e96117d86117f0936117b160c8966000526004602052604060002090565b5481111561180857610ee1906117d1856000526004602052604060002090565b5490610ac7565b916000526004602052604060002090565b5490610c1f565b116117fc573880611783565b60019060029061012c90565b610ee190611820856000526004602052604060002090565b54610ac7565b61183b935081610e40929350610ee191610ac7565b600191829190565b50606461185260035484610aeb565b048111611763565b9250505060019160009190565b915050611747565b6118798382610ac7565b90611732565b8161171e56fe9ee9d1608342eed14229d2eca902e2660aff9ed9a3bdaf998af116afdf12a621a26469706673582212208128ef2ee00b962dd5324f43dc44d00f296c88296352e85e3ced24091b32ffb564736f6c63430008140033",
  "linkReferences": {},
  "deployedLinkReferences": {}
}