{
  "_format": "hh-sol-artifact-1",
  "contractName": "AegilonToken",
  "sourceName": "contracts/AegilonToken.sol",
  "abi": [
    {
      "inputs": [
        {
          "internalType": "address",
          "name": "_treasuryAddress",
          "type": "address"
        },
        {
          "internalType": "address",
          "name": "_liquidityRewardsAddress",
          "type": "address"
        }
      ],
      "stateMutability": "nonpayable",
      "type": "constructor"
    },
    {
      "anonymous": false,
      "inputs": [
        {
          "indexed": true,
          "internalType": "address",
          "name": "owner",
          "type": "address"
        },
        {
          "indexed": true,
          "internalType": "address",
          "name": "spender",
          "type": "address"
        },
        {
          "indexed": false,
          "internalType": "uint256",
          "name": "value",
          "type": "uint256"
        }
      ],
      "name": "Approval",
      "type": "event"
    },
    {
      "anonymous": false,
      "inputs": [
        {
          "indexed": true,
          "internalType": "address",
          "name": "reporter",
          "type": "address"
        },
        {
          "indexed": false,
          "internalType": "uint256",
          "name": "reward",
          "type": "uint256"
        }
      ],
      "name": "MEVThreatReported",
      "type": "event"
    },
    {
      "anonymous": false,
      "inputs": [
        {
          "indexed": true,
          "internalType": "address",
          "name": "previousOwner",
          "type": "address"
        },
        {
          "indexed": true,
          "internalType": "address",
          "name": "newOwner",
          "type": "address"
        }
      ],
      "name": "OwnershipTransferred",
      "type": "event"
    },
    {
      "anonymous": false,
      "inputs": [
        {
          "indexed": false,
          "internalType": "address",
          "name": "account",
          "type": "address"
        }
      ],
      "name": "Paused",
      "type": "event"
    },
    {
      "anonymous": false,
      "inputs": [
        {
          "indexed": true,
          "internalType": "address",
          "name": "user",
          "type": "address"
        },
        {
          "indexed": false,
          "internalType": "uint256",
          "name": "stakedAmount",
          "type": "uint256"
        }
      ],
      "name": "ProtectionActivated",
      "type": "event"
    },
    {
      "anonymous": false,
      "inputs": [
        {
          "indexed": true,
          "internalType": "address",
          "name": "user",
          "type": "address"
        },
        {
          "indexed": false,
          "internalType": "uint256",
          "name": "amount",
          "type": "uint256"
        }
      ],
      "name": "RewardsClaimed",
      "type": "event"
    },
    {
      "anonymous": false,
      "inputs": [
        {
          "indexed": true,
          "internalType": "address",
          "name": "user",
          "type": "address"
        },
        {
          "indexed": false,
          "internalType": "uint256",
          "name": "amount",
          "type": "uint256"
        }
      ],
      "name": "TokensStaked",
      "type": "event"
    },
    {
      "anonymous": false,
      "inputs": [
        {
          "indexed": true,
          "internalType": "address",
          "name": "user",
          "type": "address"
        },
        {
          "indexed": false,
          "internalType": "uint256",
          "name": "amount",
          "type": "uint256"
        }
      ],
      "name": "TokensUnstaked",
      "type": "event"
    },
    {
      "anonymous": false,
      "inputs": [
        {
          "indexed": true,
          "internalType": "address",
          "name": "from",
          "type": "address"
        },
        {
          "indexed": true,
          "internalType": "address",
          "name": "to",
          "type": "address"
        },
        {
          "indexed": false,
          "internalType": "uint256",
          "name": "value",
          "type": "uint256"
        }
      ],
      "name": "Transfer",
      "type": "event"
    },
    {
      "anonymous": false,
      "inputs": [
        {
          "indexed": false,
          "internalType": "address",
          "name": "account",
          "type": "address"
        }
      ],
      "name": "Unpaused",
      "type": "event"
    },
    {
      "inputs": [],
      "name": "COMMUNITY_AIRDROP",
      "outputs": [
        {
          "internalType": "uint256",
          "name": "",
          "type": "uint256"
        }
      ],
      "stateMutability": "view",
      "type": "function"
    },
    {
      "inputs": [],
      "name": "GOVERNANCE_TREASURY",
      "outputs": [
        {
          "internalType": "uint256",
          "name": "",
          "type": "uint256"
        }
      ],
      "stateMutability": "view",
      "type": "function"
    },
    {
      "inputs": [],
      "name": "LIQUIDITY_REWARDS",
      "outputs": [
        {
          "internalType": "uint256",
          "name": "",
          "type": "uint256"
        }
      ],
      "stateMutability": "view",
      "type": "function"
    },
    {
      "inputs": [],
      "name": "TEAM_ALLOCATION",
      "outputs": [
        {
          "internalType": "uint256",
          "name": "",
          "type": "uint256"
        }
      ],
      "stateMutability": "view",
      "type": "function"
    },
    {
      "inputs": [],
      "name": "TOTAL_SUPPLY",
      "outputs": [
        {
          "internalType": "uint256",
          "name": "",
          "type": "uint256"
        }
      ],
      "stateMutability": "view",
      "type": "function"
    },
    {
      "inputs": [
        {
          "internalType": "address",
          "name": "owner",
          "type": "address"
        },
        {
          "internalType": "address",
          "name": "spender",
          "type": "address"
        }
      ],
      "name": "allowance",
      "outputs": [
        {
          "internalType": "uint256",
          "name": "",
          "type": "uint256"
        }
      ],
      "stateMutability": "view",
      "type": "function"
    },
    {
      "inputs": [
        {
          "internalType": "address",
          "name": "spender",
          "type": "address"
        },
        {
          "internalType": "uint256",
          "name": "amount",
          "type": "uint256"
        }
      ],
      "name": "approve",
      "outputs": [
        {
          "internalType": "bool",
          "name": "",
          "type": "bool"
        }
      ],
      "stateMutability": "nonpayable",
      "type": "function"
    },
    {
      "inputs": [
        {
          "internalType": "address",
          "name": "account",
          "type": "address"
        }
      ],
      "name": "balanceOf",
      "outputs": [
        {
          "internalType": "uint256",
          "name": "",
          "type": "uint256"
        }
      ],
      "stateMutability": "view",
      "type": "function"
    },
    {
      "inputs": [
        {
          "internalType": "uint256",
          "name": "amount",
          "type": "uint256"
        }
      ],
      "name": "burn",
      "outputs": [],
      "stateMutability": "nonpayable",
      "type": "function"
    },
    {
      "inputs": [
        {
          "internalType": "address",
          "name": "account",
          "type": "address"
        },
        {
          "internalType": "uint256",
          "name": "amount",
          "type": "uint256"
        }
      ],
      "name": "burnFrom",
      "outputs": [],
      "stateMutability": "nonpayable",
      "type": "function"
    },
    {
      "inputs": [
        {
          "internalType": "address",
          "name": "user",
          "type": "address"
        }
      ],
      "name": "calculateStakingRewards",
      "outputs": [
        {
          "internalType": "uint256",
          "name": "",
          "type": "uint256"
        }
      ],
      "stateMutability": "view",
      "type": "function"
    },
    {
      "inputs": [],
      "name": "claimRewards",
      "outputs": [],
      "stateMutability": "nonpayable",
      "type": "function"
    },
    {
      "inputs": [],
      "name": "decimals",
      "outputs": [
        {
          "internalType": "uint8",
          "name": "",
          "type": "uint8"
        }
      ],
      "stateMutability": "view",
      "type": "function"
    },
    {
      "inputs": [
        {
          "internalType": "address",
          "name": "spender",
          "type": "address"
        },
        {
          "internalType": "uint256",
          "name": "subtractedValue",
          "type": "uint256"
        }
      ],
      "name": "decreaseAllowance",
      "outputs": [
        {
          "internalType": "bool",
          "name": "",
          "type": "bool"
        }
      ],
      "stateMutability": "nonpayable",
      "type": "function"
    },
    {
      "inputs": [
        {
          "internalType": "address",
          "name": "user",
          "type": "address"
        }
      ],
      "name": "getProtectionLevel",
      "outputs": [
        {
          "internalType": "uint256",
          "name": "",
          "type": "uint256"
        }
      ],
      "stateMutability": "view",
      "type": "function"
    },
    {
      "inputs": [
        {
          "internalType": "address",
          "name": "spender",
          "type": "address"
        },
        {
          "internalType": "uint256",
          "name": "addedValue",
          "type": "uint256"
        }
      ],
      "name": "increaseAllowance",
      "outputs": [
        {
          "internalType": "bool",
          "name": "",
          "type": "bool"
        }
      ],
      "stateMutability": "nonpayable",
      "type": "function"
    },
    {
      "inputs": [
        {
          "internalType": "address",
          "name": "",
          "type": "address"
        }
      ],
      "name": "lastStakeTime",
      "outputs": [
        {
          "internalType": "uint256",
          "name": "",
          "type": "uint256"
        }
      ],
      "stateMutability": "view",
      "type": "function"
    },
    {
      "inputs": [],
      "name": "liquidityRewardsAddress",
      "outputs": [
        {
          "internalType": "address",
          "name": "",
          "type": "address"
        }
      ],
      "stateMutability": "view",
      "type": "function"
    },
    {
      "inputs": [],
      "name": "mevProtectorContract",
      "outputs": [
        {
          "internalType": "address",
          "name": "",
          "type": "address"
        }
      ],
      "stateMutability": "view",
      "type": "function"
    },
    {
      "inputs": [],
      "name": "name",
      "outputs": [
        {
          "internalType": "string",
          "name": "",
          "type": "string"
        }
      ],
      "stateMutability": "view",
      "type": "function"
    },
    {
      "inputs": [],
      "name": "owner",
      "outputs": [
        {
          "internalType": "address",
          "name": "",
          "type": "address"
        }
      ],
      "stateMutability": "view",
      "type": "function"
    },
    {
      "inputs": [],
      "name": "pause",
      "outputs": [],
      "stateMutability": "nonpayable",
      "type": "function"
    },
    {
      "inputs": [],
      "name": "paused",
      "outputs": [
        {
          "internalType": "bool",
          "name": "",
          "type": "bool"
        }
      ],
      "stateMutability": "view",
      "type": "function"
    },
    {
      "inputs": [],
      "name": "protectionBoostMultiplier",
      "outputs": [
        {
          "internalType": "uint256",
          "name": "",
          "type": "uint256"
        }
      ],
      "stateMutability": "view",
      "type": "function"
    },
    {
      "inputs": [],
      "name": "renounceOwnership",
      "outputs": [],
      "stateMutability": "nonpayable",
      "type": "function"
    },
    {
      "inputs": [
        {
          "internalType": "address",
          "name": "reporter",
          "type": "address"
        },
        {
          "internalType": "uint256",
          "name": "rewardAmount",
          "type": "uint256"
        }
      ],
      "name": "rewardThreatReporter",
      "outputs": [],
      "stateMutability": "nonpayable",
      "type": "function"
    },
    {
      "inputs": [
        {
          "internalType": "address",
          "name": "_mevProtectorContract",
          "type": "address"
        }
      ],
      "name": "setMEVProtectorContract",
      "outputs": [],
      "stateMutability": "nonpayable",
      "type": "function"
    },
    {
      "inputs": [
        {
          "internalType": "uint256",
          "name": "_multiplier",
          "type": "uint256"
        }
      ],
      "name": "setProtectionBoostMultiplier",
      "outputs": [],
      "stateMutability": "nonpayable",
      "type": "function"
    },
    {
      "inputs": [
        {
          "internalType": "uint256",
          "name": "_newAPR",
          "type": "uint256"
        }
      ],
      "name": "setStakingAPR",
      "outputs": [],
      "stateMutability": "nonpayable",
      "type": "function"
    },
    {
      "inputs": [
        {
          "internalType": "uint256",
          "name": "amount",
          "type": "uint256"
        }
      ],
      "name": "stakeTokens",
      "outputs": [],
      "stateMutability": "nonpayable",
      "type": "function"
    },
    {
      "inputs": [
        {
          "internalType": "address",
          "name": "",
          "type": "address"
        }
      ],
      "name": "stakedBalance",
      "outputs": [
        {
          "internalType": "uint256",
          "name": "",
          "type": "uint256"
        }
      ],
      "stateMutability": "view",
      "type": "function"
    },
    {
      "inputs": [],
      "name": "stakingAPR",
      "outputs": [
        {
          "internalType": "uint256",
          "name": "",
          "type": "uint256"
        }
      ],
      "stateMutability": "view",
      "type": "function"
    },
    {
      "inputs": [
        {
          "internalType": "address",
          "name": "",
          "type": "address"
        }
      ],
      "name": "stakingRewards",
      "outputs": [
        {
          "internalType": "uint256",
          "name": "",
          "type": "uint256"
        }
      ],
      "stateMutability": "view",
      "type": "function"
    },
    {
      "inputs": [],
      "name": "symbol",
      "outputs": [
        {
          "internalType": "string",
          "name": "",
          "type": "string"
        }
      ],
      "stateMutability": "view",
      "type": "function"
    },
    {
      "inputs": [],
      "name": "totalSupply",
      "outputs": [
        {
          "internalType": "uint256",
          "name": "",
          "type": "uint256"
        }
      ],
      "stateMutability": "view",
      "type": "function"
    },
    {
      "inputs": [
        {
          "internalType": "address",
          "name": "to",
          "type": "address"
        },
        {
          "internalType": "uint256",
          "name": "amount",
          "type": "uint256"
        }
      ],
      "name": "transfer",
      "outputs": [
        {
          "internalType": "bool",
          "name": "",
          "type": "bool"
        }
      ],
      "stateMutability": "nonpayable",
      "type": "function"
    },
    {
      "inputs": [
        {
          "internalType": "address",
          "name": "from",
          "type": "address"
        },
        {
          "internalType": "address",
          "name": "to",
          "type": "address"
        },
        {
          "internalType": "uint256",
          "name": "amount",
          "type": "uint256"
        }
      ],
      "name": "transferFrom",
      "outputs": [
        {
          "internalType": "bool",
          "name": "",
          "type": "bool"
        }
      ],
      "stateMutability": "nonpayable",
      "type": "function"
    },
    {
      "inputs": [
        {
          "internalType": "address",
          "name": "newOwner",
          "type": "address"
        }
      ],
      "name": "transferOwnership",
      "outputs": [],
      "stateMutability": "nonpayable",
      "type": "function"
    },
    {
      "inputs": [],
      "name": "treasuryAddress",
      "outputs": [
        {
          "internalType": "address",
          "name": "",
          "type": "address"
        }
      ],
      "stateMutability": "view",
      "type": "function"
    },
    {
      "inputs": [],
      "name": "unpause",
      "outputs": [],
      "stateMutability": "nonpayable",
      "type": "function"
    },
    {
      "inputs": [
        {
          "internalType": "uint256",
          "name": "amount",
          "type": "uint256"
        }
      ],
      "name": "unstakeTokens",
      "outputs": [],
      "stateMutability": "nonpayable",
      "type": "function"
    }
  ],
  "bytecode": "0x608034620005435762001fc190601f90601f196001600160401b03388590038481018316840190828211858310176200043c57808591604098899485528339810103126200054357620000528362000568565b9062000062602080950162000568565b906200006d62000548565b95600d87526c20b2b3b4b637b7102a37b5b2b760991b868801526200009162000548565b906003918281526241454760e81b8882015288518481116200043c57835460019a8b82811c9216801562000538575b8b83101462000522578185849311620004cc575b508a908583116001146200045e5760009262000452575b505060001982861b1c1916908a1b1783555b80519384116200043c5760049687548a81811c9116801562000431575b8a8210146200041c57908184879695949311620003c0575b50899285116001146200035857506000936200034c575b505082881b92600019911b1c19161783555b600580546001600160a81b0319811633600881811b610100600160a81b0316929092179093558851976001600160a01b039493909290911c84167f8be0079c531659141344cd1fd0a4f28419497f9722a3daafe3b4186f6b6457e0600080a36006556101f4600a556096600b558183169586156200030b575016938415620002c8579084620002049260018060a01b03199081600c541617600c55600d541617600d556200057d565b60ff6005541662000285576002546a034f086f3b33b68400000091828201809211620002705750600255600083815280835284812080548301905584519182529160008051602062001f8183398151915291a362000262336200057d565b516118fa9081620006878239f35b601190634e487b7160e01b6000525260246000fd5b60849184519162461bcd60e51b8352820152602a602482015260008051602062001fa18339815191526044820152691a5b19481c185d5cd95960b21b6064820152fd5b855162461bcd60e51b8152808401859052601960248201527f496e76616c6964206c69717569646974792061646472657373000000000000006044820152606490fd5b62461bcd60e51b8152848101869052601860248201527f496e76616c6964207472656173757279206164647265737300000000000000006044820152606490fd5b01519150388062000149565b8a9593929193169288600052896000209360005b8b828210620003a957505085116200038e575b50505050811b0183556200015b565b01519060f884600019921b161c19169055388080806200037f565b8385015187558d989096019593840193016200036c565b90919293945088600052896000208480880160051c8201928c891062000412575b918d91899897969594930160051c01915b8281106200040257505062000132565b600081558897508d9101620003f2565b92508192620003e1565b602289634e487b7160e01b6000525260246000fd5b90607f16906200011a565b634e487b7160e01b600052604160045260246000fd5b015190503880620000eb565b908a8d941691876000528c600020928d6000905b828210620004ab575050841162000492575b505050811b018355620000fd565b015160001983881b60f8161c1916905538808062000484565b91929395968291958786015181550195019301908e95949392918e62000472565b909150856000528a6000208580850160051c8201928d861062000518575b918e91869594930160051c01915b82811062000508575050620000d4565b600081558594508e9101620004f8565b92508192620004ea565b634e487b7160e01b600052602260045260246000fd5b91607f1691620000c0565b600080fd5b60408051919082016001600160401b038111838210176200043c57604052565b51906001600160a01b03821682036200054357565b6001600160a01b03168015620006415760ff60055416620005fa576002546a027b46536c66c8e3000000808201809211620005e457602060008051602062001f818339815191529160009360025584845283825260408420818154019055604051908152a3565b634e487b7160e01b600052601160045260246000fd5b60405162461bcd60e51b815260206004820152602a602482015260008051602062001fa18339815191526044820152691a5b19481c185d5cd95960b21b6064820152608490fd5b60405162461bcd60e51b815260206004820152601f60248201527f45524332303a206d696e7420746f20746865207a65726f2061646472657373006044820152606490fdfe608060408181526004918236101561001657600080fd5b600092833560e01c91826306fdde0314610fb857508163095ea7b314610f8e5781630ca34d0114610f6957816318160ddd14610f4a5781631816f2b814610f2157816323b872dd14610ee45781633039819514610ebb578163313ce56714610e9f578163372500ab14610dd4578163375c948514610db55781633950935114610d655781633aacdc4614610cd45781633f4ba83a14610c3e57816342966c6814610c20578163499d7f9614610be85781635c975abb14610bc45781636021726714610b8c578163608e4dd014610a80578163649f7f5214610a3b57816370a0823114610a04578163715018a6146109a357816373e50210146109395781637547c7a3146107df57816379cc6790146107ac5781637bb1ca19146107745781638456cb59146107195781638da5cb5b146106ec578163902d55a5146106c657816395d89b41146105a7578163a457c2d7146104ff578163a9059cbb146104ce578163a91990f4146104a8578163bc00fd6714610482578163c5f956af14610459578163cf086d3f146103a8578163d47768de1461037b578163dd62ed3e14610332578163eb7203fe14610313578163ebdbe248146102ed578163f2fde38b14610210575063fd99cbed146101e857600080fd5b3461020c578160031936011261020c57602090516a01a784379d99db420000008152f35b5080fd5b9050346102e95760203660031901126102e95761022b6110d9565b61023361110a565b6001600160a01b0381811693909290841561029757505060058054610100600160a81b03198116600893841b610100600160a81b031617909155901c167f8be0079c531659141344cd1fd0a4f28419497f9722a3daafe3b4186f6b6457e08380a380f35b906020608492519162461bcd60e51b8352820152602660248201527f4f776e61626c653a206e6577206f776e657220697320746865207a65726f206160448201526564647265737360d01b6064820152fd5b8280fd5b50503461020c578160031936011261020c57602090516a034f086f3b33b6840000008152f35b50503461020c578160031936011261020c57602090600a549051908152f35b50503461020c578060031936011261020c57806020926103506110d9565b6103586110f4565b6001600160a01b0391821683526001865283832091168252845220549051908152f35b50503461020c57602036600319011261020c576020906103a161039c6110d9565b6117b6565b9051908152f35b9050346102e957816003193601126102e9576103c26110d9565b600e54602435936001600160a01b0393909184163303610417575091817fba29a1f6b0e8d9402f3fae592e8e8f66ae1dcb631e0d57908a12ff3c517e66529361040d866020956116f6565b519485521692a280f35b6020606492519162461bcd60e51b8352820152601b60248201527f4f6e6c79204d45562050726f746563746f722063616e2063616c6c00000000006044820152fd5b50503461020c578160031936011261020c57600c5490516001600160a01b039091168152602090f35b50503461020c57602036600319011261020c576020906103a16104a36110d9565b611835565b50503461020c578160031936011261020c57602090516a027b46536c66c8e30000008152f35b50503461020c578060031936011261020c576020906104f86104ee6110d9565b6024359033611188565b5160018152f35b905082346105a457826003193601126105a45761051a6110d9565b918360243592338152600160205281812060018060a01b0386168252602052205490828210610553576020856104f88585038733611358565b608490602086519162461bcd60e51b8352820152602560248201527f45524332303a2064656372656173656420616c6c6f77616e63652062656c6f77604482015264207a65726f60d81b6064820152fd5b80fd5b83833461020c578160031936011261020c57805190828454600181811c908083169283156106bc575b60209384841081146106a95783885290811561068d5750600114610638575b505050829003601f01601f191682019267ffffffffffffffff8411838510176106255750829182610621925282611090565b0390f35b634e487b7160e01b815260418552602490fd5b8787529192508591837f8a35acfbc15ff81a39ae7d344fd709f28e8600b4aa8c65c6b64bfe7fe36bd19b5b83851061067957505050508301018580806105ef565b805488860183015293019284908201610663565b60ff1916878501525050151560051b84010190508580806105ef565b634e487b7160e01b895260228a52602489fd5b91607f16916105d0565b50503461020c578160031936011261020c57602090516a084595161401484a0000008152f35b50503461020c578160031936011261020c57600554905160089190911c6001600160a01b03168152602090f35b50503461020c578160031936011261020c5760207f62e78cea01bee320cd4e420270b5ea74000d11b0c9f74754ebdbfc544b05a2589161075761110a565b61075f61164f565b600160ff19600554161760055551338152a180f35b50503461020c57602036600319011261020c5760209181906001600160a01b0361079c6110d9565b1681526009845220549051908152f35b50503461020c573660031901126105a4576107dc6107c86110d9565b602435906107d782338361145a565b6114f2565b80f35b9050346102e95760209081600319360112610935578035906107ff611693565b61080761164f565b610812821515611603565b3385528483528184862054106108fb5750907f985e9aa4ba7a346bc73ecb280a306df5aca60437b7fa6e2e8902a06e25c516cf9133855260078252838520546108c9575b610861813033611188565b33855260078252838520610876828254611165565b905533855260098252428486205583519081527fb539ca1e5c8d398ddf1c41c30166f33404941683be4683319b57669a93dad4ef823392a2338452600781528284205492519283523392a2600160065580f35b6108d2336117b6565b806108de575b50610856565b338652600883526108f3858720918254611165565b9055386108d8565b835162461bcd60e51b81529081018390526014602482015273496e73756666696369656e742062616c616e636560601b6044820152606490fd5b8380fd5b9050346102e95760203660031901126102e95780359161095761110a565b6107d08311610968575050600a5580f35b906020606492519162461bcd60e51b835282015260156024820152744150522063616e6e6f74206578636565642032302560581b6044820152fd5b83346105a457806003193601126105a4576109bc61110a565b60058054610100600160a81b03198116909155819060081c6001600160a01b03167f8be0079c531659141344cd1fd0a4f28419497f9722a3daafe3b4186f6b6457e08280a380f35b50503461020c57602036600319011261020c5760209181906001600160a01b03610a2c6110d9565b16815280845220549051908152f35b83346105a45760203660031901126105a457610a556110d9565b610a5d61110a565b60018060a01b03166bffffffffffffffffffffffff60a01b600e541617600e5580f35b919050346102e9576020908160031936011261093557823592610aa1611693565b610aac841515611603565b33855260078352838286205410610b4b5750907f9845e367b683334e5c0b12d7b81721ac518e649376fa65e3d68324e8f34f267991610aea336117b6565b80610b2e575b5033855260078252808520610b068582546116e9565b9055338552600982524281862055610b1f843330611188565b519283523392a2600160065580f35b33865260088352610b43828720918254611165565b905538610af0565b82606492519162461bcd60e51b8352820152601b60248201527f496e73756666696369656e74207374616b65642062616c616e636500000000006044820152fd5b50503461020c57602036600319011261020c5760209181906001600160a01b03610bb46110d9565b1681526007845220549051908152f35b50503461020c578160031936011261020c5760209060ff6005541690519015158152f35b50503461020c57602036600319011261020c5760209181906001600160a01b03610c106110d9565b1681526008845220549051908152f35b83903461020c57602036600319011261020c576107dc9035336114f2565b9050346102e957826003193601126102e957610c5861110a565b6005549060ff821615610c9a575060ff1916600555513381527f5db9ee0a495bf2e6ff9c91a7834c1ba4fdd244a5e8aa4e537bd38aeae4b073aa90602090a180f35b606490602084519162461bcd60e51b8352820152601460248201527314185d5cd8589b194e881b9bdd081c185d5cd95960621b6044820152fd5b9050346102e95760203660031901126102e957803591610cf261110a565b606483101580610d59575b15610d0a575050600b5580f35b906020608492519162461bcd60e51b83528201526024808201527f4d756c7469706c696572206d757374206265206265747765656e20317820616e6044820152630c84066f60e31b6064820152fd5b5061012c831115610cfd565b50503461020c578060031936011261020c576104f8602092610dae610d886110d9565b338352600186528483206001600160a01b03821684528652918490205460243590611165565b9033611358565b50503461020c578160031936011261020c57602090600b549051908152f35b919050346102e957826003193601126102e957610def611693565b610e0c610dfb336117b6565b338552600860205282852054611165565b918215610e6757503383526008602052828181205560096020524281842055610e3582336116f6565b519081527ffc30cddea38e2bf4d6ea7d3f9ed3b6ad7f176419f4963bd81318067a4aee73fe60203392a2600160065580f35b6020606492519162461bcd60e51b835282015260136024820152724e6f207265776172647320746f20636c61696d60681b6044820152fd5b50503461020c578160031936011261020c576020905160128152f35b50503461020c578160031936011261020c57600e5490516001600160a01b039091168152602090f35b50503461020c57606036600319011261020c576020906104f8610f056110d9565b610f0d6110f4565b60443591610f1c83338361145a565b611188565b50503461020c578160031936011261020c57600d5490516001600160a01b039091168152602090f35b50503461020c578160031936011261020c576020906002549051908152f35b50503461020c578160031936011261020c576020905169d3c21bcecceda10000008152f35b50503461020c578060031936011261020c576020906104f8610fae6110d9565b6024359033611358565b849084346102e957826003193601126102e95782600354600181811c90808316928315611086575b60209384841081146106a95783885290811561068d575060011461103057505050829003601f01601f191682019267ffffffffffffffff8411838510176106255750829182610621925282611090565b600387529192508591837fc2575a0e9e593c00f959f8c92f12db2869c3395a3b0502d05e2516446f71f85b5b83851061107257505050508301018580806105ef565b80548886018301529301928490820161105c565b91607f1691610fe0565b6020808252825181830181905290939260005b8281106110c557505060409293506000838284010152601f8019910116010190565b8181018601518482016040015285016110a3565b600435906001600160a01b03821682036110ef57565b600080fd5b602435906001600160a01b03821682036110ef57565b60055460081c6001600160a01b0316330361112157565b606460405162461bcd60e51b815260206004820152602060248201527f4f776e61626c653a2063616c6c6572206973206e6f7420746865206f776e65726044820152fd5b9190820180921161117257565b634e487b7160e01b600052601160045260246000fd5b6001600160a01b0390811691821561130557169182156112b45760ff6005541661125c5760008281528060205260408120549180831061120857604082827fddf252ad1be2c89b69c2b068fc378daa952ba7f163c4a11628f55a4df523b3ef958760209652828652038282205586815220818154019055604051908152a3565b60405162461bcd60e51b815260206004820152602660248201527f45524332303a207472616e7366657220616d6f756e7420657863656564732062604482015265616c616e636560d01b6064820152608490fd5b60405162461bcd60e51b815260206004820152602a60248201527f45524332305061757361626c653a20746f6b656e207472616e736665722077686044820152691a5b19481c185d5cd95960b21b6064820152608490fd5b60405162461bcd60e51b815260206004820152602360248201527f45524332303a207472616e7366657220746f20746865207a65726f206164647260448201526265737360e81b6064820152608490fd5b60405162461bcd60e51b815260206004820152602560248201527f45524332303a207472616e736665722066726f6d20746865207a65726f206164604482015264647265737360d81b6064820152608490fd5b6001600160a01b0390811691821561140957169182156113b95760207f8c5be1e5ebec7d5bd14f71427d1e84f3dd0314c0f7b2291e5b200ac8c7c3b925918360005260018252604060002085600052825280604060002055604051908152a3565b60405162461bcd60e51b815260206004820152602260248201527f45524332303a20617070726f766520746f20746865207a65726f206164647265604482015261737360f01b6064820152608490fd5b60405162461bcd60e51b8152602060048201526024808201527f45524332303a20617070726f76652066726f6d20746865207a65726f206164646044820152637265737360e01b6064820152608490fd5b9060018060a01b0380831660005260016020526040600020908216600052602052604060002054926000198403611492575b50505050565b8084106114ad576114a4930391611358565b3880808061148c565b60405162461bcd60e51b815260206004820152601d60248201527f45524332303a20696e73756666696369656e7420616c6c6f77616e63650000006044820152606490fd5b6001600160a01b031680156115b45760ff6005541661125c5760009181835282602052604083205481811061156457817fddf252ad1be2c89b69c2b068fc378daa952ba7f163c4a11628f55a4df523b3ef926020928587528684520360408620558060025403600255604051908152a3565b60405162461bcd60e51b815260206004820152602260248201527f45524332303a206275726e20616d6f756e7420657863656564732062616c616e604482015261636560f01b6064820152608490fd5b60405162461bcd60e51b815260206004820152602160248201527f45524332303a206275726e2066726f6d20746865207a65726f206164647265736044820152607360f81b6064820152608490fd5b1561160a57565b60405162461bcd60e51b815260206004820152601d60248201527f416d6f756e74206d7573742062652067726561746572207468616e20300000006044820152606490fd5b60ff6005541661165b57565b60405162461bcd60e51b815260206004820152601060248201526f14185d5cd8589b194e881c185d5cd95960821b6044820152606490fd5b6002600654146116a4576002600655565b60405162461bcd60e51b815260206004820152601f60248201527f5265656e7472616e637947756172643a207265656e7472616e742063616c6c006044820152606490fd5b9190820391821161117257565b6001600160a01b031690811561175e5760ff6005541661125c577fddf252ad1be2c89b69c2b068fc378daa952ba7f163c4a11628f55a4df523b3ef602082611742600094600254611165565b60025584845283825260408420818154019055604051908152a3565b60405162461bcd60e51b815260206004820152601f60248201527f45524332303a206d696e7420746f20746865207a65726f2061646472657373006044820152606490fd5b8181029291811591840414171561117257565b6001600160a01b039081166000818152600760205260408120541561182f5764496cebb8009161180a604061180f9360096020526117f782822054426116e9565b93815260076020522054600a54906117a3565b6117a3565b0490600e541661181c5790565b61182b606491600b54906117a3565b0490565b91505090565b6001600160a01b031660009081526007602052604090205469021e19e0c9bab24000008110156118be5769010f0cf064dd592000008110156118b857683635c9adc5dea000008110156118b25768056bc75e2d631000008110156118ac57678ac7230489e8000011156118a757600090565b600190565b50600290565b50600390565b50600490565b5060059056fea2646970667358221220ab6192c4ad32f5e6de8fdf7f40e263c5761e3a08b97ed73f3545607a721a1bee64736f6c63430008140033ddf252ad1be2c89b69c2b068fc378daa952ba7f163c4a11628f55a4df523b3ef45524332305061757361626c653a20746f6b656e207472616e73666572207768",
  "linkReferences": {},
  "deployedLinkReferences": {}
}