{
  "_format": "hh-sol-artifact-1",
  "contractName": "MEVProtectorAdvanced",
  "sourceName": "contracts/MEVProtectorAdvanced.sol",
  "abi": [
    {
      "inputs": [
        {
          "internalType": "address",
          "name": "_detector",
          "type": "address"
        },
        {
          "internalType": "address",
          "name": "_treasury",
          "type": "address"
        }
      ],
      "stateMutability": "nonpayable",
      "type": "constructor"
    },
    {
      "anonymous": false,
      "inputs": [
        {
          "indexed": true,
          "internalType": "address",
          "name": "user",
          "type": "address"
        },
        {
          "indexed": false,
          "internalType": "enum MEVProtectorAdvanced.ProtectionStrategy",
          "name": "strategy",
          "type": "uint8"
        },
        {
          "indexed": false,
          "internalType": "uint256",
          "name": "maxSlippage",
          "type": "uint256"
        }
      ],
      "name": "ConfigurationUpdated",
      "type": "event"
    },
    {
      "anonymous": false,
      "inputs": [
        {
          "indexed": true,
          "internalType": "address",
          "name": "user",
          "type": "address"
        },
        {
          "indexed": false,
          "internalType": "string",
          "name": "reason",
          "type": "string"
        }
      ],
      "name": "EmergencyStop",
      "type": "event"
    },
    {
      "anonymous": false,
      "inputs": [
        {
          "indexed": true,
          "internalType": "address",
          "name": "previousOwner",
          "type": "address"
        },
        {
          "indexed": true,
          "internalType": "address",
          "name": "newOwner",
          "type": "address"
        }
      ],
      "name": "OwnershipTransferred",
      "type": "event"
    },
    {
      "anonymous": false,
      "inputs": [
        {
          "indexed": true,
          "internalType": "address",
          "name": "user",
          "type": "address"
        },
        {
          "indexed": true,
          "internalType": "address",
          "name": "tokenIn",
          "type": "address"
        },
        {
          "indexed": true,
          "internalType": "address",
          "name": "tokenOut",
          "type": "address"
        },
        {
          "indexed": false,
          "internalType": "uint256",
          "name": "amountIn",
          "type": "uint256"
        },
        {
          "indexed": false,
          "internalType": "enum MEVProtectorAdvanced.ProtectionStrategy",
          "name": "strategy",
          "type": "uint8"
        }
      ],
      "name": "ProtectionActivated",
      "type": "event"
    },
    {
      "anonymous": false,
      "inputs": [
        {
          "indexed": true,
          "internalType": "address",
          "name": "user",
          "type": "address"
        },
        {
          "indexed": true,
          "internalType": "address",
          "name": "tokenIn",
          "type": "address"
        },
        {
          "indexed": true,
          "internalType": "address",
          "name": "tokenOut",
          "type": "address"
        },
        {
          "indexed": false,
          "internalType": "uint256",
          "name": "amountIn",
          "type": "uint256"
        },
        {
          "indexed": false,
          "internalType": "uint256",
          "name": "amountOut",
          "type": "uint256"
        },
        {
          "indexed": false,
          "internalType": "uint256",
          "name": "protectionFee",
          "type": "uint256"
        }
      ],
      "name": "SwapProtected",
      "type": "event"
    },
    {
      "anonymous": false,
      "inputs": [
        {
          "indexed": true,
          "internalType": "address",
          "name": "user",
          "type": "address"
        },
        {
          "indexed": true,
          "internalType": "bytes32",
          "name": "feedId",
          "type": "bytes32"
        },
        {
          "indexed": false,
          "internalType": "enum MEVDetector.ThreatType",
          "name": "threatType",
          "type": "uint8"
        },
        {
          "indexed": false,
          "internalType": "uint256",
          "name": "riskScore",
          "type": "uint256"
        },
        {
          "indexed": false,
          "internalType": "enum MEVProtectorAdvanced.ProtectionStrategy",
          "name": "strategy",
          "type": "uint8"
        }
      ],
      "name": "ThreatMitigated",
      "type": "event"
    },
    {
      "stateMutability": "payable",
      "type": "fallback"
    },
    {
      "inputs": [
        {
          "internalType": "address",
          "name": "token",
          "type": "address"
        }
      ],
      "name": "addWhitelistedToken",
      "outputs": [],
      "stateMutability": "nonpayable",
      "type": "function"
    },
    {
      "inputs": [
        {
          "internalType": "enum MEVProtectorAdvanced.ProtectionStrategy",
          "name": "strategy",
          "type": "uint8"
        },
        {
          "internalType": "uint256",
          "name": "maxSlippage",
          "type": "uint256"
        },
        {
          "internalType": "uint256",
          "name": "gasLimit",
          "type": "uint256"
        },
        {
          "internalType": "bool",
          "name": "whitelistMode",
          "type": "bool"
        }
      ],
      "name": "configureProtection",
      "outputs": [],
      "stateMutability": "nonpayable",
      "type": "function"
    },
    {
      "inputs": [],
      "name": "detector",
      "outputs": [
        {
          "internalType": "contract MEVDetector",
          "name": "",
          "type": "address"
        }
      ],
      "stateMutability": "view",
      "type": "function"
    },
    {
      "inputs": [
        {
          "internalType": "address",
          "name": "user",
          "type": "address"
        },
        {
          "internalType": "string",
          "name": "reason",
          "type": "string"
        }
      ],
      "name": "emergencyStop",
      "outputs": [],
      "stateMutability": "nonpayable",
      "type": "function"
    },
    {
      "inputs": [
        {
          "internalType": "address",
          "name": "token",
          "type": "address"
        },
        {
          "internalType": "uint256",
          "name": "amount",
          "type": "uint256"
        }
      ],
      "name": "emergencyWithdraw",
      "outputs": [],
      "stateMutability": "nonpayable",
      "type": "function"
    },
    {
      "inputs": [],
      "name": "getGlobalStats",
      "outputs": [
        {
          "components": [
            {
              "internalType": "uint256",
              "name": "totalProtectedSwaps",
              "type": "uint256"
            },
            {
              "internalType": "uint256",
              "name": "threatsDetected",
              "type": "uint256"
            },
            {
              "internalType": "uint256",
              "name": "threatsBlocked",
              "type": "uint256"
            },
            {
              "internalType": "uint256",
              "name": "totalValueProtected",
              "type": "uint256"
            },
            {
              "internalType": "uint256",
              "name": "feesCollected",
              "type": "uint256"
            }
          ],
          "internalType": "struct MEVProtectorAdvanced.ProtectionStats",
          "name": "",
          "type": "tuple"
        }
      ],
      "stateMutability": "view",
      "type": "function"
    },
    {
      "inputs": [
        {
          "internalType": "bytes32",
          "name": "feedId",
          "type": "bytes32"
        }
      ],
      "name": "getPriceDelay",
      "outputs": [
        {
          "internalType": "uint256",
          "name": "",
          "type": "uint256"
        }
      ],
      "stateMutability": "view",
      "type": "function"
    },
    {
      "inputs": [
        {
          "internalType": "address",
          "name": "user",
          "type": "address"
        }
      ],
      "name": "getUserConfig",
      "outputs": [
        {
          "components": [
            {
              "internalType": "bool",
              "name": "isActive",
              "type": "bool"
            },
            {
              "internalType": "enum MEVProtectorAdvanced.ProtectionStrategy",
              "name": "strategy",
              "type": "uint8"
            },
            {
              "internalType": "uint256",
              "name": "maxSlippage",
              "type": "uint256"
            },
            {
              "internalType": "uint256",
              "name": "gasLimit",
              "type": "uint256"
            },
            {
              "internalType": "bool",
              "name": "whitelistMode",
              "type": "bool"
            }
          ],
          "internalType": "struct MEVProtectorAdvanced.ProtectionConfig",
          "name": "",
          "type": "tuple"
        }
      ],
      "stateMutability": "view",
      "type": "function"
    },
    {
      "inputs": [
        {
          "internalType": "address",
          "name": "user",
          "type": "address"
        }
      ],
      "name": "getUserStats",
      "outputs": [
        {
          "components": [
            {
              "internalType": "uint256",
              "name": "totalProtectedSwaps",
              "type": "uint256"
            },
            {
              "internalType": "uint256",
              "name": "threatsDetected",
              "type": "uint256"
            },
            {
              "internalType": "uint256",
              "name": "threatsBlocked",
              "type": "uint256"
            },
            {
              "internalType": "uint256",
              "name": "totalValueProtected",
              "type": "uint256"
            },
            {
              "internalType": "uint256",
              "name": "feesCollected",
              "type": "uint256"
            }
          ],
          "internalType": "struct MEVProtectorAdvanced.ProtectionStats",
          "name": "",
          "type": "tuple"
        }
      ],
      "stateMutability": "view",
      "type": "function"
    },
    {
      "inputs": [],
      "name": "globalStats",
      "outputs": [
        {
          "internalType": "uint256",
          "name": "totalProtectedSwaps",
          "type": "uint256"
        },
        {
          "internalType": "uint256",
          "name": "threatsDetected",
          "type": "uint256"
        },
        {
          "internalType": "uint256",
          "name": "threatsBlocked",
          "type": "uint256"
        },
        {
          "internalType": "uint256",
          "name": "totalValueProtected",
          "type": "uint256"
        },
        {
          "internalType": "uint256",
          "name": "feesCollected",
          "type": "uint256"
        }
      ],
      "stateMutability": "view",
      "type": "function"
    },
    {
      "inputs": [
        {
          "internalType": "address",
          "name": "token",
          "type": "address"
        }
      ],
      "name": "isTokenWhitelisted",
      "outputs": [
        {
          "internalType": "bool",
          "name": "",
          "type": "bool"
        }
      ],
      "stateMutability": "view",
      "type": "function"
    },
    {
      "inputs": [],
      "name": "maxProtectionFee",
      "outputs": [
        {
          "internalType": "uint256",
          "name": "",
          "type": "uint256"
        }
      ],
      "stateMutability": "view",
      "type": "function"
    },
    {
      "inputs": [],
      "name": "owner",
      "outputs": [
        {
          "internalType": "address",
          "name": "",
          "type": "address"
        }
      ],
      "stateMutability": "view",
      "type": "function"
    },
    {
      "inputs": [
        {
          "internalType": "bytes32",
          "name": "",
          "type": "bytes32"
        }
      ],
      "name": "priceDelays",
      "outputs": [
        {
          "internalType": "uint256",
          "name": "",
          "type": "uint256"
        }
      ],
      "stateMutability": "view",
      "type": "function"
    },
    {
      "inputs": [
        {
          "components": [
            {
              "internalType": "address",
              "name": "tokenIn",
              "type": "address"
            },
            {
              "internalType": "address",
              "name": "tokenOut",
              "type": "address"
            },
            {
              "internalType": "uint256",
              "name": "amountIn",
              "type": "uint256"
            },
            {
              "internalType": "uint256",
              "name": "minAmountOut",
              "type": "uint256"
            },
            {
              "internalType": "bytes32",
              "name": "pricefeedId",
              "type": "bytes32"
            },
            {
              "internalType": "uint256",
              "name": "deadline",
              "type": "uint256"
            },
            {
              "internalType": "address",
              "name": "recipient",
              "type": "address"
            }
          ],
          "internalType": "struct MEVProtectorAdvanced.SwapParams",
          "name": "params",
          "type": "tuple"
        }
      ],
      "name": "protectSwap",
      "outputs": [
        {
          "internalType": "bool",
          "name": "success",
          "type": "bool"
        },
        {
          "internalType": "uint256",
          "name": "amountOut",
          "type": "uint256"
        }
      ],
      "stateMutability": "payable",
      "type": "function"
    },
    {
      "inputs": [],
      "name": "protectionFee",
      "outputs": [
        {
          "internalType": "uint256",
          "name": "",
          "type": "uint256"
        }
      ],
      "stateMutability": "view",
      "type": "function"
    },
    {
      "inputs": [
        {
          "internalType": "address",
          "name": "token",
          "type": "address"
        }
      ],
      "name": "removeWhitelistedToken",
      "outputs": [],
      "stateMutability": "nonpayable",
      "type": "function"
    },
    {
      "inputs": [],
      "name": "renounceOwnership",
      "outputs": [],
      "stateMutability": "nonpayable",
      "type": "function"
    },
    {
      "inputs": [
        {
          "internalType": "uint256",
          "name": "newFee",
          "type": "uint256"
        }
      ],
      "name": "setProtectionFee",
      "outputs": [],
      "stateMutability": "nonpayable",
      "type": "function"
    },
    {
      "inputs": [
        {
          "internalType": "address",
          "name": "newTreasury",
          "type": "address"
        }
      ],
      "name": "setTreasury",
      "outputs": [],
      "stateMutability": "nonpayable",
      "type": "function"
    },
    {
      "inputs": [
        {
          "internalType": "address",
          "name": "newOwner",
          "type": "address"
        }
      ],
      "name": "transferOwnership",
      "outputs": [],
      "stateMutability": "nonpayable",
      "type": "function"
    },
    {
      "inputs": [],
      "name": "treasury",
      "outputs": [
        {
          "internalType": "address",
          "name": "",
          "type": "address"
        }
      ],
      "stateMutability": "view",
      "type": "function"
    },
    {
      "inputs": [
        {
          "internalType": "address",
          "name": "newDetector",
          "type": "address"
        }
      ],
      "name": "updateDetector",
      "outputs": [],
      "stateMutability": "nonpayable",
      "type": "function"
    },
    {
      "inputs": [
        {
          "internalType": "address",
          "name": "",
          "type": "address"
        }
      ],
      "name": "userConfigs",
      "outputs": [
        {
          "internalType": "bool",
          "name": "isActive",
          "type": "bool"
        },
        {
          "internalType": "enum MEVProtectorAdvanced.ProtectionStrategy",
          "name": "strategy",
          "type": "uint8"
        },
        {
          "internalType": "uint256",
          "name": "maxSlippage",
          "type": "uint256"
        },
        {
          "internalType": "uint256",
          "name": "gasLimit",
          "type": "uint256"
        },
        {
          "internalType": "bool",
          "name": "whitelistMode",
          "type": "bool"
        }
      ],
      "stateMutability": "view",
      "type": "function"
    },
    {
      "inputs": [
        {
          "internalType": "address",
          "name": "",
          "type": "address"
        }
      ],
      "name": "userStats",
      "outputs": [
        {
          "internalType": "uint256",
          "name": "totalProtectedSwaps",
          "type": "uint256"
        },
        {
          "internalType": "uint256",
          "name": "threatsDetected",
          "type": "uint256"
        },
        {
          "internalType": "uint256",
          "name": "threatsBlocked",
          "type": "uint256"
        },
        {
          "internalType": "uint256",
          "name": "totalValueProtected",
          "type": "uint256"
        },
        {
          "internalType": "uint256",
          "name": "feesCollected",
          "type": "uint256"
        }
      ],
      "stateMutability": "view",
      "type": "function"
    },
    {
      "inputs": [
        {
          "internalType": "address",
          "name": "",
          "type": "address"
        }
      ],
      "name": "whitelistedTokens",
      "outputs": [
        {
          "internalType": "bool",
          "name": "",
          "type": "bool"
        }
      ],
      "stateMutability": "view",
      "type": "function"
    },
    {
      "stateMutability": "payable",
      "type": "receive"
    }
  ],
  "bytecode": "0x6080346200011857620017c6906001600160401b03601f38849003908101601f1916830190828211848310176200011d578084916040968794855283398101031262000118576200005e6020620000568462000133565b930162000133565b9160009260018455620000713362000148565b60646004556101f4600555600280546001600160a01b039384166001600160a01b03199182161790915560038054929093169116179055620000b33362000148565b82519060a08201908111828210176200010457829160809185528281528260208201528285820152826060820152015280600a5580600b5580600c5580600d55600e55516116349081620001928239f35b634e487b7160e01b83526041600452602483fd5b600080fd5b634e487b7160e01b600052604160045260246000fd5b51906001600160a01b03821682036200011857565b600180546001600160a01b039283166001600160a01b0319821681179092559091167f8be0079c531659141344cd1fd0a4f28419497f9722a3daafe3b4186f6b6457e0600080a356fe6040608081526004908136101561001d575b5050361561001b57005b005b600091823560e01c806316626ab914610bb75780631a7af54a14610b335780631c88705d14610b77578063207f4bee14610b5a5780632682a8fb14610b33578063363cb34d14610af057806336ab059214610a705780634e43603a146109c85780635b0f93171461096b57806361d027b3146109425780636b4169c3146108ba578063715018a61461085d5780638a65d874146107e95780638a855a74146106475780638da5cb5b1461061e5783816395ccea671461052e57508063b5af090f1461030d578063b899dd7c146104b2578063bd9ce64814610493578063c2200e3c14610419578063ce01730a1461034b578063daf9c2101461030d578063e4dc4efc146102c0578063e4e20d6314610293578063f0f44260146102135763f2fde38b1461014a5750610011565b3461020f57602036600319011261020f57610163610c70565b9061016c610cab565b6001600160a01b039182169283156101bd575050600154826001600160601b0360a01b821617600155167f8be0079c531659141344cd1fd0a4f28419497f9722a3daafe3b4186f6b6457e08380a380f35b906020608492519162461bcd60e51b8352820152602660248201527f4f776e61626c653a206e6577206f776e657220697320746865207a65726f206160448201526564647265737360d01b6064820152fd5b8280fd5b503461020f57602036600319011261020f5761022d610c70565b610235610cab565b6001600160a01b031691821561025d5750506001600160601b0360a01b600354161760035580f35b906020606492519162461bcd60e51b8352820152601060248201526f496e76616c696420747265617375727960801b6044820152fd5b5050346102bc57816003193601126102bc5760025490516001600160a01b039091168152602090f35b5080fd5b82843461030a578060031936011261030a5750600a54600b54600c54600d54600e549451938452602084019290925260408301526060820152608081019190915260a090f35b0390f35b80fd5b5050346102bc5760203660031901126102bc5760209160ff9082906001600160a01b03610338610c70565b1681526008855220541690519015158152f35b50903461020f578060031936011261020f57610365610c70565b6024359167ffffffffffffffff93848411610415573660238501121561041557830135938411610411573660248585010111610411577f1563b77cf90dc5239369e59f415971492f0001ebea4f20a7f58d55eb638b5504926024926103c8610cab565b60018060a01b031694858752600660205282872060ff1981541690558083519485936020855282602086015201848401378181018301879052601f01601f19168101030190a280f35b8480fd5b8580fd5b5050346102bc5760203660031901126102bc5760a09181906001600160a01b03610441610c70565b1681526006602052209081549160ff8360081c169160018201549060ff60036002850154940154169360ff825196161515865261047d81610c8b565b6020860152840152606083015215156080820152f35b5050346102bc57816003193601126102bc576020906005549051908152f35b50829060e03660031901126102bc5760028254146104eb57506002815560016104d9610dda565b91909255825191151582526020820152f35b606490602084519162461bcd60e51b8352820152601f60248201527f5265656e7472616e637947756172643a207265656e7472616e742063616c6c006044820152fd5b919050346102bc57826003193601126102bc57610549610c70565b60243591610555610cab565b6001600160a01b03918216908161059657505082809281926001541682821561058d575bf115610583575080f35b51903d90823e3d90fd5b506108fc610579565b600154865163a9059cbb60e01b815293166001600160a01b03169083019081526020808201949094529194938592839190829060400103925af190811561061557506105e0575080f35b6020813d821161060d575b816105f860209383610d35565b810103126102bc5761060990610d9b565b5080f35b3d91506105eb565b513d84823e3d90fd5b5050346102bc57816003193601126102bc5760015490516001600160a01b039091168152602090f35b50903461020f57608036600319011261020f57813591808310156107e5576024359060443590606435908115158092036107e1576103e884116107aa57620186a083106107735750839291600361075a927f9004b23454d66e9fa27ec483da407e6f3cd2a1b42f3ffe32ab8869b6788001b39651926106c584610d03565b60018452602084016106d68a610c8b565b898152878501908782526060860192835260808601938452338c526006602052610712898d2096511515879060ff801983541691151516179055565b5161071c81610c8b565b61072581610c8b565b61ff0086549160081b169061ff00191617855551600185015551600284015551151591019060ff801983541691151516179055565b81519361076681610c8b565b845260208401523392a280f35b606490602086519162461bcd60e51b83528201526011602482015270476173206c696d697420746f6f206c6f7760781b6044820152fd5b606490602086519162461bcd60e51b835282015260116024820152700a6d8d2e0e0c2ceca40e8dede40d0d2ced607b1b6044820152fd5b8680fd5b8380fd5b50913461030a57602036600319011261030a576103069082906001600160a01b03610812610c70565b1681526007602052209182549260018101549460028201549060038301549201549251958695869192608093969594919660a084019784526020840152604083015260608201520152565b833461030a578060031936011261030a57610876610cab565b600180546001600160a01b0319811690915581906001600160a01b03167f8be0079c531659141344cd1fd0a4f28419497f9722a3daafe3b4186f6b6457e08280a380f35b5050346102bc57816003193601126102bc57610306906108d86115d3565b508051906108e582610d03565b600a548252600b546020830152600c5481830152600d546060830152600e546080830152519182918291909160808060a0830194805184526020810151602085015260408101516040850152606081015160608501520151910152565b5050346102bc57816003193601126102bc5760035490516001600160a01b039091168152602090f35b503461020f57602036600319011261020f57803591610988610cab565b600554831161099657505580f35b906020606492519162461bcd60e51b8352820152600c60248201526b08ccaca40e8dede40d0d2ced60a31b6044820152fd5b50903461020f57602036600319011261020f5780610306936109e8610c70565b6109f06115d3565b506001600160a01b0316815260076020522081519290610a0f84610d03565b80548452600181015460208501526002810154838501526003810154606085015201546080830152519182918291909160808060a0830194805184526020810151602085015260408101516040850152606081015160608501520151910152565b503461020f57602036600319011261020f57610a8a610c70565b610a92610cab565b6001600160a01b0316918215610aba5750506001600160601b0360a01b600254161760025580f35b906020606492519162461bcd60e51b8352820152601060248201526f24b73b30b634b2103232ba32b1ba37b960811b6044820152fd5b5050346102bc5760203660031901126102bc57610b0b610c70565b610b13610cab565b6001600160a01b0316825260086020528120805460ff1916600117905580f35b503461020f57602036600319011261020f5760209282913581526009845220549051908152f35b503461020f578260031936011261020f5760209250549051908152f35b5050346102bc5760203660031901126102bc57610b92610c70565b610b9a610cab565b6001600160a01b0316825260086020528120805460ff1916905580f35b5050346102bc5760203660031901126102bc578060a092610bd6610c70565b610bde6115d3565b50600180861b0316815260066020522090805191610bfb83610d03565b60ff81548181161515855260081c16916020840192610c1981610c8b565b8352600182015481850190815260ff60036002850154946060880195865201541693608086019415158552825195511515865251610c5681610c8b565b602086015251908401525160608301525115156080820152f35b600435906001600160a01b0382168203610c8657565b600080fd5b60041115610c9557565b634e487b7160e01b600052602160045260246000fd5b6001546001600160a01b03163303610cbf57565b606460405162461bcd60e51b815260206004820152602060248201527f4f776e61626c653a2063616c6c6572206973206e6f7420746865206f776e65726044820152fd5b60a0810190811067ffffffffffffffff821117610d1f57604052565b634e487b7160e01b600052604160045260246000fd5b90601f8019910116810190811067ffffffffffffffff821117610d1f57604052565b15610d5e57565b60405162461bcd60e51b8152602060048201526015602482015274151bdad95b881b9bdd081dda1a5d195b1a5cdd1959605a1b6044820152606490fd5b51908115158203610c8657565b6000198114610db75760010190565b634e487b7160e01b600052601160045260246000fd5b91908201809211610db757565b4260a43510611232576044359081156111fc576000913383526020600681526040938481209260ff9586855416156111b95786600386015416611169575b60018060a01b039384600254169760843596876024848c875192838092630b0f222760e11b825260049e8f8301525afa90811561101e57889161113c575b5085519b8c9163db14839760e01b8352838c84015260248301523a604483015260609c8d91818b5a92606493f1801561101e578889928a926110ee575b50610e9f600a54610da8565b600a55338a5260078752878a20610eb68154610da8565b9055611031575b505050610ec981611301565b9a819991610f30575b50359587871680970361030a5760243597881680980361030a5750907fc1f1795ae4acb647f280e7b327456fc183dcf9b0b2aa91489025ef188cd48bad9392915460081c16908251948552610f2682610c8b565b8401523392a49190565b612710610f3e8354896112ee565b0490888a8380341015610ffe575b5050508235908a8216809203610ffa57610f6889600d54610dcd565b600d55610f7783600e54610dcd565b600e55338a52600787526003888b2001610f928a8254610dcd565b9055338a526007875283888b2001610fab848254610dcd565b9055602435928b8416809403610ff6578e917fb6389792332e8402cfc015f71558f4578fce3ab90c5e7bb2312fcb6de213b1cc918a51938c85528a8501528a8401523392a438610ed2565b8a80fd5b8980fd5b82809291819260035416828215611028575bf11561101e57888a83610f4c565b86513d8a823e3d90fd5b506108fc611010565b61103c600b54610da8565b600b55338952600786526001878a20016110568154610da8565b9055611069818387875460081c16611266565b15610ebd57939291995097507f739471936103e955bbfd4ded5f16cba877669bce0d9e5a83e4314f11209b86d4969a95506110a8600c95949554610da8565b600c55338b52600785526002848c20016110c28154610da8565b90555460081c16928251966110d681610c8b565b87528601526110e482610c8b565b8401523392a38190565b925050508b81813d8311611135575b6111078183610d35565b810103126111315761111881610d9b565b9085810151908b821015610ffa57870151909138610e93565b8780fd5b503d6110fd565b90508481813d8311611162575b6111538183610d35565b81010312611131575138610e56565b503d611149565b6001600160a01b036004358181169081900361041157845260088552611193888386205416610d57565b6024359081168091036107e5578352600884526111b4878285205416610d57565b610e18565b5162461bcd60e51b815260048101849052601960248201527f50726f74656374696f6e206e6f7420636f6e66696775726564000000000000006044820152606490fd5b60405162461bcd60e51b815260206004820152600e60248201526d125b9d985b1a5908185b5bdd5b9d60921b6044820152606490fd5b60405162461bcd60e51b815260206004820152600c60248201526b14ddd85c08195e1c1a5c995960a21b6044820152606490fd5b61126f81610c8b565b8061127c57505050600190565b61128581610c8b565b6001810361129557505050600090565b61129e81610c8b565b600281036112d057506112ba916112b491611564565b42610dcd565b6084356000526009602052604060002055600190565b9050600391506112df81610c8b565b146112e957600090565b600090565b81810292918115918404141715610db757565b6001600160a01b03600480358281169493929190859003610c86576044356040908151966323b872dd60e01b88523384890152306024890152816044890152602093600096858a6064818b875af180156115255761152f575b6024995085876002541686519b8c8092630b0f222760e11b8252608435878301525afa998a1561152557889a6114f6575b50670de0b6b3a7640000806113a08c876112ee565b049a6064358c106114bc576113b590866112ee565b048a8111156114b2578a810381811161149f57612710808202918204148c8314171561149f57811561148c5704906001905b01541061140557505050505060c4359081160361030a575060019190565b835163a9059cbb60e01b815233918101918252602082019390935295975090949293509091839185918290899082906040015b03925af1908115611483575061144f575b50508190565b81813d831161147c575b6114638183610d35565b8101031261020f5761147490610d9b565b503880611449565b503d611459565b513d86823e3d90fd5b634e487b7160e01b8a526012845260248afd5b634e487b7160e01b8a526011845260248afd5b50600188916113e7565b5050845163a9059cbb60e01b8152339281019283526020830194909452509597509094929350909183918591829089908290604001611438565b9099508581813d831161151e575b61150e8183610d35565b810103126111315751983861138b565b503d611504565b85513d8a823e3d90fd5b858a813d831161155d575b6115448183610d35565b810103126111315761155760249a610d9b565b5061135a565b503d61153a565b61156d81610c8b565b80611585575060649004601e0180601e11610db75790565b61158e81610c8b565b600181036115a9575060c89004600f0180600f11610db75790565b806115b5600292610c8b565b146115c05750600a90565b6101f4900460050180600511610db75790565b604051906115e082610d03565b6000608083828152826020820152826040820152826060820152015256fea2646970667358221220ed7b8423934f281cb928319c101ed39e49ba3ded4122f2025668d0c392be628764736f6c63430008140033",
  "linkReferences": {},
  "deployedLinkReferences": {}
}