{
  "_format": "hh-sol-artifact-1",
  "contractName": "MockDEXRouter",
  "sourceName": "contracts/MockDEXRouter.sol",
  "abi": [
    {
      "inputs": [],
      "stateMutability": "nonpayable",
      "type": "constructor"
    },
    {
      "anonymous": false,
      "inputs": [
        {
          "indexed": true,
          "internalType": "address",
          "name": "user",
          "type": "address"
        },
        {
          "indexed": false,
          "internalType": "uint256",
          "name": "riskScore",
          "type": "uint256"
        }
      ],
      "name": "MEVThreatDetected",
      "type": "event"
    },
    {
      "anonymous": false,
      "inputs": [
        {
          "indexed": true,
          "internalType": "string",
          "name": "pair",
          "type": "string"
        },
        {
          "indexed": false,
          "internalType": "uint256",
          "name": "newPrice",
          "type": "uint256"
        }
      ],
      "name": "PriceUpdated",
      "type": "event"
    },
    {
      "anonymous": false,
      "inputs": [
        {
          "indexed": true,
          "internalType": "address",
          "name": "user",
          "type": "address"
        },
        {
          "indexed": false,
          "internalType": "uint256",
          "name": "amountIn",
          "type": "uint256"
        },
        {
          "indexed": false,
          "internalType": "uint256",
          "name": "amountOut",
          "type": "uint256"
        },
        {
          "indexed": false,
          "internalType": "string[]",
          "name": "path",
          "type": "string[]"
        }
      ],
      "name": "SwapExecuted",
      "type": "event"
    },
    {
      "inputs": [
        {
          "internalType": "address",
          "name": "otherDex",
          "type": "address"
        },
        {
          "internalType": "uint256",
          "name": "amount",
          "type": "uint256"
        },
        {
          "internalType": "string[]",
          "name": "path",
          "type": "string[]"
        }
      ],
      "name": "arbitrageSwap",
      "outputs": [
        {
          "internalType": "bool",
          "name": "",
          "type": "bool"
        }
      ],
      "stateMutability": "nonpayable",
      "type": "function"
    },
    {
      "inputs": [
        {
          "internalType": "address",
          "name": "user",
          "type": "address"
        },
        {
          "internalType": "uint256",
          "name": "amount",
          "type": "uint256"
        },
        {
          "internalType": "uint256",
          "name": "gasPrice",
          "type": "uint256"
        }
      ],
      "name": "calculateMEVRisk",
      "outputs": [
        {
          "internalType": "uint256",
          "name": "riskScore",
          "type": "uint256"
        }
      ],
      "stateMutability": "view",
      "type": "function"
    },
    {
      "inputs": [
        {
          "internalType": "string",
          "name": "pair",
          "type": "string"
        }
      ],
      "name": "getPrice",
      "outputs": [
        {
          "internalType": "uint256",
          "name": "",
          "type": "uint256"
        }
      ],
      "stateMutability": "view",
      "type": "function"
    },
    {
      "inputs": [
        {
          "internalType": "address",
          "name": "",
          "type": "address"
        }
      ],
      "name": "mevProtected",
      "outputs": [
        {
          "internalType": "bool",
          "name": "",
          "type": "bool"
        }
      ],
      "stateMutability": "view",
      "type": "function"
    },
    {
      "inputs": [
        {
          "internalType": "string",
          "name": "",
          "type": "string"
        }
      ],
      "name": "prices",
      "outputs": [
        {
          "internalType": "uint256",
          "name": "",
          "type": "uint256"
        }
      ],
      "stateMutability": "view",
      "type": "function"
    },
    {
      "inputs": [
        {
          "internalType": "address",
          "name": "user",
          "type": "address"
        },
        {
          "internalType": "bool",
          "name": "protected",
          "type": "bool"
        }
      ],
      "name": "setMEVProtection",
      "outputs": [],
      "stateMutability": "nonpayable",
      "type": "function"
    },
    {
      "inputs": [
        {
          "internalType": "string",
          "name": "pair",
          "type": "string"
        },
        {
          "internalType": "uint256",
          "name": "price",
          "type": "uint256"
        }
      ],
      "name": "setPrice",
      "outputs": [],
      "stateMutability": "nonpayable",
      "type": "function"
    },
    {
      "inputs": [
        {
          "internalType": "uint256",
          "name": "amountIn",
          "type": "uint256"
        },
        {
          "internalType": "uint256",
          "name": "amountOutMin",
          "type": "uint256"
        },
        {
          "internalType": "string[]",
          "name": "path",
          "type": "string[]"
        },
        {
          "internalType": "address",
          "name": "to",
          "type": "address"
        },
        {
          "internalType": "uint256",
          "name": "deadline",
          "type": "uint256"
        }
      ],
      "name": "swapExactTokensForTokens",
      "outputs": [
        {
          "internalType": "uint256[]",
          "name": "amounts",
          "type": "uint256[]"
        }
      ],
      "stateMutability": "nonpayable",
      "type": "function"
    }
  ],
  "bytecode": "0x6080806040523461006157602881674554482f5553444360c01b686c6b935b8bbd40000093526000600882015220556601c6bf526340006028604051670aaa688865e8aa8960c31b8152600060088201522055604051610a5b90816100678239f35b600080fdfe6040608081526004908136101561001557600080fd5b6000803560e01c8063027ebaa91461068d57806322e01192146105f2578063524f3889146103d55780639e7f7fca146105be578063a18d005214610435578063c3825f4b146103d5578063eebbc26b146103975763f0ac385a1461007857600080fd5b346103945760a036600319011261039457604492833567ffffffffffffffff8111610390576100aa9036908301610799565b90606492833560018060a01b03811680910361038c578235936100cd3a86610920565b6046811161032a575042608435106102ff5760028151106102cf578051946100f486610781565b9588519661010290886106f2565b808752601f199061011290610781565b019660209586880198368a37826101288961083d565b526101328461083d565b519a878061013f87610860565b519d8d519e8f9180519081858501968792019161015b9261081a565b8201838101602f60f81b905281519182856021840192019161017c9261081a565b01039d60019e8f8101825260210161019490826106f2565b8d51809381925180926101a69261081a565b81018a81520301902054801561029f576101c9670de0b6b3a76400009186610870565b046101d38a610860565b526024356101e08a610860565b511061026057505050917f9d5425e332a9dd28ac94e5ce1d3dab735aee6539c8929d45e827341de257004d899592879461022a61021d8c9a610860565b51928a5193849384610899565b0390a28451948186019282875251809352850195925b82811061024d5785870386f35b8351875295810195928101928401610240565b8a5162461bcd60e51b8152918201889052601a60248301527f494e53554646494349454e545f4f55545055545f414d4f554e5400000000000090820152fd5b508a5162461bcd60e51b8152918201889052600d60248301526c14149250d157d393d517d4d155609a1b90820152fd5b865162461bcd60e51b8152602081860152600c60248201526b0929cac82989288bea082a8960a31b818a01528690fd5b865162461bcd60e51b815260208186015260076024820152661156141254915160ca1b818a01528690fd5b847213515597d5121491505517d111551150d51151606a1b8a60208b8b9581519081527f7e193569bc8188172005eb149928c1eabf1d56aead3e3a3e125866ae34f449d4833392a25162461bcd60e51b81529384015260136024840152820152fd5b5080fd5b8280fd5b80fd5b50903461038c57602036600319011261038c5760209160ff9082906001600160a01b036103c26106d7565b1681526001855220541690519015158152f35b50913461039057602036600319011261039057803567ffffffffffffffff81116104315760209361040d61042093869336910161072a565b908285519483868095519384920161081a565b820190815203019020549051908152f35b8380fd5b50346103945760603660031901126103945761044f6106d7565b506024359060443567ffffffffffffffff811161038c576104739036908601610799565b9061047d8261083d565b51946104ea61048b84610860565b51865197886104da602160209b8c95866104ae818401978881519384920161081a565b8201602f60f81b888201526104cb825180938a878501910161081a565b010360018101845201826106f2565b885193849283925192839161081a565b8101858152030190205491610401908184029184830414841517156105ab57506103e8900491821115610568575090670de0b6b3a764000061054d7f9d5425e332a9dd28ac94e5ce1d3dab735aee6539c8929d45e827341de257004d9385610870565b0461055e8551928392339684610899565b0390a25160018152f35b845162461bcd60e51b8152908101869052601860248201527f4e4f5f4152424954524147455f4f50504f5254554e49545900000000000000006044820152606490fd5b634e487b7160e01b815260118352602490fd5b50903461038c57606036600319011261038c576020906105dc6106d7565b506105eb604435602435610920565b9051908152f35b50913461039057816003193601126103905780359067ffffffffffffffff8211610431576106466020917f159e83f4712ba2552e68be9d848e49bf6dd35c24f19564ffd523b6549450a2f49336910161072a565b61067f602435918551908381519286818185019561066581838961081a565b81018c81520301902055865192839283925192839161081a565b81010390209351908152a280f35b50903461038c578060031936011261038c576106a76106d7565b90602435918215158093036104315760018060a01b03168352600160205282209060ff8019835416911617905580f35b600435906001600160a01b03821682036106ed57565b600080fd5b90601f8019910116810190811067ffffffffffffffff82111761071457604052565b634e487b7160e01b600052604160045260246000fd5b81601f820112156106ed5780359067ffffffffffffffff8211610714576040519261075f601f8401601f1916602001856106f2565b828452602083830101116106ed57816000926020809301838601378301015290565b67ffffffffffffffff81116107145760051b60200190565b9080601f830112156106ed578135906107b182610781565b926107bf60405194856106f2565b828452602092838086019160051b830101928084116106ed57848301915b8483106107ed5750505050505090565b823567ffffffffffffffff81116106ed57869161080f8484809489010161072a565b8152019201916107dd565b60005b83811061082d5750506000910152565b818101518382015260200161081d565b80511561084a5760200190565b634e487b7160e01b600052603260045260246000fd5b80516001101561084a5760400190565b8181029291811591840414171561088357565b634e487b7160e01b600052601160045260246000fd5b91606083019183526020908184015260606040840152835180925260808301928160808460051b8301019501936000915b8483106108da5750505050505090565b909192939495848080600193607f198682030187528a516109068151809281855285808601910161081a565b601f01601f191601019801969594919091019201906108ca565b90600080916409502f900081116000146109ed5750601e810180911161099457915b683635c9adc5dea000008111156109a85750906019810180911161099457905b60146064420610610971575090565b60148201809211610980575090565b634e487b7160e01b81526011600452602490fd5b634e487b7160e01b82526011600452602482fd5b68056bc75e2d631000008111156109cc575090600f81018091116109945790610962565b678ac7230489e8000010156109625790600581018091116109945790610962565b6406fc23ac00811115610a0c5750601481018091116109945791610942565b64059682f00090939193111561094257600a925061094256fea264697066735822122095b5e09381830ddeb07d7bb4ed4e9bebdb45f7aad11e01d65c0d4e0db1098dc864736f6c63430008140033",
  "linkReferences": {},
  "deployedLinkReferences": {}
}