{
  "_format": "hh-sol-artifact-1",
  "contractName": "MEVProtector",
  "sourceName": "contracts/MEVProtector.sol",
  "abi": [
    {
      "inputs": [
        {
          "internalType": "address",
          "name": "_aegilonToken",
          "type": "address"
        }
      ],
      "stateMutability": "nonpayable",
      "type": "constructor"
    },
    {
      "anonymous": false,
      "inputs": [
        {
          "indexed": true,
          "internalType": "bytes32",
          "name": "threatId",
          "type": "bytes32"
        },
        {
          "indexed": true,
          "internalType": "address",
          "name": "target",
          "type": "address"
        },
        {
          "indexed": true,
          "internalType": "address",
          "name": "attacker",
          "type": "address"
        },
        {
          "indexed": false,
          "internalType": "uint256",
          "name": "threatType",
          "type": "uint256"
        },
        {
          "indexed": false,
          "internalType": "uint256",
          "name": "timestamp",
          "type": "uint256"
        }
      ],
      "name": "MEVThreatDetected",
      "type": "event"
    },
    {
      "anonymous": false,
      "inputs": [
        {
          "indexed": true,
          "internalType": "bytes32",
          "name": "threatId",
          "type": "bytes32"
        },
        {
          "indexed": true,
          "internalType": "address",
          "name": "protectedUser",
          "type": "address"
        },
        {
          "indexed": false,
          "internalType": "uint256",
          "name": "savedAmount",
          "type": "uint256"
        },
        {
          "indexed": false,
          "internalType": "uint256",
          "name": "timestamp",
          "type": "uint256"
        }
      ],
      "name": "MEVThreatPrevented",
      "type": "event"
    },
    {
      "anonymous": false,
      "inputs": [
        {
          "indexed": true,
          "internalType": "string",
          "name": "symbol",
          "type": "string"
        },
        {
          "indexed": false,
          "internalType": "uint256",
          "name": "price",
          "type": "uint256"
        },
        {
          "indexed": false,
          "internalType": "uint256",
          "name": "timestamp",
          "type": "uint256"
        }
      ],
      "name": "OraclePriceUpdated",
      "type": "event"
    },
    {
      "anonymous": false,
      "inputs": [
        {
          "indexed": true,
          "internalType": "address",
          "name": "previousOwner",
          "type": "address"
        },
        {
          "indexed": true,
          "internalType": "address",
          "name": "newOwner",
          "type": "address"
        }
      ],
      "name": "OwnershipTransferred",
      "type": "event"
    },
    {
      "anonymous": false,
      "inputs": [
        {
          "indexed": false,
          "internalType": "address",
          "name": "account",
          "type": "address"
        }
      ],
      "name": "Paused",
      "type": "event"
    },
    {
      "anonymous": false,
      "inputs": [
        {
          "indexed": true,
          "internalType": "address",
          "name": "user",
          "type": "address"
        },
        {
          "indexed": false,
          "internalType": "uint256",
          "name": "level",
          "type": "uint256"
        }
      ],
      "name": "ProtectionActivated",
      "type": "event"
    },
    {
      "anonymous": false,
      "inputs": [
        {
          "indexed": true,
          "internalType": "address",
          "name": "user",
          "type": "address"
        }
      ],
      "name": "ProtectionDeactivated",
      "type": "event"
    },
    {
      "anonymous": false,
      "inputs": [
        {
          "indexed": true,
          "internalType": "address",
          "name": "reporter",
          "type": "address"
        },
        {
          "indexed": true,
          "internalType": "bytes32",
          "name": "threatId",
          "type": "bytes32"
        },
        {
          "indexed": false,
          "internalType": "uint256",
          "name": "reward",
          "type": "uint256"
        }
      ],
      "name": "ThreatReported",
      "type": "event"
    },
    {
      "anonymous": false,
      "inputs": [
        {
          "indexed": false,
          "internalType": "address",
          "name": "account",
          "type": "address"
        }
      ],
      "name": "Unpaused",
      "type": "event"
    },
    {
      "inputs": [],
      "name": "activateProtection",
      "outputs": [],
      "stateMutability": "nonpayable",
      "type": "function"
    },
    {
      "inputs": [],
      "name": "aegilonToken",
      "outputs": [
        {
          "internalType": "contract AegilonToken",
          "name": "",
          "type": "address"
        }
      ],
      "stateMutability": "view",
      "type": "function"
    },
    {
      "inputs": [],
      "name": "authorizedIndexer",
      "outputs": [
        {
          "internalType": "address",
          "name": "",
          "type": "address"
        }
      ],
      "stateMutability": "view",
      "type": "function"
    },
    {
      "inputs": [
        {
          "internalType": "string",
          "name": "symbol",
          "type": "string"
        },
        {
          "internalType": "uint256",
          "name": "currentPrice",
          "type": "uint256"
        }
      ],
      "name": "checkPriceAnomaly",
      "outputs": [
        {
          "internalType": "bool",
          "name": "isAnomaly",
          "type": "bool"
        }
      ],
      "stateMutability": "view",
      "type": "function"
    },
    {
      "inputs": [],
      "name": "deactivateProtection",
      "outputs": [],
      "stateMutability": "nonpayable",
      "type": "function"
    },
    {
      "inputs": [
        {
          "internalType": "address",
          "name": "target",
          "type": "address"
        },
        {
          "internalType": "address",
          "name": "attacker",
          "type": "address"
        },
        {
          "internalType": "uint8",
          "name": "threatType",
          "type": "uint8"
        },
        {
          "internalType": "bytes",
          "name": "transactionData",
          "type": "bytes"
        }
      ],
      "name": "detectMEVThreat",
      "outputs": [
        {
          "internalType": "bytes32",
          "name": "threatId",
          "type": "bytes32"
        }
      ],
      "stateMutability": "nonpayable",
      "type": "function"
    },
    {
      "inputs": [
        {
          "internalType": "bytes32",
          "name": "",
          "type": "bytes32"
        }
      ],
      "name": "detectedThreats",
      "outputs": [
        {
          "internalType": "bool",
          "name": "",
          "type": "bool"
        }
      ],
      "stateMutability": "view",
      "type": "function"
    },
    {
      "inputs": [
        {
          "internalType": "bytes32",
          "name": "threatId",
          "type": "bytes32"
        }
      ],
      "name": "getThreatData",
      "outputs": [
        {
          "components": [
            {
              "internalType": "address",
              "name": "target",
              "type": "address"
            },
            {
              "internalType": "address",
              "name": "attacker",
              "type": "address"
            },
            {
              "internalType": "enum MEVProtector.ThreatType",
              "name": "threatType",
              "type": "uint8"
            },
            {
              "internalType": "uint256",
              "name": "detectedAt",
              "type": "uint256"
            },
            {
              "internalType": "uint256",
              "name": "estimatedLoss",
              "type": "uint256"
            },
            {
              "internalType": "bool",
              "name": "prevented",
              "type": "bool"
            },
            {
              "internalType": "address",
              "name": "reporter",
              "type": "address"
            }
          ],
          "internalType": "struct MEVProtector.ThreatData",
          "name": "",
          "type": "tuple"
        }
      ],
      "stateMutability": "view",
      "type": "function"
    },
    {
      "inputs": [
        {
          "internalType": "address",
          "name": "user",
          "type": "address"
        }
      ],
      "name": "getUserProtectionStatus",
      "outputs": [
        {
          "internalType": "bool",
          "name": "protected",
          "type": "bool"
        },
        {
          "internalType": "uint256",
          "name": "level",
          "type": "uint256"
        },
        {
          "internalType": "uint256",
          "name": "reportsCount",
          "type": "uint256"
        },
        {
          "internalType": "uint256",
          "name": "preventedCount",
          "type": "uint256"
        }
      ],
      "stateMutability": "view",
      "type": "function"
    },
    {
      "inputs": [],
      "name": "goldkySubgraphURL",
      "outputs": [
        {
          "internalType": "string",
          "name": "",
          "type": "string"
        }
      ],
      "stateMutability": "view",
      "type": "function"
    },
    {
      "inputs": [
        {
          "internalType": "address",
          "name": "",
          "type": "address"
        }
      ],
      "name": "isProtected",
      "outputs": [
        {
          "internalType": "bool",
          "name": "",
          "type": "bool"
        }
      ],
      "stateMutability": "view",
      "type": "function"
    },
    {
      "inputs": [
        {
          "internalType": "string",
          "name": "",
          "type": "string"
        }
      ],
      "name": "lastOraclePrices",
      "outputs": [
        {
          "internalType": "uint256",
          "name": "",
          "type": "uint256"
        }
      ],
      "stateMutability": "view",
      "type": "function"
    },
    {
      "inputs": [
        {
          "internalType": "string",
          "name": "",
          "type": "string"
        }
      ],
      "name": "lastOracleUpdate",
      "outputs": [
        {
          "internalType": "uint256",
          "name": "",
          "type": "uint256"
        }
      ],
      "stateMutability": "view",
      "type": "function"
    },
    {
      "inputs": [
        {
          "internalType": "address",
          "name": "",
          "type": "address"
        }
      ],
      "name": "lastTransactionTime",
      "outputs": [
        {
          "internalType": "uint256",
          "name": "",
          "type": "uint256"
        }
      ],
      "stateMutability": "view",
      "type": "function"
    },
    {
      "inputs": [],
      "name": "minimumLiquidityForProtection",
      "outputs": [
        {
          "internalType": "uint256",
          "name": "",
          "type": "uint256"
        }
      ],
      "stateMutability": "view",
      "type": "function"
    },
    {
      "inputs": [],
      "name": "owner",
      "outputs": [
        {
          "internalType": "address",
          "name": "",
          "type": "address"
        }
      ],
      "stateMutability": "view",
      "type": "function"
    },
    {
      "inputs": [],
      "name": "pause",
      "outputs": [],
      "stateMutability": "nonpayable",
      "type": "function"
    },
    {
      "inputs": [],
      "name": "paused",
      "outputs": [
        {
          "internalType": "bool",
          "name": "",
          "type": "bool"
        }
      ],
      "stateMutability": "view",
      "type": "function"
    },
    {
      "inputs": [],
      "name": "priceDeviationThreshold",
      "outputs": [
        {
          "internalType": "uint256",
          "name": "",
          "type": "uint256"
        }
      ],
      "stateMutability": "view",
      "type": "function"
    },
    {
      "inputs": [
        {
          "internalType": "address",
          "name": "",
          "type": "address"
        }
      ],
      "name": "protectionLevel",
      "outputs": [
        {
          "internalType": "uint256",
          "name": "",
          "type": "uint256"
        }
      ],
      "stateMutability": "view",
      "type": "function"
    },
    {
      "inputs": [],
      "name": "protectionSuccessReward",
      "outputs": [
        {
          "internalType": "uint256",
          "name": "",
          "type": "uint256"
        }
      ],
      "stateMutability": "view",
      "type": "function"
    },
    {
      "inputs": [],
      "name": "renounceOwnership",
      "outputs": [],
      "stateMutability": "nonpayable",
      "type": "function"
    },
    {
      "inputs": [
        {
          "internalType": "bytes32",
          "name": "threatId",
          "type": "bytes32"
        }
      ],
      "name": "reportThreat",
      "outputs": [],
      "stateMutability": "nonpayable",
      "type": "function"
    },
    {
      "inputs": [
        {
          "internalType": "address",
          "name": "_indexer",
          "type": "address"
        }
      ],
      "name": "setAuthorizedIndexer",
      "outputs": [],
      "stateMutability": "nonpayable",
      "type": "function"
    },
    {
      "inputs": [
        {
          "internalType": "string",
          "name": "_url",
          "type": "string"
        }
      ],
      "name": "setGoldskySubgraphURL",
      "outputs": [],
      "stateMutability": "nonpayable",
      "type": "function"
    },
    {
      "inputs": [
        {
          "internalType": "uint256",
          "name": "_threshold",
          "type": "uint256"
        }
      ],
      "name": "setPriceDeviationThreshold",
      "outputs": [],
      "stateMutability": "nonpayable",
      "type": "function"
    },
    {
      "inputs": [
        {
          "internalType": "uint256",
          "name": "_reward",
          "type": "uint256"
        }
      ],
      "name": "setThreatReportReward",
      "outputs": [],
      "stateMutability": "nonpayable",
      "type": "function"
    },
    {
      "inputs": [
        {
          "internalType": "address",
          "name": "",
          "type": "address"
        }
      ],
      "name": "successfulPrevented",
      "outputs": [
        {
          "internalType": "uint256",
          "name": "",
          "type": "uint256"
        }
      ],
      "stateMutability": "view",
      "type": "function"
    },
    {
      "inputs": [],
      "name": "threatReportReward",
      "outputs": [
        {
          "internalType": "uint256",
          "name": "",
          "type": "uint256"
        }
      ],
      "stateMutability": "view",
      "type": "function"
    },
    {
      "inputs": [
        {
          "internalType": "address",
          "name": "",
          "type": "address"
        }
      ],
      "name": "threatReports",
      "outputs": [
        {
          "internalType": "uint256",
          "name": "",
          "type": "uint256"
        }
      ],
      "stateMutability": "view",
      "type": "function"
    },
    {
      "inputs": [
        {
          "internalType": "bytes32",
          "name": "",
          "type": "bytes32"
        }
      ],
      "name": "threats",
      "outputs": [
        {
          "internalType": "address",
          "name": "target",
          "type": "address"
        },
        {
          "internalType": "address",
          "name": "attacker",
          "type": "address"
        },
        {
          "internalType": "enum MEVProtector.ThreatType",
          "name": "threatType",
          "type": "uint8"
        },
        {
          "internalType": "uint256",
          "name": "detectedAt",
          "type": "uint256"
        },
        {
          "internalType": "uint256",
          "name": "estimatedLoss",
          "type": "uint256"
        },
        {
          "internalType": "bool",
          "name": "prevented",
          "type": "bool"
        },
        {
          "internalType": "address",
          "name": "reporter",
          "type": "address"
        }
      ],
      "stateMutability": "view",
      "type": "function"
    },
    {
      "inputs": [],
      "name": "timeWindowForDetection",
      "outputs": [
        {
          "internalType": "uint256",
          "name": "",
          "type": "uint256"
        }
      ],
      "stateMutability": "view",
      "type": "function"
    },
    {
      "inputs": [
        {
          "internalType": "address",
          "name": "",
          "type": "address"
        }
      ],
      "name": "transactionCount",
      "outputs": [
        {
          "internalType": "uint256",
          "name": "",
          "type": "uint256"
        }
      ],
      "stateMutability": "view",
      "type": "function"
    },
    {
      "inputs": [
        {
          "internalType": "address",
          "name": "newOwner",
          "type": "address"
        }
      ],
      "name": "transferOwnership",
      "outputs": [],
      "stateMutability": "nonpayable",
      "type": "function"
    },
    {
      "inputs": [],
      "name": "unpause",
      "outputs": [],
      "stateMutability": "nonpayable",
      "type": "function"
    },
    {
      "inputs": [
        {
          "internalType": "string",
          "name": "symbol",
          "type": "string"
        },
        {
          "internalType": "uint256",
          "name": "price",
          "type": "uint256"
        }
      ],
      "name": "updateOraclePrice",
      "outputs": [],
      "stateMutability": "nonpayable",
      "type": "function"
    },
    {
      "inputs": [],
      "name": "volumeAnomalyThreshold",
      "outputs": [
        {
          "internalType": "uint256",
          "name": "",
          "type": "uint256"
        }
      ],
      "stateMutability": "view",
      "type": "function"
    }
  ],
  "bytecode": "0x60803461014457601f611c4338819003918201601f19168301916001600160401b038311848410176101495780849260209460405283398101031261014457516001600160a01b038082169190828203610144576000543360018060a01b0319821617600055604051913391167f8be0079c531659141344cd1fd0a4f28419497f9722a3daafe3b4186f6b6457e0600080a3600180556002549260c86003556101f460045560058055683635c9adc5dea00000600655678ac7230489e80000601255674563918244f400006013551561010257506001600160a81b031990911660089190911b610100600160a81b031617600255604051611ae390816101608239f35b62461bcd60e51b815260206004820152601560248201527f496e76616c696420746f6b656e206164647265737300000000000000000000006044820152606490fd5b600080fd5b634e487b7160e01b600052604160045260246000fdfe608080604052600436101561001357600080fd5b600090813560e01c908163155ab637146116bb57508063289448101461155b57806329187cb71461152e5780632ff89351146114bd57806330251d6b14611495578063391227fb1461145c5780633d8687671461143e5780633e6b7473146113d55780633f4ba83a146113405780634b327429146111bb5780634fa0dbf914611035578063517ea55114610ad85780635c975abb14610ab55780635dcbf4a214610a975780636a330dfc14610a005780636aa0756f1461097b578063715018a61461092157806376584c0c146108e85780638456cb591461088d5780638da5cb5b1461086657806399be33751461082d578063aeca6fed146107f2578063b27dc01f1461073c578063b8fceb791461071e578063bd0f39d314610623578063c9a0fea2146105ea578063ce35de95146105ab578063cfea248f14610588578063d5595ba71461056a578063d7b85be3146104c0578063d9b33ad114610491578063e47ffac114610340578063e75b207314610307578063ee5b1bce146102de578063f2fde38b14610218578063fa596d32146101fa5763ff8ef107146101b857600080fd5b346101f75760203660031901126101f7576101d1611834565b6101d96118a7565b60018060a01b03166001600160601b0360a01b601154161760115580f35b80fd5b50346101f757806003193601126101f7576020600354604051908152f35b50346101f75760203660031901126101f757610232611834565b61023a6118a7565b6001600160a01b0390811690811561028a57600054826001600160601b0360a01b821617600055167f8be0079c531659141344cd1fd0a4f28419497f9722a3daafe3b4186f6b6457e0600080a380f35b60405162461bcd60e51b815260206004820152602660248201527f4f776e61626c653a206e6577206f776e657220697320746865207a65726f206160448201526564647265737360d01b6064820152608490fd5b50346101f757806003193601126101f7576011546040516001600160a01b039091168152602090f35b50346101f75760203660031901126101f7576020906040906001600160a01b0361032f611834565b168152600983522054604051908152f35b50346101f757806003193601126101f757610359611943565b6103616118ff565b60025460405163bc00fd6760e01b81523360048201529060209081908390602490829060081c6001600160a01b03165afa918215610486578392610453575b5081156103f9577f985e9aa4ba7a346bc73ecb280a306df5aca60437b7fa6e2e8902a06e25c516cf903384526007815260408420600160ff19825416179055600881528260408520556040519283523392a26001805580f35b6084906040519062461bcd60e51b82526004820152602d60248201527f496e73756666696369656e742041454720746f6b656e73207374616b6564206660448201526c37b910383937ba32b1ba34b7b760991b6064820152fd5b9080925081813d831161047f575b61046b818361177e565b8101031261047b575190386103a0565b8280fd5b503d610461565b6040513d85823e3d90fd5b50346101f75760203660031901126101f75760ff60406020926004358152600b84522054166040519015158152f35b50346101f757806003193601126101f757338152600760205260ff6040822054161561052d5733815260076020526040812060ff1981541690556008602052806040812055337fba75fd523ab0180ad119c4b7549bab9547803c091bbb56a7f3452dd90ed960a48280a280f35b60405162461bcd60e51b815260206004820152601560248201527450726f74656374696f6e206e6f742061637469766560581b6044820152606490fd5b50346101f757806003193601126101f7576020601354604051908152f35b50346101f75760203660031901126101f7576105a26118a7565b60043560125580f35b50346101f75760203660031901126101f75760209060ff906040906001600160a01b036105d6611834565b168152600784522054166040519015158152f35b50346101f75760203660031901126101f7576020906040906001600160a01b03610612611834565b168152600d83522054604051908152f35b50346101f757806003193601126101f7576040518190601054926106468461186d565b808352602080958185019360019182811690816000146106fe57506001146106a5575b5050505061067b82604094038361177e565b6106978351948593818552519283809286015285850190611811565b601f01601f19168101030190f35b92919550601083527f1b6847dc741a1b0cd08d278845f9d819d87b734759afb55fe2de5cb82a9ae6725b8284106106eb5750505082019092019161067b84604084610669565b80548685018801529286019281016106cf565b60ff1916865250505090151560051b830101925061067b84604084610669565b50346101f757806003193601126101f7576020600654604051908152f35b50346101f75760203660031901126101f75761079660408260e09360c0835161076481611762565b82815282602082015282858201528260608201528260808201528260a082015201526004358152601460205220611a16565b6040519060c060018060a01b03918281511684528260208201511660208501526107c86040820151604086019061184a565b606081015160608501526080810151608085015260a0810151151560a085015201511660c0820152f35b50346101f757602061081a81610807366117a0565b8160405193828580945193849201611811565b8101600f81520301902054604051908152f35b50346101f75760203660031901126101f7576020906040906001600160a01b03610855611834565b168152600a83522054604051908152f35b50346101f757806003193601126101f757546040516001600160a01b039091168152602090f35b50346101f757806003193601126101f7576108a66118a7565b6108ae6118ff565b600160ff1960025416176002557f62e78cea01bee320cd4e420270b5ea74000d11b0c9f74754ebdbfc544b05a2586020604051338152a180f35b50346101f75760203660031901126101f7576020906040906001600160a01b03610910611834565b168152600c83522054604051908152f35b50346101f757806003193601126101f75761093a6118a7565b600080546001600160a01b0319811682556001600160a01b03167f8be0079c531659141344cd1fd0a4f28419497f9722a3daafe3b4186f6b6457e08280a380f35b50346101f75760203660031901126101f757604060e091600435815260146020522060018060a01b03808254169160018101549060028101546109e06004600384015493015493604051968752858116602088015260ff604088019160a01c1661184a565b6060850152608084015260ff8116151560a084015260081c1660c0820152f35b50346101f75760407fb9405befe041b5b21277a25b6d9ea52beb031fdf565b9521766b510cf8498f97610a3236611705565b9391610a4960018060a01b03601154163314611999565b84835183838237602081858101600e8152030190205582518282823782810190600f82526020814293030190205581835192839283378101868152039020928151908152426020820152a280f35b50346101f757806003193601126101f7576020600454604051908152f35b50346101f757806003193601126101f757602060ff600254166040519015158152f35b50346101f75760803660031901126101f757610af2611834565b90602435906001600160a01b0382168203611030576044359060ff821682036101f75760643567ffffffffffffffff811161102c57610b359036906004016116d7565b610b4a60018060a01b03601154163314611999565b610ba3606960405183819460208301966001600160601b0319808d60601b1689528b60601b16603485015260ff60f81b8a60f81b166048850152426049850152848401378101868382015203604981018452018261177e565b51902092838252600b60205260ff604083205416610fe757600660ff84161015610fd35760009260ff8116610fa857683635c9adc5dea00000935b610f9457604051610bee81611762565b6001600160a01b0387811682528316602082019081526040820190610c1660ff8516836119e5565b4260608401526080830187905260a083018690523360c0840152878652601460205260408620835181546001600160a01b0319166001600160a01b03918216178255915160018201549351939192166006841015610f805790600492916affffffffffffffffffffff60a81b809560ff60a01b9060a01b169216171760018201556060840151600282015560808401516003820155019160a081015115159160ff84549260c0610100600160a81b0391015160081b169316911617179055848352600b602052604083209160ff199260018482541617905560ff6040519216825242602083015260018060a01b031690857f032c695ff241338aaf8e0988a670816fd8b2b5cadd7f8bd670bc0295c76b812d604060018060a01b038a1693a46001600160a01b03851682526007602052604082205460ff16610d5e575b602084604051908152f35b838252601460205260408220600281015415610f485780546001600160a01b03168084526007602052604084205460ff1615610f0c5783526008602052604083205460ff600183015460a01c166006811015610ef85780610ebf5750610dc5600292611a16565b5010155b15610d535783825260146020526001600460408420019182541617905560018060a01b0384168152600d60205260408120610e0481546119f1565b905560018060a01b0360025460081c16601354813b1561047b5760405163cf086d3f60e01b81526001600160a01b038716600482015260248101919091529082908290604490829084905af18015610eb457610ea0575b5050817f51afeab2617c3e51e78b872d528af4b0ba9165c1b588dc11dbfd36492831c13b60406020958151948552428786015260018060a01b031693a3388080610d53565b610eaa8291611738565b6101f75780610e5b565b6040513d84823e3d90fd5b60018103610edb5750610ed3600192611a16565b501015610dc9565b600303610eed57610ed3600392611a16565b610ed3600192611a16565b634e487b7160e01b85526021600452602485fd5b60405162461bcd60e51b815260206004820152601460248201527315185c99d95d081b9bdd081c1c9bdd1958dd195960621b6044820152606490fd5b60405162461bcd60e51b815260206004820152601060248201526f151a1c99585d081b9bdd08199bdd5b9960821b6044820152606490fd5b634e487b7160e01b88526021600452602488fd5b634e487b7160e01b83526021600452602483fd5b60ff8116600103610fc357681b1ae4d6e2ef50000093610bde565b68056bc75e2d6310000093610bde565b634e487b7160e01b82526021600452602482fd5b60405162461bcd60e51b815260206004820152601760248201527f54687265617420616c72656164792064657465637465640000000000000000006044820152606490fd5b5080fd5b600080fd5b50346101f75760208060031936011261102c5760043590611054611943565b818352600b815260ff60408420541615611181578183526014815260408320600401546001600160a01b039060081c8116331461113c578390338252600c8352604082206110a281546119f1565b905560025460081c16601254813b1561047b5760405163cf086d3f60e01b8152336004820152602481019190915291908290604490829084905af180156111315761111e575b507f2180129845d491246aae3ae02fc070bbb28e674858d201cfebc58661582c9740601254916040519283523392a36001805580f35b61112a90939193611738565b91386110e8565b6040513d86823e3d90fd5b60405162461bcd60e51b815260048101839052601b60248201527f43616e6e6f74207265706f7274206f776e20646574656374696f6e00000000006044820152606490fd5b6064906040519062461bcd60e51b825260048201526013602482015272151a1c99585d081b9bdd0819195d1958dd1959606a1b6044820152fd5b50346101f757602090816003193601126101f75767ffffffffffffffff60043581811161047b576111f09036906004016116d7565b916111f96118a7565b821161132c5761120a60105461186d565b601f81116112ce575b508293601f83116001146112505750928293829392611245575b50508160011b916000199060031b1c19161760105580f35b01359050388061122d565b601f198316947f1b6847dc741a1b0cd08d278845f9d819d87b734759afb55fe2de5cb82a9ae672929185905b8782106112b657505083600195961061129c575b505050811b0160105580f35b0135600019600384901b60f8161c19169055388080611290565b8060018496829495870135815501950192019061127c565b7f1b6847dc741a1b0cd08d278845f9d819d87b734759afb55fe2de5cb82a9ae672601f840160051c810191868510611322575b601f0160051c01905b8181106113175750611213565b84815560010161130a565b9091508190611301565b634e487b7160e01b83526041600452602483fd5b50346101f757806003193601126101f7576113596118a7565b60025460ff8116156113995760ff19166002557f5db9ee0a495bf2e6ff9c91a7834c1ba4fdd244a5e8aa4e537bd38aeae4b073aa6020604051338152a180f35b60405162461bcd60e51b815260206004820152601460248201527314185d5cd8589b194e881b9bdd081c185d5cd95960621b6044820152606490fd5b50346101f75760208060031936011261102c57608091906001600160a01b036113fc611834565b1682526007815260ff60408320541691600882526040812054600c835260408083205492600d8552205492604051941515855284015260408301526060820152f35b50346101f757806003193601126101f7576020601254604051908152f35b50346101f75760203660031901126101f7576020906040906001600160a01b03611484611834565b168152600883522054604051908152f35b50346101f75760206114aa81610807366117a0565b8101600e81520301902054604051908152f35b50346101f75760203660031901126101f7576004356114da6118a7565b6103e881116114e95760035580f35b60405162461bcd60e51b815260206004820152601b60248201527f5468726573686f6c642063616e6e6f74206578636565642031302500000000006044820152606490fd5b50346101f757806003193601126101f75760025460405160089190911c6001600160a01b03168152602090f35b50346101f75761156a36611705565b9060409392935181858237602081838101600e81520301902054938415611676578160206115af9261012c9460405193849283378101600f8152030190205442611a80565b101561163a578280821115611609576115c791611a80565b90612710918281029281840414901517156115f557506020916115e991611a8d565b60035410604051908152f35b634e487b7160e01b81526011600452602490fd5b9061161391611a80565b90612710918281029281840414901517156115f5575060209161163591611a8d565b6115e9565b60405162461bcd60e51b815260206004820152601460248201527313dc9858db19481c1c9a58d9481d1bdbc81bdb1960621b6044820152606490fd5b60405162461bcd60e51b815260206004820152601960248201527f4e6f206f7261636c6520707269636520617661696c61626c65000000000000006044820152606490fd5b90503461102c578160031936011261102c576020906005548152f35b9181601f840112156110305782359167ffffffffffffffff8311611030576020838186019501011161103057565b6040600319820112611030576004359067ffffffffffffffff821161103057611730916004016116d7565b909160243590565b67ffffffffffffffff811161174c57604052565b634e487b7160e01b600052604160045260246000fd5b60e0810190811067ffffffffffffffff82111761174c57604052565b90601f8019910116810190811067ffffffffffffffff82111761174c57604052565b60206003198201126110305767ffffffffffffffff600435818111611030578260238201121561103057806004013591821161174c57604051926117ee601f8401601f19166020018561177e565b828452602483830101116110305781600092602460209301838601378301015290565b60005b8381106118245750506000910152565b8181015183820152602001611814565b600435906001600160a01b038216820361103057565b9060068210156118575752565b634e487b7160e01b600052602160045260246000fd5b90600182811c9216801561189d575b602083101461188757565b634e487b7160e01b600052602260045260246000fd5b91607f169161187c565b6000546001600160a01b031633036118bb57565b606460405162461bcd60e51b815260206004820152602060248201527f4f776e61626c653a2063616c6c6572206973206e6f7420746865206f776e65726044820152fd5b60ff6002541661190b57565b60405162461bcd60e51b815260206004820152601060248201526f14185d5cd8589b194e881c185d5cd95960821b6044820152606490fd5b600260015414611954576002600155565b60405162461bcd60e51b815260206004820152601f60248201527f5265656e7472616e637947756172643a207265656e7472616e742063616c6c006044820152606490fd5b156119a057565b60405162461bcd60e51b815260206004820152601760248201527f4f6e6c7920617574686f72697a656420696e64657865720000000000000000006044820152606490fd5b60068210156118575752565b6000198114611a005760010190565b634e487b7160e01b600052601160045260246000fd5b90604051611a2381611762565b60c08193600460018060a01b0391828154168552611a5660ff6001830154858116602089015260a01c16604087016119e5565b6002810154606086015260038101546080860152015460ff8116151560a085015260081c16910152565b91908203918211611a0057565b8115611a97570490565b634e487b7160e01b600052601260045260246000fdfea2646970667358221220d0010b093abe96b450c3b6f3ec939d63f29aa2a654415a854472e432689753f664736f6c63430008140033",
  "linkReferences": {},
  "deployedLinkReferences": {}
}